{"abi":[{"type":"constructor","inputs":[{"name":"_asset","type":"address","internalType":"contract IERC20"},{"name":"_strategyManager","type":"address","internalType":"address"}],"stateMutability":"nonpayable"},{"type":"function","name":"allowance","inputs":[{"name":"owner","type":"address","internalType":"address"},{"name":"spender","type":"address","internalType":"address"}],"outputs":[{"name":"","type":"uint256","internalType":"uint256"}],"stateMutability":"view"},{"type":"function","name":"approve","inputs":[{"name":"spender","type":"address","internalType":"address"},{"name":"value","type":"uint256","internalType":"uint256"}],"outputs":[{"name":"","type":"bool","internalType":"bool"}],"stateMutability":"nonpayable"},{"type":"function","name":"asset","inputs":[],"outputs":[{"name":"","type":"address","internalType":"address"}],"stateMutability":"view"},{"type":"function","name":"balanceOf","inputs":[{"name":"account","type":"address","internalType":"address"}],"outputs":[{"name":"","type":"uint256","internalType":"uint256"}],"stateMutability":"view"},{"type":"function","name":"convertToAssets","inputs":[{"name":"shares","type":"uint256","internalType":"uint256"}],"outputs":[{"name":"","type":"uint256","internalType":"uint256"}],"stateMutability":"view"},{"type":"function","name":"convertToShares","inputs":[{"name":"assets","type":"uint256","internalType":"uint256"}],"outputs":[{"name":"","type":"uint256","internalType":"uint256"}],"stateMutability":"view"},{"type":"function","name":"decimals","inputs":[],"outputs":[{"name":"","type":"uint8","internalType":"uint8"}],"stateMutability":"view"},{"type":"function","name":"deposit","inputs":[{"name":"assets","type":"uint256","internalType":"uint256"},{"name":"receiver","type":"address","internalType":"address"}],"outputs":[{"name":"","type":"uint256","internalType":"uint256"}],"stateMutability":"nonpayable"},{"type":"function","name":"emergencyWithdrawAll","inputs":[],"outputs":[],"stateMutability":"nonpayable"},{"type":"function","name":"estimatedVaultAPY","inputs":[],"outputs":[{"name":"","type":"uint256","internalType":"uint256"}],"stateMutability":"view"},{"type":"function","name":"feeRecipient","inputs":[],"outputs":[{"name":"","type":"address","internalType":"address"}],"stateMutability":"view"},{"type":"function","name":"getStrategyAPYs","inputs":[],"outputs":[{"name":"strategyAddresses","type":"address[]","internalType":"address[]"},{"name":"apys","type":"uint256[]","internalType":"uint256[]"}],"stateMutability":"view"},{"type":"function","name":"getStrategyBalances","inputs":[],"outputs":[{"name":"strategyAddresses","type":"address[]","internalType":"address[]"},{"name":"balances","type":"uint256[]","internalType":"uint256[]"}],"stateMutability":"view"},{"type":"function","name":"getVaultStats","inputs":[],"outputs":[{"name":"totalDeposited_","type":"uint256","internalType":"uint256"},{"name":"totalWithdrawn_","type":"uint256","internalType":"uint256"},{"name":"totalAssets_","type":"uint256","internalType":"uint256"},{"name":"totalShares","type":"uint256","internalType":"uint256"}],"stateMutability":"view"},{"type":"function","name":"harvestAll","inputs":[],"outputs":[{"name":"","type":"uint256","internalType":"uint256"}],"stateMutability":"nonpayable"},{"type":"function","name":"lastRebalance","inputs":[],"outputs":[{"name":"","type":"uint256","internalType":"uint256"}],"stateMutability":"view"},{"type":"function","name":"maxDeposit","inputs":[{"name":"","type":"address","internalType":"address"}],"outputs":[{"name":"","type":"uint256","internalType":"uint256"}],"stateMutability":"view"},{"type":"function","name":"maxMint","inputs":[{"name":"","type":"address","internalType":"address"}],"outputs":[{"name":"","type":"uint256","internalType":"uint256"}],"stateMutability":"view"},{"type":"function","name":"maxRedeem","inputs":[{"name":"owner","type":"address","internalType":"address"}],"outputs":[{"name":"","type":"uint256","internalType":"uint256"}],"stateMutability":"view"},{"type":"function","name":"maxWithdraw","inputs":[{"name":"owner","type":"address","internalType":"address"}],"outputs":[{"name":"","type":"uint256","internalType":"uint256"}],"stateMutability":"view"},{"type":"function","name":"mint","inputs":[{"name":"shares","type":"uint256","internalType":"uint256"},{"name":"receiver","type":"address","internalType":"address"}],"outputs":[{"name":"","type":"uint256","internalType":"uint256"}],"stateMutability":"nonpayable"},{"type":"function","name":"name","inputs":[],"outputs":[{"name":"","type":"string","internalType":"string"}],"stateMutability":"view"},{"type":"function","name":"owner","inputs":[],"outputs":[{"name":"","type":"address","internalType":"address"}],"stateMutability":"view"},{"type":"function","name":"pause","inputs":[],"outputs":[],"stateMutability":"nonpayable"},{"type":"function","name":"paused","inputs":[],"outputs":[{"name":"","type":"bool","internalType":"bool"}],"stateMutability":"view"},{"type":"function","name":"performanceFee","inputs":[],"outputs":[{"name":"","type":"uint256","internalType":"uint256"}],"stateMutability":"view"},{"type":"function","name":"previewDeposit","inputs":[{"name":"assets","type":"uint256","internalType":"uint256"}],"outputs":[{"name":"","type":"uint256","internalType":"uint256"}],"stateMutability":"view"},{"type":"function","name":"previewMint","inputs":[{"name":"shares","type":"uint256","internalType":"uint256"}],"outputs":[{"name":"","type":"uint256","internalType":"uint256"}],"stateMutability":"view"},{"type":"function","name":"previewRedeem","inputs":[{"name":"shares","type":"uint256","internalType":"uint256"}],"outputs":[{"name":"","type":"uint256","internalType":"uint256"}],"stateMutability":"view"},{"type":"function","name":"previewWithdraw","inputs":[{"name":"assets","type":"uint256","internalType":"uint256"}],"outputs":[{"name":"","type":"uint256","internalType":"uint256"}],"stateMutability":"view"},{"type":"function","name":"rebalance","inputs":[],"outputs":[],"stateMutability":"nonpayable"},{"type":"function","name":"rebalanceInterval","inputs":[],"outputs":[{"name":"","type":"uint256","internalType":"uint256"}],"stateMutability":"view"},{"type":"function","name":"redeem","inputs":[{"name":"shares","type":"uint256","internalType":"uint256"},{"name":"receiver","type":"address","internalType":"address"},{"name":"owner","type":"address","internalType":"address"}],"outputs":[{"name":"","type":"uint256","internalType":"uint256"}],"stateMutability":"nonpayable"},{"type":"function","name":"renounceOwnership","inputs":[],"outputs":[],"stateMutability":"nonpayable"},{"type":"function","name":"setFeeRecipient","inputs":[{"name":"_recipient","type":"address","internalType":"address"}],"outputs":[],"stateMutability":"nonpayable"},{"type":"function","name":"setPerformanceFee","inputs":[{"name":"_fee","type":"uint256","internalType":"uint256"}],"outputs":[],"stateMutability":"nonpayable"},{"type":"function","name":"setRebalanceInterval","inputs":[{"name":"_interval","type":"uint256","internalType":"uint256"}],"outputs":[],"stateMutability":"nonpayable"},{"type":"function","name":"setWithdrawalFee","inputs":[{"name":"_fee","type":"uint256","internalType":"uint256"}],"outputs":[],"stateMutability":"nonpayable"},{"type":"function","name":"strategyManager","inputs":[],"outputs":[{"name":"","type":"address","internalType":"contract StrategyManager"}],"stateMutability":"view"},{"type":"function","name":"symbol","inputs":[],"outputs":[{"name":"","type":"string","internalType":"string"}],"stateMutability":"view"},{"type":"function","name":"totalAssets","inputs":[],"outputs":[{"name":"","type":"uint256","internalType":"uint256"}],"stateMutability":"view"},{"type":"function","name":"totalDeposited","inputs":[],"outputs":[{"name":"","type":"uint256","internalType":"uint256"}],"stateMutability":"view"},{"type":"function","name":"totalSupply","inputs":[],"outputs":[{"name":"","type":"uint256","internalType":"uint256"}],"stateMutability":"view"},{"type":"function","name":"totalWithdrawn","inputs":[],"outputs":[{"name":"","type":"uint256","internalType":"uint256"}],"stateMutability":"view"},{"type":"function","name":"transfer","inputs":[{"name":"to","type":"address","internalType":"address"},{"name":"value","type":"uint256","internalType":"uint256"}],"outputs":[{"name":"","type":"bool","internalType":"bool"}],"stateMutability":"nonpayable"},{"type":"function","name":"transferFrom","inputs":[{"name":"from","type":"address","internalType":"address"},{"name":"to","type":"address","internalType":"address"},{"name":"value","type":"uint256","internalType":"uint256"}],"outputs":[{"name":"","type":"bool","internalType":"bool"}],"stateMutability":"nonpayable"},{"type":"function","name":"transferOwnership","inputs":[{"name":"newOwner","type":"address","internalType":"address"}],"outputs":[],"stateMutability":"nonpayable"},{"type":"function","name":"unpause","inputs":[],"outputs":[],"stateMutability":"nonpayable"},{"type":"function","name":"withdraw","inputs":[{"name":"assets","type":"uint256","internalType":"uint256"},{"name":"receiver","type":"address","internalType":"address"},{"name":"owner","type":"address","internalType":"address"}],"outputs":[{"name":"","type":"uint256","internalType":"uint256"}],"stateMutability":"nonpayable"},{"type":"function","name":"withdrawalFee","inputs":[],"outputs":[{"name":"","type":"uint256","internalType":"uint256"}],"stateMutability":"view"},{"type":"event","name":"Approval","inputs":[{"name":"owner","type":"address","indexed":true,"internalType":"address"},{"name":"spender","type":"address","indexed":true,"internalType":"address"},{"name":"value","type":"uint256","indexed":false,"internalType":"uint256"}],"anonymous":false},{"type":"event","name":"Deposit","inputs":[{"name":"sender","type":"address","indexed":true,"internalType":"address"},{"name":"owner","type":"address","indexed":true,"internalType":"address"},{"name":"assets","type":"uint256","indexed":false,"internalType":"uint256"},{"name":"shares","type":"uint256","indexed":false,"internalType":"uint256"}],"anonymous":false},{"type":"event","name":"Deposited","inputs":[{"name":"user","type":"address","indexed":true,"internalType":"address"},{"name":"assets","type":"uint256","indexed":false,"internalType":"uint256"},{"name":"shares","type":"uint256","indexed":false,"internalType":"uint256"}],"anonymous":false},{"type":"event","name":"EmergencyWithdraw","inputs":[{"name":"amount","type":"uint256","indexed":false,"internalType":"uint256"}],"anonymous":false},{"type":"event","name":"FeeRecipientUpdated","inputs":[{"name":"newRecipient","type":"address","indexed":true,"internalType":"address"}],"anonymous":false},{"type":"event","name":"FeesCollected","inputs":[{"name":"amount","type":"uint256","indexed":false,"internalType":"uint256"},{"name":"feeType","type":"string","indexed":false,"internalType":"string"}],"anonymous":false},{"type":"event","name":"Harvested","inputs":[{"name":"totalYield","type":"uint256","indexed":false,"internalType":"uint256"}],"anonymous":false},{"type":"event","name":"OwnershipTransferred","inputs":[{"name":"previousOwner","type":"address","indexed":true,"internalType":"address"},{"name":"newOwner","type":"address","indexed":true,"internalType":"address"}],"anonymous":false},{"type":"event","name":"Paused","inputs":[{"name":"account","type":"address","indexed":false,"internalType":"address"}],"anonymous":false},{"type":"event","name":"PerformanceFeeUpdated","inputs":[{"name":"newFee","type":"uint256","indexed":false,"internalType":"uint256"}],"anonymous":false},{"type":"event","name":"RebalanceIntervalUpdated","inputs":[{"name":"newInterval","type":"uint256","indexed":false,"internalType":"uint256"}],"anonymous":false},{"type":"event","name":"Rebalanced","inputs":[{"name":"timestamp","type":"uint256","indexed":false,"internalType":"uint256"},{"name":"totalAssets","type":"uint256","indexed":false,"internalType":"uint256"}],"anonymous":false},{"type":"event","name":"Transfer","inputs":[{"name":"from","type":"address","indexed":true,"internalType":"address"},{"name":"to","type":"address","indexed":true,"internalType":"address"},{"name":"value","type":"uint256","indexed":false,"internalType":"uint256"}],"anonymous":false},{"type":"event","name":"Unpaused","inputs":[{"name":"account","type":"address","indexed":false,"internalType":"address"}],"anonymous":false},{"type":"event","name":"Withdraw","inputs":[{"name":"sender","type":"address","indexed":true,"internalType":"address"},{"name":"receiver","type":"address","indexed":true,"internalType":"address"},{"name":"owner","type":"address","indexed":true,"internalType":"address"},{"name":"assets","type":"uint256","indexed":false,"internalType":"uint256"},{"name":"shares","type":"uint256","indexed":false,"internalType":"uint256"}],"anonymous":false},{"type":"event","name":"WithdrawalFeeUpdated","inputs":[{"name":"newFee","type":"uint256","indexed":false,"internalType":"uint256"}],"anonymous":false},{"type":"event","name":"Withdrawn","inputs":[{"name":"user","type":"address","indexed":true,"internalType":"address"},{"name":"assets","type":"uint256","indexed":false,"internalType":"uint256"},{"name":"shares","type":"uint256","indexed":false,"internalType":"uint256"}],"anonymous":false},{"type":"error","name":"ERC20InsufficientAllowance","inputs":[{"name":"spender","type":"address","internalType":"address"},{"name":"allowance","type":"uint256","internalType":"uint256"},{"name":"needed","type":"uint256","internalType":"uint256"}]},{"type":"error","name":"ERC20InsufficientBalance","inputs":[{"name":"sender","type":"address","internalType":"address"},{"name":"balance","type":"uint256","internalType":"uint256"},{"name":"needed","type":"uint256","internalType":"uint256"}]},{"type":"error","name":"ERC20InvalidApprover","inputs":[{"name":"approver","type":"address","internalType":"address"}]},{"type":"error","name":"ERC20InvalidReceiver","inputs":[{"name":"receiver","type":"address","internalType":"address"}]},{"type":"error","name":"ERC20InvalidSender","inputs":[{"name":"sender","type":"address","internalType":"address"}]},{"type":"error","name":"ERC20InvalidSpender","inputs":[{"name":"spender","type":"address","internalType":"address"}]},{"type":"error","name":"ERC4626ExceededMaxDeposit","inputs":[{"name":"receiver","type":"address","internalType":"address"},{"name":"assets","type":"uint256","internalType":"uint256"},{"name":"max","type":"uint256","internalType":"uint256"}]},{"type":"error","name":"ERC4626ExceededMaxMint","inputs":[{"name":"receiver","type":"address","internalType":"address"},{"name":"shares","type":"uint256","internalType":"uint256"},{"name":"max","type":"uint256","internalType":"uint256"}]},{"type":"error","name":"ERC4626ExceededMaxRedeem","inputs":[{"name":"owner","type":"address","internalType":"address"},{"name":"shares","type":"uint256","internalType":"uint256"},{"name":"max","type":"uint256","internalType":"uint256"}]},{"type":"error","name":"ERC4626ExceededMaxWithdraw","inputs":[{"name":"owner","type":"address","internalType":"address"},{"name":"assets","type":"uint256","internalType":"uint256"},{"name":"max","type":"uint256","internalType":"uint256"}]},{"type":"error","name":"EnforcedPause","inputs":[]},{"type":"error","name":"ExpectedPause","inputs":[]},{"type":"error","name":"OwnableInvalidOwner","inputs":[{"name":"owner","type":"address","internalType":"address"}]},{"type":"error","name":"OwnableUnauthorizedAccount","inputs":[{"name":"account","type":"address","internalType":"address"}]},{"type":"error","name":"ReentrancyGuardReentrantCall","inputs":[]},{"type":"error","name":"SafeERC20FailedOperation","inputs":[{"name":"token","type":"address","internalType":"address"}]}],"bytecode":{"object":"0x60e060405262015180600b556103e8600c556032600d55348015610021575f5ffd5b50604051615c5e380380615c5e83398181016040528101906100439190610517565b33826040518060400160405280601981526020017f496e7369676874205969656c64205661756c7420546f6b656e000000000000008152506040518060400160405280600781526020017f494e53494748540000000000000000000000000000000000000000000000000081525081600390816100c09190610792565b5080600490816100d09190610792565b5050505f5f6100e4836102b260201b60201c565b91509150816100f45760126100f6565b805b60ff1660a08160ff16815250508273ffffffffffffffffffffffffffffffffffffffff1660808173ffffffffffffffffffffffffffffffffffffffff16815250505050505f73ffffffffffffffffffffffffffffffffffffffff168173ffffffffffffffffffffffffffffffffffffffff16036101aa575f6040517f1e4fbdf70000000000000000000000000000000000000000000000000000000081526004016101a19190610870565b60405180910390fd5b6101b9816103bb60201b60201c565b5060016006819055505f73ffffffffffffffffffffffffffffffffffffffff168173ffffffffffffffffffffffffffffffffffffffff1603610230576040517f08c379a000000000000000000000000000000000000000000000000000000000815260040161022790610909565b60405180910390fd5b8073ffffffffffffffffffffffffffffffffffffffff1660c08173ffffffffffffffffffffffffffffffffffffffff168152505033600e5f6101000a81548173ffffffffffffffffffffffffffffffffffffffff021916908373ffffffffffffffffffffffffffffffffffffffff16021790555042600a8190555050506109e4565b5f5f5f5f8473ffffffffffffffffffffffffffffffffffffffff1660405160240160405160208183030381529060405263313ce56760e01b6020820180517bffffffffffffffffffffffffffffffffffffffffffffffffffffffff83818316178352505050506040516103259190610979565b5f60405180830381855afa9150503d805f811461035d576040519150601f19603f3d011682016040523d82523d5f602084013e610362565b606091505b509150915081801561037657506020815110155b156103ad575f8180602001905181019061039091906109b9565b905060ff801681116103ab57600181945094505050506103b6565b505b5f5f9350935050505b915091565b5f60055f9054906101000a900473ffffffffffffffffffffffffffffffffffffffff1690508160055f6101000a81548173ffffffffffffffffffffffffffffffffffffffff021916908373ffffffffffffffffffffffffffffffffffffffff1602179055508173ffffffffffffffffffffffffffffffffffffffff168173ffffffffffffffffffffffffffffffffffffffff167f8be0079c531659141344cd1fd0a4f28419497f9722a3daafe3b4186f6b6457e060405160405180910390a35050565b5f5ffd5b5f73ffffffffffffffffffffffffffffffffffffffff82169050919050565b5f6104ab82610482565b9050919050565b5f6104bc826104a1565b9050919050565b6104cc816104b2565b81146104d6575f5ffd5b50565b5f815190506104e7816104c3565b92915050565b6104f6816104a1565b8114610500575f5ffd5b50565b5f81519050610511816104ed565b92915050565b5f5f6040838503121561052d5761052c61047e565b5b5f61053a858286016104d9565b925050602061054b85828601610503565b9150509250929050565b5f81519050919050565b7f4e487b71000000000000000000000000000000000000000000000000000000005f52604160045260245ffd5b7f4e487b71000000000000000000000000000000000000000000000000000000005f52602260045260245ffd5b5f60028204905060018216806105d057607f821691505b6020821081036105e3576105e261058c565b5b50919050565b5f819050815f5260205f209050919050565b5f6020601f8301049050919050565b5f82821b905092915050565b5f600883026106457fffffffffffffffffffffffffffffffffffffffffffffffffffffffffffffffff8261060a565b61064f868361060a565b95508019841693508086168417925050509392505050565b5f819050919050565b5f819050919050565b5f61069361068e61068984610667565b610670565b610667565b9050919050565b5f819050919050565b6106ac83610679565b6106c06106b88261069a565b848454610616565b825550505050565b5f5f905090565b6106d76106c8565b6106e28184846106a3565b505050565b5b81811015610705576106fa5f826106cf565b6001810190506106e8565b5050565b601f82111561074a5761071b816105e9565b610724846105fb565b81016020851015610733578190505b61074761073f856105fb565b8301826106e7565b50505b505050565b5f82821c905092915050565b5f61076a5f198460080261074f565b1980831691505092915050565b5f610782838361075b565b9150826002028217905092915050565b61079b82610555565b67ffffffffffffffff8111156107b4576107b361055f565b5b6107be82546105b9565b6107c9828285610709565b5f60209050601f8311600181146107fa575f84156107e8578287015190505b6107f28582610777565b865550610859565b601f198416610808866105e9565b5f5b8281101561082f5784890151825560018201915060208501945060208101905061080a565b8683101561084c5784890151610848601f89168261075b565b8355505b6001600288020188555050505b505050505050565b61086a816104a1565b82525050565b5f6020820190506108835f830184610861565b92915050565b5f82825260208201905092915050565b7f5969656c645661756c743a20496e76616c6964207374726174656779206d616e5f8201527f6167657200000000000000000000000000000000000000000000000000000000602082015250565b5f6108f3602483610889565b91506108fe82610899565b604082019050919050565b5f6020820190508181035f830152610920816108e7565b9050919050565b5f81519050919050565b5f81905092915050565b8281835e5f83830152505050565b5f61095382610927565b61095d8185610931565b935061096d81856020860161093b565b80840191505092915050565b5f6109848284610949565b915081905092915050565b61099881610667565b81146109a2575f5ffd5b50565b5f815190506109b38161098f565b92915050565b5f602082840312156109ce576109cd61047e565b5b5f6109db848285016109a5565b91505092915050565b60805160a05160c0516151e0610a7e5f395f8181610bbe01528181610d6401528181610e030152818161114d015281816112810152818161148e015281816115c201528181612128015281816121ca0152818161255d015281816125fb01528181612c1501528181612cb401528181613024015281816130c20152818161337f015261342801525f610b6701525f610b9801526151e05ff3fe608060405234801561000f575f5ffd5b50600436106102d4575f3560e01c80637d7c2a1c11610180578063b3d7f6b9116100e7578063d905777e116100a0578063e74b981b1161007a578063e74b981b1461091b578063ef8b30f714610937578063f2fde38b14610967578063ff50abdc14610983576102d4565b8063d905777e146108b1578063dd191719146108e1578063dd62ed3e146108eb576102d4565b8063b3d7f6b914610791578063b460af94146107c1578063ba087652146107f1578063c63d75b614610821578063c6e6f59214610851578063ce96cb7714610881576102d4565b80638ed955b9116101395780638ed955b9146106b857806394bf804d146106d657806395d89b4114610706578063a59aa5a614610724578063a9059cbb14610745578063ac1e502514610775576102d4565b80637d7c2a1c1461062b5780638456cb5914610635578063877887821461063f57806389aabcfc1461065d5780638bc7e8c41461067c5780638da5cb5b1461069a576102d4565b80633f4ba83a1161023f5780635c975abb116101f857806370897b23116101d257806370897b23146105b657806370a08231146105d2578063715018a614610602578063796647761461060c576102d4565b80635c975abb1461054a57806361744085146105685780636e553f6514610586576102d4565b80633f4ba83a14610488578063402d267d1461049257806346904840146104c25780634b319713146104e05780634cdad506146104fe5780635b7dcaed1461052e576102d4565b806316d1d9161161029157806316d1d916146103c257806318160ddd146103e057806323b872dd146103fe578063313ce5671461042e57806338d52e0f1461044c57806339b70e381461046a576102d4565b806301e1d114146102d857806306fdde03146102f657806307a2d13a14610314578063095ea7b3146103445780630a28a47714610374578063106b9ca1146103a4575b5f5ffd5b6102e06109a1565b6040516102ed91906140e1565b60405180910390f35b6102fe610a42565b60405161030b919061416a565b60405180910390f35b61032e600480360381019061032991906141b8565b610ad2565b60405161033b91906140e1565b60405180910390f35b61035e6004803603810190610359919061423d565b610ae4565b60405161036b9190614295565b60405180910390f35b61038e600480360381019061038991906141b8565b610b06565b60405161039b91906140e1565b60405180910390f35b6103ac610b19565b6040516103b991906140e1565b60405180910390f35b6103ca610b1f565b6040516103d791906140e1565b60405180910390f35b6103e8610b25565b6040516103f591906140e1565b60405180910390f35b610418600480360381019061041391906142ae565b610b2e565b6040516104259190614295565b60405180910390f35b610436610b5c565b6040516104439190614319565b60405180910390f35b610454610b95565b6040516104619190614341565b60405180910390f35b610472610bbc565b60405161047f91906143b5565b60405180910390f35b610490610be0565b005b6104ac60048036038101906104a791906143ce565b610bf2565b6040516104b991906140e1565b60405180910390f35b6104ca610c1b565b6040516104d79190614341565b60405180910390f35b6104e8610c40565b6040516104f591906140e1565b60405180910390f35b610518600480360381019061051391906141b8565b610c46565b60405161052591906140e1565b60405180910390f35b610548600480360381019061054391906141b8565b610c58565b005b610552610d2c565b60405161055f9190614295565b60405180910390f35b610570610d41565b60405161057d91906140e1565b60405180910390f35b6105a0600480360381019061059b91906143f9565b610f68565b6040516105ad91906140e1565b60405180910390f35b6105d060048036038101906105cb91906141b8565b611061565b005b6105ec60048036038101906105e791906143ce565b6110ef565b6040516105f991906140e1565b60405180910390f35b61060a611134565b005b610614611147565b6040516106229291906145a5565b60405180910390f35b61063361145e565b005b61063d611470565b005b610647611482565b60405161065491906140e1565b60405180910390f35b610665611488565b6040516106739291906145a5565b60405180910390f35b61068461179f565b60405161069191906140e1565b60405180910390f35b6106a26117a5565b6040516106af9190614341565b60405180910390f35b6106c06117cd565b6040516106cd91906140e1565b60405180910390f35b6106f060048036038101906106eb91906143f9565b6117e3565b6040516106fd91906140e1565b60405180910390f35b61070e6118dc565b60405161071b919061416a565b60405180910390f35b61072c61196c565b60405161073c94939291906145da565b60405180910390f35b61075f600480360381019061075a919061423d565b611994565b60405161076c9190614295565b60405180910390f35b61078f600480360381019061078a91906141b8565b6119b6565b005b6107ab60048036038101906107a691906141b8565b611a44565b6040516107b891906140e1565b60405180910390f35b6107db60048036038101906107d6919061461d565b611a57565b6040516107e891906140e1565b60405180910390f35b61080b6004803603810190610806919061461d565b611d18565b60405161081891906140e1565b60405180910390f35b61083b600480360381019061083691906143ce565b6120b7565b60405161084891906140e1565b60405180910390f35b61086b600480360381019061086691906141b8565b6120e0565b60405161087891906140e1565b60405180910390f35b61089b600480360381019061089691906143ce565b6120f2565b6040516108a891906140e1565b60405180910390f35b6108cb60048036038101906108c691906143ce565b61210c565b6040516108d891906140e1565b60405180910390f35b6108e961211d565b005b6109056004803603810190610900919061466d565b61233b565b60405161091291906140e1565b60405180910390f35b610935600480360381019061093091906143ce565b6123bd565b005b610951600480360381019061094c91906141b8565b6124b9565b60405161095e91906140e1565b60405180910390f35b610981600480360381019061097c91906143ce565b6124cb565b005b61098b61254f565b60405161099891906140e1565b60405180910390f35b5f5f6109ab610b95565b73ffffffffffffffffffffffffffffffffffffffff166370a08231306040518263ffffffff1660e01b81526004016109e39190614341565b602060405180830381865afa1580156109fe573d5f5f3e3d5ffd5b505050506040513d601f19601f82011682018060405250810190610a2291906146bf565b90505f610a2d612555565b90508082610a3b9190614717565b9250505090565b606060038054610a5190614777565b80601f0160208091040260200160405190810160405280929190818152602001828054610a7d90614777565b8015610ac85780601f10610a9f57610100808354040283529160200191610ac8565b820191905f5260205f20905b815481529060010190602001808311610aab57829003601f168201915b5050505050905090565b5f610add825f612738565b9050919050565b5f5f610aee612790565b9050610afb818585612797565b600191505092915050565b5f610b128260016127a9565b9050919050565b600a5481565b600b5481565b5f600254905090565b5f5f610b38612790565b9050610b45858285612801565b610b50858585612894565b60019150509392505050565b5f610b65612984565b7f0000000000000000000000000000000000000000000000000000000000000000610b9091906147a7565b905090565b5f7f0000000000000000000000000000000000000000000000000000000000000000905090565b7f000000000000000000000000000000000000000000000000000000000000000081565b610be861298b565b610bf0612a12565b565b5f7fffffffffffffffffffffffffffffffffffffffffffffffffffffffffffffffff9050919050565b600e5f9054906101000a900473ffffffffffffffffffffffffffffffffffffffff1681565b60095481565b5f610c51825f612738565b9050919050565b610c6061298b565b610e10811015610ca5576040517f08c379a0000000000000000000000000000000000000000000000000000000008152600401610c9c90614825565b60405180910390fd5b62278d00811115610ceb576040517f08c379a0000000000000000000000000000000000000000000000000000000008152600401610ce29061488d565b60405180910390fd5b80600b819055507f2d56a506283276801ee653d2d0e9e513b43b393bc25009f1ea9272d4ca000ea681604051610d2191906140e1565b60405180910390a150565b5f60075f9054906101000a900460ff16905090565b5f5f610d4b6109a1565b90505f8103610d5d575f915050610f65565b5f5f90505f7f000000000000000000000000000000000000000000000000000000000000000073ffffffffffffffffffffffffffffffffffffffff166331e19cfa6040518163ffffffff1660e01b8152600401602060405180830381865afa158015610dcb573d5f5f3e3d5ffd5b505050506040513d601f19601f82011682018060405250810190610def91906146bf565b90505f5f90505b81811015610f5d575f5f5f7f000000000000000000000000000000000000000000000000000000000000000073ffffffffffffffffffffffffffffffffffffffff1663cfc0cc34856040518263ffffffff1660e01b8152600401610e5a91906140e1565b606060405180830381865afa158015610e75573d5f5f3e3d5ffd5b505050506040513d601f19601f82011682018060405250810190610e9991906148e9565b925092509250808015610eab57505f82115b15610f4c578273ffffffffffffffffffffffffffffffffffffffff1663f19993d76040518163ffffffff1660e01b8152600401602060405180830381865afa925050508015610f1857506040513d601f19601f82011682018060405250810190610f1591906146bf565b60015b610f2457505050610f50565b6127108382610f339190614939565b610f3d91906149a7565b87610f489190614717565b9650505b5050505b8080600101915050610df6565b508193505050505b90565b5f610f71612a73565b610f79612ab9565b5f8311610fbb576040517f08c379a0000000000000000000000000000000000000000000000000000000008152600401610fb290614a21565b60405180910390fd5b5f610fc68484612afa565b90508360085f828254610fd99190614717565b925050819055508273ffffffffffffffffffffffffffffffffffffffff167f73a19dd210f1a7f902193214c0ee91dd35ee5b4d920cba8d519eca65a7b488ca8583604051611028929190614a3f565b60405180910390a2600b54600a546110409190614717565b421061104f5761104e612b7a565b5b8091505061105b612eed565b92915050565b61106961298b565b6107d08111156110ae576040517f08c379a00000000000000000000000000000000000000000000000000000000081526004016110a590614ab0565b60405180910390fd5b80600c819055507f9b49d0cd76012d9c67241c2f68f836efbaf50ea29901a250040671402d5263f5816040516110e491906140e1565b60405180910390a150565b5f5f5f8373ffffffffffffffffffffffffffffffffffffffff1673ffffffffffffffffffffffffffffffffffffffff1681526020019081526020015f20549050919050565b61113c61298b565b6111455f612ef7565b565b6060805f7f000000000000000000000000000000000000000000000000000000000000000073ffffffffffffffffffffffffffffffffffffffff166331e19cfa6040518163ffffffff1660e01b8152600401602060405180830381865afa1580156111b4573d5f5f3e3d5ffd5b505050506040513d601f19601f820116820180604052508101906111d891906146bf565b90508067ffffffffffffffff8111156111f4576111f3614ace565b5b6040519080825280602002602001820160405280156112225781602001602082028036833780820191505090505b5092508067ffffffffffffffff81111561123f5761123e614ace565b5b60405190808252806020026020018201604052801561126d5781602001602082028036833780820191505090505b5091505f5f90505b81811015611458575f5f7f000000000000000000000000000000000000000000000000000000000000000073ffffffffffffffffffffffffffffffffffffffff1663cfc0cc34846040518263ffffffff1660e01b81526004016112d891906140e1565b606060405180830381865afa1580156112f3573d5f5f3e3d5ffd5b505050506040513d601f19601f8201168201806040525081019061131791906148e9565b9250509150818684815181106113305761132f614afb565b5b602002602001019073ffffffffffffffffffffffffffffffffffffffff16908173ffffffffffffffffffffffffffffffffffffffff16815250508015611428578173ffffffffffffffffffffffffffffffffffffffff1663f19993d76040518163ffffffff1660e01b8152600401602060405180830381865afa9250505080156113d857506040513d601f19601f820116820180604052508101906113d591906146bf565b60015b611401575f8584815181106113f0576113ef614afb565b5b602002602001018181525050611423565b8086858151811061141557611414614afb565b5b602002602001018181525050505b611449565b5f85848151811061143c5761143b614afb565b5b6020026020010181815250505b50508080600101915050611275565b50509091565b61146661298b565b61146e612b7a565b565b61147861298b565b611480612fba565b565b600c5481565b6060805f7f000000000000000000000000000000000000000000000000000000000000000073ffffffffffffffffffffffffffffffffffffffff166331e19cfa6040518163ffffffff1660e01b8152600401602060405180830381865afa1580156114f5573d5f5f3e3d5ffd5b505050506040513d601f19601f8201168201806040525081019061151991906146bf565b90508067ffffffffffffffff81111561153557611534614ace565b5b6040519080825280602002602001820160405280156115635781602001602082028036833780820191505090505b5092508067ffffffffffffffff8111156115805761157f614ace565b5b6040519080825280602002602001820160405280156115ae5781602001602082028036833780820191505090505b5091505f5f90505b81811015611799575f5f7f000000000000000000000000000000000000000000000000000000000000000073ffffffffffffffffffffffffffffffffffffffff1663cfc0cc34846040518263ffffffff1660e01b815260040161161991906140e1565b606060405180830381865afa158015611634573d5f5f3e3d5ffd5b505050506040513d601f19601f8201168201806040525081019061165891906148e9565b92505091508186848151811061167157611670614afb565b5b602002602001019073ffffffffffffffffffffffffffffffffffffffff16908173ffffffffffffffffffffffffffffffffffffffff16815250508015611769578173ffffffffffffffffffffffffffffffffffffffff1663722713f76040518163ffffffff1660e01b8152600401602060405180830381865afa92505050801561171957506040513d601f19601f8201168201806040525081019061171691906146bf565b60015b611742575f85848151811061173157611730614afb565b5b602002602001018181525050611764565b8086858151811061175657611755614afb565b5b602002602001018181525050505b61178a565b5f85848151811061177d5761177c614afb565b5b6020026020010181815250505b505080806001019150506115b6565b50509091565b600d5481565b5f60055f9054906101000a900473ffffffffffffffffffffffffffffffffffffffff16905090565b5f6117d661298b565b6117de61301c565b905090565b5f6117ec612a73565b6117f4612ab9565b5f8311611836576040517f08c379a000000000000000000000000000000000000000000000000000000000815260040161182d90614b72565b60405180910390fd5b5f61184184846132f8565b90508060085f8282546118549190614717565b925050819055508273ffffffffffffffffffffffffffffffffffffffff167f73a19dd210f1a7f902193214c0ee91dd35ee5b4d920cba8d519eca65a7b488ca82866040516118a3929190614a3f565b60405180910390a2600b54600a546118bb9190614717565b42106118ca576118c9612b7a565b5b809150506118d6612eed565b92915050565b6060600480546118eb90614777565b80601f016020809104026020016040519081016040528092919081815260200182805461191790614777565b80156119625780601f1061193957610100808354040283529160200191611962565b820191905f5260205f20905b81548152906001019060200180831161194557829003601f168201915b5050505050905090565b5f5f5f5f60085460095461197e6109a1565b611986610b25565b935093509350935090919293565b5f5f61199e612790565b90506119ab818585612894565b600191505092915050565b6119be61298b565b6101f4811115611a03576040517f08c379a00000000000000000000000000000000000000000000000000000000081526004016119fa90614ab0565b60405180910390fd5b80600d819055507fe94edcc114da5287ecb30ee8aacf12e6c16b11b8583d7f9e477ab1616e33d53d81604051611a3991906140e1565b60405180910390a150565b5f611a50826001612738565b9050919050565b5f611a60612a73565b5f8411611aa2576040517f08c379a0000000000000000000000000000000000000000000000000000000008152600401611a9990614bda565b60405180910390fd5b5f612710600d5486611ab49190614939565b611abe91906149a7565b90505f8186611acd9190614bf8565b90505f611ad8610b95565b73ffffffffffffffffffffffffffffffffffffffff166370a08231306040518263ffffffff1660e01b8152600401611b109190614341565b602060405180830381865afa158015611b2b573d5f5f3e3d5ffd5b505050506040513d601f19601f82011682018060405250810190611b4f91906146bf565b905086811015611b6e57611b6d8188611b689190614bf8565b613378565b5b5f611b7a883088613670565b90508760095f828254611b8d9190614717565b925050819055505f84118015611bf057505f73ffffffffffffffffffffffffffffffffffffffff16600e5f9054906101000a900473ffffffffffffffffffffffffffffffffffffffff1673ffffffffffffffffffffffffffffffffffffffff1614155b15611c8057611c48600e5f9054906101000a900473ffffffffffffffffffffffffffffffffffffffff1685611c23610b95565b73ffffffffffffffffffffffffffffffffffffffff166136f29092919063ffffffff16565b7fdfba92731fbb9afc3b23b557d4f5043609e05ea68af13a61a9ceb6e0bef6b42f84604051611c779190614c75565b60405180910390a15b611cb28784611c8d610b95565b73ffffffffffffffffffffffffffffffffffffffff166136f29092919063ffffffff16565b8673ffffffffffffffffffffffffffffffffffffffff167f92ccf450a286a957af52509bc1c9939d1a6a481783e142e41e2499f0bb66ebc68483604051611cfa929190614a3f565b60405180910390a280945050505050611d11612eed565b9392505050565b5f611d21612a73565b5f8411611d63576040517f08c379a0000000000000000000000000000000000000000000000000000000008152600401611d5a90614ceb565b60405180910390fd5b5f611d6d85610c46565b90505f611d78610b95565b73ffffffffffffffffffffffffffffffffffffffff166370a08231306040518263ffffffff1660e01b8152600401611db09190614341565b602060405180830381865afa158015611dcb573d5f5f3e3d5ffd5b505050506040513d601f19601f82011682018060405250810190611def91906146bf565b905081811015611e8f57611e0d8183611e089190614bf8565b613378565b611e15610b95565b73ffffffffffffffffffffffffffffffffffffffff166370a08231306040518263ffffffff1660e01b8152600401611e4d9190614341565b602060405180830381865afa158015611e68573d5f5f3e3d5ffd5b505050506040513d601f19601f82011682018060405250810190611e8c91906146bf565b90505b5f828210611e9d5782611e9f565b815b90505f8111611ee3576040517f08c379a0000000000000000000000000000000000000000000000000000000008152600401611eda90614d79565b60405180910390fd5b611eed8588613771565b5f612710600d5483611eff9190614939565b611f0991906149a7565b90505f8183611f189190614bf8565b90505f82118015611f7657505f73ffffffffffffffffffffffffffffffffffffffff16600e5f9054906101000a900473ffffffffffffffffffffffffffffffffffffffff1673ffffffffffffffffffffffffffffffffffffffff1614155b1561200657611fce600e5f9054906101000a900473ffffffffffffffffffffffffffffffffffffffff1683611fa9610b95565b73ffffffffffffffffffffffffffffffffffffffff166136f29092919063ffffffff16565b7fdfba92731fbb9afc3b23b557d4f5043609e05ea68af13a61a9ceb6e0bef6b42f82604051611ffd9190614c75565b60405180910390a15b6120388882612013610b95565b73ffffffffffffffffffffffffffffffffffffffff166136f29092919063ffffffff16565b8773ffffffffffffffffffffffffffffffffffffffff167f92ccf450a286a957af52509bc1c9939d1a6a481783e142e41e2499f0bb66ebc6828b604051612080929190614a3f565b60405180910390a28260095f8282546120999190614717565b9250508190555080955050505050506120b0612eed565b9392505050565b5f7fffffffffffffffffffffffffffffffffffffffffffffffffffffffffffffffff9050919050565b5f6120eb825f6127a9565b9050919050565b5f6121056120ff836110ef565b5f612738565b9050919050565b5f612116826110ef565b9050919050565b61212561298b565b5f7f000000000000000000000000000000000000000000000000000000000000000073ffffffffffffffffffffffffffffffffffffffff166331e19cfa6040518163ffffffff1660e01b8152600401602060405180830381865afa15801561218f573d5f5f3e3d5ffd5b505050506040513d601f19601f820116820180604052508101906121b391906146bf565b90505f5f90505f5f90505b828110156122ff575f5f7f000000000000000000000000000000000000000000000000000000000000000073ffffffffffffffffffffffffffffffffffffffff1663cfc0cc34846040518263ffffffff1660e01b815260040161222191906140e1565b606060405180830381865afa15801561223c573d5f5f3e3d5ffd5b505050506040513d601f19601f8201168201806040525081019061226091906148e9565b925050915080156122ef578173ffffffffffffffffffffffffffffffffffffffff1663853828b66040518163ffffffff1660e01b81526004016020604051808303815f875af19250505080156122d457506040513d601f19601f820116820180604052508101906122d191906146bf565b60015b6122df5750506122f2565b80856122eb9190614717565b9450505b50505b80806001019150506121be565b507f99d7f8b71cfb9126984f7a5eed3a40e64a8959e9b0e442221546fb04ec6a489c8160405161232f91906140e1565b60405180910390a15050565b5f60015f8473ffffffffffffffffffffffffffffffffffffffff1673ffffffffffffffffffffffffffffffffffffffff1681526020019081526020015f205f8373ffffffffffffffffffffffffffffffffffffffff1673ffffffffffffffffffffffffffffffffffffffff1681526020019081526020015f2054905092915050565b6123c561298b565b5f73ffffffffffffffffffffffffffffffffffffffff168173ffffffffffffffffffffffffffffffffffffffff1603612433576040517f08c379a000000000000000000000000000000000000000000000000000000000815260040161242a90614de1565b60405180910390fd5b80600e5f6101000a81548173ffffffffffffffffffffffffffffffffffffffff021916908373ffffffffffffffffffffffffffffffffffffffff1602179055508073ffffffffffffffffffffffffffffffffffffffff167f7a7b5a0a132f9e0581eb8527f66eae9ee89c2a3e79d4ac7e41a1f1f4d48a7fc260405160405180910390a250565b5f6124c4825f6127a9565b9050919050565b6124d361298b565b5f73ffffffffffffffffffffffffffffffffffffffff168173ffffffffffffffffffffffffffffffffffffffff1603612543575f6040517f1e4fbdf700000000000000000000000000000000000000000000000000000000815260040161253a9190614341565b60405180910390fd5b61254c81612ef7565b50565b60085481565b5f5f5f90505f7f000000000000000000000000000000000000000000000000000000000000000073ffffffffffffffffffffffffffffffffffffffff166331e19cfa6040518163ffffffff1660e01b8152600401602060405180830381865afa1580156125c4573d5f5f3e3d5ffd5b505050506040513d601f19601f820116820180604052508101906125e891906146bf565b90505f5f90505b8181101561272f575f5f7f000000000000000000000000000000000000000000000000000000000000000073ffffffffffffffffffffffffffffffffffffffff1663cfc0cc34846040518263ffffffff1660e01b815260040161265291906140e1565b606060405180830381865afa15801561266d573d5f5f3e3d5ffd5b505050506040513d601f19601f8201168201806040525081019061269191906148e9565b9250509150801561271f578173ffffffffffffffffffffffffffffffffffffffff1663722713f76040518163ffffffff1660e01b8152600401602060405180830381865afa92505050801561270457506040513d601f19601f8201168201806040525081019061270191906146bf565b60015b61270f575050612722565b808661271b9190614717565b9550505b50505b80806001019150506125ef565b50819250505090565b5f61278860016127466109a1565b6127509190614717565b612758612984565b600a6127649190614f2e565b61276c610b25565b6127769190614717565b84866137f0909392919063ffffffff16565b905092915050565b5f33905090565b6127a4838383600161383d565b505050565b5f6127f96127b5612984565b600a6127c19190614f2e565b6127c9610b25565b6127d39190614717565b60016127dd6109a1565b6127e79190614717565b84866137f0909392919063ffffffff16565b905092915050565b5f61280c848461233b565b90507fffffffffffffffffffffffffffffffffffffffffffffffffffffffffffffffff81101561288e578181101561287f578281836040517ffb8f41b200000000000000000000000000000000000000000000000000000000815260040161287693929190614f78565b60405180910390fd5b61288d84848484035f61383d565b5b50505050565b5f73ffffffffffffffffffffffffffffffffffffffff168373ffffffffffffffffffffffffffffffffffffffff1603612904575f6040517f96c6fd1e0000000000000000000000000000000000000000000000000000000081526004016128fb9190614341565b60405180910390fd5b5f73ffffffffffffffffffffffffffffffffffffffff168273ffffffffffffffffffffffffffffffffffffffff1603612974575f6040517fec442f0500000000000000000000000000000000000000000000000000000000815260040161296b9190614341565b60405180910390fd5b61297f838383613a0c565b505050565b5f5f905090565b612993612790565b73ffffffffffffffffffffffffffffffffffffffff166129b16117a5565b73ffffffffffffffffffffffffffffffffffffffff1614612a10576129d4612790565b6040517f118cdaa7000000000000000000000000000000000000000000000000000000008152600401612a079190614341565b60405180910390fd5b565b612a1a613c25565b5f60075f6101000a81548160ff0219169083151502179055507f5db9ee0a495bf2e6ff9c91a7834c1ba4fdd244a5e8aa4e537bd38aeae4b073aa612a5c612790565b604051612a699190614341565b60405180910390a1565b600260065403612aaf576040517f3ee5aeb500000000000000000000000000000000000000000000000000000000815260040160405180910390fd5b6002600681905550565b612ac1610d2c565b15612af8576040517fd93c066500000000000000000000000000000000000000000000000000000000815260040160405180910390fd5b565b5f5f612b0583610bf2565b905080841115612b50578284826040517f79012fb2000000000000000000000000000000000000000000000000000000008152600401612b4793929190614f78565b60405180910390fd5b5f612b5a856124b9565b9050612b6f612b67612790565b858784613c65565b809250505092915050565b612b8261301c565b505f612b8c610b95565b73ffffffffffffffffffffffffffffffffffffffff166370a08231306040518263ffffffff1660e01b8152600401612bc49190614341565b602060405180830381865afa158015612bdf573d5f5f3e3d5ffd5b505050506040513d601f19601f82011682018060405250810190612c0391906146bf565b90505f8103612c125750612eeb565b5f7f000000000000000000000000000000000000000000000000000000000000000073ffffffffffffffffffffffffffffffffffffffff166331e19cfa6040518163ffffffff1660e01b8152600401602060405180830381865afa158015612c7c573d5f5f3e3d5ffd5b505050506040513d601f19601f82011682018060405250810190612ca091906146bf565b90505f5f90505b81811015612ea0575f5f5f7f000000000000000000000000000000000000000000000000000000000000000073ffffffffffffffffffffffffffffffffffffffff1663cfc0cc34856040518263ffffffff1660e01b8152600401612d0b91906140e1565b606060405180830381865afa158015612d26573d5f5f3e3d5ffd5b505050506040513d601f19601f82011682018060405250810190612d4a91906148e9565b925092509250808015612d5c57505f82115b15612e8f575f6127108388612d719190614939565b612d7b91906149a7565b90505f811115612e8d57612d8d610b95565b73ffffffffffffffffffffffffffffffffffffffff1663095ea7b385836040518363ffffffff1660e01b8152600401612dc7929190614fad565b6020604051808303815f875af1158015612de3573d5f5f3e3d5ffd5b505050506040513d601f19601f82011682018060405250810190612e079190614fd4565b508373ffffffffffffffffffffffffffffffffffffffff16636e553f6582306040518363ffffffff1660e01b8152600401612e43929190614fff565b6020604051808303815f875af1925050508015612e7e57506040513d601f19601f82011682018060405250810190612e7b91906146bf565b60015b612e8b5750505050612e93565b505b505b5050505b8080600101915050612ca7565b5042600a819055507fc257294ad49c215e1a248c91a86bc2612b4781d9677285cc9c14498f485ef12242612ed26109a1565b604051612ee0929190614a3f565b60405180910390a150505b565b6001600681905550565b5f60055f9054906101000a900473ffffffffffffffffffffffffffffffffffffffff1690508160055f6101000a81548173ffffffffffffffffffffffffffffffffffffffff021916908373ffffffffffffffffffffffffffffffffffffffff1602179055508173ffffffffffffffffffffffffffffffffffffffff168173ffffffffffffffffffffffffffffffffffffffff167f8be0079c531659141344cd1fd0a4f28419497f9722a3daafe3b4186f6b6457e060405160405180910390a35050565b612fc2612ab9565b600160075f6101000a81548160ff0219169083151502179055507f62e78cea01bee320cd4e420270b5ea74000d11b0c9f74754ebdbfc544b05a258613005612790565b6040516130129190614341565b60405180910390a1565b5f5f5f90505f7f000000000000000000000000000000000000000000000000000000000000000073ffffffffffffffffffffffffffffffffffffffff166331e19cfa6040518163ffffffff1660e01b8152600401602060405180830381865afa15801561308b573d5f5f3e3d5ffd5b505050506040513d601f19601f820116820180604052508101906130af91906146bf565b90505f5f90505b818110156131f7575f5f7f000000000000000000000000000000000000000000000000000000000000000073ffffffffffffffffffffffffffffffffffffffff1663cfc0cc34846040518263ffffffff1660e01b815260040161311991906140e1565b606060405180830381865afa158015613134573d5f5f3e3d5ffd5b505050506040513d601f19601f8201168201806040525081019061315891906148e9565b925050915080156131e7578173ffffffffffffffffffffffffffffffffffffffff16634641257d6040518163ffffffff1660e01b81526004016020604051808303815f875af19250505080156131cc57506040513d601f19601f820116820180604052508101906131c991906146bf565b60015b6131d75750506131ea565b80866131e39190614717565b9550505b50505b80806001019150506130b6565b505f8211156132f0575f612710600c54846132129190614939565b61321c91906149a7565b90505f8111801561327a57505f73ffffffffffffffffffffffffffffffffffffffff16600e5f9054906101000a900473ffffffffffffffffffffffffffffffffffffffff1673ffffffffffffffffffffffffffffffffffffffff1614155b156132b7577fdfba92731fbb9afc3b23b557d4f5043609e05ea68af13a61a9ceb6e0bef6b42f816040516132ae9190615070565b60405180910390a15b7f8e55ccfc9778ff8eba1646d765cf1982537ce0f9257054a17b48aad745250183836040516132e691906140e1565b60405180910390a1505b819250505090565b5f5f613303836120b7565b90508084111561334e578284826040517f284ff66700000000000000000000000000000000000000000000000000000000815260040161334593929190614f78565b60405180910390fd5b5f61335885611a44565b905061336d613365612790565b858388613c65565b809250505092915050565b5f8190505f7f000000000000000000000000000000000000000000000000000000000000000073ffffffffffffffffffffffffffffffffffffffff166331e19cfa6040518163ffffffff1660e01b8152600401602060405180830381865afa1580156133e6573d5f5f3e3d5ffd5b505050506040513d601f19601f8201168201806040525081019061340a91906146bf565b90505f5f90505b818110801561341f57505f83115b15613628575f5f7f000000000000000000000000000000000000000000000000000000000000000073ffffffffffffffffffffffffffffffffffffffff1663cfc0cc34846040518263ffffffff1660e01b815260040161347f91906140e1565b606060405180830381865afa15801561349a573d5f5f3e3d5ffd5b505050506040513d601f19601f820116820180604052508101906134be91906148e9565b9250509150806134cf575050613615565b8173ffffffffffffffffffffffffffffffffffffffff1663722713f76040518163ffffffff1660e01b8152600401602060405180830381865afa92505050801561353757506040513d601f19601f8201168201806040525081019061353491906146bf565b60015b613542575050613615565b5f810361355157505050613615565b5f81871161355f5786613561565b815b90508373ffffffffffffffffffffffffffffffffffffffff1663b460af948230306040518463ffffffff1660e01b81526004016135a09392919061509c565b6020604051808303815f875af19250505080156135db57506040513d601f19601f820116820180604052508101906135d891906146bf565b60015b6135e85750505050613615565b5f81111561360f578781106135ff575f975061360e565b808861360b9190614bf8565b97505b5b50505050505b8080613620906150d1565b915050613411565b5082820361366b576040517f08c379a000000000000000000000000000000000000000000000000000000000815260040161366290614d79565b60405180910390fd5b505050565b5f5f61367b836120f2565b9050808511156136c6578285826040517ffe9cceec0000000000000000000000000000000000000000000000000000000081526004016136bd93929190614f78565b60405180910390fd5b5f6136d086610b06565b90506136e66136dd612790565b86868985613cef565b80925050509392505050565b61376c838473ffffffffffffffffffffffffffffffffffffffff1663a9059cbb8585604051602401613725929190614fad565b604051602081830303815290604052915060e01b6020820180517bffffffffffffffffffffffffffffffffffffffffffffffffffffffff8381831617835250505050613dcf565b505050565b5f73ffffffffffffffffffffffffffffffffffffffff168273ffffffffffffffffffffffffffffffffffffffff16036137e1575f6040517f96c6fd1e0000000000000000000000000000000000000000000000000000000081526004016137d89190614341565b60405180910390fd5b6137ec825f83613a0c565b5050565b5f61381e6137fd83613e6a565b801561381957505f84806138145761381361497a565b5b868809115b613e97565b613829868686613ea2565b6138339190614717565b9050949350505050565b5f73ffffffffffffffffffffffffffffffffffffffff168473ffffffffffffffffffffffffffffffffffffffff16036138ad575f6040517fe602df050000000000000000000000000000000000000000000000000000000081526004016138a49190614341565b60405180910390fd5b5f73ffffffffffffffffffffffffffffffffffffffff168373ffffffffffffffffffffffffffffffffffffffff160361391d575f6040517f94280d620000000000000000000000000000000000000000000000000000000081526004016139149190614341565b60405180910390fd5b8160015f8673ffffffffffffffffffffffffffffffffffffffff1673ffffffffffffffffffffffffffffffffffffffff1681526020019081526020015f205f8573ffffffffffffffffffffffffffffffffffffffff1673ffffffffffffffffffffffffffffffffffffffff1681526020019081526020015f20819055508015613a06578273ffffffffffffffffffffffffffffffffffffffff168473ffffffffffffffffffffffffffffffffffffffff167f8c5be1e5ebec7d5bd14f71427d1e84f3dd0314c0f7b2291e5b200ac8c7c3b925846040516139fd91906140e1565b60405180910390a35b50505050565b5f73ffffffffffffffffffffffffffffffffffffffff168373ffffffffffffffffffffffffffffffffffffffff1603613a5c578060025f828254613a509190614717565b92505081905550613b2a565b5f5f5f8573ffffffffffffffffffffffffffffffffffffffff1673ffffffffffffffffffffffffffffffffffffffff1681526020019081526020015f2054905081811015613ae5578381836040517fe450d38c000000000000000000000000000000000000000000000000000000008152600401613adc93929190614f78565b60405180910390fd5b8181035f5f8673ffffffffffffffffffffffffffffffffffffffff1673ffffffffffffffffffffffffffffffffffffffff1681526020019081526020015f2081905550505b5f73ffffffffffffffffffffffffffffffffffffffff168273ffffffffffffffffffffffffffffffffffffffff1603613b71578060025f8282540392505081905550613bbb565b805f5f8473ffffffffffffffffffffffffffffffffffffffff1673ffffffffffffffffffffffffffffffffffffffff1681526020019081526020015f205f82825401925050819055505b8173ffffffffffffffffffffffffffffffffffffffff168373ffffffffffffffffffffffffffffffffffffffff167fddf252ad1be2c89b69c2b068fc378daa952ba7f163c4a11628f55a4df523b3ef83604051613c1891906140e1565b60405180910390a3505050565b613c2d610d2c565b613c63576040517f8dfc202b00000000000000000000000000000000000000000000000000000000815260040160405180910390fd5b565b613c78613c70610b95565b853085613f81565b613c828382614003565b8273ffffffffffffffffffffffffffffffffffffffff168473ffffffffffffffffffffffffffffffffffffffff167fdcbc1c05240f31ff3ad067ef1ee35ce4997762752e3a095284754544f4c709d78484604051613ce1929190614a3f565b60405180910390a350505050565b8273ffffffffffffffffffffffffffffffffffffffff168573ffffffffffffffffffffffffffffffffffffffff1614613d2e57613d2d838683612801565b5b613d388382613771565b613d4a613d43610b95565b85846136f2565b8273ffffffffffffffffffffffffffffffffffffffff168473ffffffffffffffffffffffffffffffffffffffff168673ffffffffffffffffffffffffffffffffffffffff167ffbde797d201c681b91056529119e0b02407c7bb96a4a2c75c01fc9667232c8db8585604051613dc0929190614a3f565b60405180910390a45050505050565b5f5f60205f8451602086015f885af180613dee576040513d5f823e3d81fd5b3d92505f519150505f8214613e07576001811415613e22565b5f8473ffffffffffffffffffffffffffffffffffffffff163b145b15613e6457836040517f5274afe7000000000000000000000000000000000000000000000000000000008152600401613e5b9190614341565b60405180910390fd5b50505050565b5f60016002836003811115613e8257613e81615118565b5b613e8c9190615145565b60ff16149050919050565b5f8115159050919050565b5f5f5f613eaf8686614082565b915091505f8203613ed457838181613eca57613ec961497a565b5b0492505050613f7a565b818411613ef357613ef2613eed5f86146012601161409f565b6140b8565b5b5f8486880990508181118303925080820391505f855f038616905080860495508083049250600181825f0304019050808402831792505f600287600302189050808702600203810290508087026002038102905080870260020381029050808702600203810290508087026002038102905080870260020381029050808402955050505050505b9392505050565b613ffd848573ffffffffffffffffffffffffffffffffffffffff166323b872dd868686604051602401613fb693929190615175565b604051602081830303815290604052915060e01b6020820180517bffffffffffffffffffffffffffffffffffffffffffffffffffffffff8381831617835250505050613dcf565b50505050565b5f73ffffffffffffffffffffffffffffffffffffffff168273ffffffffffffffffffffffffffffffffffffffff1603614073575f6040517fec442f0500000000000000000000000000000000000000000000000000000000815260040161406a9190614341565b60405180910390fd5b61407e5f8383613a0c565b5050565b5f5f5f198385098385029150818110828203039250509250929050565b5f6140a984613e97565b82841802821890509392505050565b634e487b715f52806020526024601cfd5b5f819050919050565b6140db816140c9565b82525050565b5f6020820190506140f45f8301846140d2565b92915050565b5f81519050919050565b5f82825260208201905092915050565b8281835e5f83830152505050565b5f601f19601f8301169050919050565b5f61413c826140fa565b6141468185614104565b9350614156818560208601614114565b61415f81614122565b840191505092915050565b5f6020820190508181035f8301526141828184614132565b905092915050565b5f5ffd5b614197816140c9565b81146141a1575f5ffd5b50565b5f813590506141b28161418e565b92915050565b5f602082840312156141cd576141cc61418a565b5b5f6141da848285016141a4565b91505092915050565b5f73ffffffffffffffffffffffffffffffffffffffff82169050919050565b5f61420c826141e3565b9050919050565b61421c81614202565b8114614226575f5ffd5b50565b5f8135905061423781614213565b92915050565b5f5f604083850312156142535761425261418a565b5b5f61426085828601614229565b9250506020614271858286016141a4565b9150509250929050565b5f8115159050919050565b61428f8161427b565b82525050565b5f6020820190506142a85f830184614286565b92915050565b5f5f5f606084860312156142c5576142c461418a565b5b5f6142d286828701614229565b93505060206142e386828701614229565b92505060406142f4868287016141a4565b9150509250925092565b5f60ff82169050919050565b614313816142fe565b82525050565b5f60208201905061432c5f83018461430a565b92915050565b61433b81614202565b82525050565b5f6020820190506143545f830184614332565b92915050565b5f819050919050565b5f61437d614378614373846141e3565b61435a565b6141e3565b9050919050565b5f61438e82614363565b9050919050565b5f61439f82614384565b9050919050565b6143af81614395565b82525050565b5f6020820190506143c85f8301846143a6565b92915050565b5f602082840312156143e3576143e261418a565b5b5f6143f084828501614229565b91505092915050565b5f5f6040838503121561440f5761440e61418a565b5b5f61441c858286016141a4565b925050602061442d85828601614229565b9150509250929050565b5f81519050919050565b5f82825260208201905092915050565b5f819050602082019050919050565b61446981614202565b82525050565b5f61447a8383614460565b60208301905092915050565b5f602082019050919050565b5f61449c82614437565b6144a68185614441565b93506144b183614451565b805f5b838110156144e15781516144c8888261446f565b97506144d383614486565b9250506001810190506144b4565b5085935050505092915050565b5f81519050919050565b5f82825260208201905092915050565b5f819050602082019050919050565b614520816140c9565b82525050565b5f6145318383614517565b60208301905092915050565b5f602082019050919050565b5f614553826144ee565b61455d81856144f8565b935061456883614508565b805f5b8381101561459857815161457f8882614526565b975061458a8361453d565b92505060018101905061456b565b5085935050505092915050565b5f6040820190508181035f8301526145bd8185614492565b905081810360208301526145d18184614549565b90509392505050565b5f6080820190506145ed5f8301876140d2565b6145fa60208301866140d2565b61460760408301856140d2565b61461460608301846140d2565b95945050505050565b5f5f5f606084860312156146345761463361418a565b5b5f614641868287016141a4565b935050602061465286828701614229565b925050604061466386828701614229565b9150509250925092565b5f5f604083850312156146835761468261418a565b5b5f61469085828601614229565b92505060206146a185828601614229565b9150509250929050565b5f815190506146b98161418e565b92915050565b5f602082840312156146d4576146d361418a565b5b5f6146e1848285016146ab565b91505092915050565b7f4e487b71000000000000000000000000000000000000000000000000000000005f52601160045260245ffd5b5f614721826140c9565b915061472c836140c9565b9250828201905080821115614744576147436146ea565b5b92915050565b7f4e487b71000000000000000000000000000000000000000000000000000000005f52602260045260245ffd5b5f600282049050600182168061478e57607f821691505b6020821081036147a1576147a061474a565b5b50919050565b5f6147b1826142fe565b91506147bc836142fe565b9250828201905060ff8111156147d5576147d46146ea565b5b92915050565b7f5969656c645661756c743a20496e74657276616c20746f6f2073686f727400005f82015250565b5f61480f601e83614104565b915061481a826147db565b602082019050919050565b5f6020820190508181035f83015261483c81614803565b9050919050565b7f5969656c645661756c743a20496e74657276616c20746f6f206c6f6e670000005f82015250565b5f614877601d83614104565b915061488282614843565b602082019050919050565b5f6020820190508181035f8301526148a48161486b565b9050919050565b5f815190506148b981614213565b92915050565b6148c88161427b565b81146148d2575f5ffd5b50565b5f815190506148e3816148bf565b92915050565b5f5f5f60608486031215614900576148ff61418a565b5b5f61490d868287016148ab565b935050602061491e868287016146ab565b925050604061492f868287016148d5565b9150509250925092565b5f614943826140c9565b915061494e836140c9565b925082820261495c816140c9565b91508282048414831517614973576149726146ea565b5b5092915050565b7f4e487b71000000000000000000000000000000000000000000000000000000005f52601260045260245ffd5b5f6149b1826140c9565b91506149bc836140c9565b9250826149cc576149cb61497a565b5b828204905092915050565b7f5969656c645661756c743a2043616e6e6f74206465706f7369742030000000005f82015250565b5f614a0b601c83614104565b9150614a16826149d7565b602082019050919050565b5f6020820190508181035f830152614a38816149ff565b9050919050565b5f604082019050614a525f8301856140d2565b614a5f60208301846140d2565b9392505050565b7f5969656c645661756c743a2046656520746f6f206869676800000000000000005f82015250565b5f614a9a601883614104565b9150614aa582614a66565b602082019050919050565b5f6020820190508181035f830152614ac781614a8e565b9050919050565b7f4e487b71000000000000000000000000000000000000000000000000000000005f52604160045260245ffd5b7f4e487b71000000000000000000000000000000000000000000000000000000005f52603260045260245ffd5b7f5969656c645661756c743a2043616e6e6f74206d696e742030000000000000005f82015250565b5f614b5c601983614104565b9150614b6782614b28565b602082019050919050565b5f6020820190508181035f830152614b8981614b50565b9050919050565b7f5969656c645661756c743a2043616e6e6f7420776974686472617720300000005f82015250565b5f614bc4601d83614104565b9150614bcf82614b90565b602082019050919050565b5f6020820190508181035f830152614bf181614bb8565b9050919050565b5f614c02826140c9565b9150614c0d836140c9565b9250828203905081811115614c2557614c246146ea565b5b92915050565b7f7769746864726177616c000000000000000000000000000000000000000000005f82015250565b5f614c5f600a83614104565b9150614c6a82614c2b565b602082019050919050565b5f604082019050614c885f8301846140d2565b8181036020830152614c9981614c53565b905092915050565b7f5969656c645661756c743a2043616e6e6f742072656465656d203000000000005f82015250565b5f614cd5601b83614104565b9150614ce082614ca1565b602082019050919050565b5f6020820190508181035f830152614d0281614cc9565b9050919050565b7f5969656c645661756c743a20496e73756666696369656e74206c6971756964695f8201527f7479000000000000000000000000000000000000000000000000000000000000602082015250565b5f614d63602283614104565b9150614d6e82614d09565b604082019050919050565b5f6020820190508181035f830152614d9081614d57565b9050919050565b7f5969656c645661756c743a20496e76616c696420726563697069656e740000005f82015250565b5f614dcb601d83614104565b9150614dd682614d97565b602082019050919050565b5f6020820190508181035f830152614df881614dbf565b9050919050565b5f8160011c9050919050565b5f5f8291508390505b6001851115614e5457808604811115614e3057614e2f6146ea565b5b6001851615614e3f5780820291505b8081029050614e4d85614dff565b9450614e14565b94509492505050565b5f82614e6c5760019050614f27565b81614e79575f9050614f27565b8160018114614e8f5760028114614e9957614ec8565b6001915050614f27565b60ff841115614eab57614eaa6146ea565b5b8360020a915084821115614ec257614ec16146ea565b5b50614f27565b5060208310610133831016604e8410600b8410161715614efd5782820a905083811115614ef857614ef76146ea565b5b614f27565b614f0a8484846001614e0b565b92509050818404811115614f2157614f206146ea565b5b81810290505b9392505050565b5f614f38826140c9565b9150614f43836142fe565b9250614f707fffffffffffffffffffffffffffffffffffffffffffffffffffffffffffffffff8484614e5d565b905092915050565b5f606082019050614f8b5f830186614332565b614f9860208301856140d2565b614fa560408301846140d2565b949350505050565b5f604082019050614fc05f830185614332565b614fcd60208301846140d2565b9392505050565b5f60208284031215614fe957614fe861418a565b5b5f614ff6848285016148d5565b91505092915050565b5f6040820190506150125f8301856140d2565b61501f6020830184614332565b9392505050565b7f706572666f726d616e63650000000000000000000000000000000000000000005f82015250565b5f61505a600b83614104565b915061506582615026565b602082019050919050565b5f6040820190506150835f8301846140d2565b81810360208301526150948161504e565b905092915050565b5f6060820190506150af5f8301866140d2565b6150bc6020830185614332565b6150c96040830184614332565b949350505050565b5f6150db826140c9565b91507fffffffffffffffffffffffffffffffffffffffffffffffffffffffffffffffff820361510d5761510c6146ea565b5b600182019050919050565b7f4e487b71000000000000000000000000000000000000000000000000000000005f52602160045260245ffd5b5f61514f826142fe565b915061515a836142fe565b92508261516a5761516961497a565b5b828206905092915050565b5f6060820190506151885f830186614332565b6151956020830185614332565b6151a260408301846140d2565b94935050505056fea26469706673582212209d5fc93019a0fac5d64dc64ab47160011f9fbb2f30bd136397e875c8461ef83164736f6c634300081e0033","linkReferences":{}},"methodIdentifiers":{"allowance(address,address)":"dd62ed3e","approve(address,uint256)":"095ea7b3","asset()":"38d52e0f","balanceOf(address)":"70a08231","convertToAssets(uint256)":"07a2d13a","convertToShares(uint256)":"c6e6f592","decimals()":"313ce567","deposit(uint256,address)":"6e553f65","emergencyWithdrawAll()":"dd191719","estimatedVaultAPY()":"61744085","feeRecipient()":"46904840","getStrategyAPYs()":"79664776","getStrategyBalances()":"89aabcfc","getVaultStats()":"a59aa5a6","harvestAll()":"8ed955b9","lastRebalance()":"106b9ca1","maxDeposit(address)":"402d267d","maxMint(address)":"c63d75b6","maxRedeem(address)":"d905777e","maxWithdraw(address)":"ce96cb77","mint(uint256,address)":"94bf804d","name()":"06fdde03","owner()":"8da5cb5b","pause()":"8456cb59","paused()":"5c975abb","performanceFee()":"87788782","previewDeposit(uint256)":"ef8b30f7","previewMint(uint256)":"b3d7f6b9","previewRedeem(uint256)":"4cdad506","previewWithdraw(uint256)":"0a28a477","rebalance()":"7d7c2a1c","rebalanceInterval()":"16d1d916","redeem(uint256,address,address)":"ba087652","renounceOwnership()":"715018a6","setFeeRecipient(address)":"e74b981b","setPerformanceFee(uint256)":"70897b23","setRebalanceInterval(uint256)":"5b7dcaed","setWithdrawalFee(uint256)":"ac1e5025","strategyManager()":"39b70e38","symbol()":"95d89b41","totalAssets()":"01e1d114","totalDeposited()":"ff50abdc","totalSupply()":"18160ddd","totalWithdrawn()":"4b319713","transfer(address,uint256)":"a9059cbb","transferFrom(address,address,uint256)":"23b872dd","transferOwnership(address)":"f2fde38b","unpause()":"3f4ba83a","withdraw(uint256,address,address)":"b460af94","withdrawalFee()":"8bc7e8c4"},"id":46}