{"abi":[{"type":"constructor","inputs":[{"name":"_asset","type":"address","internalType":"contract IERC20"},{"name":"_strategyManager","type":"address","internalType":"address"}],"stateMutability":"nonpayable"},{"type":"function","name":"allowance","inputs":[{"name":"owner","type":"address","internalType":"address"},{"name":"spender","type":"address","internalType":"address"}],"outputs":[{"name":"","type":"uint256","internalType":"uint256"}],"stateMutability":"view"},{"type":"function","name":"approve","inputs":[{"name":"spender","type":"address","internalType":"address"},{"name":"value","type":"uint256","internalType":"uint256"}],"outputs":[{"name":"","type":"bool","internalType":"bool"}],"stateMutability":"nonpayable"},{"type":"function","name":"asset","inputs":[],"outputs":[{"name":"","type":"address","internalType":"address"}],"stateMutability":"view"},{"type":"function","name":"balanceOf","inputs":[{"name":"account","type":"address","internalType":"address"}],"outputs":[{"name":"","type":"uint256","internalType":"uint256"}],"stateMutability":"view"},{"type":"function","name":"convertToAssets","inputs":[{"name":"shares","type":"uint256","internalType":"uint256"}],"outputs":[{"name":"","type":"uint256","internalType":"uint256"}],"stateMutability":"view"},{"type":"function","name":"convertToShares","inputs":[{"name":"assets","type":"uint256","internalType":"uint256"}],"outputs":[{"name":"","type":"uint256","internalType":"uint256"}],"stateMutability":"view"},{"type":"function","name":"decimals","inputs":[],"outputs":[{"name":"","type":"uint8","internalType":"uint8"}],"stateMutability":"view"},{"type":"function","name":"deposit","inputs":[{"name":"assets","type":"uint256","internalType":"uint256"},{"name":"receiver","type":"address","internalType":"address"}],"outputs":[{"name":"","type":"uint256","internalType":"uint256"}],"stateMutability":"nonpayable"},{"type":"function","name":"emergencyWithdrawAll","inputs":[],"outputs":[],"stateMutability":"nonpayable"},{"type":"function","name":"feeRecipient","inputs":[],"outputs":[{"name":"","type":"address","internalType":"address"}],"stateMutability":"view"},{"type":"function","name":"lastRebalance","inputs":[],"outputs":[{"name":"","type":"uint256","internalType":"uint256"}],"stateMutability":"view"},{"type":"function","name":"liquidityBufferBps","inputs":[],"outputs":[{"name":"","type":"uint256","internalType":"uint256"}],"stateMutability":"view"},{"type":"function","name":"maxDeposit","inputs":[{"name":"","type":"address","internalType":"address"}],"outputs":[{"name":"","type":"uint256","internalType":"uint256"}],"stateMutability":"view"},{"type":"function","name":"maxMint","inputs":[{"name":"","type":"address","internalType":"address"}],"outputs":[{"name":"","type":"uint256","internalType":"uint256"}],"stateMutability":"view"},{"type":"function","name":"maxRedeem","inputs":[{"name":"owner","type":"address","internalType":"address"}],"outputs":[{"name":"","type":"uint256","internalType":"uint256"}],"stateMutability":"view"},{"type":"function","name":"maxWithdraw","inputs":[{"name":"owner","type":"address","internalType":"address"}],"outputs":[{"name":"","type":"uint256","internalType":"uint256"}],"stateMutability":"view"},{"type":"function","name":"mint","inputs":[{"name":"shares","type":"uint256","internalType":"uint256"},{"name":"receiver","type":"address","internalType":"address"}],"outputs":[{"name":"","type":"uint256","internalType":"uint256"}],"stateMutability":"nonpayable"},{"type":"function","name":"name","inputs":[],"outputs":[{"name":"","type":"string","internalType":"string"}],"stateMutability":"view"},{"type":"function","name":"owner","inputs":[],"outputs":[{"name":"","type":"address","internalType":"address"}],"stateMutability":"view"},{"type":"function","name":"pause","inputs":[],"outputs":[],"stateMutability":"nonpayable"},{"type":"function","name":"paused","inputs":[],"outputs":[{"name":"","type":"bool","internalType":"bool"}],"stateMutability":"view"},{"type":"function","name":"performanceFee","inputs":[],"outputs":[{"name":"","type":"uint256","internalType":"uint256"}],"stateMutability":"view"},{"type":"function","name":"previewDeposit","inputs":[{"name":"assets","type":"uint256","internalType":"uint256"}],"outputs":[{"name":"","type":"uint256","internalType":"uint256"}],"stateMutability":"view"},{"type":"function","name":"previewMint","inputs":[{"name":"shares","type":"uint256","internalType":"uint256"}],"outputs":[{"name":"","type":"uint256","internalType":"uint256"}],"stateMutability":"view"},{"type":"function","name":"previewRedeem","inputs":[{"name":"shares","type":"uint256","internalType":"uint256"}],"outputs":[{"name":"","type":"uint256","internalType":"uint256"}],"stateMutability":"view"},{"type":"function","name":"previewWithdraw","inputs":[{"name":"assets","type":"uint256","internalType":"uint256"}],"outputs":[{"name":"","type":"uint256","internalType":"uint256"}],"stateMutability":"view"},{"type":"function","name":"rebalance","inputs":[],"outputs":[],"stateMutability":"nonpayable"},{"type":"function","name":"rebalanceInterval","inputs":[],"outputs":[{"name":"","type":"uint256","internalType":"uint256"}],"stateMutability":"view"},{"type":"function","name":"redeem","inputs":[{"name":"shares","type":"uint256","internalType":"uint256"},{"name":"receiver","type":"address","internalType":"address"},{"name":"owner","type":"address","internalType":"address"}],"outputs":[{"name":"","type":"uint256","internalType":"uint256"}],"stateMutability":"nonpayable"},{"type":"function","name":"renounceOwnership","inputs":[],"outputs":[],"stateMutability":"nonpayable"},{"type":"function","name":"setFeeRecipient","inputs":[{"name":"recipient","type":"address","internalType":"address"}],"outputs":[],"stateMutability":"nonpayable"},{"type":"function","name":"setLiquidityBufferBps","inputs":[{"name":"bps","type":"uint256","internalType":"uint256"}],"outputs":[],"stateMutability":"nonpayable"},{"type":"function","name":"setPerformanceFee","inputs":[{"name":"fee","type":"uint256","internalType":"uint256"}],"outputs":[],"stateMutability":"nonpayable"},{"type":"function","name":"setWithdrawalFee","inputs":[{"name":"fee","type":"uint256","internalType":"uint256"}],"outputs":[],"stateMutability":"nonpayable"},{"type":"function","name":"strategyManager","inputs":[],"outputs":[{"name":"","type":"address","internalType":"contract StrategyManager"}],"stateMutability":"view"},{"type":"function","name":"symbol","inputs":[],"outputs":[{"name":"","type":"string","internalType":"string"}],"stateMutability":"view"},{"type":"function","name":"totalAssets","inputs":[],"outputs":[{"name":"","type":"uint256","internalType":"uint256"}],"stateMutability":"view"},{"type":"function","name":"totalDeposited","inputs":[],"outputs":[{"name":"","type":"uint256","internalType":"uint256"}],"stateMutability":"view"},{"type":"function","name":"totalSupply","inputs":[],"outputs":[{"name":"","type":"uint256","internalType":"uint256"}],"stateMutability":"view"},{"type":"function","name":"totalWithdrawn","inputs":[],"outputs":[{"name":"","type":"uint256","internalType":"uint256"}],"stateMutability":"view"},{"type":"function","name":"transfer","inputs":[{"name":"to","type":"address","internalType":"address"},{"name":"value","type":"uint256","internalType":"uint256"}],"outputs":[{"name":"","type":"bool","internalType":"bool"}],"stateMutability":"nonpayable"},{"type":"function","name":"transferFrom","inputs":[{"name":"from","type":"address","internalType":"address"},{"name":"to","type":"address","internalType":"address"},{"name":"value","type":"uint256","internalType":"uint256"}],"outputs":[{"name":"","type":"bool","internalType":"bool"}],"stateMutability":"nonpayable"},{"type":"function","name":"transferOwnership","inputs":[{"name":"newOwner","type":"address","internalType":"address"}],"outputs":[],"stateMutability":"nonpayable"},{"type":"function","name":"unpause","inputs":[],"outputs":[],"stateMutability":"nonpayable"},{"type":"function","name":"withdraw","inputs":[{"name":"assets","type":"uint256","internalType":"uint256"},{"name":"receiver","type":"address","internalType":"address"},{"name":"owner","type":"address","internalType":"address"}],"outputs":[{"name":"","type":"uint256","internalType":"uint256"}],"stateMutability":"nonpayable"},{"type":"function","name":"withdrawalFee","inputs":[],"outputs":[{"name":"","type":"uint256","internalType":"uint256"}],"stateMutability":"view"},{"type":"event","name":"Approval","inputs":[{"name":"owner","type":"address","indexed":true,"internalType":"address"},{"name":"spender","type":"address","indexed":true,"internalType":"address"},{"name":"value","type":"uint256","indexed":false,"internalType":"uint256"}],"anonymous":false},{"type":"event","name":"Deposit","inputs":[{"name":"sender","type":"address","indexed":true,"internalType":"address"},{"name":"owner","type":"address","indexed":true,"internalType":"address"},{"name":"assets","type":"uint256","indexed":false,"internalType":"uint256"},{"name":"shares","type":"uint256","indexed":false,"internalType":"uint256"}],"anonymous":false},{"type":"event","name":"Deposited","inputs":[{"name":"user","type":"address","indexed":true,"internalType":"address"},{"name":"assets","type":"uint256","indexed":false,"internalType":"uint256"},{"name":"shares","type":"uint256","indexed":false,"internalType":"uint256"}],"anonymous":false},{"type":"event","name":"FeesCollected","inputs":[{"name":"amount","type":"uint256","indexed":false,"internalType":"uint256"},{"name":"feeType","type":"string","indexed":false,"internalType":"string"}],"anonymous":false},{"type":"event","name":"Harvested","inputs":[{"name":"totalYield","type":"uint256","indexed":false,"internalType":"uint256"}],"anonymous":false},{"type":"event","name":"LiquidityBufferUpdated","inputs":[{"name":"newBps","type":"uint256","indexed":false,"internalType":"uint256"}],"anonymous":false},{"type":"event","name":"OwnershipTransferred","inputs":[{"name":"previousOwner","type":"address","indexed":true,"internalType":"address"},{"name":"newOwner","type":"address","indexed":true,"internalType":"address"}],"anonymous":false},{"type":"event","name":"Paused","inputs":[{"name":"account","type":"address","indexed":false,"internalType":"address"}],"anonymous":false},{"type":"event","name":"Rebalanced","inputs":[{"name":"timestamp","type":"uint256","indexed":false,"internalType":"uint256"},{"name":"totalAssets","type":"uint256","indexed":false,"internalType":"uint256"}],"anonymous":false},{"type":"event","name":"StrategyWithdrawError","inputs":[{"name":"strategy","type":"address","indexed":true,"internalType":"address"},{"name":"reason","type":"string","indexed":false,"internalType":"string"}],"anonymous":false},{"type":"event","name":"StrategyWithdrawn","inputs":[{"name":"strategy","type":"address","indexed":true,"internalType":"address"},{"name":"amount","type":"uint256","indexed":false,"internalType":"uint256"}],"anonymous":false},{"type":"event","name":"Transfer","inputs":[{"name":"from","type":"address","indexed":true,"internalType":"address"},{"name":"to","type":"address","indexed":true,"internalType":"address"},{"name":"value","type":"uint256","indexed":false,"internalType":"uint256"}],"anonymous":false},{"type":"event","name":"Unpaused","inputs":[{"name":"account","type":"address","indexed":false,"internalType":"address"}],"anonymous":false},{"type":"event","name":"Withdraw","inputs":[{"name":"sender","type":"address","indexed":true,"internalType":"address"},{"name":"receiver","type":"address","indexed":true,"internalType":"address"},{"name":"owner","type":"address","indexed":true,"internalType":"address"},{"name":"assets","type":"uint256","indexed":false,"internalType":"uint256"},{"name":"shares","type":"uint256","indexed":false,"internalType":"uint256"}],"anonymous":false},{"type":"event","name":"Withdrawn","inputs":[{"name":"user","type":"address","indexed":true,"internalType":"address"},{"name":"assets","type":"uint256","indexed":false,"internalType":"uint256"},{"name":"shares","type":"uint256","indexed":false,"internalType":"uint256"}],"anonymous":false},{"type":"error","name":"ERC20InsufficientAllowance","inputs":[{"name":"spender","type":"address","internalType":"address"},{"name":"allowance","type":"uint256","internalType":"uint256"},{"name":"needed","type":"uint256","internalType":"uint256"}]},{"type":"error","name":"ERC20InsufficientBalance","inputs":[{"name":"sender","type":"address","internalType":"address"},{"name":"balance","type":"uint256","internalType":"uint256"},{"name":"needed","type":"uint256","internalType":"uint256"}]},{"type":"error","name":"ERC20InvalidApprover","inputs":[{"name":"approver","type":"address","internalType":"address"}]},{"type":"error","name":"ERC20InvalidReceiver","inputs":[{"name":"receiver","type":"address","internalType":"address"}]},{"type":"error","name":"ERC20InvalidSender","inputs":[{"name":"sender","type":"address","internalType":"address"}]},{"type":"error","name":"ERC20InvalidSpender","inputs":[{"name":"spender","type":"address","internalType":"address"}]},{"type":"error","name":"ERC4626ExceededMaxDeposit","inputs":[{"name":"receiver","type":"address","internalType":"address"},{"name":"assets","type":"uint256","internalType":"uint256"},{"name":"max","type":"uint256","internalType":"uint256"}]},{"type":"error","name":"ERC4626ExceededMaxMint","inputs":[{"name":"receiver","type":"address","internalType":"address"},{"name":"shares","type":"uint256","internalType":"uint256"},{"name":"max","type":"uint256","internalType":"uint256"}]},{"type":"error","name":"ERC4626ExceededMaxRedeem","inputs":[{"name":"owner","type":"address","internalType":"address"},{"name":"shares","type":"uint256","internalType":"uint256"},{"name":"max","type":"uint256","internalType":"uint256"}]},{"type":"error","name":"ERC4626ExceededMaxWithdraw","inputs":[{"name":"owner","type":"address","internalType":"address"},{"name":"assets","type":"uint256","internalType":"uint256"},{"name":"max","type":"uint256","internalType":"uint256"}]},{"type":"error","name":"EnforcedPause","inputs":[]},{"type":"error","name":"ExpectedPause","inputs":[]},{"type":"error","name":"OwnableInvalidOwner","inputs":[{"name":"owner","type":"address","internalType":"address"}]},{"type":"error","name":"OwnableUnauthorizedAccount","inputs":[{"name":"account","type":"address","internalType":"address"}]},{"type":"error","name":"ReentrancyGuardReentrantCall","inputs":[]},{"type":"error","name":"SafeERC20FailedOperation","inputs":[{"name":"token","type":"address","internalType":"address"}]}],"bytecode":{"object":"0x60e060405262015180600b556103e8600c556032600d556101f4600e55348015610027575f5ffd5b506040516152f63803806152f68339818101604052810190610049919061051d565b33826040518060400160405280600781526020017f496e7369676874000000000000000000000000000000000000000000000000008152506040518060400160405280600781526020017f494e53494748540000000000000000000000000000000000000000000000000081525081600390816100c69190610798565b5080600490816100d69190610798565b5050505f5f6100ea836102b860201b60201c565b91509150816100fa5760126100fc565b805b60ff1660a08160ff16815250508273ffffffffffffffffffffffffffffffffffffffff1660808173ffffffffffffffffffffffffffffffffffffffff16815250505050505f73ffffffffffffffffffffffffffffffffffffffff168173ffffffffffffffffffffffffffffffffffffffff16036101b0575f6040517f1e4fbdf70000000000000000000000000000000000000000000000000000000081526004016101a79190610876565b60405180910390fd5b6101bf816103c160201b60201c565b5060016006819055505f73ffffffffffffffffffffffffffffffffffffffff168173ffffffffffffffffffffffffffffffffffffffff1603610236576040517f08c379a000000000000000000000000000000000000000000000000000000000815260040161022d906108e9565b60405180910390fd5b8073ffffffffffffffffffffffffffffffffffffffff1660c08173ffffffffffffffffffffffffffffffffffffffff168152505033600f5f6101000a81548173ffffffffffffffffffffffffffffffffffffffff021916908373ffffffffffffffffffffffffffffffffffffffff16021790555042600a8190555050506109c4565b5f5f5f5f8473ffffffffffffffffffffffffffffffffffffffff1660405160240160405160208183030381529060405263313ce56760e01b6020820180517bffffffffffffffffffffffffffffffffffffffffffffffffffffffff838183161783525050505060405161032b9190610959565b5f60405180830381855afa9150503d805f8114610363576040519150601f19603f3d011682016040523d82523d5f602084013e610368565b606091505b509150915081801561037c57506020815110155b156103b3575f818060200190518101906103969190610999565b905060ff801681116103b157600181945094505050506103bc565b505b5f5f9350935050505b915091565b5f60055f9054906101000a900473ffffffffffffffffffffffffffffffffffffffff1690508160055f6101000a81548173ffffffffffffffffffffffffffffffffffffffff021916908373ffffffffffffffffffffffffffffffffffffffff1602179055508173ffffffffffffffffffffffffffffffffffffffff168173ffffffffffffffffffffffffffffffffffffffff167f8be0079c531659141344cd1fd0a4f28419497f9722a3daafe3b4186f6b6457e060405160405180910390a35050565b5f5ffd5b5f73ffffffffffffffffffffffffffffffffffffffff82169050919050565b5f6104b182610488565b9050919050565b5f6104c2826104a7565b9050919050565b6104d2816104b8565b81146104dc575f5ffd5b50565b5f815190506104ed816104c9565b92915050565b6104fc816104a7565b8114610506575f5ffd5b50565b5f81519050610517816104f3565b92915050565b5f5f6040838503121561053357610532610484565b5b5f610540858286016104df565b925050602061055185828601610509565b9150509250929050565b5f81519050919050565b7f4e487b71000000000000000000000000000000000000000000000000000000005f52604160045260245ffd5b7f4e487b71000000000000000000000000000000000000000000000000000000005f52602260045260245ffd5b5f60028204905060018216806105d657607f821691505b6020821081036105e9576105e8610592565b5b50919050565b5f819050815f5260205f209050919050565b5f6020601f8301049050919050565b5f82821b905092915050565b5f6008830261064b7fffffffffffffffffffffffffffffffffffffffffffffffffffffffffffffffff82610610565b6106558683610610565b95508019841693508086168417925050509392505050565b5f819050919050565b5f819050919050565b5f61069961069461068f8461066d565b610676565b61066d565b9050919050565b5f819050919050565b6106b28361067f565b6106c66106be826106a0565b84845461061c565b825550505050565b5f5f905090565b6106dd6106ce565b6106e88184846106a9565b505050565b5b8181101561070b576107005f826106d5565b6001810190506106ee565b5050565b601f82111561075057610721816105ef565b61072a84610601565b81016020851015610739578190505b61074d61074585610601565b8301826106ed565b50505b505050565b5f82821c905092915050565b5f6107705f1984600802610755565b1980831691505092915050565b5f6107888383610761565b9150826002028217905092915050565b6107a18261055b565b67ffffffffffffffff8111156107ba576107b9610565565b5b6107c482546105bf565b6107cf82828561070f565b5f60209050601f831160018114610800575f84156107ee578287015190505b6107f8858261077d565b86555061085f565b601f19841661080e866105ef565b5f5b8281101561083557848901518255600182019150602085019450602081019050610810565b86831015610852578489015161084e601f891682610761565b8355505b6001600288020188555050505b505050505050565b610870816104a7565b82525050565b5f6020820190506108895f830184610867565b92915050565b5f82825260208201905092915050565b7f496e76616c6964207374726174656779206d616e6167657200000000000000005f82015250565b5f6108d360188361088f565b91506108de8261089f565b602082019050919050565b5f6020820190508181035f830152610900816108c7565b9050919050565b5f81519050919050565b5f81905092915050565b8281835e5f83830152505050565b5f61093382610907565b61093d8185610911565b935061094d81856020860161091b565b80840191505092915050565b5f6109648284610929565b915081905092915050565b6109788161066d565b8114610982575f5ffd5b50565b5f815190506109938161096f565b92915050565b5f602082840312156109ae576109ad610484565b5b5f6109bb84828501610985565b91505092915050565b60805160a05160c0516148b4610a425f395f818161095e015281816109fc01528181610cb501528181610f9c0152818161112f0152818161120c01528181611c6701528181611d0501528181612573015281816126110152818161298001528181612a220152612aff01525f610c5e01525f610c8f01526148b45ff3fe608060405234801561000f575f5ffd5b5060043610610288575f3560e01c8063715018a61161015a578063b460af94116100cc578063dd19171911610085578063dd19171914610818578063dd62ed3e14610822578063e74b981b14610852578063ef8b30f71461086e578063f2fde38b1461089e578063ff50abdc146108ba57610288565b8063b460af94146106f8578063ba08765214610728578063c63d75b614610758578063c6e6f59214610788578063ce96cb77146107b8578063d905777e146107e857610288565b80638da5cb5b1161011e5780638da5cb5b1461061057806394bf804d1461062e57806395d89b411461065e578063a9059cbb1461067c578063ac1e5025146106ac578063b3d7f6b9146106c857610288565b8063715018a6146105b65780637d7c2a1c146105c05780638456cb59146105ca57806387788782146105d45780638bc7e8c4146105f257610288565b806339b70e38116101fe5780634cdad506116101b75780634cdad506146104ce5780635c975abb146104fe5780636d81c6961461051c5780636e553f651461053a57806370897b231461056a57806370a082311461058657610288565b806339b70e381461041e5780633f4ba83a1461043c578063402d267d1461044657806340d0892b1461047657806346904840146104925780634b319713146104b057610288565b8063106b9ca111610250578063106b9ca11461035857806316d1d9161461037657806318160ddd1461039457806323b872dd146103b2578063313ce567146103e257806338d52e0f1461040057610288565b806301e1d1141461028c57806306fdde03146102aa57806307a2d13a146102c8578063095ea7b3146102f85780630a28a47714610328575b5f5ffd5b6102946108d8565b6040516102a1919061388d565b60405180910390f35b6102b2610b39565b6040516102bf9190613916565b60405180910390f35b6102e260048036038101906102dd919061396d565b610bc9565b6040516102ef919061388d565b60405180910390f35b610312600480360381019061030d91906139f2565b610bdb565b60405161031f9190613a4a565b60405180910390f35b610342600480360381019061033d919061396d565b610bfd565b60405161034f919061388d565b60405180910390f35b610360610c10565b60405161036d919061388d565b60405180910390f35b61037e610c16565b60405161038b919061388d565b60405180910390f35b61039c610c1c565b6040516103a9919061388d565b60405180910390f35b6103cc60048036038101906103c79190613a63565b610c25565b6040516103d99190613a4a565b60405180910390f35b6103ea610c53565b6040516103f79190613ace565b60405180910390f35b610408610c8c565b6040516104159190613af6565b60405180910390f35b610426610cb3565b6040516104339190613b6a565b60405180910390f35b610444610cd7565b005b610460600480360381019061045b9190613b83565b610ce9565b60405161046d919061388d565b60405180910390f35b610490600480360381019061048b919061396d565b610d12565b005b61049a610da0565b6040516104a79190613af6565b60405180910390f35b6104b8610dc5565b6040516104c5919061388d565b60405180910390f35b6104e860048036038101906104e3919061396d565b610dcb565b6040516104f5919061388d565b60405180910390f35b610506610ddd565b6040516105139190613a4a565b60405180910390f35b610524610df2565b604051610531919061388d565b60405180910390f35b610554600480360381019061054f9190613bae565b610df8565b604051610561919061388d565b60405180910390f35b610584600480360381019061057f919061396d565b610eda565b005b6105a0600480360381019061059b9190613b83565b610f31565b6040516105ad919061388d565b60405180910390f35b6105be610f76565b005b6105c8610f89565b005b6105d26114a8565b005b6105dc6114ba565b6040516105e9919061388d565b60405180910390f35b6105fa6114c0565b604051610607919061388d565b60405180910390f35b6106186114c6565b6040516106259190613af6565b60405180910390f35b61064860048036038101906106439190613bae565b6114ee565b604051610655919061388d565b60405180910390f35b6106666115d0565b6040516106739190613916565b60405180910390f35b610696600480360381019061069191906139f2565b611660565b6040516106a39190613a4a565b60405180910390f35b6106c660048036038101906106c1919061396d565b611682565b005b6106e260048036038101906106dd919061396d565b6116d9565b6040516106ef919061388d565b60405180910390f35b610712600480360381019061070d9190613bec565b6116ec565b60405161071f919061388d565b60405180910390f35b610742600480360381019061073d9190613bec565b611971565b60405161074f919061388d565b60405180910390f35b610772600480360381019061076d9190613b83565b611bf6565b60405161077f919061388d565b60405180910390f35b6107a2600480360381019061079d919061396d565b611c1f565b6040516107af919061388d565b60405180910390f35b6107d260048036038101906107cd9190613b83565b611c31565b6040516107df919061388d565b60405180910390f35b61080260048036038101906107fd9190613b83565b611c4b565b60405161080f919061388d565b60405180910390f35b610820611c5c565b005b61083c60048036038101906108379190613c3c565b611e30565b604051610849919061388d565b60405180910390f35b61086c60048036038101906108679190613b83565b611eb2565b005b6108886004803603810190610883919061396d565b611f6b565b604051610895919061388d565b60405180910390f35b6108b860048036038101906108b39190613b83565b611f7d565b005b6108c2612001565b6040516108cf919061388d565b60405180910390f35b5f5f6108e2610c8c565b73ffffffffffffffffffffffffffffffffffffffff166370a08231306040518263ffffffff1660e01b815260040161091a9190613af6565b602060405180830381865afa158015610935573d5f5f3e3d5ffd5b505050506040513d601f19601f820116820180604052508101906109599190613c8e565b90505f7f000000000000000000000000000000000000000000000000000000000000000073ffffffffffffffffffffffffffffffffffffffff166331e19cfa6040518163ffffffff1660e01b8152600401602060405180830381865afa1580156109c5573d5f5f3e3d5ffd5b505050506040513d601f19601f820116820180604052508101906109e99190613c8e565b90505f5f90505b81811015610b30575f5f7f000000000000000000000000000000000000000000000000000000000000000073ffffffffffffffffffffffffffffffffffffffff1663cfc0cc34846040518263ffffffff1660e01b8152600401610a53919061388d565b606060405180830381865afa158015610a6e573d5f5f3e3d5ffd5b505050506040513d601f19601f82011682018060405250810190610a929190613cf7565b925050915080610aa3575050610b23565b8173ffffffffffffffffffffffffffffffffffffffff1663722713f76040518163ffffffff1660e01b8152600401602060405180830381865afa925050508015610b0b57506040513d601f19601f82011682018060405250810190610b089190613c8e565b60015b15610b20578086610b1c9190613d74565b9550505b50505b80806001019150506109f0565b50819250505090565b606060038054610b4890613dd4565b80601f0160208091040260200160405190810160405280929190818152602001828054610b7490613dd4565b8015610bbf5780601f10610b9657610100808354040283529160200191610bbf565b820191905f5260205f20905b815481529060010190602001808311610ba257829003601f168201915b5050505050905090565b5f610bd4825f612007565b9050919050565b5f5f610be561205f565b9050610bf2818585612066565b600191505092915050565b5f610c09826001612078565b9050919050565b600a5481565b600b5481565b5f600254905090565b5f5f610c2f61205f565b9050610c3c8582856120d0565b610c47858585612163565b60019150509392505050565b5f610c5c612253565b7f0000000000000000000000000000000000000000000000000000000000000000610c879190613e04565b905090565b5f7f0000000000000000000000000000000000000000000000000000000000000000905090565b7f000000000000000000000000000000000000000000000000000000000000000081565b610cdf61225a565b610ce76122e1565b565b5f7fffffffffffffffffffffffffffffffffffffffffffffffffffffffffffffffff9050919050565b610d1a61225a565b6107d0811115610d5f576040517f08c379a0000000000000000000000000000000000000000000000000000000008152600401610d5690613e82565b60405180910390fd5b80600e819055507ffc490a62ac4e9c65e252ea87a5730048bcd09d3005944048f6cebf429a71af7a81604051610d95919061388d565b60405180910390a150565b600f5f9054906101000a900473ffffffffffffffffffffffffffffffffffffffff1681565b60095481565b5f610dd6825f612007565b9050919050565b5f60075f9054906101000a900460ff16905090565b600e5481565b5f610e01612342565b610e09612388565b5f8311610e4b576040517f08c379a0000000000000000000000000000000000000000000000000000000008152600401610e4290613eea565b60405180910390fd5b5f610e5684846123c9565b90508360085f828254610e699190613d74565b925050819055508273ffffffffffffffffffffffffffffffffffffffff167f73a19dd210f1a7f902193214c0ee91dd35ee5b4d920cba8d519eca65a7b488ca8583604051610eb8929190613f08565b60405180910390a2610ec8612449565b80915050610ed46124a2565b92915050565b610ee261225a565b6107d0811115610f27576040517f08c379a0000000000000000000000000000000000000000000000000000000008152600401610f1e90613e82565b60405180910390fd5b80600c8190555050565b5f5f5f8373ffffffffffffffffffffffffffffffffffffffff1673ffffffffffffffffffffffffffffffffffffffff1681526020019081526020015f20549050919050565b610f7e61225a565b610f875f6124ac565b565b610f9161225a565b610f99612342565b5f7f000000000000000000000000000000000000000000000000000000000000000073ffffffffffffffffffffffffffffffffffffffff166331e19cfa6040518163ffffffff1660e01b8152600401602060405180830381865afa158015611003573d5f5f3e3d5ffd5b505050506040513d601f19601f820116820180604052508101906110279190613c8e565b90505f8103611036575061149e565b61103e61256f565b505f611048610c8c565b73ffffffffffffffffffffffffffffffffffffffff166370a08231306040518263ffffffff1660e01b81526004016110809190613af6565b602060405180830381865afa15801561109b573d5f5f3e3d5ffd5b505050506040513d601f19601f820116820180604052508101906110bf9190613c8e565b90505f81036110cf57505061149e565b5f612710600e54836110e19190613f2f565b6110eb9190613f9d565b90505f8183116110fb575f611108565b81836111079190613fcd565b5b90505f810361111a575050505061149e565b5f5f90505f5f90505b858110156111f9575f5f7f000000000000000000000000000000000000000000000000000000000000000073ffffffffffffffffffffffffffffffffffffffff1663cfc0cc34846040518263ffffffff1660e01b8152600401611186919061388d565b606060405180830381865afa1580156111a1573d5f5f3e3d5ffd5b505050506040513d601f19601f820116820180604052508101906111c59190613cf7565b92509250508080156111d657505f82115b156111ea5781846111e79190613d74565b93505b50508080600101915050611123565b505f5f90505b85811015611450575f5f5f7f000000000000000000000000000000000000000000000000000000000000000073ffffffffffffffffffffffffffffffffffffffff1663cfc0cc34856040518263ffffffff1660e01b8152600401611263919061388d565b606060405180830381865afa15801561127e573d5f5f3e3d5ffd5b505050506040513d601f19601f820116820180604052508101906112a29190613cf7565b9250925092508015806112b457505f82145b156112c157505050611443565b5f8583886112cf9190613f2f565b6112d99190613f9d565b90505f81036112eb5750505050611443565b6112f3610c8c565b73ffffffffffffffffffffffffffffffffffffffff1663095ea7b385836040518363ffffffff1660e01b815260040161132d929190614000565b6020604051808303815f875af1158015611349573d5f5f3e3d5ffd5b505050506040513d601f19601f8201168201806040525081019061136d9190614027565b508373ffffffffffffffffffffffffffffffffffffffff16636e553f6582306040518363ffffffff1660e01b81526004016113a9929190614052565b6020604051808303815f875af19250505080156113e457506040513d601f19601f820116820180604052508101906113e19190613c8e565b60015b61143d578373ffffffffffffffffffffffffffffffffffffffff167fabc70339363e5874e53ff818b1e49d06b07da9e5655347e99336317d48f89e3b60405161142c906140c3565b60405180910390a250505050611443565b50505050505b80806001019150506111ff565b5042600a819055507fc257294ad49c215e1a248c91a86bc2612b4781d9677285cc9c14498f485ef122426114826108d8565b604051611490929190613f08565b60405180910390a150505050505b6114a66124a2565b565b6114b061225a565b6114b861289b565b565b600c5481565b600d5481565b5f60055f9054906101000a900473ffffffffffffffffffffffffffffffffffffffff16905090565b5f6114f7612342565b6114ff612388565b5f8311611541576040517f08c379a00000000000000000000000000000000000000000000000000000000081526004016115389061412b565b60405180910390fd5b5f61154c84846128fd565b90508060085f82825461155f9190613d74565b925050819055508273ffffffffffffffffffffffffffffffffffffffff167f73a19dd210f1a7f902193214c0ee91dd35ee5b4d920cba8d519eca65a7b488ca82866040516115ae929190613f08565b60405180910390a26115be612449565b809150506115ca6124a2565b92915050565b6060600480546115df90613dd4565b80601f016020809104026020016040519081016040528092919081815260200182805461160b90613dd4565b80156116565780601f1061162d57610100808354040283529160200191611656565b820191905f5260205f20905b81548152906001019060200180831161163957829003601f168201915b5050505050905090565b5f5f61166a61205f565b9050611677818585612163565b600191505092915050565b61168a61225a565b6101f48111156116cf576040517f08c379a00000000000000000000000000000000000000000000000000000000081526004016116c690613e82565b60405180910390fd5b80600d8190555050565b5f6116e5826001612007565b9050919050565b5f6116f5612342565b5f8411611737576040517f08c379a000000000000000000000000000000000000000000000000000000000815260040161172e90614193565b60405180910390fd5b5f61174185611c1f565b90508061174d84610f31565b101561178e576040517f08c379a0000000000000000000000000000000000000000000000000000000008152600401611785906141fb565b60405180910390fd5b5f612710600d54876117a09190613f2f565b6117aa9190613f9d565b90505f81876117b99190613fcd565b90506117c48761297d565b6117ce8584612f7e565b61180086826117db610c8c565b73ffffffffffffffffffffffffffffffffffffffff16612ffd9092919063ffffffff16565b5f8211801561185c57505f73ffffffffffffffffffffffffffffffffffffffff16600f5f9054906101000a900473ffffffffffffffffffffffffffffffffffffffff1673ffffffffffffffffffffffffffffffffffffffff1614155b156118ec576118b4600f5f9054906101000a900473ffffffffffffffffffffffffffffffffffffffff168361188f610c8c565b73ffffffffffffffffffffffffffffffffffffffff16612ffd9092919063ffffffff16565b7fdfba92731fbb9afc3b23b557d4f5043609e05ea68af13a61a9ceb6e0bef6b42f826040516118e39190614263565b60405180910390a15b8660095f8282546118fd9190613d74565b925050819055508573ffffffffffffffffffffffffffffffffffffffff167f92ccf450a286a957af52509bc1c9939d1a6a481783e142e41e2499f0bb66ebc6828560405161194c929190613f08565b60405180910390a261195c612449565b82935050505061196a6124a2565b9392505050565b5f61197a612342565b5f84116119bc576040517f08c379a00000000000000000000000000000000000000000000000000000000081526004016119b3906142d9565b60405180910390fd5b836119c683610f31565b1015611a07576040517f08c379a00000000000000000000000000000000000000000000000000000000081526004016119fe906141fb565b60405180910390fd5b5f611a1185610bc9565b90505f612710600d5483611a259190613f2f565b611a2f9190613f9d565b90505f8183611a3e9190613fcd565b9050611a498361297d565b611a538588612f7e565b611a858682611a60610c8c565b73ffffffffffffffffffffffffffffffffffffffff16612ffd9092919063ffffffff16565b5f82118015611ae157505f73ffffffffffffffffffffffffffffffffffffffff16600f5f9054906101000a900473ffffffffffffffffffffffffffffffffffffffff1673ffffffffffffffffffffffffffffffffffffffff1614155b15611b7157611b39600f5f9054906101000a900473ffffffffffffffffffffffffffffffffffffffff1683611b14610c8c565b73ffffffffffffffffffffffffffffffffffffffff16612ffd9092919063ffffffff16565b7fdfba92731fbb9afc3b23b557d4f5043609e05ea68af13a61a9ceb6e0bef6b42f82604051611b689190614263565b60405180910390a15b8260095f828254611b829190613d74565b925050819055508573ffffffffffffffffffffffffffffffffffffffff167f92ccf450a286a957af52509bc1c9939d1a6a481783e142e41e2499f0bb66ebc68289604051611bd1929190613f08565b60405180910390a2611be1612449565b809350505050611bef6124a2565b9392505050565b5f7fffffffffffffffffffffffffffffffffffffffffffffffffffffffffffffffff9050919050565b5f611c2a825f612078565b9050919050565b5f611c44611c3e83610f31565b5f612007565b9050919050565b5f611c5582610f31565b9050919050565b611c6461225a565b5f7f000000000000000000000000000000000000000000000000000000000000000073ffffffffffffffffffffffffffffffffffffffff166331e19cfa6040518163ffffffff1660e01b8152600401602060405180830381865afa158015611cce573d5f5f3e3d5ffd5b505050506040513d601f19601f82011682018060405250810190611cf29190613c8e565b90505f5f90505b81811015611e2c575f5f7f000000000000000000000000000000000000000000000000000000000000000073ffffffffffffffffffffffffffffffffffffffff1663cfc0cc34846040518263ffffffff1660e01b8152600401611d5c919061388d565b606060405180830381865afa158015611d77573d5f5f3e3d5ffd5b505050506040513d601f19601f82011682018060405250810190611d9b9190613cf7565b925050915080611dac575050611e1f565b8173ffffffffffffffffffffffffffffffffffffffff1663853828b66040518163ffffffff1660e01b81526004016020604051808303815f875af1925050508015611e1557506040513d601f19601f82011682018060405250810190611e129190613c8e565b60015b15611e1c57505b50505b8080600101915050611cf9565b5050565b5f60015f8473ffffffffffffffffffffffffffffffffffffffff1673ffffffffffffffffffffffffffffffffffffffff1681526020019081526020015f205f8373ffffffffffffffffffffffffffffffffffffffff1673ffffffffffffffffffffffffffffffffffffffff1681526020019081526020015f2054905092915050565b611eba61225a565b5f73ffffffffffffffffffffffffffffffffffffffff168173ffffffffffffffffffffffffffffffffffffffff1603611f28576040517f08c379a0000000000000000000000000000000000000000000000000000000008152600401611f1f90614341565b60405180910390fd5b80600f5f6101000a81548173ffffffffffffffffffffffffffffffffffffffff021916908373ffffffffffffffffffffffffffffffffffffffff16021790555050565b5f611f76825f612078565b9050919050565b611f8561225a565b5f73ffffffffffffffffffffffffffffffffffffffff168173ffffffffffffffffffffffffffffffffffffffff1603611ff5575f6040517f1e4fbdf7000000000000000000000000000000000000000000000000000000008152600401611fec9190613af6565b60405180910390fd5b611ffe816124ac565b50565b60085481565b5f61205760016120156108d8565b61201f9190613d74565b612027612253565b600a612033919061448e565b61203b610c1c565b6120459190613d74565b848661307c909392919063ffffffff16565b905092915050565b5f33905090565b61207383838360016130c9565b505050565b5f6120c8612084612253565b600a612090919061448e565b612098610c1c565b6120a29190613d74565b60016120ac6108d8565b6120b69190613d74565b848661307c909392919063ffffffff16565b905092915050565b5f6120db8484611e30565b90507fffffffffffffffffffffffffffffffffffffffffffffffffffffffffffffffff81101561215d578181101561214e578281836040517ffb8f41b2000000000000000000000000000000000000000000000000000000008152600401612145939291906144d8565b60405180910390fd5b61215c84848484035f6130c9565b5b50505050565b5f73ffffffffffffffffffffffffffffffffffffffff168373ffffffffffffffffffffffffffffffffffffffff16036121d3575f6040517f96c6fd1e0000000000000000000000000000000000000000000000000000000081526004016121ca9190613af6565b60405180910390fd5b5f73ffffffffffffffffffffffffffffffffffffffff168273ffffffffffffffffffffffffffffffffffffffff1603612243575f6040517fec442f0500000000000000000000000000000000000000000000000000000000815260040161223a9190613af6565b60405180910390fd5b61224e838383613298565b505050565b5f5f905090565b61226261205f565b73ffffffffffffffffffffffffffffffffffffffff166122806114c6565b73ffffffffffffffffffffffffffffffffffffffff16146122df576122a361205f565b6040517f118cdaa70000000000000000000000000000000000000000000000000000000081526004016122d69190613af6565b60405180910390fd5b565b6122e96134b1565b5f60075f6101000a81548160ff0219169083151502179055507f5db9ee0a495bf2e6ff9c91a7834c1ba4fdd244a5e8aa4e537bd38aeae4b073aa61232b61205f565b6040516123389190613af6565b60405180910390a1565b60026006540361237e576040517f3ee5aeb500000000000000000000000000000000000000000000000000000000815260040160405180910390fd5b6002600681905550565b612390610ddd565b156123c7576040517fd93c066500000000000000000000000000000000000000000000000000000000815260040160405180910390fd5b565b5f5f6123d483610ce9565b90508084111561241f578284826040517f79012fb2000000000000000000000000000000000000000000000000000000008152600401612416939291906144d8565b60405180910390fd5b5f61242985611f6b565b905061243e61243661205f565b8587846134f1565b809250505092915050565b3073ffffffffffffffffffffffffffffffffffffffff16637d7c2a1c6040518163ffffffff1660e01b81526004015f604051808303815f87803b15801561248e575f5ffd5b505af192505050801561249f575060015b50565b6001600681905550565b5f60055f9054906101000a900473ffffffffffffffffffffffffffffffffffffffff1690508160055f6101000a81548173ffffffffffffffffffffffffffffffffffffffff021916908373ffffffffffffffffffffffffffffffffffffffff1602179055508173ffffffffffffffffffffffffffffffffffffffff168173ffffffffffffffffffffffffffffffffffffffff167f8be0079c531659141344cd1fd0a4f28419497f9722a3daafe3b4186f6b6457e060405160405180910390a35050565b5f5f7f000000000000000000000000000000000000000000000000000000000000000073ffffffffffffffffffffffffffffffffffffffff166331e19cfa6040518163ffffffff1660e01b8152600401602060405180830381865afa1580156125da573d5f5f3e3d5ffd5b505050506040513d601f19601f820116820180604052508101906125fe9190613c8e565b90505f5f90505b8181101561274b575f5f7f000000000000000000000000000000000000000000000000000000000000000073ffffffffffffffffffffffffffffffffffffffff1663cfc0cc34846040518263ffffffff1660e01b8152600401612668919061388d565b606060405180830381865afa158015612683573d5f5f3e3d5ffd5b505050506040513d601f19601f820116820180604052508101906126a79190613cf7565b9250509150806126b857505061273e565b8173ffffffffffffffffffffffffffffffffffffffff16634641257d6040518163ffffffff1660e01b81526004016020604051808303815f875af192505050801561272157506040513d601f19601f8201168201806040525081019061271e9190613c8e565b60015b61272c57505061273e565b80866127389190613d74565b95505050505b8080600101915050612605565b505f821115612897575f612710600c54846127669190613f2f565b6127709190613f9d565b90505f811180156127ce57505f73ffffffffffffffffffffffffffffffffffffffff16600f5f9054906101000a900473ffffffffffffffffffffffffffffffffffffffff1673ffffffffffffffffffffffffffffffffffffffff1614155b1561285e57612826600f5f9054906101000a900473ffffffffffffffffffffffffffffffffffffffff1682612801610c8c565b73ffffffffffffffffffffffffffffffffffffffff16612ffd9092919063ffffffff16565b7fdfba92731fbb9afc3b23b557d4f5043609e05ea68af13a61a9ceb6e0bef6b42f816040516128559190614557565b60405180910390a15b7f8e55ccfc9778ff8eba1646d765cf1982537ce0f9257054a17b48aad7452501838360405161288d919061388d565b60405180910390a1505b5090565b6128a3612388565b600160075f6101000a81548160ff0219169083151502179055507f62e78cea01bee320cd4e420270b5ea74000d11b0c9f74754ebdbfc544b05a2586128e661205f565b6040516128f39190613af6565b60405180910390a1565b5f5f61290883611bf6565b905080841115612953578284826040517f284ff66700000000000000000000000000000000000000000000000000000000815260040161294a939291906144d8565b60405180910390fd5b5f61295d856116d9565b905061297261296a61205f565b8583886134f1565b809250505092915050565b5f7f000000000000000000000000000000000000000000000000000000000000000073ffffffffffffffffffffffffffffffffffffffff166331e19cfa6040518163ffffffff1660e01b8152600401602060405180830381865afa1580156129e7573d5f5f3e3d5ffd5b505050506040513d601f19601f82011682018060405250810190612a0b9190613c8e565b90505f5f90505f5f90505b82811015612aec575f5f7f000000000000000000000000000000000000000000000000000000000000000073ffffffffffffffffffffffffffffffffffffffff1663cfc0cc34846040518263ffffffff1660e01b8152600401612a79919061388d565b606060405180830381865afa158015612a94573d5f5f3e3d5ffd5b505050506040513d601f19601f82011682018060405250810190612ab89190613cf7565b9250925050808015612ac957505f82115b15612add578184612ada9190613d74565b93505b50508080600101915050612a16565b505f5f90505b82811015612eb7575f5f5f7f000000000000000000000000000000000000000000000000000000000000000073ffffffffffffffffffffffffffffffffffffffff1663cfc0cc34856040518263ffffffff1660e01b8152600401612b56919061388d565b606060405180830381865afa158015612b71573d5f5f3e3d5ffd5b505050506040513d601f19601f82011682018060405250810190612b959190613cf7565b925092509250801580612ba757505f82145b15612bb457505050612eaa565b5f858389612bc29190613f2f565b612bcc9190613f9d565b90505f8103612bde5750505050612eaa565b5f612be7610c8c565b73ffffffffffffffffffffffffffffffffffffffff166370a08231306040518263ffffffff1660e01b8152600401612c1f9190613af6565b602060405180830381865afa158015612c3a573d5f5f3e3d5ffd5b505050506040513d601f19601f82011682018060405250810190612c5e9190613c8e565b90508473ffffffffffffffffffffffffffffffffffffffff1663b460af948330306040518463ffffffff1660e01b8152600401612c9d93929190614583565b6020604051808303815f875af1925050508015612cd857506040513d601f19601f82011682018060405250810190612cd59190613c8e565b60015b612db457612ce46145c4565b806308c379a003612d5c5750612cf8614641565b80612d035750612d5e565b8573ffffffffffffffffffffffffffffffffffffffff167fabc70339363e5874e53ff818b1e49d06b07da9e5655347e99336317d48f89e3b82604051612d499190613916565b60405180910390a2505050505050612eaa565b505b8473ffffffffffffffffffffffffffffffffffffffff167fabc70339363e5874e53ff818b1e49d06b07da9e5655347e99336317d48f89e3b604051612da29061471a565b60405180910390a25050505050612eaa565b5f612dbd610c8c565b73ffffffffffffffffffffffffffffffffffffffff166370a08231306040518263ffffffff1660e01b8152600401612df59190613af6565b602060405180830381865afa158015612e10573d5f5f3e3d5ffd5b505050506040513d601f19601f82011682018060405250810190612e349190613c8e565b90505f838211612e445782612e51565b8382612e509190613fcd565b5b90508773ffffffffffffffffffffffffffffffffffffffff167f47a0288289f9248f1cc731abd5fcd916c55fa1577b883cf69bff73382853523682604051612e99919061388d565b60405180910390a250505050505050505b8080600101915050612af2565b5082612ec1610c8c565b73ffffffffffffffffffffffffffffffffffffffff166370a08231306040518263ffffffff1660e01b8152600401612ef99190613af6565b602060405180830381865afa158015612f14573d5f5f3e3d5ffd5b505050506040513d601f19601f82011682018060405250810190612f389190613c8e565b1015612f79576040517f08c379a0000000000000000000000000000000000000000000000000000000008152600401612f70906147ce565b60405180910390fd5b505050565b5f73ffffffffffffffffffffffffffffffffffffffff168273ffffffffffffffffffffffffffffffffffffffff1603612fee575f6040517f96c6fd1e000000000000000000000000000000000000000000000000000000008152600401612fe59190613af6565b60405180910390fd5b612ff9825f83613298565b5050565b613077838473ffffffffffffffffffffffffffffffffffffffff1663a9059cbb8585604051602401613030929190614000565b604051602081830303815290604052915060e01b6020820180517bffffffffffffffffffffffffffffffffffffffffffffffffffffffff838183161783525050505061357b565b505050565b5f6130aa61308983613616565b80156130a557505f84806130a05761309f613f70565b5b868809115b613643565b6130b586868661364e565b6130bf9190613d74565b9050949350505050565b5f73ffffffffffffffffffffffffffffffffffffffff168473ffffffffffffffffffffffffffffffffffffffff1603613139575f6040517fe602df050000000000000000000000000000000000000000000000000000000081526004016131309190613af6565b60405180910390fd5b5f73ffffffffffffffffffffffffffffffffffffffff168373ffffffffffffffffffffffffffffffffffffffff16036131a9575f6040517f94280d620000000000000000000000000000000000000000000000000000000081526004016131a09190613af6565b60405180910390fd5b8160015f8673ffffffffffffffffffffffffffffffffffffffff1673ffffffffffffffffffffffffffffffffffffffff1681526020019081526020015f205f8573ffffffffffffffffffffffffffffffffffffffff1673ffffffffffffffffffffffffffffffffffffffff1681526020019081526020015f20819055508015613292578273ffffffffffffffffffffffffffffffffffffffff168473ffffffffffffffffffffffffffffffffffffffff167f8c5be1e5ebec7d5bd14f71427d1e84f3dd0314c0f7b2291e5b200ac8c7c3b92584604051613289919061388d565b60405180910390a35b50505050565b5f73ffffffffffffffffffffffffffffffffffffffff168373ffffffffffffffffffffffffffffffffffffffff16036132e8578060025f8282546132dc9190613d74565b925050819055506133b6565b5f5f5f8573ffffffffffffffffffffffffffffffffffffffff1673ffffffffffffffffffffffffffffffffffffffff1681526020019081526020015f2054905081811015613371578381836040517fe450d38c000000000000000000000000000000000000000000000000000000008152600401613368939291906144d8565b60405180910390fd5b8181035f5f8673ffffffffffffffffffffffffffffffffffffffff1673ffffffffffffffffffffffffffffffffffffffff1681526020019081526020015f2081905550505b5f73ffffffffffffffffffffffffffffffffffffffff168273ffffffffffffffffffffffffffffffffffffffff16036133fd578060025f8282540392505081905550613447565b805f5f8473ffffffffffffffffffffffffffffffffffffffff1673ffffffffffffffffffffffffffffffffffffffff1681526020019081526020015f205f82825401925050819055505b8173ffffffffffffffffffffffffffffffffffffffff168373ffffffffffffffffffffffffffffffffffffffff167fddf252ad1be2c89b69c2b068fc378daa952ba7f163c4a11628f55a4df523b3ef836040516134a4919061388d565b60405180910390a3505050565b6134b9610ddd565b6134ef576040517f8dfc202b00000000000000000000000000000000000000000000000000000000815260040160405180910390fd5b565b6135046134fc610c8c565b85308561372d565b61350e83826137af565b8273ffffffffffffffffffffffffffffffffffffffff168473ffffffffffffffffffffffffffffffffffffffff167fdcbc1c05240f31ff3ad067ef1ee35ce4997762752e3a095284754544f4c709d7848460405161356d929190613f08565b60405180910390a350505050565b5f5f60205f8451602086015f885af18061359a576040513d5f823e3d81fd5b3d92505f519150505f82146135b35760018114156135ce565b5f8473ffffffffffffffffffffffffffffffffffffffff163b145b1561361057836040517f5274afe70000000000000000000000000000000000000000000000000000000081526004016136079190613af6565b60405180910390fd5b50505050565b5f6001600283600381111561362e5761362d6147ec565b5b6136389190614819565b60ff16149050919050565b5f8115159050919050565b5f5f5f61365b868661382e565b915091505f82036136805783818161367657613675613f70565b5b0492505050613726565b81841161369f5761369e6136995f86146012601161384b565b613864565b5b5f8486880990508181118303925080820391505f855f038616905080860495508083049250600181825f0304019050808402831792505f600287600302189050808702600203810290508087026002038102905080870260020381029050808702600203810290508087026002038102905080870260020381029050808402955050505050505b9392505050565b6137a9848573ffffffffffffffffffffffffffffffffffffffff166323b872dd86868660405160240161376293929190614849565b604051602081830303815290604052915060e01b6020820180517bffffffffffffffffffffffffffffffffffffffffffffffffffffffff838183161783525050505061357b565b50505050565b5f73ffffffffffffffffffffffffffffffffffffffff168273ffffffffffffffffffffffffffffffffffffffff160361381f575f6040517fec442f050000000000000000000000000000000000000000000000000000000081526004016138169190613af6565b60405180910390fd5b61382a5f8383613298565b5050565b5f5f5f198385098385029150818110828203039250509250929050565b5f61385584613643565b82841802821890509392505050565b634e487b715f52806020526024601cfd5b5f819050919050565b61388781613875565b82525050565b5f6020820190506138a05f83018461387e565b92915050565b5f81519050919050565b5f82825260208201905092915050565b8281835e5f83830152505050565b5f601f19601f8301169050919050565b5f6138e8826138a6565b6138f281856138b0565b93506139028185602086016138c0565b61390b816138ce565b840191505092915050565b5f6020820190508181035f83015261392e81846138de565b905092915050565b5f604051905090565b5f5ffd5b61394c81613875565b8114613956575f5ffd5b50565b5f8135905061396781613943565b92915050565b5f602082840312156139825761398161393f565b5b5f61398f84828501613959565b91505092915050565b5f73ffffffffffffffffffffffffffffffffffffffff82169050919050565b5f6139c182613998565b9050919050565b6139d1816139b7565b81146139db575f5ffd5b50565b5f813590506139ec816139c8565b92915050565b5f5f60408385031215613a0857613a0761393f565b5b5f613a15858286016139de565b9250506020613a2685828601613959565b9150509250929050565b5f8115159050919050565b613a4481613a30565b82525050565b5f602082019050613a5d5f830184613a3b565b92915050565b5f5f5f60608486031215613a7a57613a7961393f565b5b5f613a87868287016139de565b9350506020613a98868287016139de565b9250506040613aa986828701613959565b9150509250925092565b5f60ff82169050919050565b613ac881613ab3565b82525050565b5f602082019050613ae15f830184613abf565b92915050565b613af0816139b7565b82525050565b5f602082019050613b095f830184613ae7565b92915050565b5f819050919050565b5f613b32613b2d613b2884613998565b613b0f565b613998565b9050919050565b5f613b4382613b18565b9050919050565b5f613b5482613b39565b9050919050565b613b6481613b4a565b82525050565b5f602082019050613b7d5f830184613b5b565b92915050565b5f60208284031215613b9857613b9761393f565b5b5f613ba5848285016139de565b91505092915050565b5f5f60408385031215613bc457613bc361393f565b5b5f613bd185828601613959565b9250506020613be2858286016139de565b9150509250929050565b5f5f5f60608486031215613c0357613c0261393f565b5b5f613c1086828701613959565b9350506020613c21868287016139de565b9250506040613c32868287016139de565b9150509250925092565b5f5f60408385031215613c5257613c5161393f565b5b5f613c5f858286016139de565b9250506020613c70858286016139de565b9150509250929050565b5f81519050613c8881613943565b92915050565b5f60208284031215613ca357613ca261393f565b5b5f613cb084828501613c7a565b91505092915050565b5f81519050613cc7816139c8565b92915050565b613cd681613a30565b8114613ce0575f5ffd5b50565b5f81519050613cf181613ccd565b92915050565b5f5f5f60608486031215613d0e57613d0d61393f565b5b5f613d1b86828701613cb9565b9350506020613d2c86828701613c7a565b9250506040613d3d86828701613ce3565b9150509250925092565b7f4e487b71000000000000000000000000000000000000000000000000000000005f52601160045260245ffd5b5f613d7e82613875565b9150613d8983613875565b9250828201905080821115613da157613da0613d47565b5b92915050565b7f4e487b71000000000000000000000000000000000000000000000000000000005f52602260045260245ffd5b5f6002820490506001821680613deb57607f821691505b602082108103613dfe57613dfd613da7565b5b50919050565b5f613e0e82613ab3565b9150613e1983613ab3565b9250828201905060ff811115613e3257613e31613d47565b5b92915050565b7f546f6f20686967680000000000000000000000000000000000000000000000005f82015250565b5f613e6c6008836138b0565b9150613e7782613e38565b602082019050919050565b5f6020820190508181035f830152613e9981613e60565b9050919050565b7f43616e6e6f74206465706f7369742030000000000000000000000000000000005f82015250565b5f613ed46010836138b0565b9150613edf82613ea0565b602082019050919050565b5f6020820190508181035f830152613f0181613ec8565b9050919050565b5f604082019050613f1b5f83018561387e565b613f28602083018461387e565b9392505050565b5f613f3982613875565b9150613f4483613875565b9250828202613f5281613875565b91508282048414831517613f6957613f68613d47565b5b5092915050565b7f4e487b71000000000000000000000000000000000000000000000000000000005f52601260045260245ffd5b5f613fa782613875565b9150613fb283613875565b925082613fc257613fc1613f70565b5b828204905092915050565b5f613fd782613875565b9150613fe283613875565b9250828203905081811115613ffa57613ff9613d47565b5b92915050565b5f6040820190506140135f830185613ae7565b614020602083018461387e565b9392505050565b5f6020828403121561403c5761403b61393f565b5b5f61404984828501613ce3565b91505092915050565b5f6040820190506140655f83018561387e565b6140726020830184613ae7565b9392505050565b7f6465706f736974207265766572746564000000000000000000000000000000005f82015250565b5f6140ad6010836138b0565b91506140b882614079565b602082019050919050565b5f6020820190508181035f8301526140da816140a1565b9050919050565b7f43616e6e6f74206d696e742030000000000000000000000000000000000000005f82015250565b5f614115600d836138b0565b9150614120826140e1565b602082019050919050565b5f6020820190508181035f83015261414281614109565b9050919050565b7f43616e6e6f7420776974686472617720300000000000000000000000000000005f82015250565b5f61417d6011836138b0565b915061418882614149565b602082019050919050565b5f6020820190508181035f8301526141aa81614171565b9050919050565b7f496e73756666696369656e7420736861726573000000000000000000000000005f82015250565b5f6141e56013836138b0565b91506141f0826141b1565b602082019050919050565b5f6020820190508181035f830152614212816141d9565b9050919050565b7f7769746864726177616c000000000000000000000000000000000000000000005f82015250565b5f61424d600a836138b0565b915061425882614219565b602082019050919050565b5f6040820190506142765f83018461387e565b818103602083015261428781614241565b905092915050565b7f43616e6e6f742072656465656d203000000000000000000000000000000000005f82015250565b5f6142c3600f836138b0565b91506142ce8261428f565b602082019050919050565b5f6020820190508181035f8301526142f0816142b7565b9050919050565b7f496e76616c6964000000000000000000000000000000000000000000000000005f82015250565b5f61432b6007836138b0565b9150614336826142f7565b602082019050919050565b5f6020820190508181035f8301526143588161431f565b9050919050565b5f8160011c9050919050565b5f5f8291508390505b60018511156143b4578086048111156143905761438f613d47565b5b600185161561439f5780820291505b80810290506143ad8561435f565b9450614374565b94509492505050565b5f826143cc5760019050614487565b816143d9575f9050614487565b81600181146143ef57600281146143f957614428565b6001915050614487565b60ff84111561440b5761440a613d47565b5b8360020a91508482111561442257614421613d47565b5b50614487565b5060208310610133831016604e8410600b841016171561445d5782820a90508381111561445857614457613d47565b5b614487565b61446a848484600161436b565b9250905081840481111561448157614480613d47565b5b81810290505b9392505050565b5f61449882613875565b91506144a383613ab3565b92506144d07fffffffffffffffffffffffffffffffffffffffffffffffffffffffffffffffff84846143bd565b905092915050565b5f6060820190506144eb5f830186613ae7565b6144f8602083018561387e565b614505604083018461387e565b949350505050565b7f706572666f726d616e63650000000000000000000000000000000000000000005f82015250565b5f614541600b836138b0565b915061454c8261450d565b602082019050919050565b5f60408201905061456a5f83018461387e565b818103602083015261457b81614535565b905092915050565b5f6060820190506145965f83018661387e565b6145a36020830185613ae7565b6145b06040830184613ae7565b949350505050565b5f8160e01c9050919050565b5f60033d11156145e05760045f5f3e6145dd5f516145b8565b90505b90565b7f4e487b71000000000000000000000000000000000000000000000000000000005f52604160045260245ffd5b614619826138ce565b810181811067ffffffffffffffff82111715614638576146376145e3565b5b80604052505050565b5f60443d106146cd57614652613936565b60043d036004823e80513d602482011167ffffffffffffffff8211171561467a5750506146cd565b808201805167ffffffffffffffff81111561469857505050506146cd565b80602083010160043d0385018111156146b55750505050506146cd565b6146c482602001850186614610565b82955050505050505b90565b7f77697468647261772072657665727465640000000000000000000000000000005f82015250565b5f6147046011836138b0565b915061470f826146d0565b602082019050919050565b5f6020820190508181035f830152614731816146f8565b9050919050565b7f5969656c645661756c743a20696e73756666696369656e74206c6971756964695f8201527f74792061667465722070726f706f7274696f6e616c207769746864726177616c60208201527f7300000000000000000000000000000000000000000000000000000000000000604082015250565b5f6147b86041836138b0565b91506147c382614738565b606082019050919050565b5f6020820190508181035f8301526147e5816147ac565b9050919050565b7f4e487b71000000000000000000000000000000000000000000000000000000005f52602160045260245ffd5b5f61482382613ab3565b915061482e83613ab3565b92508261483e5761483d613f70565b5b828206905092915050565b5f60608201905061485c5f830186613ae7565b6148696020830185613ae7565b614876604083018461387e565b94935050505056fea2646970667358221220ce85cd5fe0a94a1453b00fcf51df8a736788cdab4329b78b53f6321e6750876964736f6c634300081e0033","linkReferences":{}},"methodIdentifiers":{"allowance(address,address)":"dd62ed3e","approve(address,uint256)":"095ea7b3","asset()":"38d52e0f","balanceOf(address)":"70a08231","convertToAssets(uint256)":"07a2d13a","convertToShares(uint256)":"c6e6f592","decimals()":"313ce567","deposit(uint256,address)":"6e553f65","emergencyWithdrawAll()":"dd191719","feeRecipient()":"46904840","lastRebalance()":"106b9ca1","liquidityBufferBps()":"6d81c696","maxDeposit(address)":"402d267d","maxMint(address)":"c63d75b6","maxRedeem(address)":"d905777e","maxWithdraw(address)":"ce96cb77","mint(uint256,address)":"94bf804d","name()":"06fdde03","owner()":"8da5cb5b","pause()":"8456cb59","paused()":"5c975abb","performanceFee()":"87788782","previewDeposit(uint256)":"ef8b30f7","previewMint(uint256)":"b3d7f6b9","previewRedeem(uint256)":"4cdad506","previewWithdraw(uint256)":"0a28a477","rebalance()":"7d7c2a1c","rebalanceInterval()":"16d1d916","redeem(uint256,address,address)":"ba087652","renounceOwnership()":"715018a6","setFeeRecipient(address)":"e74b981b","setLiquidityBufferBps(uint256)":"40d0892b","setPerformanceFee(uint256)":"70897b23","setWithdrawalFee(uint256)":"ac1e5025","strategyManager()":"39b70e38","symbol()":"95d89b41","totalAssets()":"01e1d114","totalDeposited()":"ff50abdc","totalSupply()":"18160ddd","totalWithdrawn()":"4b319713","transfer(address,uint256)":"a9059cbb","transferFrom(address,address,uint256)":"23b872dd","transferOwnership(address)":"f2fde38b","unpause()":"3f4ba83a","withdraw(uint256,address,address)":"b460af94","withdrawalFee()":"8bc7e8c4"},"id":35}