{"abi":[{"type":"constructor","inputs":[{"name":"_asset","type":"address","internalType":"contract IERC20"},{"name":"_strategyManager","type":"address","internalType":"address"}],"stateMutability":"nonpayable"},{"type":"function","name":"allowance","inputs":[{"name":"owner","type":"address","internalType":"address"},{"name":"spender","type":"address","internalType":"address"}],"outputs":[{"name":"","type":"uint256","internalType":"uint256"}],"stateMutability":"view"},{"type":"function","name":"approve","inputs":[{"name":"spender","type":"address","internalType":"address"},{"name":"value","type":"uint256","internalType":"uint256"}],"outputs":[{"name":"","type":"bool","internalType":"bool"}],"stateMutability":"nonpayable"},{"type":"function","name":"asset","inputs":[],"outputs":[{"name":"","type":"address","internalType":"address"}],"stateMutability":"view"},{"type":"function","name":"balanceOf","inputs":[{"name":"account","type":"address","internalType":"address"}],"outputs":[{"name":"","type":"uint256","internalType":"uint256"}],"stateMutability":"view"},{"type":"function","name":"convertToAssets","inputs":[{"name":"shares","type":"uint256","internalType":"uint256"}],"outputs":[{"name":"","type":"uint256","internalType":"uint256"}],"stateMutability":"view"},{"type":"function","name":"convertToShares","inputs":[{"name":"assets","type":"uint256","internalType":"uint256"}],"outputs":[{"name":"","type":"uint256","internalType":"uint256"}],"stateMutability":"view"},{"type":"function","name":"decimals","inputs":[],"outputs":[{"name":"","type":"uint8","internalType":"uint8"}],"stateMutability":"view"},{"type":"function","name":"deposit","inputs":[{"name":"assets","type":"uint256","internalType":"uint256"},{"name":"receiver","type":"address","internalType":"address"}],"outputs":[{"name":"","type":"uint256","internalType":"uint256"}],"stateMutability":"nonpayable"},{"type":"function","name":"emergencyWithdrawAll","inputs":[],"outputs":[],"stateMutability":"nonpayable"},{"type":"function","name":"feeRecipient","inputs":[],"outputs":[{"name":"","type":"address","internalType":"address"}],"stateMutability":"view"},{"type":"function","name":"lastRebalance","inputs":[],"outputs":[{"name":"","type":"uint256","internalType":"uint256"}],"stateMutability":"view"},{"type":"function","name":"liquidityBufferBps","inputs":[],"outputs":[{"name":"","type":"uint256","internalType":"uint256"}],"stateMutability":"view"},{"type":"function","name":"maxDeposit","inputs":[{"name":"","type":"address","internalType":"address"}],"outputs":[{"name":"","type":"uint256","internalType":"uint256"}],"stateMutability":"view"},{"type":"function","name":"maxMint","inputs":[{"name":"","type":"address","internalType":"address"}],"outputs":[{"name":"","type":"uint256","internalType":"uint256"}],"stateMutability":"view"},{"type":"function","name":"maxRedeem","inputs":[{"name":"owner","type":"address","internalType":"address"}],"outputs":[{"name":"","type":"uint256","internalType":"uint256"}],"stateMutability":"view"},{"type":"function","name":"maxWithdraw","inputs":[{"name":"owner","type":"address","internalType":"address"}],"outputs":[{"name":"","type":"uint256","internalType":"uint256"}],"stateMutability":"view"},{"type":"function","name":"mint","inputs":[{"name":"shares","type":"uint256","internalType":"uint256"},{"name":"receiver","type":"address","internalType":"address"}],"outputs":[{"name":"","type":"uint256","internalType":"uint256"}],"stateMutability":"nonpayable"},{"type":"function","name":"name","inputs":[],"outputs":[{"name":"","type":"string","internalType":"string"}],"stateMutability":"view"},{"type":"function","name":"owner","inputs":[],"outputs":[{"name":"","type":"address","internalType":"address"}],"stateMutability":"view"},{"type":"function","name":"pause","inputs":[],"outputs":[],"stateMutability":"nonpayable"},{"type":"function","name":"paused","inputs":[],"outputs":[{"name":"","type":"bool","internalType":"bool"}],"stateMutability":"view"},{"type":"function","name":"performanceFee","inputs":[],"outputs":[{"name":"","type":"uint256","internalType":"uint256"}],"stateMutability":"view"},{"type":"function","name":"previewDeposit","inputs":[{"name":"assets","type":"uint256","internalType":"uint256"}],"outputs":[{"name":"","type":"uint256","internalType":"uint256"}],"stateMutability":"view"},{"type":"function","name":"previewMint","inputs":[{"name":"shares","type":"uint256","internalType":"uint256"}],"outputs":[{"name":"","type":"uint256","internalType":"uint256"}],"stateMutability":"view"},{"type":"function","name":"previewRedeem","inputs":[{"name":"shares","type":"uint256","internalType":"uint256"}],"outputs":[{"name":"","type":"uint256","internalType":"uint256"}],"stateMutability":"view"},{"type":"function","name":"previewWithdraw","inputs":[{"name":"assets","type":"uint256","internalType":"uint256"}],"outputs":[{"name":"","type":"uint256","internalType":"uint256"}],"stateMutability":"view"},{"type":"function","name":"rebalance","inputs":[],"outputs":[],"stateMutability":"nonpayable"},{"type":"function","name":"rebalanceInterval","inputs":[],"outputs":[{"name":"","type":"uint256","internalType":"uint256"}],"stateMutability":"view"},{"type":"function","name":"redeem","inputs":[{"name":"shares","type":"uint256","internalType":"uint256"},{"name":"receiver","type":"address","internalType":"address"},{"name":"owner","type":"address","internalType":"address"}],"outputs":[{"name":"","type":"uint256","internalType":"uint256"}],"stateMutability":"nonpayable"},{"type":"function","name":"renounceOwnership","inputs":[],"outputs":[],"stateMutability":"nonpayable"},{"type":"function","name":"setFeeRecipient","inputs":[{"name":"recipient","type":"address","internalType":"address"}],"outputs":[],"stateMutability":"nonpayable"},{"type":"function","name":"setLiquidityBufferBps","inputs":[{"name":"bps","type":"uint256","internalType":"uint256"}],"outputs":[],"stateMutability":"nonpayable"},{"type":"function","name":"setPerformanceFee","inputs":[{"name":"fee","type":"uint256","internalType":"uint256"}],"outputs":[],"stateMutability":"nonpayable"},{"type":"function","name":"setWithdrawalFee","inputs":[{"name":"fee","type":"uint256","internalType":"uint256"}],"outputs":[],"stateMutability":"nonpayable"},{"type":"function","name":"strategyManager","inputs":[],"outputs":[{"name":"","type":"address","internalType":"contract StrategyManager"}],"stateMutability":"view"},{"type":"function","name":"symbol","inputs":[],"outputs":[{"name":"","type":"string","internalType":"string"}],"stateMutability":"view"},{"type":"function","name":"totalAssets","inputs":[],"outputs":[{"name":"","type":"uint256","internalType":"uint256"}],"stateMutability":"view"},{"type":"function","name":"totalDeposited","inputs":[],"outputs":[{"name":"","type":"uint256","internalType":"uint256"}],"stateMutability":"view"},{"type":"function","name":"totalSupply","inputs":[],"outputs":[{"name":"","type":"uint256","internalType":"uint256"}],"stateMutability":"view"},{"type":"function","name":"totalWithdrawn","inputs":[],"outputs":[{"name":"","type":"uint256","internalType":"uint256"}],"stateMutability":"view"},{"type":"function","name":"transfer","inputs":[{"name":"to","type":"address","internalType":"address"},{"name":"value","type":"uint256","internalType":"uint256"}],"outputs":[{"name":"","type":"bool","internalType":"bool"}],"stateMutability":"nonpayable"},{"type":"function","name":"transferFrom","inputs":[{"name":"from","type":"address","internalType":"address"},{"name":"to","type":"address","internalType":"address"},{"name":"value","type":"uint256","internalType":"uint256"}],"outputs":[{"name":"","type":"bool","internalType":"bool"}],"stateMutability":"nonpayable"},{"type":"function","name":"transferOwnership","inputs":[{"name":"newOwner","type":"address","internalType":"address"}],"outputs":[],"stateMutability":"nonpayable"},{"type":"function","name":"unpause","inputs":[],"outputs":[],"stateMutability":"nonpayable"},{"type":"function","name":"withdraw","inputs":[{"name":"assets","type":"uint256","internalType":"uint256"},{"name":"receiver","type":"address","internalType":"address"},{"name":"owner","type":"address","internalType":"address"}],"outputs":[{"name":"","type":"uint256","internalType":"uint256"}],"stateMutability":"nonpayable"},{"type":"function","name":"withdrawalFee","inputs":[],"outputs":[{"name":"","type":"uint256","internalType":"uint256"}],"stateMutability":"view"},{"type":"event","name":"Approval","inputs":[{"name":"owner","type":"address","indexed":true,"internalType":"address"},{"name":"spender","type":"address","indexed":true,"internalType":"address"},{"name":"value","type":"uint256","indexed":false,"internalType":"uint256"}],"anonymous":false},{"type":"event","name":"Deposit","inputs":[{"name":"sender","type":"address","indexed":true,"internalType":"address"},{"name":"owner","type":"address","indexed":true,"internalType":"address"},{"name":"assets","type":"uint256","indexed":false,"internalType":"uint256"},{"name":"shares","type":"uint256","indexed":false,"internalType":"uint256"}],"anonymous":false},{"type":"event","name":"Deposited","inputs":[{"name":"user","type":"address","indexed":true,"internalType":"address"},{"name":"assets","type":"uint256","indexed":false,"internalType":"uint256"},{"name":"shares","type":"uint256","indexed":false,"internalType":"uint256"}],"anonymous":false},{"type":"event","name":"FeesCollected","inputs":[{"name":"amount","type":"uint256","indexed":false,"internalType":"uint256"},{"name":"feeType","type":"string","indexed":false,"internalType":"string"}],"anonymous":false},{"type":"event","name":"Harvested","inputs":[{"name":"totalYield","type":"uint256","indexed":false,"internalType":"uint256"}],"anonymous":false},{"type":"event","name":"LiquidityBufferUpdated","inputs":[{"name":"newBps","type":"uint256","indexed":false,"internalType":"uint256"}],"anonymous":false},{"type":"event","name":"OwnershipTransferred","inputs":[{"name":"previousOwner","type":"address","indexed":true,"internalType":"address"},{"name":"newOwner","type":"address","indexed":true,"internalType":"address"}],"anonymous":false},{"type":"event","name":"Paused","inputs":[{"name":"account","type":"address","indexed":false,"internalType":"address"}],"anonymous":false},{"type":"event","name":"Rebalanced","inputs":[{"name":"timestamp","type":"uint256","indexed":false,"internalType":"uint256"},{"name":"totalAssets","type":"uint256","indexed":false,"internalType":"uint256"}],"anonymous":false},{"type":"event","name":"StrategyWithdrawError","inputs":[{"name":"strategy","type":"address","indexed":true,"internalType":"address"},{"name":"reason","type":"string","indexed":false,"internalType":"string"}],"anonymous":false},{"type":"event","name":"StrategyWithdrawn","inputs":[{"name":"strategy","type":"address","indexed":true,"internalType":"address"},{"name":"amount","type":"uint256","indexed":false,"internalType":"uint256"}],"anonymous":false},{"type":"event","name":"Transfer","inputs":[{"name":"from","type":"address","indexed":true,"internalType":"address"},{"name":"to","type":"address","indexed":true,"internalType":"address"},{"name":"value","type":"uint256","indexed":false,"internalType":"uint256"}],"anonymous":false},{"type":"event","name":"Unpaused","inputs":[{"name":"account","type":"address","indexed":false,"internalType":"address"}],"anonymous":false},{"type":"event","name":"Withdraw","inputs":[{"name":"sender","type":"address","indexed":true,"internalType":"address"},{"name":"receiver","type":"address","indexed":true,"internalType":"address"},{"name":"owner","type":"address","indexed":true,"internalType":"address"},{"name":"assets","type":"uint256","indexed":false,"internalType":"uint256"},{"name":"shares","type":"uint256","indexed":false,"internalType":"uint256"}],"anonymous":false},{"type":"event","name":"Withdrawn","inputs":[{"name":"user","type":"address","indexed":true,"internalType":"address"},{"name":"assets","type":"uint256","indexed":false,"internalType":"uint256"},{"name":"shares","type":"uint256","indexed":false,"internalType":"uint256"}],"anonymous":false},{"type":"error","name":"ERC20InsufficientAllowance","inputs":[{"name":"spender","type":"address","internalType":"address"},{"name":"allowance","type":"uint256","internalType":"uint256"},{"name":"needed","type":"uint256","internalType":"uint256"}]},{"type":"error","name":"ERC20InsufficientBalance","inputs":[{"name":"sender","type":"address","internalType":"address"},{"name":"balance","type":"uint256","internalType":"uint256"},{"name":"needed","type":"uint256","internalType":"uint256"}]},{"type":"error","name":"ERC20InvalidApprover","inputs":[{"name":"approver","type":"address","internalType":"address"}]},{"type":"error","name":"ERC20InvalidReceiver","inputs":[{"name":"receiver","type":"address","internalType":"address"}]},{"type":"error","name":"ERC20InvalidSender","inputs":[{"name":"sender","type":"address","internalType":"address"}]},{"type":"error","name":"ERC20InvalidSpender","inputs":[{"name":"spender","type":"address","internalType":"address"}]},{"type":"error","name":"ERC4626ExceededMaxDeposit","inputs":[{"name":"receiver","type":"address","internalType":"address"},{"name":"assets","type":"uint256","internalType":"uint256"},{"name":"max","type":"uint256","internalType":"uint256"}]},{"type":"error","name":"ERC4626ExceededMaxMint","inputs":[{"name":"receiver","type":"address","internalType":"address"},{"name":"shares","type":"uint256","internalType":"uint256"},{"name":"max","type":"uint256","internalType":"uint256"}]},{"type":"error","name":"ERC4626ExceededMaxRedeem","inputs":[{"name":"owner","type":"address","internalType":"address"},{"name":"shares","type":"uint256","internalType":"uint256"},{"name":"max","type":"uint256","internalType":"uint256"}]},{"type":"error","name":"ERC4626ExceededMaxWithdraw","inputs":[{"name":"owner","type":"address","internalType":"address"},{"name":"assets","type":"uint256","internalType":"uint256"},{"name":"max","type":"uint256","internalType":"uint256"}]},{"type":"error","name":"EnforcedPause","inputs":[]},{"type":"error","name":"ExpectedPause","inputs":[]},{"type":"error","name":"OwnableInvalidOwner","inputs":[{"name":"owner","type":"address","internalType":"address"}]},{"type":"error","name":"OwnableUnauthorizedAccount","inputs":[{"name":"account","type":"address","internalType":"address"}]},{"type":"error","name":"ReentrancyGuardReentrantCall","inputs":[]},{"type":"error","name":"SafeERC20FailedOperation","inputs":[{"name":"token","type":"address","internalType":"address"}]}],"bytecode":{"object":"0x60e060405262015180600b556103e8600c556032600d556101f4600e55348015610027575f5ffd5b506040516153983803806153988339818101604052810190610049919061051d565b33826040518060400160405280600781526020017f496e7369676874000000000000000000000000000000000000000000000000008152506040518060400160405280600781526020017f494e53494748540000000000000000000000000000000000000000000000000081525081600390816100c69190610798565b5080600490816100d69190610798565b5050505f5f6100ea836102b860201b60201c565b91509150816100fa5760126100fc565b805b60ff1660a08160ff16815250508273ffffffffffffffffffffffffffffffffffffffff1660808173ffffffffffffffffffffffffffffffffffffffff16815250505050505f73ffffffffffffffffffffffffffffffffffffffff168173ffffffffffffffffffffffffffffffffffffffff16036101b0575f6040517f1e4fbdf70000000000000000000000000000000000000000000000000000000081526004016101a79190610876565b60405180910390fd5b6101bf816103c160201b60201c565b5060016006819055505f73ffffffffffffffffffffffffffffffffffffffff168173ffffffffffffffffffffffffffffffffffffffff1603610236576040517f08c379a000000000000000000000000000000000000000000000000000000000815260040161022d906108e9565b60405180910390fd5b8073ffffffffffffffffffffffffffffffffffffffff1660c08173ffffffffffffffffffffffffffffffffffffffff168152505033600f5f6101000a81548173ffffffffffffffffffffffffffffffffffffffff021916908373ffffffffffffffffffffffffffffffffffffffff16021790555042600a8190555050506109c4565b5f5f5f5f8473ffffffffffffffffffffffffffffffffffffffff1660405160240160405160208183030381529060405263313ce56760e01b6020820180517bffffffffffffffffffffffffffffffffffffffffffffffffffffffff838183161783525050505060405161032b9190610959565b5f60405180830381855afa9150503d805f8114610363576040519150601f19603f3d011682016040523d82523d5f602084013e610368565b606091505b509150915081801561037c57506020815110155b156103b3575f818060200190518101906103969190610999565b905060ff801681116103b157600181945094505050506103bc565b505b5f5f9350935050505b915091565b5f60055f9054906101000a900473ffffffffffffffffffffffffffffffffffffffff1690508160055f6101000a81548173ffffffffffffffffffffffffffffffffffffffff021916908373ffffffffffffffffffffffffffffffffffffffff1602179055508173ffffffffffffffffffffffffffffffffffffffff168173ffffffffffffffffffffffffffffffffffffffff167f8be0079c531659141344cd1fd0a4f28419497f9722a3daafe3b4186f6b6457e060405160405180910390a35050565b5f5ffd5b5f73ffffffffffffffffffffffffffffffffffffffff82169050919050565b5f6104b182610488565b9050919050565b5f6104c2826104a7565b9050919050565b6104d2816104b8565b81146104dc575f5ffd5b50565b5f815190506104ed816104c9565b92915050565b6104fc816104a7565b8114610506575f5ffd5b50565b5f81519050610517816104f3565b92915050565b5f5f6040838503121561053357610532610484565b5b5f610540858286016104df565b925050602061055185828601610509565b9150509250929050565b5f81519050919050565b7f4e487b71000000000000000000000000000000000000000000000000000000005f52604160045260245ffd5b7f4e487b71000000000000000000000000000000000000000000000000000000005f52602260045260245ffd5b5f60028204905060018216806105d657607f821691505b6020821081036105e9576105e8610592565b5b50919050565b5f819050815f5260205f209050919050565b5f6020601f8301049050919050565b5f82821b905092915050565b5f6008830261064b7fffffffffffffffffffffffffffffffffffffffffffffffffffffffffffffffff82610610565b6106558683610610565b95508019841693508086168417925050509392505050565b5f819050919050565b5f819050919050565b5f61069961069461068f8461066d565b610676565b61066d565b9050919050565b5f819050919050565b6106b28361067f565b6106c66106be826106a0565b84845461061c565b825550505050565b5f5f905090565b6106dd6106ce565b6106e88184846106a9565b505050565b5b8181101561070b576107005f826106d5565b6001810190506106ee565b5050565b601f82111561075057610721816105ef565b61072a84610601565b81016020851015610739578190505b61074d61074585610601565b8301826106ed565b50505b505050565b5f82821c905092915050565b5f6107705f1984600802610755565b1980831691505092915050565b5f6107888383610761565b9150826002028217905092915050565b6107a18261055b565b67ffffffffffffffff8111156107ba576107b9610565565b5b6107c482546105bf565b6107cf82828561070f565b5f60209050601f831160018114610800575f84156107ee578287015190505b6107f8858261077d565b86555061085f565b601f19841661080e866105ef565b5f5b8281101561083557848901518255600182019150602085019450602081019050610810565b86831015610852578489015161084e601f891682610761565b8355505b6001600288020188555050505b505050505050565b610870816104a7565b82525050565b5f6020820190506108895f830184610867565b92915050565b5f82825260208201905092915050565b7f496e76616c6964207374726174656779206d616e6167657200000000000000005f82015250565b5f6108d360188361088f565b91506108de8261089f565b602082019050919050565b5f6020820190508181035f830152610900816108c7565b9050919050565b5f81519050919050565b5f81905092915050565b8281835e5f83830152505050565b5f61093382610907565b61093d8185610911565b935061094d81856020860161091b565b80840191505092915050565b5f6109648284610929565b915081905092915050565b6109788161066d565b8114610982575f5ffd5b50565b5f815190506109938161096f565b92915050565b5f602082840312156109ae576109ad610484565b5b5f6109bb84828501610985565b91505092915050565b60805160a05160c051614956610a425f395f818161096201528181610a0001528181610cba01528181610f99015281816111610152818161123e01528181611c8101528181611d230152818161259a01528181612638015281816129a701528181612a490152612b2a01525f610c6301525f610c9401526149565ff3fe608060405234801561000f575f5ffd5b5060043610610288575f3560e01c8063715018a61161015a578063b460af94116100cc578063dd19171911610085578063dd19171914610818578063dd62ed3e14610822578063e74b981b14610852578063ef8b30f71461086e578063f2fde38b1461089e578063ff50abdc146108ba57610288565b8063b460af94146106f8578063ba08765214610728578063c63d75b614610758578063c6e6f59214610788578063ce96cb77146107b8578063d905777e146107e857610288565b80638da5cb5b1161011e5780638da5cb5b1461061057806394bf804d1461062e57806395d89b411461065e578063a9059cbb1461067c578063ac1e5025146106ac578063b3d7f6b9146106c857610288565b8063715018a6146105b65780637d7c2a1c146105c05780638456cb59146105ca57806387788782146105d45780638bc7e8c4146105f257610288565b806339b70e38116101fe5780634cdad506116101b75780634cdad506146104ce5780635c975abb146104fe5780636d81c6961461051c5780636e553f651461053a57806370897b231461056a57806370a082311461058657610288565b806339b70e381461041e5780633f4ba83a1461043c578063402d267d1461044657806340d0892b1461047657806346904840146104925780634b319713146104b057610288565b8063106b9ca111610250578063106b9ca11461035857806316d1d9161461037657806318160ddd1461039457806323b872dd146103b2578063313ce567146103e257806338d52e0f1461040057610288565b806301e1d1141461028c57806306fdde03146102aa57806307a2d13a146102c8578063095ea7b3146102f85780630a28a47714610328575b5f5ffd5b6102946108d8565b6040516102a191906138c7565b60405180910390f35b6102b2610b3e565b6040516102bf9190613950565b60405180910390f35b6102e260048036038101906102dd91906139a7565b610bce565b6040516102ef91906138c7565b60405180910390f35b610312600480360381019061030d9190613a2c565b610be0565b60405161031f9190613a84565b60405180910390f35b610342600480360381019061033d91906139a7565b610c02565b60405161034f91906138c7565b60405180910390f35b610360610c15565b60405161036d91906138c7565b60405180910390f35b61037e610c1b565b60405161038b91906138c7565b60405180910390f35b61039c610c21565b6040516103a991906138c7565b60405180910390f35b6103cc60048036038101906103c79190613a9d565b610c2a565b6040516103d99190613a84565b60405180910390f35b6103ea610c58565b6040516103f79190613b08565b60405180910390f35b610408610c91565b6040516104159190613b30565b60405180910390f35b610426610cb8565b6040516104339190613ba4565b60405180910390f35b610444610cdc565b005b610460600480360381019061045b9190613bbd565b610cee565b60405161046d91906138c7565b60405180910390f35b610490600480360381019061048b91906139a7565b610d17565b005b61049a610da5565b6040516104a79190613b30565b60405180910390f35b6104b8610dca565b6040516104c591906138c7565b60405180910390f35b6104e860048036038101906104e391906139a7565b610dd0565b6040516104f591906138c7565b60405180910390f35b610506610de2565b6040516105139190613a84565b60405180910390f35b610524610df7565b60405161053191906138c7565b60405180910390f35b610554600480360381019061054f9190613be8565b610dfd565b60405161056191906138c7565b60405180910390f35b610584600480360381019061057f91906139a7565b610ed7565b005b6105a0600480360381019061059b9190613bbd565b610f2e565b6040516105ad91906138c7565b60405180910390f35b6105be610f73565b005b6105c8610f86565b005b6105d26114da565b005b6105dc6114ec565b6040516105e991906138c7565b60405180910390f35b6105fa6114f2565b60405161060791906138c7565b60405180910390f35b6106186114f8565b6040516106259190613b30565b60405180910390f35b61064860048036038101906106439190613be8565b611520565b60405161065591906138c7565b60405180910390f35b6106666115fa565b6040516106739190613950565b60405180910390f35b61069660048036038101906106919190613a2c565b61168a565b6040516106a39190613a84565b60405180910390f35b6106c660048036038101906106c191906139a7565b6116ac565b005b6106e260048036038101906106dd91906139a7565b611703565b6040516106ef91906138c7565b60405180910390f35b610712600480360381019061070d9190613c26565b611716565b60405161071f91906138c7565b60405180910390f35b610742600480360381019061073d9190613c26565b611993565b60405161074f91906138c7565b60405180910390f35b610772600480360381019061076d9190613bbd565b611c10565b60405161077f91906138c7565b60405180910390f35b6107a2600480360381019061079d91906139a7565b611c39565b6040516107af91906138c7565b60405180910390f35b6107d260048036038101906107cd9190613bbd565b611c4b565b6040516107df91906138c7565b60405180910390f35b61080260048036038101906107fd9190613bbd565b611c65565b60405161080f91906138c7565b60405180910390f35b610820611c76565b005b61083c60048036038101906108379190613c76565b611eb0565b60405161084991906138c7565b60405180910390f35b61086c60048036038101906108679190613bbd565b611f32565b005b610888600480360381019061088391906139a7565b611feb565b60405161089591906138c7565b60405180910390f35b6108b860048036038101906108b39190613bbd565b611ffd565b005b6108c2612081565b6040516108cf91906138c7565b60405180910390f35b5f5f6108e2610c91565b73ffffffffffffffffffffffffffffffffffffffff166370a08231306040518263ffffffff1660e01b815260040161091a9190613b30565b602060405180830381865afa158015610935573d5f5f3e3d5ffd5b505050506040513d601f19601f820116820180604052508101906109599190613cc8565b90505f8190505f7f000000000000000000000000000000000000000000000000000000000000000073ffffffffffffffffffffffffffffffffffffffff166331e19cfa6040518163ffffffff1660e01b8152600401602060405180830381865afa1580156109c9573d5f5f3e3d5ffd5b505050506040513d601f19601f820116820180604052508101906109ed9190613cc8565b90505f5f90505b81811015610b34575f5f7f000000000000000000000000000000000000000000000000000000000000000073ffffffffffffffffffffffffffffffffffffffff1663cfc0cc34846040518263ffffffff1660e01b8152600401610a5791906138c7565b606060405180830381865afa158015610a72573d5f5f3e3d5ffd5b505050506040513d601f19601f82011682018060405250810190610a969190613d31565b925050915080610aa7575050610b27565b8173ffffffffffffffffffffffffffffffffffffffff1663722713f76040518163ffffffff1660e01b8152600401602060405180830381865afa925050508015610b0f57506040513d601f19601f82011682018060405250810190610b0c9190613cc8565b60015b15610b24578086610b209190613dae565b9550505b50505b80806001019150506109f4565b5081935050505090565b606060038054610b4d90613e0e565b80601f0160208091040260200160405190810160405280929190818152602001828054610b7990613e0e565b8015610bc45780601f10610b9b57610100808354040283529160200191610bc4565b820191905f5260205f20905b815481529060010190602001808311610ba757829003601f168201915b5050505050905090565b5f610bd9825f612087565b9050919050565b5f5f610bea6120df565b9050610bf78185856120e6565b600191505092915050565b5f610c0e8260016120f8565b9050919050565b600a5481565b600b5481565b5f600254905090565b5f5f610c346120df565b9050610c41858285612150565b610c4c8585856121e3565b60019150509392505050565b5f610c616122d3565b7f0000000000000000000000000000000000000000000000000000000000000000610c8c9190613e3e565b905090565b5f7f0000000000000000000000000000000000000000000000000000000000000000905090565b7f000000000000000000000000000000000000000000000000000000000000000081565b610ce46122da565b610cec612361565b565b5f7fffffffffffffffffffffffffffffffffffffffffffffffffffffffffffffffff9050919050565b610d1f6122da565b6107d0811115610d64576040517f08c379a0000000000000000000000000000000000000000000000000000000008152600401610d5b90613ebc565b60405180910390fd5b80600e819055507ffc490a62ac4e9c65e252ea87a5730048bcd09d3005944048f6cebf429a71af7a81604051610d9a91906138c7565b60405180910390a150565b600f5f9054906101000a900473ffffffffffffffffffffffffffffffffffffffff1681565b60095481565b5f610ddb825f612087565b9050919050565b5f60075f9054906101000a900460ff16905090565b600e5481565b5f610e066123c2565b610e0e612408565b5f8311610e50576040517f08c379a0000000000000000000000000000000000000000000000000000000008152600401610e4790613f24565b60405180910390fd5b5f610e5b8484612449565b90508360085f828254610e6e9190613dae565b925050819055508273ffffffffffffffffffffffffffffffffffffffff167f73a19dd210f1a7f902193214c0ee91dd35ee5b4d920cba8d519eca65a7b488ca8583604051610ebd929190613f42565b60405180910390a280915050610ed16124c9565b92915050565b610edf6122da565b6107d0811115610f24576040517f08c379a0000000000000000000000000000000000000000000000000000000008152600401610f1b90613ebc565b60405180910390fd5b80600c8190555050565b5f5f5f8373ffffffffffffffffffffffffffffffffffffffff1673ffffffffffffffffffffffffffffffffffffffff1681526020019081526020015f20549050919050565b610f7b6122da565b610f845f6124d3565b565b610f8e6122da565b610f966123c2565b5f7f000000000000000000000000000000000000000000000000000000000000000073ffffffffffffffffffffffffffffffffffffffff166331e19cfa6040518163ffffffff1660e01b8152600401602060405180830381865afa158015611000573d5f5f3e3d5ffd5b505050506040513d601f19601f820116820180604052508101906110249190613cc8565b90505f8111611068576040517f08c379a000000000000000000000000000000000000000000000000000000000815260040161105f90613fb3565b60405180910390fd5b611070612596565b505f61107a610c91565b73ffffffffffffffffffffffffffffffffffffffff166370a08231306040518263ffffffff1660e01b81526004016110b29190613b30565b602060405180830381865afa1580156110cd573d5f5f3e3d5ffd5b505050506040513d601f19601f820116820180604052508101906110f19190613cc8565b90505f81036111015750506114d0565b5f612710600e54836111139190613fd1565b61111d919061403f565b90505f81831161112d575f61113a565b8183611139919061406f565b5b90505f810361114c57505050506114d0565b5f5f90505f5f90505b8581101561122b575f5f7f000000000000000000000000000000000000000000000000000000000000000073ffffffffffffffffffffffffffffffffffffffff1663cfc0cc34846040518263ffffffff1660e01b81526004016111b891906138c7565b606060405180830381865afa1580156111d3573d5f5f3e3d5ffd5b505050506040513d601f19601f820116820180604052508101906111f79190613d31565b925092505080801561120857505f82115b1561121c5781846112199190613dae565b93505b50508080600101915050611155565b505f5f90505b85811015611482575f5f5f7f000000000000000000000000000000000000000000000000000000000000000073ffffffffffffffffffffffffffffffffffffffff1663cfc0cc34856040518263ffffffff1660e01b815260040161129591906138c7565b606060405180830381865afa1580156112b0573d5f5f3e3d5ffd5b505050506040513d601f19601f820116820180604052508101906112d49190613d31565b9250925092508015806112e657505f82145b156112f357505050611475565b5f8583886113019190613fd1565b61130b919061403f565b90505f810361131d5750505050611475565b611325610c91565b73ffffffffffffffffffffffffffffffffffffffff1663095ea7b385836040518363ffffffff1660e01b815260040161135f9291906140a2565b6020604051808303815f875af115801561137b573d5f5f3e3d5ffd5b505050506040513d601f19601f8201168201806040525081019061139f91906140c9565b508373ffffffffffffffffffffffffffffffffffffffff16636e553f6582306040518363ffffffff1660e01b81526004016113db9291906140f4565b6020604051808303815f875af192505050801561141657506040513d601f19601f820116820180604052508101906114139190613cc8565b60015b61146f578373ffffffffffffffffffffffffffffffffffffffff167fabc70339363e5874e53ff818b1e49d06b07da9e5655347e99336317d48f89e3b60405161145e90614165565b60405180910390a250505050611475565b50505050505b8080600101915050611231565b5042600a819055507fc257294ad49c215e1a248c91a86bc2612b4781d9677285cc9c14498f485ef122426114b46108d8565b6040516114c2929190613f42565b60405180910390a150505050505b6114d86124c9565b565b6114e26122da565b6114ea6128c2565b565b600c5481565b600d5481565b5f60055f9054906101000a900473ffffffffffffffffffffffffffffffffffffffff16905090565b5f6115296123c2565b611531612408565b5f8311611573576040517f08c379a000000000000000000000000000000000000000000000000000000000815260040161156a906141cd565b60405180910390fd5b5f61157e8484612924565b90508060085f8282546115919190613dae565b925050819055508273ffffffffffffffffffffffffffffffffffffffff167f73a19dd210f1a7f902193214c0ee91dd35ee5b4d920cba8d519eca65a7b488ca82866040516115e0929190613f42565b60405180910390a2809150506115f46124c9565b92915050565b60606004805461160990613e0e565b80601f016020809104026020016040519081016040528092919081815260200182805461163590613e0e565b80156116805780601f1061165757610100808354040283529160200191611680565b820191905f5260205f20905b81548152906001019060200180831161166357829003601f168201915b5050505050905090565b5f5f6116946120df565b90506116a18185856121e3565b600191505092915050565b6116b46122da565b6101f48111156116f9576040517f08c379a00000000000000000000000000000000000000000000000000000000081526004016116f090613ebc565b60405180910390fd5b80600d8190555050565b5f61170f826001612087565b9050919050565b5f61171f6123c2565b5f8411611761576040517f08c379a000000000000000000000000000000000000000000000000000000000815260040161175890614235565b60405180910390fd5b5f61176b85611c39565b90508061177784610f2e565b10156117b8576040517f08c379a00000000000000000000000000000000000000000000000000000000081526004016117af9061429d565b60405180910390fd5b5f612710600d54876117ca9190613fd1565b6117d4919061403f565b90505f81876117e3919061406f565b90506117ee876129a4565b6117f88584612fb8565b61182a8682611805610c91565b73ffffffffffffffffffffffffffffffffffffffff166130379092919063ffffffff16565b5f8211801561188657505f73ffffffffffffffffffffffffffffffffffffffff16600f5f9054906101000a900473ffffffffffffffffffffffffffffffffffffffff1673ffffffffffffffffffffffffffffffffffffffff1614155b15611916576118de600f5f9054906101000a900473ffffffffffffffffffffffffffffffffffffffff16836118b9610c91565b73ffffffffffffffffffffffffffffffffffffffff166130379092919063ffffffff16565b7fdfba92731fbb9afc3b23b557d4f5043609e05ea68af13a61a9ceb6e0bef6b42f8260405161190d9190614305565b60405180910390a15b8660095f8282546119279190613dae565b925050819055508573ffffffffffffffffffffffffffffffffffffffff167f92ccf450a286a957af52509bc1c9939d1a6a481783e142e41e2499f0bb66ebc68285604051611976929190613f42565b60405180910390a282935050505061198c6124c9565b9392505050565b5f61199c6123c2565b5f84116119de576040517f08c379a00000000000000000000000000000000000000000000000000000000081526004016119d59061437b565b60405180910390fd5b836119e883610f2e565b1015611a29576040517f08c379a0000000000000000000000000000000000000000000000000000000008152600401611a209061429d565b60405180910390fd5b5f611a3385610bce565b90505f612710600d5483611a479190613fd1565b611a51919061403f565b90505f8183611a60919061406f565b9050611a6b836129a4565b611a758588612fb8565b611aa78682611a82610c91565b73ffffffffffffffffffffffffffffffffffffffff166130379092919063ffffffff16565b5f82118015611b0357505f73ffffffffffffffffffffffffffffffffffffffff16600f5f9054906101000a900473ffffffffffffffffffffffffffffffffffffffff1673ffffffffffffffffffffffffffffffffffffffff1614155b15611b9357611b5b600f5f9054906101000a900473ffffffffffffffffffffffffffffffffffffffff1683611b36610c91565b73ffffffffffffffffffffffffffffffffffffffff166130379092919063ffffffff16565b7fdfba92731fbb9afc3b23b557d4f5043609e05ea68af13a61a9ceb6e0bef6b42f82604051611b8a9190614305565b60405180910390a15b8260095f828254611ba49190613dae565b925050819055508573ffffffffffffffffffffffffffffffffffffffff167f92ccf450a286a957af52509bc1c9939d1a6a481783e142e41e2499f0bb66ebc68289604051611bf3929190613f42565b60405180910390a2809350505050611c096124c9565b9392505050565b5f7fffffffffffffffffffffffffffffffffffffffffffffffffffffffffffffffff9050919050565b5f611c44825f6120f8565b9050919050565b5f611c5e611c5883610f2e565b5f612087565b9050919050565b5f611c6f82610f2e565b9050919050565b611c7e6122da565b5f7f000000000000000000000000000000000000000000000000000000000000000073ffffffffffffffffffffffffffffffffffffffff166331e19cfa6040518163ffffffff1660e01b8152600401602060405180830381865afa158015611ce8573d5f5f3e3d5ffd5b505050506040513d601f19601f82011682018060405250810190611d0c9190613cc8565b90505f5f90505f5f90505b82811015611e5d575f5f7f000000000000000000000000000000000000000000000000000000000000000073ffffffffffffffffffffffffffffffffffffffff1663cfc0cc34846040518263ffffffff1660e01b8152600401611d7a91906138c7565b606060405180830381865afa158015611d95573d5f5f3e3d5ffd5b505050506040513d601f19601f82011682018060405250810190611db99190613d31565b925050915080611dca575050611e50565b8173ffffffffffffffffffffffffffffffffffffffff1663853828b66040518163ffffffff1660e01b81526004016020604051808303815f875af1925050508015611e3357506040513d601f19601f82011682018060405250810190611e309190613cc8565b60015b611e3e575050611e50565b8085611e4a9190613dae565b94505050505b8080600101915050611d17565b505f73ffffffffffffffffffffffffffffffffffffffff167f47a0288289f9248f1cc731abd5fcd916c55fa1577b883cf69bff73382853523682604051611ea491906138c7565b60405180910390a25050565b5f60015f8473ffffffffffffffffffffffffffffffffffffffff1673ffffffffffffffffffffffffffffffffffffffff1681526020019081526020015f205f8373ffffffffffffffffffffffffffffffffffffffff1673ffffffffffffffffffffffffffffffffffffffff1681526020019081526020015f2054905092915050565b611f3a6122da565b5f73ffffffffffffffffffffffffffffffffffffffff168173ffffffffffffffffffffffffffffffffffffffff1603611fa8576040517f08c379a0000000000000000000000000000000000000000000000000000000008152600401611f9f906143e3565b60405180910390fd5b80600f5f6101000a81548173ffffffffffffffffffffffffffffffffffffffff021916908373ffffffffffffffffffffffffffffffffffffffff16021790555050565b5f611ff6825f6120f8565b9050919050565b6120056122da565b5f73ffffffffffffffffffffffffffffffffffffffff168173ffffffffffffffffffffffffffffffffffffffff1603612075575f6040517f1e4fbdf700000000000000000000000000000000000000000000000000000000815260040161206c9190613b30565b60405180910390fd5b61207e816124d3565b50565b60085481565b5f6120d760016120956108d8565b61209f9190613dae565b6120a76122d3565b600a6120b39190614530565b6120bb610c21565b6120c59190613dae565b84866130b6909392919063ffffffff16565b905092915050565b5f33905090565b6120f38383836001613103565b505050565b5f6121486121046122d3565b600a6121109190614530565b612118610c21565b6121229190613dae565b600161212c6108d8565b6121369190613dae565b84866130b6909392919063ffffffff16565b905092915050565b5f61215b8484611eb0565b90507fffffffffffffffffffffffffffffffffffffffffffffffffffffffffffffffff8110156121dd57818110156121ce578281836040517ffb8f41b20000000000000000000000000000000000000000000000000000000081526004016121c59392919061457a565b60405180910390fd5b6121dc84848484035f613103565b5b50505050565b5f73ffffffffffffffffffffffffffffffffffffffff168373ffffffffffffffffffffffffffffffffffffffff1603612253575f6040517f96c6fd1e00000000000000000000000000000000000000000000000000000000815260040161224a9190613b30565b60405180910390fd5b5f73ffffffffffffffffffffffffffffffffffffffff168273ffffffffffffffffffffffffffffffffffffffff16036122c3575f6040517fec442f050000000000000000000000000000000000000000000000000000000081526004016122ba9190613b30565b60405180910390fd5b6122ce8383836132d2565b505050565b5f5f905090565b6122e26120df565b73ffffffffffffffffffffffffffffffffffffffff166123006114f8565b73ffffffffffffffffffffffffffffffffffffffff161461235f576123236120df565b6040517f118cdaa70000000000000000000000000000000000000000000000000000000081526004016123569190613b30565b60405180910390fd5b565b6123696134eb565b5f60075f6101000a81548160ff0219169083151502179055507f5db9ee0a495bf2e6ff9c91a7834c1ba4fdd244a5e8aa4e537bd38aeae4b073aa6123ab6120df565b6040516123b89190613b30565b60405180910390a1565b6002600654036123fe576040517f3ee5aeb500000000000000000000000000000000000000000000000000000000815260040160405180910390fd5b6002600681905550565b612410610de2565b15612447576040517fd93c066500000000000000000000000000000000000000000000000000000000815260040160405180910390fd5b565b5f5f61245483610cee565b90508084111561249f578284826040517f79012fb20000000000000000000000000000000000000000000000000000000081526004016124969392919061457a565b60405180910390fd5b5f6124a985611feb565b90506124be6124b66120df565b85878461352b565b809250505092915050565b6001600681905550565b5f60055f9054906101000a900473ffffffffffffffffffffffffffffffffffffffff1690508160055f6101000a81548173ffffffffffffffffffffffffffffffffffffffff021916908373ffffffffffffffffffffffffffffffffffffffff1602179055508173ffffffffffffffffffffffffffffffffffffffff168173ffffffffffffffffffffffffffffffffffffffff167f8be0079c531659141344cd1fd0a4f28419497f9722a3daafe3b4186f6b6457e060405160405180910390a35050565b5f5f7f000000000000000000000000000000000000000000000000000000000000000073ffffffffffffffffffffffffffffffffffffffff166331e19cfa6040518163ffffffff1660e01b8152600401602060405180830381865afa158015612601573d5f5f3e3d5ffd5b505050506040513d601f19601f820116820180604052508101906126259190613cc8565b90505f5f90505b81811015612772575f5f7f000000000000000000000000000000000000000000000000000000000000000073ffffffffffffffffffffffffffffffffffffffff1663cfc0cc34846040518263ffffffff1660e01b815260040161268f91906138c7565b606060405180830381865afa1580156126aa573d5f5f3e3d5ffd5b505050506040513d601f19601f820116820180604052508101906126ce9190613d31565b9250509150806126df575050612765565b8173ffffffffffffffffffffffffffffffffffffffff16634641257d6040518163ffffffff1660e01b81526004016020604051808303815f875af192505050801561274857506040513d601f19601f820116820180604052508101906127459190613cc8565b60015b612753575050612765565b808661275f9190613dae565b95505050505b808060010191505061262c565b505f8211156128be575f612710600c548461278d9190613fd1565b612797919061403f565b90505f811180156127f557505f73ffffffffffffffffffffffffffffffffffffffff16600f5f9054906101000a900473ffffffffffffffffffffffffffffffffffffffff1673ffffffffffffffffffffffffffffffffffffffff1614155b156128855761284d600f5f9054906101000a900473ffffffffffffffffffffffffffffffffffffffff1682612828610c91565b73ffffffffffffffffffffffffffffffffffffffff166130379092919063ffffffff16565b7fdfba92731fbb9afc3b23b557d4f5043609e05ea68af13a61a9ceb6e0bef6b42f8160405161287c91906145f9565b60405180910390a15b7f8e55ccfc9778ff8eba1646d765cf1982537ce0f9257054a17b48aad745250183836040516128b491906138c7565b60405180910390a1505b5090565b6128ca612408565b600160075f6101000a81548160ff0219169083151502179055507f62e78cea01bee320cd4e420270b5ea74000d11b0c9f74754ebdbfc544b05a25861290d6120df565b60405161291a9190613b30565b60405180910390a1565b5f5f61292f83611c10565b90508084111561297a578284826040517f284ff6670000000000000000000000000000000000000000000000000000000081526004016129719392919061457a565b60405180910390fd5b5f61298485611703565b90506129996129916120df565b85838861352b565b809250505092915050565b5f7f000000000000000000000000000000000000000000000000000000000000000073ffffffffffffffffffffffffffffffffffffffff166331e19cfa6040518163ffffffff1660e01b8152600401602060405180830381865afa158015612a0e573d5f5f3e3d5ffd5b505050506040513d601f19601f82011682018060405250810190612a329190613cc8565b90505f5f90505f5f90505b82811015612b13575f5f7f000000000000000000000000000000000000000000000000000000000000000073ffffffffffffffffffffffffffffffffffffffff1663cfc0cc34846040518263ffffffff1660e01b8152600401612aa091906138c7565b606060405180830381865afa158015612abb573d5f5f3e3d5ffd5b505050506040513d601f19601f82011682018060405250810190612adf9190613d31565b9250925050808015612af057505f82115b15612b04578184612b019190613dae565b93505b50508080600101915050612a3d565b505f5f90505f5f90505b83811015612ef0575f5f5f7f000000000000000000000000000000000000000000000000000000000000000073ffffffffffffffffffffffffffffffffffffffff1663cfc0cc34856040518263ffffffff1660e01b8152600401612b8191906138c7565b606060405180830381865afa158015612b9c573d5f5f3e3d5ffd5b505050506040513d601f19601f82011682018060405250810190612bc09190613d31565b925092509250801580612bd257505f82145b15612bdf57505050612ee3565b5f86838a612bed9190613fd1565b612bf7919061403f565b90505f8103612c095750505050612ee3565b5f612c12610c91565b73ffffffffffffffffffffffffffffffffffffffff166370a08231306040518263ffffffff1660e01b8152600401612c4a9190613b30565b602060405180830381865afa158015612c65573d5f5f3e3d5ffd5b505050506040513d601f19601f82011682018060405250810190612c899190613cc8565b90508473ffffffffffffffffffffffffffffffffffffffff1663b460af948330306040518463ffffffff1660e01b8152600401612cc893929190614625565b6020604051808303815f875af1925050508015612d0357506040513d601f19601f82011682018060405250810190612d009190613cc8565b60015b612ddf57612d0f614666565b806308c379a003612d875750612d236146e3565b80612d2e5750612d89565b8573ffffffffffffffffffffffffffffffffffffffff167fabc70339363e5874e53ff818b1e49d06b07da9e5655347e99336317d48f89e3b82604051612d749190613950565b60405180910390a2505050505050612ee3565b505b8473ffffffffffffffffffffffffffffffffffffffff167fabc70339363e5874e53ff818b1e49d06b07da9e5655347e99336317d48f89e3b604051612dcd906147bc565b60405180910390a25050505050612ee3565b5f612de8610c91565b73ffffffffffffffffffffffffffffffffffffffff166370a08231306040518263ffffffff1660e01b8152600401612e209190613b30565b602060405180830381865afa158015612e3b573d5f5f3e3d5ffd5b505050506040513d601f19601f82011682018060405250810190612e5f9190613cc8565b90505f838211612e6f5782612e7c565b8382612e7b919061406f565b5b9050808a612e8a9190613dae565b99508773ffffffffffffffffffffffffffffffffffffffff167f47a0288289f9248f1cc731abd5fcd916c55fa1577b883cf69bff73382853523682604051612ed291906138c7565b60405180910390a250505050505050505b8080600101915050612b1d565b5083612efa610c91565b73ffffffffffffffffffffffffffffffffffffffff166370a08231306040518263ffffffff1660e01b8152600401612f329190613b30565b602060405180830381865afa158015612f4d573d5f5f3e3d5ffd5b505050506040513d601f19601f82011682018060405250810190612f719190613cc8565b1015612fb2576040517f08c379a0000000000000000000000000000000000000000000000000000000008152600401612fa990614870565b60405180910390fd5b50505050565b5f73ffffffffffffffffffffffffffffffffffffffff168273ffffffffffffffffffffffffffffffffffffffff1603613028575f6040517f96c6fd1e00000000000000000000000000000000000000000000000000000000815260040161301f9190613b30565b60405180910390fd5b613033825f836132d2565b5050565b6130b1838473ffffffffffffffffffffffffffffffffffffffff1663a9059cbb858560405160240161306a9291906140a2565b604051602081830303815290604052915060e01b6020820180517bffffffffffffffffffffffffffffffffffffffffffffffffffffffff83818316178352505050506135b5565b505050565b5f6130e46130c383613650565b80156130df57505f84806130da576130d9614012565b5b868809115b61367d565b6130ef868686613688565b6130f99190613dae565b9050949350505050565b5f73ffffffffffffffffffffffffffffffffffffffff168473ffffffffffffffffffffffffffffffffffffffff1603613173575f6040517fe602df0500000000000000000000000000000000000000000000000000000000815260040161316a9190613b30565b60405180910390fd5b5f73ffffffffffffffffffffffffffffffffffffffff168373ffffffffffffffffffffffffffffffffffffffff16036131e3575f6040517f94280d620000000000000000000000000000000000000000000000000000000081526004016131da9190613b30565b60405180910390fd5b8160015f8673ffffffffffffffffffffffffffffffffffffffff1673ffffffffffffffffffffffffffffffffffffffff1681526020019081526020015f205f8573ffffffffffffffffffffffffffffffffffffffff1673ffffffffffffffffffffffffffffffffffffffff1681526020019081526020015f208190555080156132cc578273ffffffffffffffffffffffffffffffffffffffff168473ffffffffffffffffffffffffffffffffffffffff167f8c5be1e5ebec7d5bd14f71427d1e84f3dd0314c0f7b2291e5b200ac8c7c3b925846040516132c391906138c7565b60405180910390a35b50505050565b5f73ffffffffffffffffffffffffffffffffffffffff168373ffffffffffffffffffffffffffffffffffffffff1603613322578060025f8282546133169190613dae565b925050819055506133f0565b5f5f5f8573ffffffffffffffffffffffffffffffffffffffff1673ffffffffffffffffffffffffffffffffffffffff1681526020019081526020015f20549050818110156133ab578381836040517fe450d38c0000000000000000000000000000000000000000000000000000000081526004016133a29392919061457a565b60405180910390fd5b8181035f5f8673ffffffffffffffffffffffffffffffffffffffff1673ffffffffffffffffffffffffffffffffffffffff1681526020019081526020015f2081905550505b5f73ffffffffffffffffffffffffffffffffffffffff168273ffffffffffffffffffffffffffffffffffffffff1603613437578060025f8282540392505081905550613481565b805f5f8473ffffffffffffffffffffffffffffffffffffffff1673ffffffffffffffffffffffffffffffffffffffff1681526020019081526020015f205f82825401925050819055505b8173ffffffffffffffffffffffffffffffffffffffff168373ffffffffffffffffffffffffffffffffffffffff167fddf252ad1be2c89b69c2b068fc378daa952ba7f163c4a11628f55a4df523b3ef836040516134de91906138c7565b60405180910390a3505050565b6134f3610de2565b613529576040517f8dfc202b00000000000000000000000000000000000000000000000000000000815260040160405180910390fd5b565b61353e613536610c91565b853085613767565b61354883826137e9565b8273ffffffffffffffffffffffffffffffffffffffff168473ffffffffffffffffffffffffffffffffffffffff167fdcbc1c05240f31ff3ad067ef1ee35ce4997762752e3a095284754544f4c709d784846040516135a7929190613f42565b60405180910390a350505050565b5f5f60205f8451602086015f885af1806135d4576040513d5f823e3d81fd5b3d92505f519150505f82146135ed576001811415613608565b5f8473ffffffffffffffffffffffffffffffffffffffff163b145b1561364a57836040517f5274afe70000000000000000000000000000000000000000000000000000000081526004016136419190613b30565b60405180910390fd5b50505050565b5f600160028360038111156136685761366761488e565b5b61367291906148bb565b60ff16149050919050565b5f8115159050919050565b5f5f5f6136958686613868565b915091505f82036136ba578381816136b0576136af614012565b5b0492505050613760565b8184116136d9576136d86136d35f861460126011613885565b61389e565b5b5f8486880990508181118303925080820391505f855f038616905080860495508083049250600181825f0304019050808402831792505f600287600302189050808702600203810290508087026002038102905080870260020381029050808702600203810290508087026002038102905080870260020381029050808402955050505050505b9392505050565b6137e3848573ffffffffffffffffffffffffffffffffffffffff166323b872dd86868660405160240161379c939291906148eb565b604051602081830303815290604052915060e01b6020820180517bffffffffffffffffffffffffffffffffffffffffffffffffffffffff83818316178352505050506135b5565b50505050565b5f73ffffffffffffffffffffffffffffffffffffffff168273ffffffffffffffffffffffffffffffffffffffff1603613859575f6040517fec442f050000000000000000000000000000000000000000000000000000000081526004016138509190613b30565b60405180910390fd5b6138645f83836132d2565b5050565b5f5f5f198385098385029150818110828203039250509250929050565b5f61388f8461367d565b82841802821890509392505050565b634e487b715f52806020526024601cfd5b5f819050919050565b6138c1816138af565b82525050565b5f6020820190506138da5f8301846138b8565b92915050565b5f81519050919050565b5f82825260208201905092915050565b8281835e5f83830152505050565b5f601f19601f8301169050919050565b5f613922826138e0565b61392c81856138ea565b935061393c8185602086016138fa565b61394581613908565b840191505092915050565b5f6020820190508181035f8301526139688184613918565b905092915050565b5f604051905090565b5f5ffd5b613986816138af565b8114613990575f5ffd5b50565b5f813590506139a18161397d565b92915050565b5f602082840312156139bc576139bb613979565b5b5f6139c984828501613993565b91505092915050565b5f73ffffffffffffffffffffffffffffffffffffffff82169050919050565b5f6139fb826139d2565b9050919050565b613a0b816139f1565b8114613a15575f5ffd5b50565b5f81359050613a2681613a02565b92915050565b5f5f60408385031215613a4257613a41613979565b5b5f613a4f85828601613a18565b9250506020613a6085828601613993565b9150509250929050565b5f8115159050919050565b613a7e81613a6a565b82525050565b5f602082019050613a975f830184613a75565b92915050565b5f5f5f60608486031215613ab457613ab3613979565b5b5f613ac186828701613a18565b9350506020613ad286828701613a18565b9250506040613ae386828701613993565b9150509250925092565b5f60ff82169050919050565b613b0281613aed565b82525050565b5f602082019050613b1b5f830184613af9565b92915050565b613b2a816139f1565b82525050565b5f602082019050613b435f830184613b21565b92915050565b5f819050919050565b5f613b6c613b67613b62846139d2565b613b49565b6139d2565b9050919050565b5f613b7d82613b52565b9050919050565b5f613b8e82613b73565b9050919050565b613b9e81613b84565b82525050565b5f602082019050613bb75f830184613b95565b92915050565b5f60208284031215613bd257613bd1613979565b5b5f613bdf84828501613a18565b91505092915050565b5f5f60408385031215613bfe57613bfd613979565b5b5f613c0b85828601613993565b9250506020613c1c85828601613a18565b9150509250929050565b5f5f5f60608486031215613c3d57613c3c613979565b5b5f613c4a86828701613993565b9350506020613c5b86828701613a18565b9250506040613c6c86828701613a18565b9150509250925092565b5f5f60408385031215613c8c57613c8b613979565b5b5f613c9985828601613a18565b9250506020613caa85828601613a18565b9150509250929050565b5f81519050613cc28161397d565b92915050565b5f60208284031215613cdd57613cdc613979565b5b5f613cea84828501613cb4565b91505092915050565b5f81519050613d0181613a02565b92915050565b613d1081613a6a565b8114613d1a575f5ffd5b50565b5f81519050613d2b81613d07565b92915050565b5f5f5f60608486031215613d4857613d47613979565b5b5f613d5586828701613cf3565b9350506020613d6686828701613cb4565b9250506040613d7786828701613d1d565b9150509250925092565b7f4e487b71000000000000000000000000000000000000000000000000000000005f52601160045260245ffd5b5f613db8826138af565b9150613dc3836138af565b9250828201905080821115613ddb57613dda613d81565b5b92915050565b7f4e487b71000000000000000000000000000000000000000000000000000000005f52602260045260245ffd5b5f6002820490506001821680613e2557607f821691505b602082108103613e3857613e37613de1565b5b50919050565b5f613e4882613aed565b9150613e5383613aed565b9250828201905060ff811115613e6c57613e6b613d81565b5b92915050565b7f546f6f20686967680000000000000000000000000000000000000000000000005f82015250565b5f613ea66008836138ea565b9150613eb182613e72565b602082019050919050565b5f6020820190508181035f830152613ed381613e9a565b9050919050565b7f43616e6e6f74206465706f7369742030000000000000000000000000000000005f82015250565b5f613f0e6010836138ea565b9150613f1982613eda565b602082019050919050565b5f6020820190508181035f830152613f3b81613f02565b9050919050565b5f604082019050613f555f8301856138b8565b613f6260208301846138b8565b9392505050565b7f4e6f2073747261746567696573000000000000000000000000000000000000005f82015250565b5f613f9d600d836138ea565b9150613fa882613f69565b602082019050919050565b5f6020820190508181035f830152613fca81613f91565b9050919050565b5f613fdb826138af565b9150613fe6836138af565b9250828202613ff4816138af565b9150828204841483151761400b5761400a613d81565b5b5092915050565b7f4e487b71000000000000000000000000000000000000000000000000000000005f52601260045260245ffd5b5f614049826138af565b9150614054836138af565b92508261406457614063614012565b5b828204905092915050565b5f614079826138af565b9150614084836138af565b925082820390508181111561409c5761409b613d81565b5b92915050565b5f6040820190506140b55f830185613b21565b6140c260208301846138b8565b9392505050565b5f602082840312156140de576140dd613979565b5b5f6140eb84828501613d1d565b91505092915050565b5f6040820190506141075f8301856138b8565b6141146020830184613b21565b9392505050565b7f6465706f736974207265766572746564000000000000000000000000000000005f82015250565b5f61414f6010836138ea565b915061415a8261411b565b602082019050919050565b5f6020820190508181035f83015261417c81614143565b9050919050565b7f43616e6e6f74206d696e742030000000000000000000000000000000000000005f82015250565b5f6141b7600d836138ea565b91506141c282614183565b602082019050919050565b5f6020820190508181035f8301526141e4816141ab565b9050919050565b7f43616e6e6f7420776974686472617720300000000000000000000000000000005f82015250565b5f61421f6011836138ea565b915061422a826141eb565b602082019050919050565b5f6020820190508181035f83015261424c81614213565b9050919050565b7f496e73756666696369656e7420736861726573000000000000000000000000005f82015250565b5f6142876013836138ea565b915061429282614253565b602082019050919050565b5f6020820190508181035f8301526142b48161427b565b9050919050565b7f7769746864726177616c000000000000000000000000000000000000000000005f82015250565b5f6142ef600a836138ea565b91506142fa826142bb565b602082019050919050565b5f6040820190506143185f8301846138b8565b8181036020830152614329816142e3565b905092915050565b7f43616e6e6f742072656465656d203000000000000000000000000000000000005f82015250565b5f614365600f836138ea565b915061437082614331565b602082019050919050565b5f6020820190508181035f83015261439281614359565b9050919050565b7f496e76616c6964000000000000000000000000000000000000000000000000005f82015250565b5f6143cd6007836138ea565b91506143d882614399565b602082019050919050565b5f6020820190508181035f8301526143fa816143c1565b9050919050565b5f8160011c9050919050565b5f5f8291508390505b60018511156144565780860481111561443257614431613d81565b5b60018516156144415780820291505b808102905061444f85614401565b9450614416565b94509492505050565b5f8261446e5760019050614529565b8161447b575f9050614529565b8160018114614491576002811461449b576144ca565b6001915050614529565b60ff8411156144ad576144ac613d81565b5b8360020a9150848211156144c4576144c3613d81565b5b50614529565b5060208310610133831016604e8410600b84101617156144ff5782820a9050838111156144fa576144f9613d81565b5b614529565b61450c848484600161440d565b9250905081840481111561452357614522613d81565b5b81810290505b9392505050565b5f61453a826138af565b915061454583613aed565b92506145727fffffffffffffffffffffffffffffffffffffffffffffffffffffffffffffffff848461445f565b905092915050565b5f60608201905061458d5f830186613b21565b61459a60208301856138b8565b6145a760408301846138b8565b949350505050565b7f706572666f726d616e63650000000000000000000000000000000000000000005f82015250565b5f6145e3600b836138ea565b91506145ee826145af565b602082019050919050565b5f60408201905061460c5f8301846138b8565b818103602083015261461d816145d7565b905092915050565b5f6060820190506146385f8301866138b8565b6146456020830185613b21565b6146526040830184613b21565b949350505050565b5f8160e01c9050919050565b5f60033d11156146825760045f5f3e61467f5f5161465a565b90505b90565b7f4e487b71000000000000000000000000000000000000000000000000000000005f52604160045260245ffd5b6146bb82613908565b810181811067ffffffffffffffff821117156146da576146d9614685565b5b80604052505050565b5f60443d1061476f576146f4613970565b60043d036004823e80513d602482011167ffffffffffffffff8211171561471c57505061476f565b808201805167ffffffffffffffff81111561473a575050505061476f565b80602083010160043d03850181111561475757505050505061476f565b614766826020018501866146b2565b82955050505050505b90565b7f77697468647261772072657665727465640000000000000000000000000000005f82015250565b5f6147a66011836138ea565b91506147b182614772565b602082019050919050565b5f6020820190508181035f8301526147d38161479a565b9050919050565b7f5969656c645661756c743a20696e73756666696369656e74206c6971756964695f8201527f74792061667465722070726f706f7274696f6e616c207769746864726177616c60208201527f7300000000000000000000000000000000000000000000000000000000000000604082015250565b5f61485a6041836138ea565b9150614865826147da565b606082019050919050565b5f6020820190508181035f8301526148878161484e565b9050919050565b7f4e487b71000000000000000000000000000000000000000000000000000000005f52602160045260245ffd5b5f6148c582613aed565b91506148d083613aed565b9250826148e0576148df614012565b5b828206905092915050565b5f6060820190506148fe5f830186613b21565b61490b6020830185613b21565b61491860408301846138b8565b94935050505056fea2646970667358221220ca80bac6f2ce2ae5655991f11b751fe6faac5307afb6d9d70d51d225da10fa2164736f6c634300081e0033","linkReferences":{}},"methodIdentifiers":{"allowance(address,address)":"dd62ed3e","approve(address,uint256)":"095ea7b3","asset()":"38d52e0f","balanceOf(address)":"70a08231","convertToAssets(uint256)":"07a2d13a","convertToShares(uint256)":"c6e6f592","decimals()":"313ce567","deposit(uint256,address)":"6e553f65","emergencyWithdrawAll()":"dd191719","feeRecipient()":"46904840","lastRebalance()":"106b9ca1","liquidityBufferBps()":"6d81c696","maxDeposit(address)":"402d267d","maxMint(address)":"c63d75b6","maxRedeem(address)":"d905777e","maxWithdraw(address)":"ce96cb77","mint(uint256,address)":"94bf804d","name()":"06fdde03","owner()":"8da5cb5b","pause()":"8456cb59","paused()":"5c975abb","performanceFee()":"87788782","previewDeposit(uint256)":"ef8b30f7","previewMint(uint256)":"b3d7f6b9","previewRedeem(uint256)":"4cdad506","previewWithdraw(uint256)":"0a28a477","rebalance()":"7d7c2a1c","rebalanceInterval()":"16d1d916","redeem(uint256,address,address)":"ba087652","renounceOwnership()":"715018a6","setFeeRecipient(address)":"e74b981b","setLiquidityBufferBps(uint256)":"40d0892b","setPerformanceFee(uint256)":"70897b23","setWithdrawalFee(uint256)":"ac1e5025","strategyManager()":"39b70e38","symbol()":"95d89b41","totalAssets()":"01e1d114","totalDeposited()":"ff50abdc","totalSupply()":"18160ddd","totalWithdrawn()":"4b319713","transfer(address,uint256)":"a9059cbb","transferFrom(address,address,uint256)":"23b872dd","transferOwnership(address)":"f2fde38b","unpause()":"3f4ba83a","withdraw(uint256,address,address)":"b460af94","withdrawalFee()":"8bc7e8c4"},"id":35}