{"abi":[{"type":"constructor","inputs":[],"stateMutability":"nonpayable"},{"type":"function","name":"AI_AGENT","inputs":[],"outputs":[{"name":"","type":"bytes32","internalType":"bytes32"}],"stateMutability":"view"},{"type":"function","name":"DEFAULT_ADMIN_ROLE","inputs":[],"outputs":[{"name":"","type":"bytes32","internalType":"bytes32"}],"stateMutability":"view"},{"type":"function","name":"KEEPER","inputs":[],"outputs":[{"name":"","type":"bytes32","internalType":"bytes32"}],"stateMutability":"view"},{"type":"function","name":"addAgent","inputs":[{"name":"agent","type":"address","internalType":"address"}],"outputs":[],"stateMutability":"nonpayable"},{"type":"function","name":"addKeeper","inputs":[{"name":"keeper","type":"address","internalType":"address"}],"outputs":[],"stateMutability":"nonpayable"},{"type":"function","name":"addStrategy","inputs":[{"name":"_strategy","type":"address","internalType":"address"},{"name":"_allocation","type":"uint256","internalType":"uint256"}],"outputs":[],"stateMutability":"nonpayable"},{"type":"function","name":"agentNonce","inputs":[{"name":"","type":"address","internalType":"address"}],"outputs":[{"name":"","type":"uint256","internalType":"uint256"}],"stateMutability":"view"},{"type":"function","name":"cooldown","inputs":[],"outputs":[{"name":"","type":"uint256","internalType":"uint256"}],"stateMutability":"view"},{"type":"function","name":"eip712Domain","inputs":[],"outputs":[{"name":"fields","type":"bytes1","internalType":"bytes1"},{"name":"name","type":"string","internalType":"string"},{"name":"version","type":"string","internalType":"string"},{"name":"chainId","type":"uint256","internalType":"uint256"},{"name":"verifyingContract","type":"address","internalType":"address"},{"name":"salt","type":"bytes32","internalType":"bytes32"},{"name":"extensions","type":"uint256[]","internalType":"uint256[]"}],"stateMutability":"view"},{"type":"function","name":"executeAI","inputs":[],"outputs":[],"stateMutability":"nonpayable"},{"type":"function","name":"getActiveStrategies","inputs":[],"outputs":[{"name":"","type":"tuple[]","internalType":"struct StrategyManager.StrategyInfo[]","components":[{"name":"strategy","type":"address","internalType":"address"},{"name":"allocation","type":"uint256","internalType":"uint256"},{"name":"active","type":"bool","internalType":"bool"}]}],"stateMutability":"view"},{"type":"function","name":"getAgentNonce","inputs":[{"name":"agent","type":"address","internalType":"address"}],"outputs":[{"name":"","type":"uint256","internalType":"uint256"}],"stateMutability":"view"},{"type":"function","name":"getDomainSeparator","inputs":[],"outputs":[{"name":"","type":"bytes32","internalType":"bytes32"}],"stateMutability":"view"},{"type":"function","name":"getRoleAdmin","inputs":[{"name":"role","type":"bytes32","internalType":"bytes32"}],"outputs":[{"name":"","type":"bytes32","internalType":"bytes32"}],"stateMutability":"view"},{"type":"function","name":"getStrategy","inputs":[{"name":"index","type":"uint256","internalType":"uint256"}],"outputs":[{"name":"strategy","type":"address","internalType":"address"},{"name":"allocation","type":"uint256","internalType":"uint256"},{"name":"active","type":"bool","internalType":"bool"}],"stateMutability":"view"},{"type":"function","name":"getStrategyCount","inputs":[],"outputs":[{"name":"","type":"uint256","internalType":"uint256"}],"stateMutability":"view"},{"type":"function","name":"getTotalAllocation","inputs":[],"outputs":[{"name":"","type":"uint256","internalType":"uint256"}],"stateMutability":"view"},{"type":"function","name":"grantRole","inputs":[{"name":"role","type":"bytes32","internalType":"bytes32"},{"name":"account","type":"address","internalType":"address"}],"outputs":[],"stateMutability":"nonpayable"},{"type":"function","name":"hasPending","inputs":[],"outputs":[{"name":"","type":"bool","internalType":"bool"}],"stateMutability":"view"},{"type":"function","name":"hasRole","inputs":[{"name":"role","type":"bytes32","internalType":"bytes32"},{"name":"account","type":"address","internalType":"address"}],"outputs":[{"name":"","type":"bool","internalType":"bool"}],"stateMutability":"view"},{"type":"function","name":"lastAIRebalance","inputs":[],"outputs":[{"name":"","type":"uint256","internalType":"uint256"}],"stateMutability":"view"},{"type":"function","name":"maxShift","inputs":[],"outputs":[{"name":"","type":"uint256","internalType":"uint256"}],"stateMutability":"view"},{"type":"function","name":"maxSingle","inputs":[],"outputs":[{"name":"","type":"uint256","internalType":"uint256"}],"stateMutability":"view"},{"type":"function","name":"minConfidence","inputs":[],"outputs":[{"name":"","type":"uint256","internalType":"uint256"}],"stateMutability":"view"},{"type":"function","name":"owner","inputs":[],"outputs":[{"name":"","type":"address","internalType":"address"}],"stateMutability":"view"},{"type":"function","name":"pending","inputs":[],"outputs":[{"name":"manager","type":"address","internalType":"address"},{"name":"nonce","type":"uint256","internalType":"uint256"},{"name":"deadline","type":"uint256","internalType":"uint256"},{"name":"timestamp","type":"uint256","internalType":"uint256"},{"name":"modelVersion","type":"string","internalType":"string"},{"name":"confidence","type":"uint256","internalType":"uint256"}],"stateMutability":"view"},{"type":"function","name":"removeStrategy","inputs":[{"name":"index","type":"uint256","internalType":"uint256"}],"outputs":[],"stateMutability":"nonpayable"},{"type":"function","name":"renounceOwnership","inputs":[],"outputs":[],"stateMutability":"nonpayable"},{"type":"function","name":"renounceRole","inputs":[{"name":"role","type":"bytes32","internalType":"bytes32"},{"name":"callerConfirmation","type":"address","internalType":"address"}],"outputs":[],"stateMutability":"nonpayable"},{"type":"function","name":"revokeRole","inputs":[{"name":"role","type":"bytes32","internalType":"bytes32"},{"name":"account","type":"address","internalType":"address"}],"outputs":[],"stateMutability":"nonpayable"},{"type":"function","name":"setSafety","inputs":[{"name":"_maxSingle","type":"uint256","internalType":"uint256"},{"name":"_maxShift","type":"uint256","internalType":"uint256"},{"name":"_minConf","type":"uint256","internalType":"uint256"},{"name":"_cooldown","type":"uint256","internalType":"uint256"}],"outputs":[],"stateMutability":"nonpayable"},{"type":"function","name":"setVault","inputs":[{"name":"_vault","type":"address","internalType":"address"}],"outputs":[],"stateMutability":"nonpayable"},{"type":"function","name":"strategies","inputs":[{"name":"","type":"uint256","internalType":"uint256"}],"outputs":[{"name":"strategy","type":"address","internalType":"address"},{"name":"allocation","type":"uint256","internalType":"uint256"},{"name":"active","type":"bool","internalType":"bool"}],"stateMutability":"view"},{"type":"function","name":"submitAI","inputs":[{"name":"rec","type":"tuple","internalType":"struct StrategyManager.AIRecommendation","components":[{"name":"manager","type":"address","internalType":"address"},{"name":"nonce","type":"uint256","internalType":"uint256"},{"name":"deadline","type":"uint256","internalType":"uint256"},{"name":"indices","type":"uint256[]","internalType":"uint256[]"},{"name":"allocations","type":"uint256[]","internalType":"uint256[]"},{"name":"timestamp","type":"uint256","internalType":"uint256"},{"name":"modelVersion","type":"string","internalType":"string"},{"name":"confidence","type":"uint256","internalType":"uint256"}]},{"name":"sig","type":"bytes","internalType":"bytes"}],"outputs":[],"stateMutability":"nonpayable"},{"type":"function","name":"supportsInterface","inputs":[{"name":"interfaceId","type":"bytes4","internalType":"bytes4"}],"outputs":[{"name":"","type":"bool","internalType":"bool"}],"stateMutability":"view"},{"type":"function","name":"transferOwnership","inputs":[{"name":"newOwner","type":"address","internalType":"address"}],"outputs":[],"stateMutability":"nonpayable"},{"type":"function","name":"updateAllocation","inputs":[{"name":"index","type":"uint256","internalType":"uint256"},{"name":"newAlloc","type":"uint256","internalType":"uint256"}],"outputs":[],"stateMutability":"nonpayable"},{"type":"function","name":"vault","inputs":[],"outputs":[{"name":"","type":"address","internalType":"address"}],"stateMutability":"view"},{"type":"event","name":"AIExecuted","inputs":[{"name":"keeper","type":"address","indexed":true,"internalType":"address"},{"name":"timestamp","type":"uint256","indexed":false,"internalType":"uint256"}],"anonymous":false},{"type":"event","name":"AISubmitted","inputs":[{"name":"agent","type":"address","indexed":true,"internalType":"address"},{"name":"nonce","type":"uint256","indexed":false,"internalType":"uint256"},{"name":"confidence","type":"uint256","indexed":false,"internalType":"uint256"}],"anonymous":false},{"type":"event","name":"AllocationUpdated","inputs":[{"name":"index","type":"uint256","indexed":true,"internalType":"uint256"},{"name":"newAllocation","type":"uint256","indexed":false,"internalType":"uint256"}],"anonymous":false},{"type":"event","name":"EIP712DomainChanged","inputs":[],"anonymous":false},{"type":"event","name":"OwnershipTransferred","inputs":[{"name":"previousOwner","type":"address","indexed":true,"internalType":"address"},{"name":"newOwner","type":"address","indexed":true,"internalType":"address"}],"anonymous":false},{"type":"event","name":"RoleAdminChanged","inputs":[{"name":"role","type":"bytes32","indexed":true,"internalType":"bytes32"},{"name":"previousAdminRole","type":"bytes32","indexed":true,"internalType":"bytes32"},{"name":"newAdminRole","type":"bytes32","indexed":true,"internalType":"bytes32"}],"anonymous":false},{"type":"event","name":"RoleGranted","inputs":[{"name":"role","type":"bytes32","indexed":true,"internalType":"bytes32"},{"name":"account","type":"address","indexed":true,"internalType":"address"},{"name":"sender","type":"address","indexed":true,"internalType":"address"}],"anonymous":false},{"type":"event","name":"RoleRevoked","inputs":[{"name":"role","type":"bytes32","indexed":true,"internalType":"bytes32"},{"name":"account","type":"address","indexed":true,"internalType":"address"},{"name":"sender","type":"address","indexed":true,"internalType":"address"}],"anonymous":false},{"type":"event","name":"StrategyAdded","inputs":[{"name":"strategy","type":"address","indexed":true,"internalType":"address"},{"name":"allocation","type":"uint256","indexed":false,"internalType":"uint256"}],"anonymous":false},{"type":"event","name":"StrategyRemoved","inputs":[{"name":"strategy","type":"address","indexed":true,"internalType":"address"},{"name":"index","type":"uint256","indexed":false,"internalType":"uint256"}],"anonymous":false},{"type":"event","name":"VaultSet","inputs":[{"name":"vault","type":"address","indexed":true,"internalType":"address"}],"anonymous":false},{"type":"error","name":"AccessControlBadConfirmation","inputs":[]},{"type":"error","name":"AccessControlUnauthorizedAccount","inputs":[{"name":"account","type":"address","internalType":"address"},{"name":"neededRole","type":"bytes32","internalType":"bytes32"}]},{"type":"error","name":"ECDSAInvalidSignature","inputs":[]},{"type":"error","name":"ECDSAInvalidSignatureLength","inputs":[{"name":"length","type":"uint256","internalType":"uint256"}]},{"type":"error","name":"ECDSAInvalidSignatureS","inputs":[{"name":"s","type":"bytes32","internalType":"bytes32"}]},{"type":"error","name":"InvalidShortString","inputs":[]},{"type":"error","name":"OwnableInvalidOwner","inputs":[{"name":"owner","type":"address","internalType":"address"}]},{"type":"error","name":"OwnableUnauthorizedAccount","inputs":[{"name":"account","type":"address","internalType":"address"}]},{"type":"error","name":"ReentrancyGuardReentrantCall","inputs":[]},{"type":"error","name":"StringTooLong","inputs":[{"name":"str","type":"string","internalType":"string"}]}],"bytecode":{"object":"0x610160604052610fa06012556107d0601355611b58601455615460601555348015610028575f5ffd5b506040518060400160405280600f81526020017f53747261746567794d616e6167657200000000000000000000000000000000008152506040518060400160405280600181526020017f3100000000000000000000000000000000000000000000000000000000000000815250335f73ffffffffffffffffffffffffffffffffffffffff168173ffffffffffffffffffffffffffffffffffffffff1603610106575f6040517f1e4fbdf70000000000000000000000000000000000000000000000000000000081526004016100fd9190610555565b60405180910390fd5b610115816101e060201b60201c565b5060016002819055506101326003836102a160201b90919060201c565b610120818152505061014e6004826102a160201b90919060201c565b6101408181525050818051906020012060e08181525050808051906020012061010081815250504660a0818152505061018b6102ee60201b60201c565b608081815250503073ffffffffffffffffffffffffffffffffffffffff1660c08173ffffffffffffffffffffffffffffffffffffffff168152505050506101da5f5f1b3361034860201b60201c565b50610a0b565b5f5f5f9054906101000a900473ffffffffffffffffffffffffffffffffffffffff169050815f5f6101000a81548173ffffffffffffffffffffffffffffffffffffffff021916908373ffffffffffffffffffffffffffffffffffffffff1602179055508173ffffffffffffffffffffffffffffffffffffffff168173ffffffffffffffffffffffffffffffffffffffff167f8be0079c531659141344cd1fd0a4f28419497f9722a3daafe3b4186f6b6457e060405160405180910390a35050565b5f6020835110156102c2576102bb8361043d60201b60201c565b90506102e8565b826102d2836104a260201b60201c565b5f0190816102e091906107ab565b5060ff5f1b90505b92915050565b5f7f8b73c3c69bb8fe3d512ecc4cf759cc79239f7b179b0ffacaa9a75d522b39400f60e05161010051463060405160200161032d9594939291906108a1565b60405160208183030381529060405280519060200120905090565b5f61035983836104ab60201b60201c565b610433576001805f8581526020019081526020015f205f015f8473ffffffffffffffffffffffffffffffffffffffff1673ffffffffffffffffffffffffffffffffffffffff1681526020019081526020015f205f6101000a81548160ff0219169083151502179055506103d061050f60201b60201c565b73ffffffffffffffffffffffffffffffffffffffff168273ffffffffffffffffffffffffffffffffffffffff16847f2f8788117e7eff1d82e926ec794901d17c78024a50270940304540a733656f0d60405160405180910390a460019050610437565b5f90505b92915050565b5f5f829050601f8151111561048957826040517f305a27a90000000000000000000000000000000000000000000000000000000081526004016104809190610958565b60405180910390fd5b805181610495906109a5565b5f1c175f1b915050919050565b5f819050919050565b5f60015f8481526020019081526020015f205f015f8373ffffffffffffffffffffffffffffffffffffffff1673ffffffffffffffffffffffffffffffffffffffff1681526020019081526020015f205f9054906101000a900460ff16905092915050565b5f33905090565b5f73ffffffffffffffffffffffffffffffffffffffff82169050919050565b5f61053f82610516565b9050919050565b61054f81610535565b82525050565b5f6020820190506105685f830184610546565b92915050565b5f81519050919050565b7f4e487b71000000000000000000000000000000000000000000000000000000005f52604160045260245ffd5b7f4e487b71000000000000000000000000000000000000000000000000000000005f52602260045260245ffd5b5f60028204905060018216806105e957607f821691505b6020821081036105fc576105fb6105a5565b5b50919050565b5f819050815f5260205f209050919050565b5f6020601f8301049050919050565b5f82821b905092915050565b5f6008830261065e7fffffffffffffffffffffffffffffffffffffffffffffffffffffffffffffffff82610623565b6106688683610623565b95508019841693508086168417925050509392505050565b5f819050919050565b5f819050919050565b5f6106ac6106a76106a284610680565b610689565b610680565b9050919050565b5f819050919050565b6106c583610692565b6106d96106d1826106b3565b84845461062f565b825550505050565b5f5f905090565b6106f06106e1565b6106fb8184846106bc565b505050565b5b8181101561071e576107135f826106e8565b600181019050610701565b5050565b601f8211156107635761073481610602565b61073d84610614565b8101602085101561074c578190505b61076061075885610614565b830182610700565b50505b505050565b5f82821c905092915050565b5f6107835f1984600802610768565b1980831691505092915050565b5f61079b8383610774565b9150826002028217905092915050565b6107b48261056e565b67ffffffffffffffff8111156107cd576107cc610578565b5b6107d782546105d2565b6107e2828285610722565b5f60209050601f831160018114610813575f8415610801578287015190505b61080b8582610790565b865550610872565b601f19841661082186610602565b5f5b8281101561084857848901518255600182019150602085019450602081019050610823565b868310156108655784890151610861601f891682610774565b8355505b6001600288020188555050505b505050505050565b5f819050919050565b61088c8161087a565b82525050565b61089b81610680565b82525050565b5f60a0820190506108b45f830188610883565b6108c16020830187610883565b6108ce6040830186610883565b6108db6060830185610892565b6108e86080830184610546565b9695505050505050565b5f82825260208201905092915050565b8281835e5f83830152505050565b5f601f19601f8301169050919050565b5f61092a8261056e565b61093481856108f2565b9350610944818560208601610902565b61094d81610910565b840191505092915050565b5f6020820190508181035f8301526109708184610920565b905092915050565b5f81519050919050565b5f819050602082019050919050565b5f61099c825161087a565b80915050919050565b5f6109af82610978565b826109b984610982565b90506109c481610991565b92506020821015610a04576109ff7fffffffffffffffffffffffffffffffffffffffffffffffffffffffffffffffff83602003600802610623565b831692505b5050919050565b60805160a05160c05160e051610100516101205161014051614ab1610a5c5f395f6128cc01525f61289101525f612cee01525f612ccd01525f61290101525f61295701525f6129800152614ab15ff3fe608060405234801561000f575f5ffd5b5060043610610230575f3560e01c8063799cfed51161012e578063c439fb3d116100b6578063d574ea3d1161007a578063d574ea3d14610648578063e20ccec31461067a578063ed24911d1461069d578063f2fde38b146106bb578063fbfa77cf146106d757610230565b8063c439fb3d14610590578063c9411e22146105c0578063cfc0cc34146105dc578063d52b7a141461060e578063d547741f1461062c57610230565b80638da5cb5b116100fd5780638da5cb5b146104ea57806391d1485414610508578063a0448fc514610538578063a217fddf14610556578063c0cbbca61461057457610230565b8063799cfed51461047057806384b0196e1461048c57806384e79842146104b0578063862a179e146104cc57610230565b8063408432c5116101bc578063715018a611610180578063715018a614610402578063724ca26f1461040c57806372db4e5b1461042a57806375d0fd6814610434578063787a08a61461045257610230565b8063408432c5146103705780634b2926f91461038e5780635236434c146103aa578063587436e4146103c85780636817031b146103e657610230565b806324fb413c1161020357806324fb413c146102e25780632f2ff15d146102fe57806331e19cfa1461031a57806336568abe146103385780634032b72b1461035457610230565b806301ffc9a71461023457806315d3b5d814610264578063223330d514610282578063248a9ca3146102b2575b5f5ffd5b61024e60048036038101906102499190612f78565b6106f5565b60405161025b9190612fbd565b60405180910390f35b61026c61076e565b6040516102799190612fee565b60405180910390f35b61029c60048036038101906102979190613061565b6107fe565b6040516102a99190612fee565b60405180910390f35b6102cc60048036038101906102c791906130bf565b610844565b6040516102d991906130f9565b60405180910390f35b6102fc60048036038101906102f7919061313c565b610861565b005b6103186004803603810190610313919061317a565b610aa5565b005b610322610ac7565b60405161032f9190612fee565b60405180910390f35b610352600480360381019061034d919061317a565b610ad3565b005b61036e60048036038101906103699190613061565b610b4e565b005b610378610b83565b60405161038591906130f9565b60405180910390f35b6103a860048036038101906103a391906131b8565b610ba7565b005b6103b2610bd1565b6040516103bf9190612fbd565b60405180910390f35b6103d0610be3565b6040516103dd9190613331565b60405180910390f35b61040060048036038101906103fb9190613061565b610dce565b005b61040a610eca565b005b610414610edd565b6040516104219190612fee565b60405180910390f35b610432610ee3565b005b61043c6112f0565b6040516104499190612fee565b60405180910390f35b61045a6112f6565b6040516104679190612fee565b60405180910390f35b61048a600480360381019061048591906133d5565b6112fc565b005b610494611ba9565b6040516104a797969594939291906135af565b60405180910390f35b6104ca60048036038101906104c59190613061565b611c4e565b005b6104d4611c83565b6040516104e191906130f9565b60405180910390f35b6104f2611ca7565b6040516104ff9190613631565b60405180910390f35b610522600480360381019061051d919061317a565b611cce565b60405161052f9190612fbd565b60405180910390f35b610540611d32565b60405161054d9190612fee565b60405180910390f35b61055e611d38565b60405161056b91906130f9565b60405180910390f35b61058e6004803603810190610589919061364a565b611d3e565b005b6105aa60048036038101906105a59190613061565b611e81565b6040516105b79190612fee565b60405180910390f35b6105da60048036038101906105d59190613675565b611e96565b005b6105f660048036038101906105f1919061364a565b61213f565b604051610605939291906136b3565b60405180910390f35b61061661224b565b6040516106239190612fee565b60405180910390f35b6106466004803603810190610641919061317a565b612251565b005b610662600480360381019061065d919061364a565b612273565b604051610671939291906136b3565b60405180910390f35b6106826122d3565b604051610694969594939291906136e8565b60405180910390f35b6106a56123a1565b6040516106b291906130f9565b60405180910390f35b6106d560048036038101906106d09190613061565b6123af565b005b6106df612433565b6040516106ec9190613631565b60405180910390f35b5f7f7965db0b000000000000000000000000000000000000000000000000000000007bffffffffffffffffffffffffffffffffffffffffffffffffffffffff1916827bffffffffffffffffffffffffffffffffffffffffffffffffffffffff19161480610767575061076682612458565b5b9050919050565b5f5f5f5f90505b6005805490508110156107f657600581815481106107965761079561374e565b5b905f5260205f2090600302016002015f9054906101000a900460ff16156107e957600581815481106107cb576107ca61374e565b5b905f5260205f20906003020160010154826107e691906137a8565b91505b8080600101915050610775565b508091505090565b5f60075f8373ffffffffffffffffffffffffffffffffffffffff1673ffffffffffffffffffffffffffffffffffffffff1681526020019081526020015f20549050919050565b5f60015f8381526020019081526020015f20600101549050919050565b6108696124c1565b60058054905082106108b0576040517f08c379a00000000000000000000000000000000000000000000000000000000081526004016108a790613825565b60405180910390fd5b6127108111156108f5576040517f08c379a00000000000000000000000000000000000000000000000000000000081526004016108ec9061388d565b60405180910390fd5b600582815481106109095761090861374e565b5b905f5260205f2090600302016002015f9054906101000a900460ff16610964576040517f08c379a000000000000000000000000000000000000000000000000000000000815260040161095b906138f5565b60405180910390fd5b5f8190505f5f90505b6005805490508110156109fa578381141580156109b65750600581815481106109995761099861374e565b5b905f5260205f2090600302016002015f9054906101000a900460ff165b156109ed57600581815481106109cf576109ce61374e565b5b905f5260205f20906003020160010154826109ea91906137a8565b91505b808060010191505061096d565b50612710811115610a40576040517f08c379a0000000000000000000000000000000000000000000000000000000008152600401610a379061395d565b60405180910390fd5b8160058481548110610a5557610a5461374e565b5b905f5260205f20906003020160010181905550827fce82be03214ce62b009134c93a9904189f1e9d5a50786485daa1304660a881bb83604051610a989190612fee565b60405180910390a2505050565b610aae82610844565b610ab781612548565b610ac1838361255c565b50505050565b5f600580549050905090565b610adb612645565b73ffffffffffffffffffffffffffffffffffffffff168173ffffffffffffffffffffffffffffffffffffffff1614610b3f576040517f6697b23200000000000000000000000000000000000000000000000000000000815260040160405180910390fd5b610b49828261264c565b505050565b610b566124c1565b610b807f71a9859d7dd21b24504a6f306077ffc2d510b4d4b61128e931fe937441ad183682610aa5565b50565b7f166bc75a95109a6eda1466c05365ea6a5529276b3b71c014c13f8fb7ab3fbb0f81565b610baf6124c1565b8360128190555082601381905550816014819055508060158190555050505050565b60105f9054906101000a900460ff1681565b60605f5f5f90505b600580549050811015610c495760058181548110610c0c57610c0b61374e565b5b905f5260205f2090600302016002015f9054906101000a900460ff1615610c3c578180610c389061397b565b9250505b8080600101915050610beb565b505f8167ffffffffffffffff811115610c6557610c646139c2565b5b604051908082528060200260200182016040528015610c9e57816020015b610c8b612ee5565b815260200190600190039081610c835790505b5090505f5f5f90505b600580549050811015610dc45760058181548110610cc857610cc761374e565b5b905f5260205f2090600302016002015f9054906101000a900460ff1615610db75760058181548110610cfd57610cfc61374e565b5b905f5260205f2090600302016040518060600160405290815f82015f9054906101000a900473ffffffffffffffffffffffffffffffffffffffff1673ffffffffffffffffffffffffffffffffffffffff1673ffffffffffffffffffffffffffffffffffffffff16815260200160018201548152602001600282015f9054906101000a900460ff161515151581525050838380610d989061397b565b945081518110610dab57610daa61374e565b5b60200260200101819052505b8080600101915050610ca7565b5081935050505090565b610dd66124c1565b5f73ffffffffffffffffffffffffffffffffffffffff168173ffffffffffffffffffffffffffffffffffffffff1603610e44576040517f08c379a0000000000000000000000000000000000000000000000000000000008152600401610e3b90613a39565b60405180910390fd5b8060065f6101000a81548173ffffffffffffffffffffffffffffffffffffffff021916908373ffffffffffffffffffffffffffffffffffffffff1602179055508073ffffffffffffffffffffffffffffffffffffffff167fe7ae49f883c825b05681b3e00e8be6fdea9ed2a8a45e4c6ecb9390fc44cce61560405160405180910390a250565b610ed26124c1565b610edb5f612736565b565b60115481565b7f71a9859d7dd21b24504a6f306077ffc2d510b4d4b61128e931fe937441ad1836610f0d81612548565b610f156127f7565b60105f9054906101000a900460ff16610f63576040517f08c379a0000000000000000000000000000000000000000000000000000000008152600401610f5a90613aa1565b60405180910390fd5b601554601154610f7391906137a8565b421015610fb5576040517f08c379a0000000000000000000000000000000000000000000000000000000008152600401610fac90613b09565b60405180910390fd5b5f6008604051806101000160405290815f82015f9054906101000a900473ffffffffffffffffffffffffffffffffffffffff1673ffffffffffffffffffffffffffffffffffffffff1673ffffffffffffffffffffffffffffffffffffffff16815260200160018201548152602001600282015481526020016003820180548060200260200160405190810160405280929190818152602001828054801561107957602002820191905f5260205f20905b815481526020019060010190808311611065575b50505050508152602001600482018054806020026020016040519081016040528092919081815260200182805480156110cf57602002820191905f5260205f20905b8154815260200190600101908083116110bb575b50505050508152602001600582015481526020016006820180546110f290613b54565b80601f016020809104026020016040519081016040528092919081815260200182805461111e90613b54565b80156111695780601f1061114057610100808354040283529160200191611169565b820191905f5260205f20905b81548152906001019060200180831161114c57829003601f168201915b5050505050815260200160078201548152505090505f5f90505b81606001515181101561127557816080015181815181106111a7576111a661374e565b5b60200260200101516005836060015183815181106111c8576111c761374e565b5b6020026020010151815481106111e1576111e061374e565b5b905f5260205f209060030201600101819055508160600151818151811061120b5761120a61374e565b5b60200260200101517fce82be03214ce62b009134c93a9904189f1e9d5a50786485daa1304660a881bb8360800151838151811061124b5761124a61374e565b5b60200260200101516040516112609190612fee565b60405180910390a28080600101915050611183565b50426011819055505f60105f6101000a81548160ff0219169083151502179055503373ffffffffffffffffffffffffffffffffffffffff167f499ce4dc297d62831bc0810335a343378ea303702bde6055cd2672618717d369426040516112dc9190612fee565b60405180910390a2506112ed61283b565b50565b60125481565b60155481565b6113046127f7565b428360400135101561134b576040517f08c379a000000000000000000000000000000000000000000000000000000000815260040161134290613bce565b60405180910390fd5b3073ffffffffffffffffffffffffffffffffffffffff16835f0160208101906113749190613061565b73ffffffffffffffffffffffffffffffffffffffff16146113ca576040517f08c379a00000000000000000000000000000000000000000000000000000000081526004016113c190613c36565b60405180910390fd5b8280608001906113da9190613c60565b90508380606001906113ec9190613c60565b90501461142e576040517f08c379a000000000000000000000000000000000000000000000000000000000815260040161142590613d0c565b60405180910390fd5b5f83806060019061143f9190613c60565b905011611481576040517f08c379a000000000000000000000000000000000000000000000000000000000815260040161147890613d74565b60405180910390fd5b5f7f6c4e66b0242ff0a7a8693f4e9bf72965b0e407b24cdde529cf575bcc1eda5085845f0160208101906114b59190613061565b856020013586604001358780606001906114cf9190613c60565b6040516020016114e0929190613e04565b604051602081830303815290604052805190602001208880608001906115069190613c60565b604051602001611517929190613e04565b604051602081830303815290604052805190602001208960a001358a8060c001906115429190613e1c565b604051611550929190613eba565b60405180910390208b60e0013560405160200161157599989796959493929190613ed2565b6040516020818303038152906040528051906020012090505f6115ec84848080601f0160208091040260200160405190810160405280939291908181526020018383808284375f81840152601f19601f820116905080830192505050505050506115de84612845565b61285e90919063ffffffff16565b90506116187f166bc75a95109a6eda1466c05365ea6a5529276b3b71c014c13f8fb7ab3fbb0f82611cce565b611657576040517f08c379a000000000000000000000000000000000000000000000000000000000815260040161164e90613fa7565b60405180910390fd5b60075f8273ffffffffffffffffffffffffffffffffffffffff1673ffffffffffffffffffffffffffffffffffffffff1681526020019081526020015f20548560200135146116da576040517f08c379a00000000000000000000000000000000000000000000000000000000081526004016116d19061400f565b60405180910390fd5b5f5f5f90505b8680608001906116f09190613c60565b905081101561173b578680608001906117099190613c60565b8281811061171a5761171961374e565b5b905060200201358261172c91906137a8565b915080806001019150506116e0565b506126ac811015801561175057506127748111155b61178f576040517f08c379a000000000000000000000000000000000000000000000000000000000815260040161178690614077565b60405180910390fd5b5f670de0b6b3a76400006127108860e001356117ab9190614095565b6117b59190614103565b90506014548110156117fc576040517f08c379a00000000000000000000000000000000000000000000000000000000081526004016117f39061417d565b60405180910390fd5b5f5f90505b8780606001906118119190613c60565b9050811015611ac1575f88806060019061182b9190613c60565b8381811061183c5761183b61374e565b5b905060200201359050600580549050811061188c576040517f08c379a000000000000000000000000000000000000000000000000000000000815260040161188390613825565b60405180910390fd5b600581815481106118a05761189f61374e565b5b905f5260205f2090600302016002015f9054906101000a900460ff166118fb576040517f08c379a00000000000000000000000000000000000000000000000000000000081526004016118f2906138f5565b60405180910390fd5b60125489806080019061190e9190613c60565b8481811061191f5761191e61374e565b5b905060200201351115611967576040517f08c379a000000000000000000000000000000000000000000000000000000000815260040161195e9061388d565b60405180910390fd5b5f6005828154811061197c5761197b61374e565b5b905f5260205f209060030201600101548a806080019061199c9190613c60565b858181106119ad576119ac61374e565b5b9050602002013511611a14578980608001906119c99190613c60565b848181106119da576119d961374e565b5b90506020020135600583815481106119f5576119f461374e565b5b905f5260205f20906003020160010154611a0f919061419b565b611a6b565b60058281548110611a2857611a2761374e565b5b905f5260205f209060030201600101548a8060800190611a489190613c60565b85818110611a5957611a5861374e565b5b90506020020135611a6a919061419b565b5b9050601354811115611ab2576040517f08c379a0000000000000000000000000000000000000000000000000000000008152600401611aa990614218565b60405180910390fd5b50508080600101915050611801565b5060075f8473ffffffffffffffffffffffffffffffffffffffff1673ffffffffffffffffffffffffffffffffffffffff1681526020019081526020015f205f815480929190611b0f9061397b565b91905055508660088181611b239190614873565b905050600160105f6101000a81548160ff0219169083151502179055508273ffffffffffffffffffffffffffffffffffffffff167f48be5aa0eac3fe6cbae6607b6234e6f5da7aa01b2edb01f6f6004d88581be48788602001358960e00135604051611b90929190614881565b60405180910390a250505050611ba461283b565b505050565b5f6060805f5f5f6060611bba612888565b611bc26128c3565b46305f5f1b5f67ffffffffffffffff811115611be157611be06139c2565b5b604051908082528060200260200182016040528015611c0f5781602001602082028036833780820191505090505b507f0f00000000000000000000000000000000000000000000000000000000000000959493929190965096509650965096509650965090919293949596565b611c566124c1565b611c807f166bc75a95109a6eda1466c05365ea6a5529276b3b71c014c13f8fb7ab3fbb0f82610aa5565b50565b7f71a9859d7dd21b24504a6f306077ffc2d510b4d4b61128e931fe937441ad183681565b5f5f5f9054906101000a900473ffffffffffffffffffffffffffffffffffffffff16905090565b5f60015f8481526020019081526020015f205f015f8373ffffffffffffffffffffffffffffffffffffffff1673ffffffffffffffffffffffffffffffffffffffff1681526020019081526020015f205f9054906101000a900460ff16905092915050565b60135481565b5f5f1b81565b611d466124c1565b6005805490508110611d8d576040517f08c379a0000000000000000000000000000000000000000000000000000000008152600401611d8490613825565b60405180910390fd5b5f60058281548110611da257611da161374e565b5b905f5260205f2090600302016002015f6101000a81548160ff0219169083151502179055505f60058281548110611ddc57611ddb61374e565b5b905f5260205f2090600302016001018190555060058181548110611e0357611e0261374e565b5b905f5260205f2090600302015f015f9054906101000a900473ffffffffffffffffffffffffffffffffffffffff1673ffffffffffffffffffffffffffffffffffffffff167fbbf656fe5bdad4acb6ad855a12c9cb30a54f2171f421df7461c587557e916b3a82604051611e769190612fee565b60405180910390a250565b6007602052805f5260405f205f915090505481565b611e9e6124c1565b5f73ffffffffffffffffffffffffffffffffffffffff168273ffffffffffffffffffffffffffffffffffffffff1603611f0c576040517f08c379a0000000000000000000000000000000000000000000000000000000008152600401611f03906148f2565b60405180910390fd5b612710811115611f51576040517f08c379a0000000000000000000000000000000000000000000000000000000008152600401611f489061495a565b60405180910390fd5b5f8190505f5f90505b600580549050811015611fdb5760058181548110611f7b57611f7a61374e565b5b905f5260205f2090600302016002015f9054906101000a900460ff1615611fce5760058181548110611fb057611faf61374e565b5b905f5260205f2090600302016001015482611fcb91906137a8565b91505b8080600101915050611f5a565b50612710811115612021576040517f08c379a00000000000000000000000000000000000000000000000000000000081526004016120189061395d565b60405180910390fd5b600560405180606001604052808573ffffffffffffffffffffffffffffffffffffffff16815260200184815260200160011515815250908060018154018082558091505060019003905f5260205f2090600302015f909190919091505f820151815f015f6101000a81548173ffffffffffffffffffffffffffffffffffffffff021916908373ffffffffffffffffffffffffffffffffffffffff160217905550602082015181600101556040820151816002015f6101000a81548160ff02191690831515021790555050508273ffffffffffffffffffffffffffffffffffffffff167f2f564a83158ad1831793ad3e69257b52f39ece5d49cb0d8746708ecb9ef964da836040516121329190612fee565b60405180910390a2505050565b5f5f5f6005805490508410612189576040517f08c379a000000000000000000000000000000000000000000000000000000000815260040161218090613825565b60405180910390fd5b5f6005858154811061219e5761219d61374e565b5b905f5260205f2090600302016040518060600160405290815f82015f9054906101000a900473ffffffffffffffffffffffffffffffffffffffff1673ffffffffffffffffffffffffffffffffffffffff1673ffffffffffffffffffffffffffffffffffffffff16815260200160018201548152602001600282015f9054906101000a900460ff1615151515815250509050805f015181602001518260400151935093509350509193909250565b60145481565b61225a82610844565b61226381612548565b61226d838361264c565b50505050565b60058181548110612282575f80fd5b905f5260205f2090600302015f91509050805f015f9054906101000a900473ffffffffffffffffffffffffffffffffffffffff1690806001015490806002015f9054906101000a900460ff16905083565b6008805f015f9054906101000a900473ffffffffffffffffffffffffffffffffffffffff169080600101549080600201549080600501549080600601805461231a90613b54565b80601f016020809104026020016040519081016040528092919081815260200182805461234690613b54565b80156123915780601f1061236857610100808354040283529160200191612391565b820191905f5260205f20905b81548152906001019060200180831161237457829003601f168201915b5050505050908060070154905086565b5f6123aa6128fe565b905090565b6123b76124c1565b5f73ffffffffffffffffffffffffffffffffffffffff168173ffffffffffffffffffffffffffffffffffffffff1603612427575f6040517f1e4fbdf700000000000000000000000000000000000000000000000000000000815260040161241e9190613631565b60405180910390fd5b61243081612736565b50565b60065f9054906101000a900473ffffffffffffffffffffffffffffffffffffffff1681565b5f7f01ffc9a7000000000000000000000000000000000000000000000000000000007bffffffffffffffffffffffffffffffffffffffffffffffffffffffff1916827bffffffffffffffffffffffffffffffffffffffffffffffffffffffff1916149050919050565b6124c9612645565b73ffffffffffffffffffffffffffffffffffffffff166124e7611ca7565b73ffffffffffffffffffffffffffffffffffffffff16146125465761250a612645565b6040517f118cdaa700000000000000000000000000000000000000000000000000000000815260040161253d9190613631565b60405180910390fd5b565b61255981612554612645565b6129b4565b50565b5f6125678383611cce565b61263b576001805f8581526020019081526020015f205f015f8473ffffffffffffffffffffffffffffffffffffffff1673ffffffffffffffffffffffffffffffffffffffff1681526020019081526020015f205f6101000a81548160ff0219169083151502179055506125d8612645565b73ffffffffffffffffffffffffffffffffffffffff168273ffffffffffffffffffffffffffffffffffffffff16847f2f8788117e7eff1d82e926ec794901d17c78024a50270940304540a733656f0d60405160405180910390a46001905061263f565b5f90505b92915050565b5f33905090565b5f6126578383611cce565b1561272c575f60015f8581526020019081526020015f205f015f8473ffffffffffffffffffffffffffffffffffffffff1673ffffffffffffffffffffffffffffffffffffffff1681526020019081526020015f205f6101000a81548160ff0219169083151502179055506126c9612645565b73ffffffffffffffffffffffffffffffffffffffff168273ffffffffffffffffffffffffffffffffffffffff16847ff6391f5c32d9c69d2a47ea670b442974b53935d1edc7fd64eb21e047a839171b60405160405180910390a460019050612730565b5f90505b92915050565b5f5f5f9054906101000a900473ffffffffffffffffffffffffffffffffffffffff169050815f5f6101000a81548173ffffffffffffffffffffffffffffffffffffffff021916908373ffffffffffffffffffffffffffffffffffffffff1602179055508173ffffffffffffffffffffffffffffffffffffffff168173ffffffffffffffffffffffffffffffffffffffff167f8be0079c531659141344cd1fd0a4f28419497f9722a3daafe3b4186f6b6457e060405160405180910390a35050565b6002805403612832576040517f3ee5aeb500000000000000000000000000000000000000000000000000000000815260040160405180910390fd5b60028081905550565b6001600281905550565b5f6128576128516128fe565b83612a05565b9050919050565b5f5f5f5f61286c8686612a45565b92509250925061287c8282612a9a565b82935050505092915050565b60606128be60037f0000000000000000000000000000000000000000000000000000000000000000612bfc90919063ffffffff16565b905090565b60606128f960047f0000000000000000000000000000000000000000000000000000000000000000612bfc90919063ffffffff16565b905090565b5f7f000000000000000000000000000000000000000000000000000000000000000073ffffffffffffffffffffffffffffffffffffffff163073ffffffffffffffffffffffffffffffffffffffff1614801561297957507f000000000000000000000000000000000000000000000000000000000000000046145b156129a6577f000000000000000000000000000000000000000000000000000000000000000090506129b1565b6129ae612ca9565b90505b90565b6129be8282611cce565b612a015780826040517fe2517d3f0000000000000000000000000000000000000000000000000000000081526004016129f8929190614978565b60405180910390fd5b5050565b5f6040517f190100000000000000000000000000000000000000000000000000000000000081528360028201528260228201526042812091505092915050565b5f5f5f6041845103612a85575f5f5f602087015192506040870151915060608701515f1a9050612a7788828585612d3e565b955095509550505050612a93565b5f600285515f1b9250925092505b9250925092565b5f6003811115612aad57612aac61499f565b5b826003811115612ac057612abf61499f565b5b0315612bf85760016003811115612ada57612ad961499f565b5b826003811115612aed57612aec61499f565b5b03612b24576040517ff645eedf00000000000000000000000000000000000000000000000000000000815260040160405180910390fd5b60026003811115612b3857612b3761499f565b5b826003811115612b4b57612b4a61499f565b5b03612b8f57805f1c6040517ffce698f7000000000000000000000000000000000000000000000000000000008152600401612b869190612fee565b60405180910390fd5b600380811115612ba257612ba161499f565b5b826003811115612bb557612bb461499f565b5b03612bf757806040517fd78bce0c000000000000000000000000000000000000000000000000000000008152600401612bee91906130f9565b60405180910390fd5b5b5050565b606060ff5f1b8314612c1857612c1183612e25565b9050612ca3565b818054612c2490613b54565b80601f0160208091040260200160405190810160405280929190818152602001828054612c5090613b54565b8015612c9b5780601f10612c7257610100808354040283529160200191612c9b565b820191905f5260205f20905b815481529060010190602001808311612c7e57829003601f168201915b505050505090505b92915050565b5f7f8b73c3c69bb8fe3d512ecc4cf759cc79239f7b179b0ffacaa9a75d522b39400f7f00000000000000000000000000000000000000000000000000000000000000007f00000000000000000000000000000000000000000000000000000000000000004630604051602001612d239594939291906149cc565b60405160208183030381529060405280519060200120905090565b5f5f5f7f7fffffffffffffffffffffffffffffff5d576e7357a4501ddfe92f46681b20a0845f1c1115612d7a575f600385925092509250612e1b565b5f6001888888886040515f8152602001604052604051612d9d9493929190614a38565b6020604051602081039080840390855afa158015612dbd573d5f5f3e3d5ffd5b5050506020604051035190505f73ffffffffffffffffffffffffffffffffffffffff168173ffffffffffffffffffffffffffffffffffffffff1603612e0e575f60015f5f1b93509350935050612e1b565b805f5f5f1b935093509350505b9450945094915050565b60605f612e3183612e97565b90505f602067ffffffffffffffff811115612e4f57612e4e6139c2565b5b6040519080825280601f01601f191660200182016040528015612e815781602001600182028036833780820191505090505b5090508181528360208201528092505050919050565b5f5f60ff835f1c169050601f811115612edc576040517fb3512b0c00000000000000000000000000000000000000000000000000000000815260040160405180910390fd5b80915050919050565b60405180606001604052805f73ffffffffffffffffffffffffffffffffffffffff1681526020015f81526020015f151581525090565b5f5ffd5b5f5ffd5b5f7fffffffff0000000000000000000000000000000000000000000000000000000082169050919050565b612f5781612f23565b8114612f61575f5ffd5b50565b5f81359050612f7281612f4e565b92915050565b5f60208284031215612f8d57612f8c612f1b565b5b5f612f9a84828501612f64565b91505092915050565b5f8115159050919050565b612fb781612fa3565b82525050565b5f602082019050612fd05f830184612fae565b92915050565b5f819050919050565b612fe881612fd6565b82525050565b5f6020820190506130015f830184612fdf565b92915050565b5f73ffffffffffffffffffffffffffffffffffffffff82169050919050565b5f61303082613007565b9050919050565b61304081613026565b811461304a575f5ffd5b50565b5f8135905061305b81613037565b92915050565b5f6020828403121561307657613075612f1b565b5b5f6130838482850161304d565b91505092915050565b5f819050919050565b61309e8161308c565b81146130a8575f5ffd5b50565b5f813590506130b981613095565b92915050565b5f602082840312156130d4576130d3612f1b565b5b5f6130e1848285016130ab565b91505092915050565b6130f38161308c565b82525050565b5f60208201905061310c5f8301846130ea565b92915050565b61311b81612fd6565b8114613125575f5ffd5b50565b5f8135905061313681613112565b92915050565b5f5f6040838503121561315257613151612f1b565b5b5f61315f85828601613128565b925050602061317085828601613128565b9150509250929050565b5f5f604083850312156131905761318f612f1b565b5b5f61319d858286016130ab565b92505060206131ae8582860161304d565b9150509250929050565b5f5f5f5f608085870312156131d0576131cf612f1b565b5b5f6131dd87828801613128565b94505060206131ee87828801613128565b93505060406131ff87828801613128565b925050606061321087828801613128565b91505092959194509250565b5f81519050919050565b5f82825260208201905092915050565b5f819050602082019050919050565b61324e81613026565b82525050565b61325d81612fd6565b82525050565b61326c81612fa3565b82525050565b606082015f8201516132865f850182613245565b5060208201516132996020850182613254565b5060408201516132ac6040850182613263565b50505050565b5f6132bd8383613272565b60608301905092915050565b5f602082019050919050565b5f6132df8261321c565b6132e98185613226565b93506132f483613236565b805f5b8381101561332457815161330b88826132b2565b9750613316836132c9565b9250506001810190506132f7565b5085935050505092915050565b5f6020820190508181035f83015261334981846132d5565b905092915050565b5f5ffd5b5f610100828403121561336b5761336a613351565b5b81905092915050565b5f5ffd5b5f5ffd5b5f5ffd5b5f5f83601f84011261339557613394613374565b5b8235905067ffffffffffffffff8111156133b2576133b1613378565b5b6020830191508360018202830111156133ce576133cd61337c565b5b9250929050565b5f5f5f604084860312156133ec576133eb612f1b565b5b5f84013567ffffffffffffffff81111561340957613408612f1f565b5b61341586828701613355565b935050602084013567ffffffffffffffff81111561343657613435612f1f565b5b61344286828701613380565b92509250509250925092565b5f7fff0000000000000000000000000000000000000000000000000000000000000082169050919050565b6134828161344e565b82525050565b5f81519050919050565b5f82825260208201905092915050565b8281835e5f83830152505050565b5f601f19601f8301169050919050565b5f6134ca82613488565b6134d48185613492565b93506134e48185602086016134a2565b6134ed816134b0565b840191505092915050565b61350181613026565b82525050565b5f81519050919050565b5f82825260208201905092915050565b5f819050602082019050919050565b5f61353b8383613254565b60208301905092915050565b5f602082019050919050565b5f61355d82613507565b6135678185613511565b935061357283613521565b805f5b838110156135a25781516135898882613530565b975061359483613547565b925050600181019050613575565b5085935050505092915050565b5f60e0820190506135c25f83018a613479565b81810360208301526135d481896134c0565b905081810360408301526135e881886134c0565b90506135f76060830187612fdf565b61360460808301866134f8565b61361160a08301856130ea565b81810360c08301526136238184613553565b905098975050505050505050565b5f6020820190506136445f8301846134f8565b92915050565b5f6020828403121561365f5761365e612f1b565b5b5f61366c84828501613128565b91505092915050565b5f5f6040838503121561368b5761368a612f1b565b5b5f6136988582860161304d565b92505060206136a985828601613128565b9150509250929050565b5f6060820190506136c65f8301866134f8565b6136d36020830185612fdf565b6136e06040830184612fae565b949350505050565b5f60c0820190506136fb5f8301896134f8565b6137086020830188612fdf565b6137156040830187612fdf565b6137226060830186612fdf565b818103608083015261373481856134c0565b905061374360a0830184612fdf565b979650505050505050565b7f4e487b71000000000000000000000000000000000000000000000000000000005f52603260045260245ffd5b7f4e487b71000000000000000000000000000000000000000000000000000000005f52601160045260245ffd5b5f6137b282612fd6565b91506137bd83612fd6565b92508282019050808211156137d5576137d461377b565b5b92915050565b7f496e76616c696420696e646578000000000000000000000000000000000000005f82015250565b5f61380f600d83613492565b915061381a826137db565b602082019050919050565b5f6020820190508181035f83015261383c81613803565b9050919050565b7f546f6f20686967680000000000000000000000000000000000000000000000005f82015250565b5f613877600883613492565b915061388282613843565b602082019050919050565b5f6020820190508181035f8301526138a48161386b565b9050919050565b7f4e6f7420616374697665000000000000000000000000000000000000000000005f82015250565b5f6138df600a83613492565b91506138ea826138ab565b602082019050919050565b5f6020820190508181035f83015261390c816138d3565b9050919050565b7f546f74616c203e203130302500000000000000000000000000000000000000005f82015250565b5f613947600c83613492565b915061395282613913565b602082019050919050565b5f6020820190508181035f8301526139748161393b565b9050919050565b5f61398582612fd6565b91507fffffffffffffffffffffffffffffffffffffffffffffffffffffffffffffffff82036139b7576139b661377b565b5b600182019050919050565b7f4e487b71000000000000000000000000000000000000000000000000000000005f52604160045260245ffd5b7f496e76616c6964207661756c74000000000000000000000000000000000000005f82015250565b5f613a23600d83613492565b9150613a2e826139ef565b602082019050919050565b5f6020820190508181035f830152613a5081613a17565b9050919050565b7f4e6f2070656e64696e67000000000000000000000000000000000000000000005f82015250565b5f613a8b600a83613492565b9150613a9682613a57565b602082019050919050565b5f6020820190508181035f830152613ab881613a7f565b9050919050565b7f436f6f6c646f776e0000000000000000000000000000000000000000000000005f82015250565b5f613af3600883613492565b9150613afe82613abf565b602082019050919050565b5f6020820190508181035f830152613b2081613ae7565b9050919050565b7f4e487b71000000000000000000000000000000000000000000000000000000005f52602260045260245ffd5b5f6002820490506001821680613b6b57607f821691505b602082108103613b7e57613b7d613b27565b5b50919050565b7f45787069726564000000000000000000000000000000000000000000000000005f82015250565b5f613bb8600783613492565b9150613bc382613b84565b602082019050919050565b5f6020820190508181035f830152613be581613bac565b9050919050565b7f57726f6e67206d616e61676572000000000000000000000000000000000000005f82015250565b5f613c20600d83613492565b9150613c2b82613bec565b602082019050919050565b5f6020820190508181035f830152613c4d81613c14565b9050919050565b5f5ffd5b5f5ffd5b5f5ffd5b5f5f83356001602003843603038112613c7c57613c7b613c54565b5b80840192508235915067ffffffffffffffff821115613c9e57613c9d613c58565b5b602083019250602082023603831315613cba57613cb9613c5c565b5b509250929050565b7f4c656e677468206d69736d6174636800000000000000000000000000000000005f82015250565b5f613cf6600f83613492565b9150613d0182613cc2565b602082019050919050565b5f6020820190508181035f830152613d2381613cea565b9050919050565b7f456d7074790000000000000000000000000000000000000000000000000000005f82015250565b5f613d5e600583613492565b9150613d6982613d2a565b602082019050919050565b5f6020820190508181035f830152613d8b81613d52565b9050919050565b5f81905092915050565b5f5ffd5b82818337505050565b5f613db48385613d92565b93507f07ffffffffffffffffffffffffffffffffffffffffffffffffffffffffffffff831115613de757613de6613d9c565b5b602083029250613df8838584613da0565b82840190509392505050565b5f613e10828486613da9565b91508190509392505050565b5f5f83356001602003843603038112613e3857613e37613c54565b5b80840192508235915067ffffffffffffffff821115613e5a57613e59613c58565b5b602083019250600182023603831315613e7657613e75613c5c565b5b509250929050565b5f81905092915050565b828183375f83830152505050565b5f613ea18385613e7e565b9350613eae838584613e88565b82840190509392505050565b5f613ec6828486613e96565b91508190509392505050565b5f61012082019050613ee65f83018c6130ea565b613ef3602083018b6134f8565b613f00604083018a612fdf565b613f0d6060830189612fdf565b613f1a60808301886130ea565b613f2760a08301876130ea565b613f3460c0830186612fdf565b613f4160e08301856130ea565b613f4f610100830184612fdf565b9a9950505050505050505050565b7f4e6f74206167656e7400000000000000000000000000000000000000000000005f82015250565b5f613f91600983613492565b9150613f9c82613f5d565b602082019050919050565b5f6020820190508181035f830152613fbe81613f85565b9050919050565b7f426164206e6f6e636500000000000000000000000000000000000000000000005f82015250565b5f613ff9600983613492565b915061400482613fc5565b602082019050919050565b5f6020820190508181035f83015261402681613fed565b9050919050565b7f4d7573742073756d20746f2031303030300000000000000000000000000000005f82015250565b5f614061601183613492565b915061406c8261402d565b602082019050919050565b5f6020820190508181035f83015261408e81614055565b9050919050565b5f61409f82612fd6565b91506140aa83612fd6565b92508282026140b881612fd6565b915082820484148315176140cf576140ce61377b565b5b5092915050565b7f4e487b71000000000000000000000000000000000000000000000000000000005f52601260045260245ffd5b5f61410d82612fd6565b915061411883612fd6565b925082614128576141276140d6565b5b828204905092915050565b7f4c6f7720636f6e666964656e63650000000000000000000000000000000000005f82015250565b5f614167600e83613492565b915061417282614133565b602082019050919050565b5f6020820190508181035f8301526141948161415b565b9050919050565b5f6141a582612fd6565b91506141b083612fd6565b92508282039050818111156141c8576141c761377b565b5b92915050565b7f536869667420746f6f206c6172676500000000000000000000000000000000005f82015250565b5f614202600f83613492565b915061420d826141ce565b602082019050919050565b5f6020820190508181035f83015261422f816141f6565b9050919050565b5f813561424281613037565b80915050919050565b5f815f1b9050919050565b5f73ffffffffffffffffffffffffffffffffffffffff6142758461424b565b9350801983169250808416831791505092915050565b5f819050919050565b5f6142ae6142a96142a484613007565b61428b565b613007565b9050919050565b5f6142bf82614294565b9050919050565b5f6142d0826142b5565b9050919050565b5f819050919050565b6142e9826142c6565b6142fc6142f5826142d7565b8354614256565b8255505050565b5f813561430f81613112565b80915050919050565b5f7fffffffffffffffffffffffffffffffffffffffffffffffffffffffffffffffff6143438461424b565b9350801983169250808416831791505092915050565b5f61437361436e61436984612fd6565b61428b565b612fd6565b9050919050565b5f819050919050565b61438c82614359565b61439f6143988261437a565b8354614318565b8255505050565b5f81549050919050565b5f8190506001806001038301049050919050565b5f819050815f5260205f209050919050565b5f82821b905092915050565b5f600883026144117fffffffffffffffffffffffffffffffffffffffffffffffffffffffffffffffff826143d6565b61441b86836143d6565b95508019841693508086168417925050509392505050565b61443c83614359565b6144506144488261437a565b8484546143e2565b825550505050565b5f5f905090565b614467614458565b614472818484614433565b505050565b5b818110156144955761448a5f8261445f565b600181019050614478565b5050565b5f82821c905092915050565b818310156144de576144b6826143b0565b6144bf846143b0565b6144c8836143c4565b8181018382016144d88183614477565b50505050505b505050565b680100000000000000008211156144fd576144fc6139c2565b5b614506816143a6565b8282556145148382846144a5565b505050565b5f82905092915050565b5f819050919050565b6145368383614519565b67ffffffffffffffff81111561454f5761454e6139c2565b5b61455981836144e3565b61456283614523565b61456b836143c4565b600183045f5b818110156145a8575f61458385614303565b61458c8161437a565b8092506020870196505050808285015550600181019050614571565b5050505050505050565b6145bd83838361452c565b505050565b5f82905092915050565b5f819050815f5260205f209050919050565b5f6020601f8301049050919050565b5b8181101561460b576146005f8261445f565b6001810190506145ee565b5050565b601f82111561465057614621816145cc565b61462a846145de565b81016020851015614639578190505b61464d614645856145de565b8301826145ed565b50505b505050565b5f6146645f1984600802614499565b1980831691505092915050565b5f61467c8383614655565b9150826002028217905092915050565b61469683836145c2565b67ffffffffffffffff8111156146af576146ae6139c2565b5b6146b98254613b54565b6146c482828561460f565b5f601f8311600181146146f1575f84156146df578287013590505b6146e98582614671565b865550614750565b601f1984166146ff866145cc565b5f5b8281101561472657848901358255600182019150602085019450602081019050614701565b86831015614743578489013561473f601f891682614655565b8355505b6001600288020188555050505b50505050505050565b61476483838361468c565b505050565b5f81015f83018061477981614236565b905061478581846142e0565b50505060018101602083018061479a81614303565b90506147a68184614383565b5050506002810160408301806147bb81614303565b90506147c78184614383565b50505060038101606083016147dc8185613c60565b6147e78183866145b2565b5050505060048101608083016147fd8185613c60565b6148088183866145b2565b505050506005810160a083018061481e81614303565b905061482a8184614383565b5050506006810160c0830161483f8185613e1c565b61484a818386614759565b505050506007810160e083018061486081614303565b905061486c8184614383565b5050505050565b61487d8282614769565b5050565b5f6040820190506148945f830185612fdf565b6148a16020830184612fdf565b9392505050565b7f496e76616c6964207374726174656779000000000000000000000000000000005f82015250565b5f6148dc601083613492565b91506148e7826148a8565b602082019050919050565b5f6020820190508181035f830152614909816148d0565b9050919050565b7f416c6c6f636174696f6e20746f6f2068696768000000000000000000000000005f82015250565b5f614944601383613492565b915061494f82614910565b602082019050919050565b5f6020820190508181035f83015261497181614938565b9050919050565b5f60408201905061498b5f8301856134f8565b61499860208301846130ea565b9392505050565b7f4e487b71000000000000000000000000000000000000000000000000000000005f52602160045260245ffd5b5f60a0820190506149df5f8301886130ea565b6149ec60208301876130ea565b6149f960408301866130ea565b614a066060830185612fdf565b614a1360808301846134f8565b9695505050505050565b5f60ff82169050919050565b614a3281614a1d565b82525050565b5f608082019050614a4b5f8301876130ea565b614a586020830186614a29565b614a6560408301856130ea565b614a7260608301846130ea565b9594505050505056fea2646970667358221220968ee7cb685a728f9f442e2e3ec3ad20d00695bcd757de2103ed93d27f36ee3564736f6c634300081e0033","linkReferences":{}},"methodIdentifiers":{"AI_AGENT()":"408432c5","DEFAULT_ADMIN_ROLE()":"a217fddf","KEEPER()":"862a179e","addAgent(address)":"84e79842","addKeeper(address)":"4032b72b","addStrategy(address,uint256)":"c9411e22","agentNonce(address)":"c439fb3d","cooldown()":"787a08a6","eip712Domain()":"84b0196e","executeAI()":"72db4e5b","getActiveStrategies()":"587436e4","getAgentNonce(address)":"223330d5","getDomainSeparator()":"ed24911d","getRoleAdmin(bytes32)":"248a9ca3","getStrategy(uint256)":"cfc0cc34","getStrategyCount()":"31e19cfa","getTotalAllocation()":"15d3b5d8","grantRole(bytes32,address)":"2f2ff15d","hasPending()":"5236434c","hasRole(bytes32,address)":"91d14854","lastAIRebalance()":"724ca26f","maxShift()":"a0448fc5","maxSingle()":"75d0fd68","minConfidence()":"d52b7a14","owner()":"8da5cb5b","pending()":"e20ccec3","removeStrategy(uint256)":"c0cbbca6","renounceOwnership()":"715018a6","renounceRole(bytes32,address)":"36568abe","revokeRole(bytes32,address)":"d547741f","setSafety(uint256,uint256,uint256,uint256)":"4b2926f9","setVault(address)":"6817031b","strategies(uint256)":"d574ea3d","submitAI((address,uint256,uint256,uint256[],uint256[],uint256,string,uint256),bytes)":"799cfed5","supportsInterface(bytes4)":"01ffc9a7","transferOwnership(address)":"f2fde38b","updateAllocation(uint256,uint256)":"24fb413c","vault()":"fbfa77cf"},"id":45}