{
	"data": {
		"bytecode": {
			"linkReferences": {},
			"object": "60c060405234801561000f575f5ffd5b5060405161382c38038061382c83398181016040528101906100319190610458565b806040518060400160405280601681526020017f4c656e64696e67205374726174656779205661756c74000000000000000000008152506040518060400160405280600781526020017f6c735661756c74000000000000000000000000000000000000000000000000008152506101903384848481600390816100b491906106c0565b5080600490816100c491906106c0565b5050505f5f6100d88361021d60201b60201c565b91509150816100e85760126100ea565b805b60ff1660a08160ff16815250508273ffffffffffffffffffffffffffffffffffffffff1660808173ffffffffffffffffffffffffffffffffffffffff16815250505050505f73ffffffffffffffffffffffffffffffffffffffff168173ffffffffffffffffffffffffffffffffffffffff160361019e575f6040517f1e4fbdf7000000000000000000000000000000000000000000000000000000008152600401610195919061079e565b60405180910390fd5b6101ad8161032660201b60201c565b5060016006819055505f811180156101c6575061c35081105b610205576040517f08c379a00000000000000000000000000000000000000000000000000000000081526004016101fc90610811565b60405180910390fd5b80600a8190555042600b8190555050505050506108ec565b5f5f5f5f8473ffffffffffffffffffffffffffffffffffffffff1660405160240160405160208183030381529060405263313ce56760e01b6020820180517bffffffffffffffffffffffffffffffffffffffffffffffffffffffff83818316178352505050506040516102909190610881565b5f60405180830381855afa9150503d805f81146102c8576040519150601f19603f3d011682016040523d82523d5f602084013e6102cd565b606091505b50915091508180156102e157506020815110155b15610318575f818060200190518101906102fb91906108c1565b905060ff801681116103165760018194509450505050610321565b505b5f5f9350935050505b915091565b5f60055f9054906101000a900473ffffffffffffffffffffffffffffffffffffffff1690508160055f6101000a81548173ffffffffffffffffffffffffffffffffffffffff021916908373ffffffffffffffffffffffffffffffffffffffff1602179055508173ffffffffffffffffffffffffffffffffffffffff168173ffffffffffffffffffffffffffffffffffffffff167f8be0079c531659141344cd1fd0a4f28419497f9722a3daafe3b4186f6b6457e060405160405180910390a35050565b5f5ffd5b5f73ffffffffffffffffffffffffffffffffffffffff82169050919050565b5f610416826103ed565b9050919050565b5f6104278261040c565b9050919050565b6104378161041d565b8114610441575f5ffd5b50565b5f815190506104528161042e565b92915050565b5f6020828403121561046d5761046c6103e9565b5b5f61047a84828501610444565b91505092915050565b5f81519050919050565b7f4e487b71000000000000000000000000000000000000000000000000000000005f52604160045260245ffd5b7f4e487b71000000000000000000000000000000000000000000000000000000005f52602260045260245ffd5b5f60028204905060018216806104fe57607f821691505b602082108103610511576105106104ba565b5b50919050565b5f819050815f5260205f209050919050565b5f6020601f8301049050919050565b5f82821b905092915050565b5f600883026105737fffffffffffffffffffffffffffffffffffffffffffffffffffffffffffffffff82610538565b61057d8683610538565b95508019841693508086168417925050509392505050565b5f819050919050565b5f819050919050565b5f6105c16105bc6105b784610595565b61059e565b610595565b9050919050565b5f819050919050565b6105da836105a7565b6105ee6105e6826105c8565b848454610544565b825550505050565b5f5f905090565b6106056105f6565b6106108184846105d1565b505050565b5b81811015610633576106285f826105fd565b600181019050610616565b5050565b601f8211156106785761064981610517565b61065284610529565b81016020851015610661578190505b61067561066d85610529565b830182610615565b50505b505050565b5f82821c905092915050565b5f6106985f198460080261067d565b1980831691505092915050565b5f6106b08383610689565b9150826002028217905092915050565b6106c982610483565b67ffffffffffffffff8111156106e2576106e161048d565b5b6106ec82546104e7565b6106f7828285610637565b5f60209050601f831160018114610728575f8415610716578287015190505b61072085826106a5565b865550610787565b601f19841661073686610517565b5f5b8281101561075d57848901518255600182019150602085019450602081019050610738565b8683101561077a5784890151610776601f891682610689565b8355505b6001600288020188555050505b505050505050565b6107988161040c565b82525050565b5f6020820190506107b15f83018461078f565b92915050565b5f82825260208201905092915050565b7f4261736553747261746567793a20496e76616c696420415059000000000000005f82015250565b5f6107fb6019836107b7565b9150610806826107c7565b602082019050919050565b5f6020820190508181035f830152610828816107ef565b9050919050565b5f81519050919050565b5f81905092915050565b8281835e5f83830152505050565b5f61085b8261082f565b6108658185610839565b9350610875818560208601610843565b80840191505092915050565b5f61088c8284610851565b915081905092915050565b6108a081610595565b81146108aa575f5ffd5b50565b5f815190506108bb81610897565b92915050565b5f602082840312156108d6576108d56103e9565b5b5f6108e3848285016108ad565b91505092915050565b60805160a051612f1f61090d5f395f610a9601525f610ac70152612f1f5ff3fe608060405234801561000f575f5ffd5b506004361061023b575f3560e01c8063853828b611610139578063c6e6f592116100b6578063f19993d71161007a578063f19993d71461077b578063f1a392da14610799578063f2fde38b146107b7578063fbfa77cf146107d3578063fcdfd5c5146107f15761023b565b8063c6e6f5921461068b578063ce96cb77146106bb578063d905777e146106eb578063dd62ed3e1461071b578063ef8b30f71461074b5761023b565b8063a9059cbb116100fd578063a9059cbb1461059b578063b3d7f6b9146105cb578063b460af94146105fb578063ba0876521461062b578063c63d75b61461065b5761023b565b8063853828b6146104f35780638da5cb5b146105115780638f8c8aee1461052f57806394bf804d1461054d57806395d89b411461057d5761023b565b8063313ce567116101c75780636817031b1161018b5780636817031b1461044f5780636e553f651461046b57806370a082311461049b578063715018a6146104cb578063722713f7146104d55761023b565b8063313ce5671461039557806338d52e0f146103b3578063402d267d146103d15780634641257d146104015780634cdad5061461041f5761023b565b80630a28a4771161020e5780630a28a477146102db57806318160ddd1461030b578063214405a91461032957806323b872dd1461034757806323dc1142146103775761023b565b806301e1d1141461023f57806306fdde031461025d57806307a2d13a1461027b578063095ea7b3146102ab575b5f5ffd5b61024761080f565b60405161025491906124fd565b60405180910390f35b610265610971565b6040516102729190612586565b60405180910390f35b610295600480360381019061029091906125d4565b610a01565b6040516102a291906124fd565b60405180910390f35b6102c560048036038101906102c09190612659565b610a13565b6040516102d291906126b1565b60405180910390f35b6102f560048036038101906102f091906125d4565b610a35565b60405161030291906124fd565b60405180910390f35b610313610a48565b60405161032091906124fd565b60405180910390f35b610331610a51565b60405161033e91906124fd565b60405180910390f35b610361600480360381019061035c91906126ca565b610a57565b60405161036e91906126b1565b60405180910390f35b61037f610a85565b60405161038c91906124fd565b60405180910390f35b61039d610a8b565b6040516103aa9190612735565b60405180910390f35b6103bb610ac4565b6040516103c8919061275d565b60405180910390f35b6103eb60048036038101906103e69190612776565b610aeb565b6040516103f891906124fd565b60405180910390f35b610409610b14565b60405161041691906124fd565b60405180910390f35b610439600480360381019061043491906125d4565b610c31565b60405161044691906124fd565b60405180910390f35b61046960048036038101906104649190612776565b610c43565b005b610485600480360381019061048091906127a1565b610d7c565b60405161049291906124fd565b60405180910390f35b6104b560048036038101906104b09190612776565b610e36565b6040516104c291906124fd565b60405180910390f35b6104d3610e7b565b005b6104dd610e8e565b6040516104ea91906124fd565b60405180910390f35b6104fb610e9c565b60405161050891906124fd565b60405180910390f35b610519611029565b604051610526919061275d565b60405180910390f35b610537611051565b60405161054491906124fd565b60405180910390f35b610567600480360381019061056291906127a1565b611057565b60405161057491906124fd565b60405180910390f35b6105856110d7565b6040516105929190612586565b60405180910390f35b6105b560048036038101906105b09190612659565b611167565b6040516105c291906126b1565b60405180910390f35b6105e560048036038101906105e091906125d4565b611189565b6040516105f291906124fd565b60405180910390f35b610615600480360381019061061091906127df565b61119c565b60405161062291906124fd565b60405180910390f35b610645600480360381019061064091906127df565b61131f565b60405161065291906124fd565b60405180910390f35b61067560048036038101906106709190612776565b6113a1565b60405161068291906124fd565b60405180910390f35b6106a560048036038101906106a091906125d4565b6113ca565b6040516106b291906124fd565b60405180910390f35b6106d560048036038101906106d09190612776565b6113dc565b6040516106e291906124fd565b60405180910390f35b61070560048036038101906107009190612776565b6113f6565b60405161071291906124fd565b60405180910390f35b6107356004803603810190610730919061282f565b611407565b60405161074291906124fd565b60405180910390f35b610765600480360381019061076091906125d4565b611489565b60405161077291906124fd565b60405180910390f35b61078361149b565b60405161079091906124fd565b60405180910390f35b6107a1611509565b6040516107ae91906124fd565b60405180910390f35b6107d160048036038101906107cc9190612776565b61150f565b005b6107db611593565b6040516107e8919061275d565b60405180910390f35b6107f96115b8565b60405161080691906124fd565b60405180910390f35b5f5f610819610ac4565b73ffffffffffffffffffffffffffffffffffffffff166370a08231306040518263ffffffff1660e01b8152600401610851919061275d565b602060405180830381865afa15801561086c573d5f5f3e3d5ffd5b505050506040513d601f19601f820116820180604052508101906108909190612881565b90505f600b54426108a191906128d9565b90505f5f90505f821180156108b557505f83115b15610950575f64496cebb80083600a54866108d0919061290c565b6108da919061290c565b6108e4919061297a565b90505f4244306040516020016108fc93929190612a0f565b604051602081830303815290604052805190602001205f1c90505f605a6028836109269190612a4b565b6109309190612a7b565b905060648184610940919061290c565b61094a919061297a565b93505050505b80600c548461095f9190612a7b565b6109699190612a7b565b935050505090565b60606003805461098090612adb565b80601f01602080910402602001604051908101604052809291908181526020018280546109ac90612adb565b80156109f75780601f106109ce576101008083540402835291602001916109f7565b820191905f5260205f20905b8154815290600101906020018083116109da57829003601f168201915b5050505050905090565b5f610a0c825f6115be565b9050919050565b5f5f610a1d611616565b9050610a2a81858561161d565b600191505092915050565b5f610a4182600161162f565b9050919050565b5f600254905090565b600a5481565b5f5f610a61611616565b9050610a6e858285611687565b610a7985858561171a565b60019150509392505050565b60095481565b5f610a9461180a565b7f0000000000000000000000000000000000000000000000000000000000000000610abf9190612b0b565b905090565b5f7f0000000000000000000000000000000000000000000000000000000000000000905090565b5f7fffffffffffffffffffffffffffffffffffffffffffffffffffffffffffffffff9050919050565b5f60075f9054906101000a900473ffffffffffffffffffffffffffffffffffffffff1673ffffffffffffffffffffffffffffffffffffffff163373ffffffffffffffffffffffffffffffffffffffff1614610ba4576040517f08c379a0000000000000000000000000000000000000000000000000000000008152600401610b9b90612baf565b60405180910390fd5b610bac611811565b610bb4611857565b5f600c5490505f811115610c22578060095f828254610bd39190612a7b565b925050819055505f600c81905550426008819055507ffa07446fad45314351eb89109a154880278451332bb87f1824d435fe58da59398142604051610c19929190612bcd565b60405180910390a15b80915050610c2e61197a565b90565b5f610c3c825f6115be565b9050919050565b610c4b611984565b5f73ffffffffffffffffffffffffffffffffffffffff168173ffffffffffffffffffffffffffffffffffffffff1603610cb9576040517f08c379a0000000000000000000000000000000000000000000000000000000008152600401610cb090612c64565b60405180910390fd5b5f60075f9054906101000a900473ffffffffffffffffffffffffffffffffffffffff1690508160075f6101000a81548173ffffffffffffffffffffffffffffffffffffffff021916908373ffffffffffffffffffffffffffffffffffffffff1602179055508173ffffffffffffffffffffffffffffffffffffffff168173ffffffffffffffffffffffffffffffffffffffff167f483bdedaaf23706a9800ac1af0d852b34927780d79f9d6ba60a80c7cad75ea3960405160405180910390a35050565b5f60075f9054906101000a900473ffffffffffffffffffffffffffffffffffffffff1673ffffffffffffffffffffffffffffffffffffffff163373ffffffffffffffffffffffffffffffffffffffff1614610e0c576040517f08c379a0000000000000000000000000000000000000000000000000000000008152600401610e0390612baf565b60405180910390fd5b610e14611811565b610e1c611857565b610e268383611a0b565b9050610e3061197a565b92915050565b5f5f5f8373ffffffffffffffffffffffffffffffffffffffff1673ffffffffffffffffffffffffffffffffffffffff1681526020019081526020015f20549050919050565b610e83611984565b610e8c5f611a8b565b565b5f610e9761080f565b905090565b5f60075f9054906101000a900473ffffffffffffffffffffffffffffffffffffffff1673ffffffffffffffffffffffffffffffffffffffff163373ffffffffffffffffffffffffffffffffffffffff1614610f2c576040517f08c379a0000000000000000000000000000000000000000000000000000000008152600401610f2390612baf565b60405180910390fd5b610f34611811565b610f3c611857565b5f610f45610ac4565b73ffffffffffffffffffffffffffffffffffffffff166370a08231306040518263ffffffff1660e01b8152600401610f7d919061275d565b602060405180830381865afa158015610f98573d5f5f3e3d5ffd5b505050506040513d601f19601f82011682018060405250810190610fbc9190612881565b90505f81111561101a5761101960075f9054906101000a900473ffffffffffffffffffffffffffffffffffffffff1682610ff4610ac4565b73ffffffffffffffffffffffffffffffffffffffff16611b4e9092919063ffffffff16565b5b8091505061102661197a565b90565b5f60055f9054906101000a900473ffffffffffffffffffffffffffffffffffffffff16905090565b600b5481565b5f5f611062836113a1565b9050808411156110ad578284826040517f284ff6670000000000000000000000000000000000000000000000000000000081526004016110a493929190612c82565b60405180910390fd5b5f6110b785611189565b90506110cc6110c4611616565b858388611bcd565b809250505092915050565b6060600480546110e690612adb565b80601f016020809104026020016040519081016040528092919081815260200182805461111290612adb565b801561115d5780601f106111345761010080835404028352916020019161115d565b820191905f5260205f20905b81548152906001019060200180831161114057829003601f168201915b5050505050905090565b5f5f611171611616565b905061117e81858561171a565b600191505092915050565b5f6111958260016115be565b9050919050565b5f60075f9054906101000a900473ffffffffffffffffffffffffffffffffffffffff1673ffffffffffffffffffffffffffffffffffffffff163373ffffffffffffffffffffffffffffffffffffffff161461122c576040517f08c379a000000000000000000000000000000000000000000000000000000000815260040161122390612baf565b60405180910390fd5b611234611811565b61123c611857565b5f611245610ac4565b73ffffffffffffffffffffffffffffffffffffffff166370a08231306040518263ffffffff1660e01b815260040161127d919061275d565b602060405180830381865afa158015611298573d5f5f3e3d5ffd5b505050506040513d601f19601f820116820180604052508101906112bc9190612881565b90505f8186116112cc57856112ce565b815b90505f81111561130b5761130a85826112e5610ac4565b73ffffffffffffffffffffffffffffffffffffffff16611b4e9092919063ffffffff16565b5b809250505061131861197a565b9392505050565b5f5f61132a836113f6565b905080851115611375578285826040517fb94abeec00000000000000000000000000000000000000000000000000000000815260040161136c93929190612c82565b60405180910390fd5b5f61137f86610c31565b905061139561138c611616565b8686848a611c57565b80925050509392505050565b5f7fffffffffffffffffffffffffffffffffffffffffffffffffffffffffffffffff9050919050565b5f6113d5825f61162f565b9050919050565b5f6113ef6113e983610e36565b5f6115be565b9050919050565b5f61140082610e36565b9050919050565b5f60015f8473ffffffffffffffffffffffffffffffffffffffff1673ffffffffffffffffffffffffffffffffffffffff1681526020019081526020015f205f8373ffffffffffffffffffffffffffffffffffffffff1673ffffffffffffffffffffffffffffffffffffffff1681526020019081526020015f2054905092915050565b5f611494825f61162f565b9050919050565b5f5f4244306040516020016114b293929190612a0f565b604051602081830303815290604052805190602001205f1c90505f605a6014836114dc9190612a4b565b6114e69190612a7b565b9050606481600a546114f8919061290c565b611502919061297a565b9250505090565b60085481565b611517611984565b5f73ffffffffffffffffffffffffffffffffffffffff168173ffffffffffffffffffffffffffffffffffffffff1603611587575f6040517f1e4fbdf700000000000000000000000000000000000000000000000000000000815260040161157e919061275d565b60405180910390fd5b61159081611a8b565b50565b60075f9054906101000a900473ffffffffffffffffffffffffffffffffffffffff1681565b600c5481565b5f61160e60016115cc61080f565b6115d69190612a7b565b6115de61180a565b600a6115ea9190612de6565b6115f2610a48565b6115fc9190612a7b565b8486611d37909392919063ffffffff16565b905092915050565b5f33905090565b61162a8383836001611d84565b505050565b5f61167f61163b61180a565b600a6116479190612de6565b61164f610a48565b6116599190612a7b565b600161166361080f565b61166d9190612a7b565b8486611d37909392919063ffffffff16565b905092915050565b5f6116928484611407565b90507fffffffffffffffffffffffffffffffffffffffffffffffffffffffffffffffff8110156117145781811015611705578281836040517ffb8f41b20000000000000000000000000000000000000000000000000000000081526004016116fc93929190612c82565b60405180910390fd5b61171384848484035f611d84565b5b50505050565b5f73ffffffffffffffffffffffffffffffffffffffff168373ffffffffffffffffffffffffffffffffffffffff160361178a575f6040517f96c6fd1e000000000000000000000000000000000000000000000000000000008152600401611781919061275d565b60405180910390fd5b5f73ffffffffffffffffffffffffffffffffffffffff168273ffffffffffffffffffffffffffffffffffffffff16036117fa575f6040517fec442f050000000000000000000000000000000000000000000000000000000081526004016117f1919061275d565b60405180910390fd5b611805838383611f53565b505050565b5f5f905090565b60026006540361184d576040517f3ee5aeb500000000000000000000000000000000000000000000000000000000815260040160405180910390fd5b6002600681905550565b5f600b544261186691906128d9565b90505f8111801561187d57505f61187b61080f565b115b15611977575f64496cebb80082600a5461189561080f565b61189f919061290c565b6118a9919061290c565b6118b3919061297a565b90505f4244306040516020016118cb93929190612a0f565b604051602081830303815290604052805190602001205f1c90505f605a6028836118f59190612a4b565b6118ff9190612a7b565b90505f60648285611910919061290c565b61191a919061297a565b905080600c5f82825461192d9190612a7b565b9250508190555042600b819055507fba940f7e525c0c7e2b83c7fbf8f07b95c7da51604106be88403040d914a6979b8160405161196a91906124fd565b60405180910390a1505050505b50565b6001600681905550565b61198c611616565b73ffffffffffffffffffffffffffffffffffffffff166119aa611029565b73ffffffffffffffffffffffffffffffffffffffff1614611a09576119cd611616565b6040517f118cdaa7000000000000000000000000000000000000000000000000000000008152600401611a00919061275d565b60405180910390fd5b565b5f5f611a1683610aeb565b905080841115611a61578284826040517f79012fb2000000000000000000000000000000000000000000000000000000008152600401611a5893929190612c82565b60405180910390fd5b5f611a6b85611489565b9050611a80611a78611616565b858784611bcd565b809250505092915050565b5f60055f9054906101000a900473ffffffffffffffffffffffffffffffffffffffff1690508160055f6101000a81548173ffffffffffffffffffffffffffffffffffffffff021916908373ffffffffffffffffffffffffffffffffffffffff1602179055508173ffffffffffffffffffffffffffffffffffffffff168173ffffffffffffffffffffffffffffffffffffffff167f8be0079c531659141344cd1fd0a4f28419497f9722a3daafe3b4186f6b6457e060405160405180910390a35050565b611bc8838473ffffffffffffffffffffffffffffffffffffffff1663a9059cbb8585604051602401611b81929190612e30565b604051602081830303815290604052915060e01b6020820180517bffffffffffffffffffffffffffffffffffffffffffffffffffffffff838183161783525050505061216c565b505050565b611be0611bd8610ac4565b853085612207565b611bea8382612289565b8273ffffffffffffffffffffffffffffffffffffffff168473ffffffffffffffffffffffffffffffffffffffff167fdcbc1c05240f31ff3ad067ef1ee35ce4997762752e3a095284754544f4c709d78484604051611c49929190612bcd565b60405180910390a350505050565b8273ffffffffffffffffffffffffffffffffffffffff168573ffffffffffffffffffffffffffffffffffffffff1614611c9657611c95838683611687565b5b611ca08382612308565b611cb2611cab610ac4565b8584611b4e565b8273ffffffffffffffffffffffffffffffffffffffff168473ffffffffffffffffffffffffffffffffffffffff168673ffffffffffffffffffffffffffffffffffffffff167ffbde797d201c681b91056529119e0b02407c7bb96a4a2c75c01fc9667232c8db8585604051611d28929190612bcd565b60405180910390a45050505050565b5f611d65611d4483612387565b8015611d6057505f8480611d5b57611d5a61294d565b5b868809115b6123b4565b611d708686866123bf565b611d7a9190612a7b565b9050949350505050565b5f73ffffffffffffffffffffffffffffffffffffffff168473ffffffffffffffffffffffffffffffffffffffff1603611df4575f6040517fe602df05000000000000000000000000000000000000000000000000000000008152600401611deb919061275d565b60405180910390fd5b5f73ffffffffffffffffffffffffffffffffffffffff168373ffffffffffffffffffffffffffffffffffffffff1603611e64575f6040517f94280d62000000000000000000000000000000000000000000000000000000008152600401611e5b919061275d565b60405180910390fd5b8160015f8673ffffffffffffffffffffffffffffffffffffffff1673ffffffffffffffffffffffffffffffffffffffff1681526020019081526020015f205f8573ffffffffffffffffffffffffffffffffffffffff1673ffffffffffffffffffffffffffffffffffffffff1681526020019081526020015f20819055508015611f4d578273ffffffffffffffffffffffffffffffffffffffff168473ffffffffffffffffffffffffffffffffffffffff167f8c5be1e5ebec7d5bd14f71427d1e84f3dd0314c0f7b2291e5b200ac8c7c3b92584604051611f4491906124fd565b60405180910390a35b50505050565b5f73ffffffffffffffffffffffffffffffffffffffff168373ffffffffffffffffffffffffffffffffffffffff1603611fa3578060025f828254611f979190612a7b565b92505081905550612071565b5f5f5f8573ffffffffffffffffffffffffffffffffffffffff1673ffffffffffffffffffffffffffffffffffffffff1681526020019081526020015f205490508181101561202c578381836040517fe450d38c00000000000000000000000000000000000000000000000000000000815260040161202393929190612c82565b60405180910390fd5b8181035f5f8673ffffffffffffffffffffffffffffffffffffffff1673ffffffffffffffffffffffffffffffffffffffff1681526020019081526020015f2081905550505b5f73ffffffffffffffffffffffffffffffffffffffff168273ffffffffffffffffffffffffffffffffffffffff16036120b8578060025f8282540392505081905550612102565b805f5f8473ffffffffffffffffffffffffffffffffffffffff1673ffffffffffffffffffffffffffffffffffffffff1681526020019081526020015f205f82825401925050819055505b8173ffffffffffffffffffffffffffffffffffffffff168373ffffffffffffffffffffffffffffffffffffffff167fddf252ad1be2c89b69c2b068fc378daa952ba7f163c4a11628f55a4df523b3ef8360405161215f91906124fd565b60405180910390a3505050565b5f5f60205f8451602086015f885af18061218b576040513d5f823e3d81fd5b3d92505f519150505f82146121a45760018114156121bf565b5f8473ffffffffffffffffffffffffffffffffffffffff163b145b1561220157836040517f5274afe70000000000000000000000000000000000000000000000000000000081526004016121f8919061275d565b60405180910390fd5b50505050565b612283848573ffffffffffffffffffffffffffffffffffffffff166323b872dd86868660405160240161223c93929190612e57565b604051602081830303815290604052915060e01b6020820180517bffffffffffffffffffffffffffffffffffffffffffffffffffffffff838183161783525050505061216c565b50505050565b5f73ffffffffffffffffffffffffffffffffffffffff168273ffffffffffffffffffffffffffffffffffffffff16036122f9575f6040517fec442f050000000000000000000000000000000000000000000000000000000081526004016122f0919061275d565b60405180910390fd5b6123045f8383611f53565b5050565b5f73ffffffffffffffffffffffffffffffffffffffff168273ffffffffffffffffffffffffffffffffffffffff1603612378575f6040517f96c6fd1e00000000000000000000000000000000000000000000000000000000815260040161236f919061275d565b60405180910390fd5b612383825f83611f53565b5050565b5f6001600283600381111561239f5761239e612e8c565b5b6123a99190612eb9565b60ff16149050919050565b5f8115159050919050565b5f5f5f6123cc868661249e565b915091505f82036123f1578381816123e7576123e661294d565b5b0492505050612497565b8184116124105761240f61240a5f8614601260116124bb565b6124d4565b5b5f8486880990508181118303925080820391505f855f038616905080860495508083049250600181825f0304019050808402831792505f600287600302189050808702600203810290508087026002038102905080870260020381029050808702600203810290508087026002038102905080870260020381029050808402955050505050505b9392505050565b5f5f5f198385098385029150818110828203039250509250929050565b5f6124c5846123b4565b82841802821890509392505050565b634e487b715f52806020526024601cfd5b5f819050919050565b6124f7816124e5565b82525050565b5f6020820190506125105f8301846124ee565b92915050565b5f81519050919050565b5f82825260208201905092915050565b8281835e5f83830152505050565b5f601f19601f8301169050919050565b5f61255882612516565b6125628185612520565b9350612572818560208601612530565b61257b8161253e565b840191505092915050565b5f6020820190508181035f83015261259e818461254e565b905092915050565b5f5ffd5b6125b3816124e5565b81146125bd575f5ffd5b50565b5f813590506125ce816125aa565b92915050565b5f602082840312156125e9576125e86125a6565b5b5f6125f6848285016125c0565b91505092915050565b5f73ffffffffffffffffffffffffffffffffffffffff82169050919050565b5f612628826125ff565b9050919050565b6126388161261e565b8114612642575f5ffd5b50565b5f813590506126538161262f565b92915050565b5f5f6040838503121561266f5761266e6125a6565b5b5f61267c85828601612645565b925050602061268d858286016125c0565b9150509250929050565b5f8115159050919050565b6126ab81612697565b82525050565b5f6020820190506126c45f8301846126a2565b92915050565b5f5f5f606084860312156126e1576126e06125a6565b5b5f6126ee86828701612645565b93505060206126ff86828701612645565b9250506040612710868287016125c0565b9150509250925092565b5f60ff82169050919050565b61272f8161271a565b82525050565b5f6020820190506127485f830184612726565b92915050565b6127578161261e565b82525050565b5f6020820190506127705f83018461274e565b92915050565b5f6020828403121561278b5761278a6125a6565b5b5f61279884828501612645565b91505092915050565b5f5f604083850312156127b7576127b66125a6565b5b5f6127c4858286016125c0565b92505060206127d585828601612645565b9150509250929050565b5f5f5f606084860312156127f6576127f56125a6565b5b5f612803868287016125c0565b935050602061281486828701612645565b925050604061282586828701612645565b9150509250925092565b5f5f60408385031215612845576128446125a6565b5b5f61285285828601612645565b925050602061286385828601612645565b9150509250929050565b5f8151905061287b816125aa565b92915050565b5f60208284031215612896576128956125a6565b5b5f6128a38482850161286d565b91505092915050565b7f4e487b71000000000000000000000000000000000000000000000000000000005f52601160045260245ffd5b5f6128e3826124e5565b91506128ee836124e5565b9250828203905081811115612906576129056128ac565b5b92915050565b5f612916826124e5565b9150612921836124e5565b925082820261292f816124e5565b91508282048414831517612946576129456128ac565b5b5092915050565b7f4e487b71000000000000000000000000000000000000000000000000000000005f52601260045260245ffd5b5f612984826124e5565b915061298f836124e5565b92508261299f5761299e61294d565b5b828204905092915050565b5f819050919050565b6129c46129bf826124e5565b6129aa565b82525050565b5f8160601b9050919050565b5f6129e0826129ca565b9050919050565b5f6129f1826129d6565b9050919050565b612a09612a048261261e565b6129e7565b82525050565b5f612a1a82866129b3565b602082019150612a2a82856129b3565b602082019150612a3a82846129f8565b601482019150819050949350505050565b5f612a55826124e5565b9150612a60836124e5565b925082612a7057612a6f61294d565b5b828206905092915050565b5f612a85826124e5565b9150612a90836124e5565b9250828201905080821115612aa857612aa76128ac565b5b92915050565b7f4e487b71000000000000000000000000000000000000000000000000000000005f52602260045260245ffd5b5f6002820490506001821680612af257607f821691505b602082108103612b0557612b04612aae565b5b50919050565b5f612b158261271a565b9150612b208361271a565b9250828201905060ff811115612b3957612b386128ac565b5b92915050565b7f4261736553747261746567793a204f6e6c79207661756c742063616e2063616c5f8201527f6c00000000000000000000000000000000000000000000000000000000000000602082015250565b5f612b99602183612520565b9150612ba482612b3f565b604082019050919050565b5f6020820190508181035f830152612bc681612b8d565b9050919050565b5f604082019050612be05f8301856124ee565b612bed60208301846124ee565b9392505050565b7f4261736553747261746567793a20496e76616c6964207661756c7420616464725f8201527f6573730000000000000000000000000000000000000000000000000000000000602082015250565b5f612c4e602383612520565b9150612c5982612bf4565b604082019050919050565b5f6020820190508181035f830152612c7b81612c42565b9050919050565b5f606082019050612c955f83018661274e565b612ca260208301856124ee565b612caf60408301846124ee565b949350505050565b5f8160011c9050919050565b5f5f8291508390505b6001851115612d0c57808604811115612ce857612ce76128ac565b5b6001851615612cf75780820291505b8081029050612d0585612cb7565b9450612ccc565b94509492505050565b5f82612d245760019050612ddf565b81612d31575f9050612ddf565b8160018114612d475760028114612d5157612d80565b6001915050612ddf565b60ff841115612d6357612d626128ac565b5b8360020a915084821115612d7a57612d796128ac565b5b50612ddf565b5060208310610133831016604e8410600b8410161715612db55782820a905083811115612db057612daf6128ac565b5b612ddf565b612dc28484846001612cc3565b92509050818404811115612dd957612dd86128ac565b5b81810290505b9392505050565b5f612df0826124e5565b9150612dfb8361271a565b9250612e287fffffffffffffffffffffffffffffffffffffffffffffffffffffffffffffffff8484612d15565b905092915050565b5f604082019050612e435f83018561274e565b612e5060208301846124ee565b9392505050565b5f606082019050612e6a5f83018661274e565b612e77602083018561274e565b612e8460408301846124ee565b949350505050565b7f4e487b71000000000000000000000000000000000000000000000000000000005f52602160045260245ffd5b5f612ec38261271a565b9150612ece8361271a565b925082612ede57612edd61294d565b5b82820690509291505056fea2646970667358221220aeba233821fba82c45f28581d00976a9e1ca69159313f8df510fc9429311e37864736f6c634300081e0033",
			"opcodes": "PUSH1 0xC0 PUSH1 0x40 MSTORE CALLVALUE DUP1 ISZERO PUSH2 0xF JUMPI PUSH0 PUSH0 REVERT JUMPDEST POP PUSH1 0x40 MLOAD PUSH2 0x382C CODESIZE SUB DUP1 PUSH2 0x382C DUP4 CODECOPY DUP2 DUP2 ADD PUSH1 0x40 MSTORE DUP2 ADD SWAP1 PUSH2 0x31 SWAP2 SWAP1 PUSH2 0x458 JUMP JUMPDEST DUP1 PUSH1 0x40 MLOAD DUP1 PUSH1 0x40 ADD PUSH1 0x40 MSTORE DUP1 PUSH1 0x16 DUP2 MSTORE PUSH1 0x20 ADD PUSH32 0x4C656E64696E67205374726174656779205661756C7400000000000000000000 DUP2 MSTORE POP PUSH1 0x40 MLOAD DUP1 PUSH1 0x40 ADD PUSH1 0x40 MSTORE DUP1 PUSH1 0x7 DUP2 MSTORE PUSH1 0x20 ADD PUSH32 0x6C735661756C7400000000000000000000000000000000000000000000000000 DUP2 MSTORE POP PUSH2 0x190 CALLER DUP5 DUP5 DUP5 DUP2 PUSH1 0x3 SWAP1 DUP2 PUSH2 0xB4 SWAP2 SWAP1 PUSH2 0x6C0 JUMP JUMPDEST POP DUP1 PUSH1 0x4 SWAP1 DUP2 PUSH2 0xC4 SWAP2 SWAP1 PUSH2 0x6C0 JUMP JUMPDEST POP POP POP PUSH0 PUSH0 PUSH2 0xD8 DUP4 PUSH2 0x21D PUSH1 0x20 SHL PUSH1 0x20 SHR JUMP JUMPDEST SWAP2 POP SWAP2 POP DUP2 PUSH2 0xE8 JUMPI PUSH1 0x12 PUSH2 0xEA JUMP JUMPDEST DUP1 JUMPDEST PUSH1 0xFF AND PUSH1 0xA0 DUP2 PUSH1 0xFF AND DUP2 MSTORE POP POP DUP3 PUSH20 0xFFFFFFFFFFFFFFFFFFFFFFFFFFFFFFFFFFFFFFFF AND PUSH1 0x80 DUP2 PUSH20 0xFFFFFFFFFFFFFFFFFFFFFFFFFFFFFFFFFFFFFFFF AND DUP2 MSTORE POP POP POP POP POP PUSH0 PUSH20 0xFFFFFFFFFFFFFFFFFFFFFFFFFFFFFFFFFFFFFFFF AND DUP2 PUSH20 0xFFFFFFFFFFFFFFFFFFFFFFFFFFFFFFFFFFFFFFFF AND SUB PUSH2 0x19E JUMPI PUSH0 PUSH1 0x40 MLOAD PUSH32 0x1E4FBDF700000000000000000000000000000000000000000000000000000000 DUP2 MSTORE PUSH1 0x4 ADD PUSH2 0x195 SWAP2 SWAP1 PUSH2 0x79E JUMP JUMPDEST PUSH1 0x40 MLOAD DUP1 SWAP2 SUB SWAP1 REVERT JUMPDEST PUSH2 0x1AD DUP2 PUSH2 0x326 PUSH1 0x20 SHL PUSH1 0x20 SHR JUMP JUMPDEST POP PUSH1 0x1 PUSH1 0x6 DUP2 SWAP1 SSTORE POP PUSH0 DUP2 GT DUP1 ISZERO PUSH2 0x1C6 JUMPI POP PUSH2 0xC350 DUP2 LT JUMPDEST PUSH2 0x205 JUMPI PUSH1 0x40 MLOAD PUSH32 0x8C379A000000000000000000000000000000000000000000000000000000000 DUP2 MSTORE PUSH1 0x4 ADD PUSH2 0x1FC SWAP1 PUSH2 0x811 JUMP JUMPDEST PUSH1 0x40 MLOAD DUP1 SWAP2 SUB SWAP1 REVERT JUMPDEST DUP1 PUSH1 0xA DUP2 SWAP1 SSTORE POP TIMESTAMP PUSH1 0xB DUP2 SWAP1 SSTORE POP POP POP POP POP POP PUSH2 0x8EC JUMP JUMPDEST PUSH0 PUSH0 PUSH0 PUSH0 DUP5 PUSH20 0xFFFFFFFFFFFFFFFFFFFFFFFFFFFFFFFFFFFFFFFF AND PUSH1 0x40 MLOAD PUSH1 0x24 ADD PUSH1 0x40 MLOAD PUSH1 0x20 DUP2 DUP4 SUB SUB DUP2 MSTORE SWAP1 PUSH1 0x40 MSTORE PUSH4 0x313CE567 PUSH1 0xE0 SHL PUSH1 0x20 DUP3 ADD DUP1 MLOAD PUSH28 0xFFFFFFFFFFFFFFFFFFFFFFFFFFFFFFFFFFFFFFFFFFFFFFFFFFFFFFFF DUP4 DUP2 DUP4 AND OR DUP4 MSTORE POP POP POP POP PUSH1 0x40 MLOAD PUSH2 0x290 SWAP2 SWAP1 PUSH2 0x881 JUMP JUMPDEST PUSH0 PUSH1 0x40 MLOAD DUP1 DUP4 SUB DUP2 DUP6 GAS STATICCALL SWAP2 POP POP RETURNDATASIZE DUP1 PUSH0 DUP2 EQ PUSH2 0x2C8 JUMPI PUSH1 0x40 MLOAD SWAP2 POP PUSH1 0x1F NOT PUSH1 0x3F RETURNDATASIZE ADD AND DUP3 ADD PUSH1 0x40 MSTORE RETURNDATASIZE DUP3 MSTORE RETURNDATASIZE PUSH0 PUSH1 0x20 DUP5 ADD RETURNDATACOPY PUSH2 0x2CD JUMP JUMPDEST PUSH1 0x60 SWAP2 POP JUMPDEST POP SWAP2 POP SWAP2 POP DUP2 DUP1 ISZERO PUSH2 0x2E1 JUMPI POP PUSH1 0x20 DUP2 MLOAD LT ISZERO JUMPDEST ISZERO PUSH2 0x318 JUMPI PUSH0 DUP2 DUP1 PUSH1 0x20 ADD SWAP1 MLOAD DUP2 ADD SWAP1 PUSH2 0x2FB SWAP2 SWAP1 PUSH2 0x8C1 JUMP JUMPDEST SWAP1 POP PUSH1 0xFF DUP1 AND DUP2 GT PUSH2 0x316 JUMPI PUSH1 0x1 DUP2 SWAP5 POP SWAP5 POP POP POP POP PUSH2 0x321 JUMP JUMPDEST POP JUMPDEST PUSH0 PUSH0 SWAP4 POP SWAP4 POP POP POP JUMPDEST SWAP2 POP SWAP2 JUMP JUMPDEST PUSH0 PUSH1 0x5 PUSH0 SWAP1 SLOAD SWAP1 PUSH2 0x100 EXP SWAP1 DIV PUSH20 0xFFFFFFFFFFFFFFFFFFFFFFFFFFFFFFFFFFFFFFFF AND SWAP1 POP DUP2 PUSH1 0x5 PUSH0 PUSH2 0x100 EXP DUP2 SLOAD DUP2 PUSH20 0xFFFFFFFFFFFFFFFFFFFFFFFFFFFFFFFFFFFFFFFF MUL NOT AND SWAP1 DUP4 PUSH20 0xFFFFFFFFFFFFFFFFFFFFFFFFFFFFFFFFFFFFFFFF AND MUL OR SWAP1 SSTORE POP DUP2 PUSH20 0xFFFFFFFFFFFFFFFFFFFFFFFFFFFFFFFFFFFFFFFF AND DUP2 PUSH20 0xFFFFFFFFFFFFFFFFFFFFFFFFFFFFFFFFFFFFFFFF AND PUSH32 0x8BE0079C531659141344CD1FD0A4F28419497F9722A3DAAFE3B4186F6B6457E0 PUSH1 0x40 MLOAD PUSH1 0x40 MLOAD DUP1 SWAP2 SUB SWAP1 LOG3 POP POP JUMP JUMPDEST PUSH0 PUSH0 REVERT JUMPDEST PUSH0 PUSH20 0xFFFFFFFFFFFFFFFFFFFFFFFFFFFFFFFFFFFFFFFF DUP3 AND SWAP1 POP SWAP2 SWAP1 POP JUMP JUMPDEST PUSH0 PUSH2 0x416 DUP3 PUSH2 0x3ED JUMP JUMPDEST SWAP1 POP SWAP2 SWAP1 POP JUMP JUMPDEST PUSH0 PUSH2 0x427 DUP3 PUSH2 0x40C JUMP JUMPDEST SWAP1 POP SWAP2 SWAP1 POP JUMP JUMPDEST PUSH2 0x437 DUP2 PUSH2 0x41D JUMP JUMPDEST DUP2 EQ PUSH2 0x441 JUMPI PUSH0 PUSH0 REVERT JUMPDEST POP JUMP JUMPDEST PUSH0 DUP2 MLOAD SWAP1 POP PUSH2 0x452 DUP2 PUSH2 0x42E JUMP JUMPDEST SWAP3 SWAP2 POP POP JUMP JUMPDEST PUSH0 PUSH1 0x20 DUP3 DUP5 SUB SLT ISZERO PUSH2 0x46D JUMPI PUSH2 0x46C PUSH2 0x3E9 JUMP JUMPDEST JUMPDEST PUSH0 PUSH2 0x47A DUP5 DUP3 DUP6 ADD PUSH2 0x444 JUMP JUMPDEST SWAP2 POP POP SWAP3 SWAP2 POP POP JUMP JUMPDEST PUSH0 DUP2 MLOAD SWAP1 POP SWAP2 SWAP1 POP JUMP JUMPDEST PUSH32 0x4E487B7100000000000000000000000000000000000000000000000000000000 PUSH0 MSTORE PUSH1 0x41 PUSH1 0x4 MSTORE PUSH1 0x24 PUSH0 REVERT JUMPDEST PUSH32 0x4E487B7100000000000000000000000000000000000000000000000000000000 PUSH0 MSTORE PUSH1 0x22 PUSH1 0x4 MSTORE PUSH1 0x24 PUSH0 REVERT JUMPDEST PUSH0 PUSH1 0x2 DUP3 DIV SWAP1 POP PUSH1 0x1 DUP3 AND DUP1 PUSH2 0x4FE JUMPI PUSH1 0x7F DUP3 AND SWAP2 POP JUMPDEST PUSH1 0x20 DUP3 LT DUP2 SUB PUSH2 0x511 JUMPI PUSH2 0x510 PUSH2 0x4BA JUMP JUMPDEST JUMPDEST POP SWAP2 SWAP1 POP JUMP JUMPDEST PUSH0 DUP2 SWAP1 POP DUP2 PUSH0 MSTORE PUSH1 0x20 PUSH0 KECCAK256 SWAP1 POP SWAP2 SWAP1 POP JUMP JUMPDEST PUSH0 PUSH1 0x20 PUSH1 0x1F DUP4 ADD DIV SWAP1 POP SWAP2 SWAP1 POP JUMP JUMPDEST PUSH0 DUP3 DUP3 SHL SWAP1 POP SWAP3 SWAP2 POP POP JUMP JUMPDEST PUSH0 PUSH1 0x8 DUP4 MUL PUSH2 0x573 PUSH32 0xFFFFFFFFFFFFFFFFFFFFFFFFFFFFFFFFFFFFFFFFFFFFFFFFFFFFFFFFFFFFFFFF DUP3 PUSH2 0x538 JUMP JUMPDEST PUSH2 0x57D DUP7 DUP4 PUSH2 0x538 JUMP JUMPDEST SWAP6 POP DUP1 NOT DUP5 AND SWAP4 POP DUP1 DUP7 AND DUP5 OR SWAP3 POP POP POP SWAP4 SWAP3 POP POP POP JUMP JUMPDEST PUSH0 DUP2 SWAP1 POP SWAP2 SWAP1 POP JUMP JUMPDEST PUSH0 DUP2 SWAP1 POP SWAP2 SWAP1 POP JUMP JUMPDEST PUSH0 PUSH2 0x5C1 PUSH2 0x5BC PUSH2 0x5B7 DUP5 PUSH2 0x595 JUMP JUMPDEST PUSH2 0x59E JUMP JUMPDEST PUSH2 0x595 JUMP JUMPDEST SWAP1 POP SWAP2 SWAP1 POP JUMP JUMPDEST PUSH0 DUP2 SWAP1 POP SWAP2 SWAP1 POP JUMP JUMPDEST PUSH2 0x5DA DUP4 PUSH2 0x5A7 JUMP JUMPDEST PUSH2 0x5EE PUSH2 0x5E6 DUP3 PUSH2 0x5C8 JUMP JUMPDEST DUP5 DUP5 SLOAD PUSH2 0x544 JUMP JUMPDEST DUP3 SSTORE POP POP POP POP JUMP JUMPDEST PUSH0 PUSH0 SWAP1 POP SWAP1 JUMP JUMPDEST PUSH2 0x605 PUSH2 0x5F6 JUMP JUMPDEST PUSH2 0x610 DUP2 DUP5 DUP5 PUSH2 0x5D1 JUMP JUMPDEST POP POP POP JUMP JUMPDEST JUMPDEST DUP2 DUP2 LT ISZERO PUSH2 0x633 JUMPI PUSH2 0x628 PUSH0 DUP3 PUSH2 0x5FD JUMP JUMPDEST PUSH1 0x1 DUP2 ADD SWAP1 POP PUSH2 0x616 JUMP JUMPDEST POP POP JUMP JUMPDEST PUSH1 0x1F DUP3 GT ISZERO PUSH2 0x678 JUMPI PUSH2 0x649 DUP2 PUSH2 0x517 JUMP JUMPDEST PUSH2 0x652 DUP5 PUSH2 0x529 JUMP JUMPDEST DUP2 ADD PUSH1 0x20 DUP6 LT ISZERO PUSH2 0x661 JUMPI DUP2 SWAP1 POP JUMPDEST PUSH2 0x675 PUSH2 0x66D DUP6 PUSH2 0x529 JUMP JUMPDEST DUP4 ADD DUP3 PUSH2 0x615 JUMP JUMPDEST POP POP JUMPDEST POP POP POP JUMP JUMPDEST PUSH0 DUP3 DUP3 SHR SWAP1 POP SWAP3 SWAP2 POP POP JUMP JUMPDEST PUSH0 PUSH2 0x698 PUSH0 NOT DUP5 PUSH1 0x8 MUL PUSH2 0x67D JUMP JUMPDEST NOT DUP1 DUP4 AND SWAP2 POP POP SWAP3 SWAP2 POP POP JUMP JUMPDEST PUSH0 PUSH2 0x6B0 DUP4 DUP4 PUSH2 0x689 JUMP JUMPDEST SWAP2 POP DUP3 PUSH1 0x2 MUL DUP3 OR SWAP1 POP SWAP3 SWAP2 POP POP JUMP JUMPDEST PUSH2 0x6C9 DUP3 PUSH2 0x483 JUMP JUMPDEST PUSH8 0xFFFFFFFFFFFFFFFF DUP2 GT ISZERO PUSH2 0x6E2 JUMPI PUSH2 0x6E1 PUSH2 0x48D JUMP JUMPDEST JUMPDEST PUSH2 0x6EC DUP3 SLOAD PUSH2 0x4E7 JUMP JUMPDEST PUSH2 0x6F7 DUP3 DUP3 DUP6 PUSH2 0x637 JUMP JUMPDEST PUSH0 PUSH1 0x20 SWAP1 POP PUSH1 0x1F DUP4 GT PUSH1 0x1 DUP2 EQ PUSH2 0x728 JUMPI PUSH0 DUP5 ISZERO PUSH2 0x716 JUMPI DUP3 DUP8 ADD MLOAD SWAP1 POP JUMPDEST PUSH2 0x720 DUP6 DUP3 PUSH2 0x6A5 JUMP JUMPDEST DUP7 SSTORE POP PUSH2 0x787 JUMP JUMPDEST PUSH1 0x1F NOT DUP5 AND PUSH2 0x736 DUP7 PUSH2 0x517 JUMP JUMPDEST PUSH0 JUMPDEST DUP3 DUP2 LT ISZERO PUSH2 0x75D JUMPI DUP5 DUP10 ADD MLOAD DUP3 SSTORE PUSH1 0x1 DUP3 ADD SWAP2 POP PUSH1 0x20 DUP6 ADD SWAP5 POP PUSH1 0x20 DUP2 ADD SWAP1 POP PUSH2 0x738 JUMP JUMPDEST DUP7 DUP4 LT ISZERO PUSH2 0x77A JUMPI DUP5 DUP10 ADD MLOAD PUSH2 0x776 PUSH1 0x1F DUP10 AND DUP3 PUSH2 0x689 JUMP JUMPDEST DUP4 SSTORE POP JUMPDEST PUSH1 0x1 PUSH1 0x2 DUP9 MUL ADD DUP9 SSTORE POP POP POP JUMPDEST POP POP POP POP POP POP JUMP JUMPDEST PUSH2 0x798 DUP2 PUSH2 0x40C JUMP JUMPDEST DUP3 MSTORE POP POP JUMP JUMPDEST PUSH0 PUSH1 0x20 DUP3 ADD SWAP1 POP PUSH2 0x7B1 PUSH0 DUP4 ADD DUP5 PUSH2 0x78F JUMP JUMPDEST SWAP3 SWAP2 POP POP JUMP JUMPDEST PUSH0 DUP3 DUP3 MSTORE PUSH1 0x20 DUP3 ADD SWAP1 POP SWAP3 SWAP2 POP POP JUMP JUMPDEST PUSH32 0x4261736553747261746567793A20496E76616C69642041505900000000000000 PUSH0 DUP3 ADD MSTORE POP JUMP JUMPDEST PUSH0 PUSH2 0x7FB PUSH1 0x19 DUP4 PUSH2 0x7B7 JUMP JUMPDEST SWAP2 POP PUSH2 0x806 DUP3 PUSH2 0x7C7 JUMP JUMPDEST PUSH1 0x20 DUP3 ADD SWAP1 POP SWAP2 SWAP1 POP JUMP JUMPDEST PUSH0 PUSH1 0x20 DUP3 ADD SWAP1 POP DUP2 DUP2 SUB PUSH0 DUP4 ADD MSTORE PUSH2 0x828 DUP2 PUSH2 0x7EF JUMP JUMPDEST SWAP1 POP SWAP2 SWAP1 POP JUMP JUMPDEST PUSH0 DUP2 MLOAD SWAP1 POP SWAP2 SWAP1 POP JUMP JUMPDEST PUSH0 DUP2 SWAP1 POP SWAP3 SWAP2 POP POP JUMP JUMPDEST DUP3 DUP2 DUP4 MCOPY PUSH0 DUP4 DUP4 ADD MSTORE POP POP POP JUMP JUMPDEST PUSH0 PUSH2 0x85B DUP3 PUSH2 0x82F JUMP JUMPDEST PUSH2 0x865 DUP2 DUP6 PUSH2 0x839 JUMP JUMPDEST SWAP4 POP PUSH2 0x875 DUP2 DUP6 PUSH1 0x20 DUP7 ADD PUSH2 0x843 JUMP JUMPDEST DUP1 DUP5 ADD SWAP2 POP POP SWAP3 SWAP2 POP POP JUMP JUMPDEST PUSH0 PUSH2 0x88C DUP3 DUP5 PUSH2 0x851 JUMP JUMPDEST SWAP2 POP DUP2 SWAP1 POP SWAP3 SWAP2 POP POP JUMP JUMPDEST PUSH2 0x8A0 DUP2 PUSH2 0x595 JUMP JUMPDEST DUP2 EQ PUSH2 0x8AA JUMPI PUSH0 PUSH0 REVERT JUMPDEST POP JUMP JUMPDEST PUSH0 DUP2 MLOAD SWAP1 POP PUSH2 0x8BB DUP2 PUSH2 0x897 JUMP JUMPDEST SWAP3 SWAP2 POP POP JUMP JUMPDEST PUSH0 PUSH1 0x20 DUP3 DUP5 SUB SLT ISZERO PUSH2 0x8D6 JUMPI PUSH2 0x8D5 PUSH2 0x3E9 JUMP JUMPDEST JUMPDEST PUSH0 PUSH2 0x8E3 DUP5 DUP3 DUP6 ADD PUSH2 0x8AD JUMP JUMPDEST SWAP2 POP POP SWAP3 SWAP2 POP POP JUMP JUMPDEST PUSH1 0x80 MLOAD PUSH1 0xA0 MLOAD PUSH2 0x2F1F PUSH2 0x90D PUSH0 CODECOPY PUSH0 PUSH2 0xA96 ADD MSTORE PUSH0 PUSH2 0xAC7 ADD MSTORE PUSH2 0x2F1F PUSH0 RETURN INVALID PUSH1 0x80 PUSH1 0x40 MSTORE CALLVALUE DUP1 ISZERO PUSH2 0xF JUMPI PUSH0 PUSH0 REVERT JUMPDEST POP PUSH1 0x4 CALLDATASIZE LT PUSH2 0x23B JUMPI PUSH0 CALLDATALOAD PUSH1 0xE0 SHR DUP1 PUSH4 0x853828B6 GT PUSH2 0x139 JUMPI DUP1 PUSH4 0xC6E6F592 GT PUSH2 0xB6 JUMPI DUP1 PUSH4 0xF19993D7 GT PUSH2 0x7A JUMPI DUP1 PUSH4 0xF19993D7 EQ PUSH2 0x77B JUMPI DUP1 PUSH4 0xF1A392DA EQ PUSH2 0x799 JUMPI DUP1 PUSH4 0xF2FDE38B EQ PUSH2 0x7B7 JUMPI DUP1 PUSH4 0xFBFA77CF EQ PUSH2 0x7D3 JUMPI DUP1 PUSH4 0xFCDFD5C5 EQ PUSH2 0x7F1 JUMPI PUSH2 0x23B JUMP JUMPDEST DUP1 PUSH4 0xC6E6F592 EQ PUSH2 0x68B JUMPI DUP1 PUSH4 0xCE96CB77 EQ PUSH2 0x6BB JUMPI DUP1 PUSH4 0xD905777E EQ PUSH2 0x6EB JUMPI DUP1 PUSH4 0xDD62ED3E EQ PUSH2 0x71B JUMPI DUP1 PUSH4 0xEF8B30F7 EQ PUSH2 0x74B JUMPI PUSH2 0x23B JUMP JUMPDEST DUP1 PUSH4 0xA9059CBB GT PUSH2 0xFD JUMPI DUP1 PUSH4 0xA9059CBB EQ PUSH2 0x59B JUMPI DUP1 PUSH4 0xB3D7F6B9 EQ PUSH2 0x5CB JUMPI DUP1 PUSH4 0xB460AF94 EQ PUSH2 0x5FB JUMPI DUP1 PUSH4 0xBA087652 EQ PUSH2 0x62B JUMPI DUP1 PUSH4 0xC63D75B6 EQ PUSH2 0x65B JUMPI PUSH2 0x23B JUMP JUMPDEST DUP1 PUSH4 0x853828B6 EQ PUSH2 0x4F3 JUMPI DUP1 PUSH4 0x8DA5CB5B EQ PUSH2 0x511 JUMPI DUP1 PUSH4 0x8F8C8AEE EQ PUSH2 0x52F JUMPI DUP1 PUSH4 0x94BF804D EQ PUSH2 0x54D JUMPI DUP1 PUSH4 0x95D89B41 EQ PUSH2 0x57D JUMPI PUSH2 0x23B JUMP JUMPDEST DUP1 PUSH4 0x313CE567 GT PUSH2 0x1C7 JUMPI DUP1 PUSH4 0x6817031B GT PUSH2 0x18B JUMPI DUP1 PUSH4 0x6817031B EQ PUSH2 0x44F JUMPI DUP1 PUSH4 0x6E553F65 EQ PUSH2 0x46B JUMPI DUP1 PUSH4 0x70A08231 EQ PUSH2 0x49B JUMPI DUP1 PUSH4 0x715018A6 EQ PUSH2 0x4CB JUMPI DUP1 PUSH4 0x722713F7 EQ PUSH2 0x4D5 JUMPI PUSH2 0x23B JUMP JUMPDEST DUP1 PUSH4 0x313CE567 EQ PUSH2 0x395 JUMPI DUP1 PUSH4 0x38D52E0F EQ PUSH2 0x3B3 JUMPI DUP1 PUSH4 0x402D267D EQ PUSH2 0x3D1 JUMPI DUP1 PUSH4 0x4641257D EQ PUSH2 0x401 JUMPI DUP1 PUSH4 0x4CDAD506 EQ PUSH2 0x41F JUMPI PUSH2 0x23B JUMP JUMPDEST DUP1 PUSH4 0xA28A477 GT PUSH2 0x20E JUMPI DUP1 PUSH4 0xA28A477 EQ PUSH2 0x2DB JUMPI DUP1 PUSH4 0x18160DDD EQ PUSH2 0x30B JUMPI DUP1 PUSH4 0x214405A9 EQ PUSH2 0x329 JUMPI DUP1 PUSH4 0x23B872DD EQ PUSH2 0x347 JUMPI DUP1 PUSH4 0x23DC1142 EQ PUSH2 0x377 JUMPI PUSH2 0x23B JUMP JUMPDEST DUP1 PUSH4 0x1E1D114 EQ PUSH2 0x23F JUMPI DUP1 PUSH4 0x6FDDE03 EQ PUSH2 0x25D JUMPI DUP1 PUSH4 0x7A2D13A EQ PUSH2 0x27B JUMPI DUP1 PUSH4 0x95EA7B3 EQ PUSH2 0x2AB JUMPI JUMPDEST PUSH0 PUSH0 REVERT JUMPDEST PUSH2 0x247 PUSH2 0x80F JUMP JUMPDEST PUSH1 0x40 MLOAD PUSH2 0x254 SWAP2 SWAP1 PUSH2 0x24FD JUMP JUMPDEST PUSH1 0x40 MLOAD DUP1 SWAP2 SUB SWAP1 RETURN JUMPDEST PUSH2 0x265 PUSH2 0x971 JUMP JUMPDEST PUSH1 0x40 MLOAD PUSH2 0x272 SWAP2 SWAP1 PUSH2 0x2586 JUMP JUMPDEST PUSH1 0x40 MLOAD DUP1 SWAP2 SUB SWAP1 RETURN JUMPDEST PUSH2 0x295 PUSH1 0x4 DUP1 CALLDATASIZE SUB DUP2 ADD SWAP1 PUSH2 0x290 SWAP2 SWAP1 PUSH2 0x25D4 JUMP JUMPDEST PUSH2 0xA01 JUMP JUMPDEST PUSH1 0x40 MLOAD PUSH2 0x2A2 SWAP2 SWAP1 PUSH2 0x24FD JUMP JUMPDEST PUSH1 0x40 MLOAD DUP1 SWAP2 SUB SWAP1 RETURN JUMPDEST PUSH2 0x2C5 PUSH1 0x4 DUP1 CALLDATASIZE SUB DUP2 ADD SWAP1 PUSH2 0x2C0 SWAP2 SWAP1 PUSH2 0x2659 JUMP JUMPDEST PUSH2 0xA13 JUMP JUMPDEST PUSH1 0x40 MLOAD PUSH2 0x2D2 SWAP2 SWAP1 PUSH2 0x26B1 JUMP JUMPDEST PUSH1 0x40 MLOAD DUP1 SWAP2 SUB SWAP1 RETURN JUMPDEST PUSH2 0x2F5 PUSH1 0x4 DUP1 CALLDATASIZE SUB DUP2 ADD SWAP1 PUSH2 0x2F0 SWAP2 SWAP1 PUSH2 0x25D4 JUMP JUMPDEST PUSH2 0xA35 JUMP JUMPDEST PUSH1 0x40 MLOAD PUSH2 0x302 SWAP2 SWAP1 PUSH2 0x24FD JUMP JUMPDEST PUSH1 0x40 MLOAD DUP1 SWAP2 SUB SWAP1 RETURN JUMPDEST PUSH2 0x313 PUSH2 0xA48 JUMP JUMPDEST PUSH1 0x40 MLOAD PUSH2 0x320 SWAP2 SWAP1 PUSH2 0x24FD JUMP JUMPDEST PUSH1 0x40 MLOAD DUP1 SWAP2 SUB SWAP1 RETURN JUMPDEST PUSH2 0x331 PUSH2 0xA51 JUMP JUMPDEST PUSH1 0x40 MLOAD PUSH2 0x33E SWAP2 SWAP1 PUSH2 0x24FD JUMP JUMPDEST PUSH1 0x40 MLOAD DUP1 SWAP2 SUB SWAP1 RETURN JUMPDEST PUSH2 0x361 PUSH1 0x4 DUP1 CALLDATASIZE SUB DUP2 ADD SWAP1 PUSH2 0x35C SWAP2 SWAP1 PUSH2 0x26CA JUMP JUMPDEST PUSH2 0xA57 JUMP JUMPDEST PUSH1 0x40 MLOAD PUSH2 0x36E SWAP2 SWAP1 PUSH2 0x26B1 JUMP JUMPDEST PUSH1 0x40 MLOAD DUP1 SWAP2 SUB SWAP1 RETURN JUMPDEST PUSH2 0x37F PUSH2 0xA85 JUMP JUMPDEST PUSH1 0x40 MLOAD PUSH2 0x38C SWAP2 SWAP1 PUSH2 0x24FD JUMP JUMPDEST PUSH1 0x40 MLOAD DUP1 SWAP2 SUB SWAP1 RETURN JUMPDEST PUSH2 0x39D PUSH2 0xA8B JUMP JUMPDEST PUSH1 0x40 MLOAD PUSH2 0x3AA SWAP2 SWAP1 PUSH2 0x2735 JUMP JUMPDEST PUSH1 0x40 MLOAD DUP1 SWAP2 SUB SWAP1 RETURN JUMPDEST PUSH2 0x3BB PUSH2 0xAC4 JUMP JUMPDEST PUSH1 0x40 MLOAD PUSH2 0x3C8 SWAP2 SWAP1 PUSH2 0x275D JUMP JUMPDEST PUSH1 0x40 MLOAD DUP1 SWAP2 SUB SWAP1 RETURN JUMPDEST PUSH2 0x3EB PUSH1 0x4 DUP1 CALLDATASIZE SUB DUP2 ADD SWAP1 PUSH2 0x3E6 SWAP2 SWAP1 PUSH2 0x2776 JUMP JUMPDEST PUSH2 0xAEB JUMP JUMPDEST PUSH1 0x40 MLOAD PUSH2 0x3F8 SWAP2 SWAP1 PUSH2 0x24FD JUMP JUMPDEST PUSH1 0x40 MLOAD DUP1 SWAP2 SUB SWAP1 RETURN JUMPDEST PUSH2 0x409 PUSH2 0xB14 JUMP JUMPDEST PUSH1 0x40 MLOAD PUSH2 0x416 SWAP2 SWAP1 PUSH2 0x24FD JUMP JUMPDEST PUSH1 0x40 MLOAD DUP1 SWAP2 SUB SWAP1 RETURN JUMPDEST PUSH2 0x439 PUSH1 0x4 DUP1 CALLDATASIZE SUB DUP2 ADD SWAP1 PUSH2 0x434 SWAP2 SWAP1 PUSH2 0x25D4 JUMP JUMPDEST PUSH2 0xC31 JUMP JUMPDEST PUSH1 0x40 MLOAD PUSH2 0x446 SWAP2 SWAP1 PUSH2 0x24FD JUMP JUMPDEST PUSH1 0x40 MLOAD DUP1 SWAP2 SUB SWAP1 RETURN JUMPDEST PUSH2 0x469 PUSH1 0x4 DUP1 CALLDATASIZE SUB DUP2 ADD SWAP1 PUSH2 0x464 SWAP2 SWAP1 PUSH2 0x2776 JUMP JUMPDEST PUSH2 0xC43 JUMP JUMPDEST STOP JUMPDEST PUSH2 0x485 PUSH1 0x4 DUP1 CALLDATASIZE SUB DUP2 ADD SWAP1 PUSH2 0x480 SWAP2 SWAP1 PUSH2 0x27A1 JUMP JUMPDEST PUSH2 0xD7C JUMP JUMPDEST PUSH1 0x40 MLOAD PUSH2 0x492 SWAP2 SWAP1 PUSH2 0x24FD JUMP JUMPDEST PUSH1 0x40 MLOAD DUP1 SWAP2 SUB SWAP1 RETURN JUMPDEST PUSH2 0x4B5 PUSH1 0x4 DUP1 CALLDATASIZE SUB DUP2 ADD SWAP1 PUSH2 0x4B0 SWAP2 SWAP1 PUSH2 0x2776 JUMP JUMPDEST PUSH2 0xE36 JUMP JUMPDEST PUSH1 0x40 MLOAD PUSH2 0x4C2 SWAP2 SWAP1 PUSH2 0x24FD JUMP JUMPDEST PUSH1 0x40 MLOAD DUP1 SWAP2 SUB SWAP1 RETURN JUMPDEST PUSH2 0x4D3 PUSH2 0xE7B JUMP JUMPDEST STOP JUMPDEST PUSH2 0x4DD PUSH2 0xE8E JUMP JUMPDEST PUSH1 0x40 MLOAD PUSH2 0x4EA SWAP2 SWAP1 PUSH2 0x24FD JUMP JUMPDEST PUSH1 0x40 MLOAD DUP1 SWAP2 SUB SWAP1 RETURN JUMPDEST PUSH2 0x4FB PUSH2 0xE9C JUMP JUMPDEST PUSH1 0x40 MLOAD PUSH2 0x508 SWAP2 SWAP1 PUSH2 0x24FD JUMP JUMPDEST PUSH1 0x40 MLOAD DUP1 SWAP2 SUB SWAP1 RETURN JUMPDEST PUSH2 0x519 PUSH2 0x1029 JUMP JUMPDEST PUSH1 0x40 MLOAD PUSH2 0x526 SWAP2 SWAP1 PUSH2 0x275D JUMP JUMPDEST PUSH1 0x40 MLOAD DUP1 SWAP2 SUB SWAP1 RETURN JUMPDEST PUSH2 0x537 PUSH2 0x1051 JUMP JUMPDEST PUSH1 0x40 MLOAD PUSH2 0x544 SWAP2 SWAP1 PUSH2 0x24FD JUMP JUMPDEST PUSH1 0x40 MLOAD DUP1 SWAP2 SUB SWAP1 RETURN JUMPDEST PUSH2 0x567 PUSH1 0x4 DUP1 CALLDATASIZE SUB DUP2 ADD SWAP1 PUSH2 0x562 SWAP2 SWAP1 PUSH2 0x27A1 JUMP JUMPDEST PUSH2 0x1057 JUMP JUMPDEST PUSH1 0x40 MLOAD PUSH2 0x574 SWAP2 SWAP1 PUSH2 0x24FD JUMP JUMPDEST PUSH1 0x40 MLOAD DUP1 SWAP2 SUB SWAP1 RETURN JUMPDEST PUSH2 0x585 PUSH2 0x10D7 JUMP JUMPDEST PUSH1 0x40 MLOAD PUSH2 0x592 SWAP2 SWAP1 PUSH2 0x2586 JUMP JUMPDEST PUSH1 0x40 MLOAD DUP1 SWAP2 SUB SWAP1 RETURN JUMPDEST PUSH2 0x5B5 PUSH1 0x4 DUP1 CALLDATASIZE SUB DUP2 ADD SWAP1 PUSH2 0x5B0 SWAP2 SWAP1 PUSH2 0x2659 JUMP JUMPDEST PUSH2 0x1167 JUMP JUMPDEST PUSH1 0x40 MLOAD PUSH2 0x5C2 SWAP2 SWAP1 PUSH2 0x26B1 JUMP JUMPDEST PUSH1 0x40 MLOAD DUP1 SWAP2 SUB SWAP1 RETURN JUMPDEST PUSH2 0x5E5 PUSH1 0x4 DUP1 CALLDATASIZE SUB DUP2 ADD SWAP1 PUSH2 0x5E0 SWAP2 SWAP1 PUSH2 0x25D4 JUMP JUMPDEST PUSH2 0x1189 JUMP JUMPDEST PUSH1 0x40 MLOAD PUSH2 0x5F2 SWAP2 SWAP1 PUSH2 0x24FD JUMP JUMPDEST PUSH1 0x40 MLOAD DUP1 SWAP2 SUB SWAP1 RETURN JUMPDEST PUSH2 0x615 PUSH1 0x4 DUP1 CALLDATASIZE SUB DUP2 ADD SWAP1 PUSH2 0x610 SWAP2 SWAP1 PUSH2 0x27DF JUMP JUMPDEST PUSH2 0x119C JUMP JUMPDEST PUSH1 0x40 MLOAD PUSH2 0x622 SWAP2 SWAP1 PUSH2 0x24FD JUMP JUMPDEST PUSH1 0x40 MLOAD DUP1 SWAP2 SUB SWAP1 RETURN JUMPDEST PUSH2 0x645 PUSH1 0x4 DUP1 CALLDATASIZE SUB DUP2 ADD SWAP1 PUSH2 0x640 SWAP2 SWAP1 PUSH2 0x27DF JUMP JUMPDEST PUSH2 0x131F JUMP JUMPDEST PUSH1 0x40 MLOAD PUSH2 0x652 SWAP2 SWAP1 PUSH2 0x24FD JUMP JUMPDEST PUSH1 0x40 MLOAD DUP1 SWAP2 SUB SWAP1 RETURN JUMPDEST PUSH2 0x675 PUSH1 0x4 DUP1 CALLDATASIZE SUB DUP2 ADD SWAP1 PUSH2 0x670 SWAP2 SWAP1 PUSH2 0x2776 JUMP JUMPDEST PUSH2 0x13A1 JUMP JUMPDEST PUSH1 0x40 MLOAD PUSH2 0x682 SWAP2 SWAP1 PUSH2 0x24FD JUMP JUMPDEST PUSH1 0x40 MLOAD DUP1 SWAP2 SUB SWAP1 RETURN JUMPDEST PUSH2 0x6A5 PUSH1 0x4 DUP1 CALLDATASIZE SUB DUP2 ADD SWAP1 PUSH2 0x6A0 SWAP2 SWAP1 PUSH2 0x25D4 JUMP JUMPDEST PUSH2 0x13CA JUMP JUMPDEST PUSH1 0x40 MLOAD PUSH2 0x6B2 SWAP2 SWAP1 PUSH2 0x24FD JUMP JUMPDEST PUSH1 0x40 MLOAD DUP1 SWAP2 SUB SWAP1 RETURN JUMPDEST PUSH2 0x6D5 PUSH1 0x4 DUP1 CALLDATASIZE SUB DUP2 ADD SWAP1 PUSH2 0x6D0 SWAP2 SWAP1 PUSH2 0x2776 JUMP JUMPDEST PUSH2 0x13DC JUMP JUMPDEST PUSH1 0x40 MLOAD PUSH2 0x6E2 SWAP2 SWAP1 PUSH2 0x24FD JUMP JUMPDEST PUSH1 0x40 MLOAD DUP1 SWAP2 SUB SWAP1 RETURN JUMPDEST PUSH2 0x705 PUSH1 0x4 DUP1 CALLDATASIZE SUB DUP2 ADD SWAP1 PUSH2 0x700 SWAP2 SWAP1 PUSH2 0x2776 JUMP JUMPDEST PUSH2 0x13F6 JUMP JUMPDEST PUSH1 0x40 MLOAD PUSH2 0x712 SWAP2 SWAP1 PUSH2 0x24FD JUMP JUMPDEST PUSH1 0x40 MLOAD DUP1 SWAP2 SUB SWAP1 RETURN JUMPDEST PUSH2 0x735 PUSH1 0x4 DUP1 CALLDATASIZE SUB DUP2 ADD SWAP1 PUSH2 0x730 SWAP2 SWAP1 PUSH2 0x282F JUMP JUMPDEST PUSH2 0x1407 JUMP JUMPDEST PUSH1 0x40 MLOAD PUSH2 0x742 SWAP2 SWAP1 PUSH2 0x24FD JUMP JUMPDEST PUSH1 0x40 MLOAD DUP1 SWAP2 SUB SWAP1 RETURN JUMPDEST PUSH2 0x765 PUSH1 0x4 DUP1 CALLDATASIZE SUB DUP2 ADD SWAP1 PUSH2 0x760 SWAP2 SWAP1 PUSH2 0x25D4 JUMP JUMPDEST PUSH2 0x1489 JUMP JUMPDEST PUSH1 0x40 MLOAD PUSH2 0x772 SWAP2 SWAP1 PUSH2 0x24FD JUMP JUMPDEST PUSH1 0x40 MLOAD DUP1 SWAP2 SUB SWAP1 RETURN JUMPDEST PUSH2 0x783 PUSH2 0x149B JUMP JUMPDEST PUSH1 0x40 MLOAD PUSH2 0x790 SWAP2 SWAP1 PUSH2 0x24FD JUMP JUMPDEST PUSH1 0x40 MLOAD DUP1 SWAP2 SUB SWAP1 RETURN JUMPDEST PUSH2 0x7A1 PUSH2 0x1509 JUMP JUMPDEST PUSH1 0x40 MLOAD PUSH2 0x7AE SWAP2 SWAP1 PUSH2 0x24FD JUMP JUMPDEST PUSH1 0x40 MLOAD DUP1 SWAP2 SUB SWAP1 RETURN JUMPDEST PUSH2 0x7D1 PUSH1 0x4 DUP1 CALLDATASIZE SUB DUP2 ADD SWAP1 PUSH2 0x7CC SWAP2 SWAP1 PUSH2 0x2776 JUMP JUMPDEST PUSH2 0x150F JUMP JUMPDEST STOP JUMPDEST PUSH2 0x7DB PUSH2 0x1593 JUMP JUMPDEST PUSH1 0x40 MLOAD PUSH2 0x7E8 SWAP2 SWAP1 PUSH2 0x275D JUMP JUMPDEST PUSH1 0x40 MLOAD DUP1 SWAP2 SUB SWAP1 RETURN JUMPDEST PUSH2 0x7F9 PUSH2 0x15B8 JUMP JUMPDEST PUSH1 0x40 MLOAD PUSH2 0x806 SWAP2 SWAP1 PUSH2 0x24FD JUMP JUMPDEST PUSH1 0x40 MLOAD DUP1 SWAP2 SUB SWAP1 RETURN JUMPDEST PUSH0 PUSH0 PUSH2 0x819 PUSH2 0xAC4 JUMP JUMPDEST PUSH20 0xFFFFFFFFFFFFFFFFFFFFFFFFFFFFFFFFFFFFFFFF AND PUSH4 0x70A08231 ADDRESS PUSH1 0x40 MLOAD DUP3 PUSH4 0xFFFFFFFF AND PUSH1 0xE0 SHL DUP2 MSTORE PUSH1 0x4 ADD PUSH2 0x851 SWAP2 SWAP1 PUSH2 0x275D JUMP JUMPDEST PUSH1 0x20 PUSH1 0x40 MLOAD DUP1 DUP4 SUB DUP2 DUP7 GAS STATICCALL ISZERO DUP1 ISZERO PUSH2 0x86C JUMPI RETURNDATASIZE PUSH0 PUSH0 RETURNDATACOPY RETURNDATASIZE PUSH0 REVERT JUMPDEST POP POP POP POP PUSH1 0x40 MLOAD RETURNDATASIZE PUSH1 0x1F NOT PUSH1 0x1F DUP3 ADD AND DUP3 ADD DUP1 PUSH1 0x40 MSTORE POP DUP2 ADD SWAP1 PUSH2 0x890 SWAP2 SWAP1 PUSH2 0x2881 JUMP JUMPDEST SWAP1 POP PUSH0 PUSH1 0xB SLOAD TIMESTAMP PUSH2 0x8A1 SWAP2 SWAP1 PUSH2 0x28D9 JUMP JUMPDEST SWAP1 POP PUSH0 PUSH0 SWAP1 POP PUSH0 DUP3 GT DUP1 ISZERO PUSH2 0x8B5 JUMPI POP PUSH0 DUP4 GT JUMPDEST ISZERO PUSH2 0x950 JUMPI PUSH0 PUSH5 0x496CEBB800 DUP4 PUSH1 0xA SLOAD DUP7 PUSH2 0x8D0 SWAP2 SWAP1 PUSH2 0x290C JUMP JUMPDEST PUSH2 0x8DA SWAP2 SWAP1 PUSH2 0x290C JUMP JUMPDEST PUSH2 0x8E4 SWAP2 SWAP1 PUSH2 0x297A JUMP JUMPDEST SWAP1 POP PUSH0 TIMESTAMP PREVRANDAO ADDRESS PUSH1 0x40 MLOAD PUSH1 0x20 ADD PUSH2 0x8FC SWAP4 SWAP3 SWAP2 SWAP1 PUSH2 0x2A0F JUMP JUMPDEST PUSH1 0x40 MLOAD PUSH1 0x20 DUP2 DUP4 SUB SUB DUP2 MSTORE SWAP1 PUSH1 0x40 MSTORE DUP1 MLOAD SWAP1 PUSH1 0x20 ADD KECCAK256 PUSH0 SHR SWAP1 POP PUSH0 PUSH1 0x5A PUSH1 0x28 DUP4 PUSH2 0x926 SWAP2 SWAP1 PUSH2 0x2A4B JUMP JUMPDEST PUSH2 0x930 SWAP2 SWAP1 PUSH2 0x2A7B JUMP JUMPDEST SWAP1 POP PUSH1 0x64 DUP2 DUP5 PUSH2 0x940 SWAP2 SWAP1 PUSH2 0x290C JUMP JUMPDEST PUSH2 0x94A SWAP2 SWAP1 PUSH2 0x297A JUMP JUMPDEST SWAP4 POP POP POP POP JUMPDEST DUP1 PUSH1 0xC SLOAD DUP5 PUSH2 0x95F SWAP2 SWAP1 PUSH2 0x2A7B JUMP JUMPDEST PUSH2 0x969 SWAP2 SWAP1 PUSH2 0x2A7B JUMP JUMPDEST SWAP4 POP POP POP POP SWAP1 JUMP JUMPDEST PUSH1 0x60 PUSH1 0x3 DUP1 SLOAD PUSH2 0x980 SWAP1 PUSH2 0x2ADB JUMP JUMPDEST DUP1 PUSH1 0x1F ADD PUSH1 0x20 DUP1 SWAP2 DIV MUL PUSH1 0x20 ADD PUSH1 0x40 MLOAD SWAP1 DUP2 ADD PUSH1 0x40 MSTORE DUP1 SWAP3 SWAP2 SWAP1 DUP2 DUP2 MSTORE PUSH1 0x20 ADD DUP3 DUP1 SLOAD PUSH2 0x9AC SWAP1 PUSH2 0x2ADB JUMP JUMPDEST DUP1 ISZERO PUSH2 0x9F7 JUMPI DUP1 PUSH1 0x1F LT PUSH2 0x9CE JUMPI PUSH2 0x100 DUP1 DUP4 SLOAD DIV MUL DUP4 MSTORE SWAP2 PUSH1 0x20 ADD SWAP2 PUSH2 0x9F7 JUMP JUMPDEST DUP3 ADD SWAP2 SWAP1 PUSH0 MSTORE PUSH1 0x20 PUSH0 KECCAK256 SWAP1 JUMPDEST DUP2 SLOAD DUP2 MSTORE SWAP1 PUSH1 0x1 ADD SWAP1 PUSH1 0x20 ADD DUP1 DUP4 GT PUSH2 0x9DA JUMPI DUP3 SWAP1 SUB PUSH1 0x1F AND DUP3 ADD SWAP2 JUMPDEST POP POP POP POP POP SWAP1 POP SWAP1 JUMP JUMPDEST PUSH0 PUSH2 0xA0C DUP3 PUSH0 PUSH2 0x15BE JUMP JUMPDEST SWAP1 POP SWAP2 SWAP1 POP JUMP JUMPDEST PUSH0 PUSH0 PUSH2 0xA1D PUSH2 0x1616 JUMP JUMPDEST SWAP1 POP PUSH2 0xA2A DUP2 DUP6 DUP6 PUSH2 0x161D JUMP JUMPDEST PUSH1 0x1 SWAP2 POP POP SWAP3 SWAP2 POP POP JUMP JUMPDEST PUSH0 PUSH2 0xA41 DUP3 PUSH1 0x1 PUSH2 0x162F JUMP JUMPDEST SWAP1 POP SWAP2 SWAP1 POP JUMP JUMPDEST PUSH0 PUSH1 0x2 SLOAD SWAP1 POP SWAP1 JUMP JUMPDEST PUSH1 0xA SLOAD DUP2 JUMP JUMPDEST PUSH0 PUSH0 PUSH2 0xA61 PUSH2 0x1616 JUMP JUMPDEST SWAP1 POP PUSH2 0xA6E DUP6 DUP3 DUP6 PUSH2 0x1687 JUMP JUMPDEST PUSH2 0xA79 DUP6 DUP6 DUP6 PUSH2 0x171A JUMP JUMPDEST PUSH1 0x1 SWAP2 POP POP SWAP4 SWAP3 POP POP POP JUMP JUMPDEST PUSH1 0x9 SLOAD DUP2 JUMP JUMPDEST PUSH0 PUSH2 0xA94 PUSH2 0x180A JUMP JUMPDEST PUSH32 0x0 PUSH2 0xABF SWAP2 SWAP1 PUSH2 0x2B0B JUMP JUMPDEST SWAP1 POP SWAP1 JUMP JUMPDEST PUSH0 PUSH32 0x0 SWAP1 POP SWAP1 JUMP JUMPDEST PUSH0 PUSH32 0xFFFFFFFFFFFFFFFFFFFFFFFFFFFFFFFFFFFFFFFFFFFFFFFFFFFFFFFFFFFFFFFF SWAP1 POP SWAP2 SWAP1 POP JUMP JUMPDEST PUSH0 PUSH1 0x7 PUSH0 SWAP1 SLOAD SWAP1 PUSH2 0x100 EXP SWAP1 DIV PUSH20 0xFFFFFFFFFFFFFFFFFFFFFFFFFFFFFFFFFFFFFFFF AND PUSH20 0xFFFFFFFFFFFFFFFFFFFFFFFFFFFFFFFFFFFFFFFF AND CALLER PUSH20 0xFFFFFFFFFFFFFFFFFFFFFFFFFFFFFFFFFFFFFFFF AND EQ PUSH2 0xBA4 JUMPI PUSH1 0x40 MLOAD PUSH32 0x8C379A000000000000000000000000000000000000000000000000000000000 DUP2 MSTORE PUSH1 0x4 ADD PUSH2 0xB9B SWAP1 PUSH2 0x2BAF JUMP JUMPDEST PUSH1 0x40 MLOAD DUP1 SWAP2 SUB SWAP1 REVERT JUMPDEST PUSH2 0xBAC PUSH2 0x1811 JUMP JUMPDEST PUSH2 0xBB4 PUSH2 0x1857 JUMP JUMPDEST PUSH0 PUSH1 0xC SLOAD SWAP1 POP PUSH0 DUP2 GT ISZERO PUSH2 0xC22 JUMPI DUP1 PUSH1 0x9 PUSH0 DUP3 DUP3 SLOAD PUSH2 0xBD3 SWAP2 SWAP1 PUSH2 0x2A7B JUMP JUMPDEST SWAP3 POP POP DUP2 SWAP1 SSTORE POP PUSH0 PUSH1 0xC DUP2 SWAP1 SSTORE POP TIMESTAMP PUSH1 0x8 DUP2 SWAP1 SSTORE POP PUSH32 0xFA07446FAD45314351EB89109A154880278451332BB87F1824D435FE58DA5939 DUP2 TIMESTAMP PUSH1 0x40 MLOAD PUSH2 0xC19 SWAP3 SWAP2 SWAP1 PUSH2 0x2BCD JUMP JUMPDEST PUSH1 0x40 MLOAD DUP1 SWAP2 SUB SWAP1 LOG1 JUMPDEST DUP1 SWAP2 POP POP PUSH2 0xC2E PUSH2 0x197A JUMP JUMPDEST SWAP1 JUMP JUMPDEST PUSH0 PUSH2 0xC3C DUP3 PUSH0 PUSH2 0x15BE JUMP JUMPDEST SWAP1 POP SWAP2 SWAP1 POP JUMP JUMPDEST PUSH2 0xC4B PUSH2 0x1984 JUMP JUMPDEST PUSH0 PUSH20 0xFFFFFFFFFFFFFFFFFFFFFFFFFFFFFFFFFFFFFFFF AND DUP2 PUSH20 0xFFFFFFFFFFFFFFFFFFFFFFFFFFFFFFFFFFFFFFFF AND SUB PUSH2 0xCB9 JUMPI PUSH1 0x40 MLOAD PUSH32 0x8C379A000000000000000000000000000000000000000000000000000000000 DUP2 MSTORE PUSH1 0x4 ADD PUSH2 0xCB0 SWAP1 PUSH2 0x2C64 JUMP JUMPDEST PUSH1 0x40 MLOAD DUP1 SWAP2 SUB SWAP1 REVERT JUMPDEST PUSH0 PUSH1 0x7 PUSH0 SWAP1 SLOAD SWAP1 PUSH2 0x100 EXP SWAP1 DIV PUSH20 0xFFFFFFFFFFFFFFFFFFFFFFFFFFFFFFFFFFFFFFFF AND SWAP1 POP DUP2 PUSH1 0x7 PUSH0 PUSH2 0x100 EXP DUP2 SLOAD DUP2 PUSH20 0xFFFFFFFFFFFFFFFFFFFFFFFFFFFFFFFFFFFFFFFF MUL NOT AND SWAP1 DUP4 PUSH20 0xFFFFFFFFFFFFFFFFFFFFFFFFFFFFFFFFFFFFFFFF AND MUL OR SWAP1 SSTORE POP DUP2 PUSH20 0xFFFFFFFFFFFFFFFFFFFFFFFFFFFFFFFFFFFFFFFF AND DUP2 PUSH20 0xFFFFFFFFFFFFFFFFFFFFFFFFFFFFFFFFFFFFFFFF AND PUSH32 0x483BDEDAAF23706A9800AC1AF0D852B34927780D79F9D6BA60A80C7CAD75EA39 PUSH1 0x40 MLOAD PUSH1 0x40 MLOAD DUP1 SWAP2 SUB SWAP1 LOG3 POP POP JUMP JUMPDEST PUSH0 PUSH1 0x7 PUSH0 SWAP1 SLOAD SWAP1 PUSH2 0x100 EXP SWAP1 DIV PUSH20 0xFFFFFFFFFFFFFFFFFFFFFFFFFFFFFFFFFFFFFFFF AND PUSH20 0xFFFFFFFFFFFFFFFFFFFFFFFFFFFFFFFFFFFFFFFF AND CALLER PUSH20 0xFFFFFFFFFFFFFFFFFFFFFFFFFFFFFFFFFFFFFFFF AND EQ PUSH2 0xE0C JUMPI PUSH1 0x40 MLOAD PUSH32 0x8C379A000000000000000000000000000000000000000000000000000000000 DUP2 MSTORE PUSH1 0x4 ADD PUSH2 0xE03 SWAP1 PUSH2 0x2BAF JUMP JUMPDEST PUSH1 0x40 MLOAD DUP1 SWAP2 SUB SWAP1 REVERT JUMPDEST PUSH2 0xE14 PUSH2 0x1811 JUMP JUMPDEST PUSH2 0xE1C PUSH2 0x1857 JUMP JUMPDEST PUSH2 0xE26 DUP4 DUP4 PUSH2 0x1A0B JUMP JUMPDEST SWAP1 POP PUSH2 0xE30 PUSH2 0x197A JUMP JUMPDEST SWAP3 SWAP2 POP POP JUMP JUMPDEST PUSH0 PUSH0 PUSH0 DUP4 PUSH20 0xFFFFFFFFFFFFFFFFFFFFFFFFFFFFFFFFFFFFFFFF AND PUSH20 0xFFFFFFFFFFFFFFFFFFFFFFFFFFFFFFFFFFFFFFFF AND DUP2 MSTORE PUSH1 0x20 ADD SWAP1 DUP2 MSTORE PUSH1 0x20 ADD PUSH0 KECCAK256 SLOAD SWAP1 POP SWAP2 SWAP1 POP JUMP JUMPDEST PUSH2 0xE83 PUSH2 0x1984 JUMP JUMPDEST PUSH2 0xE8C PUSH0 PUSH2 0x1A8B JUMP JUMPDEST JUMP JUMPDEST PUSH0 PUSH2 0xE97 PUSH2 0x80F JUMP JUMPDEST SWAP1 POP SWAP1 JUMP JUMPDEST PUSH0 PUSH1 0x7 PUSH0 SWAP1 SLOAD SWAP1 PUSH2 0x100 EXP SWAP1 DIV PUSH20 0xFFFFFFFFFFFFFFFFFFFFFFFFFFFFFFFFFFFFFFFF AND PUSH20 0xFFFFFFFFFFFFFFFFFFFFFFFFFFFFFFFFFFFFFFFF AND CALLER PUSH20 0xFFFFFFFFFFFFFFFFFFFFFFFFFFFFFFFFFFFFFFFF AND EQ PUSH2 0xF2C JUMPI PUSH1 0x40 MLOAD PUSH32 0x8C379A000000000000000000000000000000000000000000000000000000000 DUP2 MSTORE PUSH1 0x4 ADD PUSH2 0xF23 SWAP1 PUSH2 0x2BAF JUMP JUMPDEST PUSH1 0x40 MLOAD DUP1 SWAP2 SUB SWAP1 REVERT JUMPDEST PUSH2 0xF34 PUSH2 0x1811 JUMP JUMPDEST PUSH2 0xF3C PUSH2 0x1857 JUMP JUMPDEST PUSH0 PUSH2 0xF45 PUSH2 0xAC4 JUMP JUMPDEST PUSH20 0xFFFFFFFFFFFFFFFFFFFFFFFFFFFFFFFFFFFFFFFF AND PUSH4 0x70A08231 ADDRESS PUSH1 0x40 MLOAD DUP3 PUSH4 0xFFFFFFFF AND PUSH1 0xE0 SHL DUP2 MSTORE PUSH1 0x4 ADD PUSH2 0xF7D SWAP2 SWAP1 PUSH2 0x275D JUMP JUMPDEST PUSH1 0x20 PUSH1 0x40 MLOAD DUP1 DUP4 SUB DUP2 DUP7 GAS STATICCALL ISZERO DUP1 ISZERO PUSH2 0xF98 JUMPI RETURNDATASIZE PUSH0 PUSH0 RETURNDATACOPY RETURNDATASIZE PUSH0 REVERT JUMPDEST POP POP POP POP PUSH1 0x40 MLOAD RETURNDATASIZE PUSH1 0x1F NOT PUSH1 0x1F DUP3 ADD AND DUP3 ADD DUP1 PUSH1 0x40 MSTORE POP DUP2 ADD SWAP1 PUSH2 0xFBC SWAP2 SWAP1 PUSH2 0x2881 JUMP JUMPDEST SWAP1 POP PUSH0 DUP2 GT ISZERO PUSH2 0x101A JUMPI PUSH2 0x1019 PUSH1 0x7 PUSH0 SWAP1 SLOAD SWAP1 PUSH2 0x100 EXP SWAP1 DIV PUSH20 0xFFFFFFFFFFFFFFFFFFFFFFFFFFFFFFFFFFFFFFFF AND DUP3 PUSH2 0xFF4 PUSH2 0xAC4 JUMP JUMPDEST PUSH20 0xFFFFFFFFFFFFFFFFFFFFFFFFFFFFFFFFFFFFFFFF AND PUSH2 0x1B4E SWAP1 SWAP3 SWAP2 SWAP1 PUSH4 0xFFFFFFFF AND JUMP JUMPDEST JUMPDEST DUP1 SWAP2 POP POP PUSH2 0x1026 PUSH2 0x197A JUMP JUMPDEST SWAP1 JUMP JUMPDEST PUSH0 PUSH1 0x5 PUSH0 SWAP1 SLOAD SWAP1 PUSH2 0x100 EXP SWAP1 DIV PUSH20 0xFFFFFFFFFFFFFFFFFFFFFFFFFFFFFFFFFFFFFFFF AND SWAP1 POP SWAP1 JUMP JUMPDEST PUSH1 0xB SLOAD DUP2 JUMP JUMPDEST PUSH0 PUSH0 PUSH2 0x1062 DUP4 PUSH2 0x13A1 JUMP JUMPDEST SWAP1 POP DUP1 DUP5 GT ISZERO PUSH2 0x10AD JUMPI DUP3 DUP5 DUP3 PUSH1 0x40 MLOAD PUSH32 0x284FF66700000000000000000000000000000000000000000000000000000000 DUP2 MSTORE PUSH1 0x4 ADD PUSH2 0x10A4 SWAP4 SWAP3 SWAP2 SWAP1 PUSH2 0x2C82 JUMP JUMPDEST PUSH1 0x40 MLOAD DUP1 SWAP2 SUB SWAP1 REVERT JUMPDEST PUSH0 PUSH2 0x10B7 DUP6 PUSH2 0x1189 JUMP JUMPDEST SWAP1 POP PUSH2 0x10CC PUSH2 0x10C4 PUSH2 0x1616 JUMP JUMPDEST DUP6 DUP4 DUP9 PUSH2 0x1BCD JUMP JUMPDEST DUP1 SWAP3 POP POP POP SWAP3 SWAP2 POP POP JUMP JUMPDEST PUSH1 0x60 PUSH1 0x4 DUP1 SLOAD PUSH2 0x10E6 SWAP1 PUSH2 0x2ADB JUMP JUMPDEST DUP1 PUSH1 0x1F ADD PUSH1 0x20 DUP1 SWAP2 DIV MUL PUSH1 0x20 ADD PUSH1 0x40 MLOAD SWAP1 DUP2 ADD PUSH1 0x40 MSTORE DUP1 SWAP3 SWAP2 SWAP1 DUP2 DUP2 MSTORE PUSH1 0x20 ADD DUP3 DUP1 SLOAD PUSH2 0x1112 SWAP1 PUSH2 0x2ADB JUMP JUMPDEST DUP1 ISZERO PUSH2 0x115D JUMPI DUP1 PUSH1 0x1F LT PUSH2 0x1134 JUMPI PUSH2 0x100 DUP1 DUP4 SLOAD DIV MUL DUP4 MSTORE SWAP2 PUSH1 0x20 ADD SWAP2 PUSH2 0x115D JUMP JUMPDEST DUP3 ADD SWAP2 SWAP1 PUSH0 MSTORE PUSH1 0x20 PUSH0 KECCAK256 SWAP1 JUMPDEST DUP2 SLOAD DUP2 MSTORE SWAP1 PUSH1 0x1 ADD SWAP1 PUSH1 0x20 ADD DUP1 DUP4 GT PUSH2 0x1140 JUMPI DUP3 SWAP1 SUB PUSH1 0x1F AND DUP3 ADD SWAP2 JUMPDEST POP POP POP POP POP SWAP1 POP SWAP1 JUMP JUMPDEST PUSH0 PUSH0 PUSH2 0x1171 PUSH2 0x1616 JUMP JUMPDEST SWAP1 POP PUSH2 0x117E DUP2 DUP6 DUP6 PUSH2 0x171A JUMP JUMPDEST PUSH1 0x1 SWAP2 POP POP SWAP3 SWAP2 POP POP JUMP JUMPDEST PUSH0 PUSH2 0x1195 DUP3 PUSH1 0x1 PUSH2 0x15BE JUMP JUMPDEST SWAP1 POP SWAP2 SWAP1 POP JUMP JUMPDEST PUSH0 PUSH1 0x7 PUSH0 SWAP1 SLOAD SWAP1 PUSH2 0x100 EXP SWAP1 DIV PUSH20 0xFFFFFFFFFFFFFFFFFFFFFFFFFFFFFFFFFFFFFFFF AND PUSH20 0xFFFFFFFFFFFFFFFFFFFFFFFFFFFFFFFFFFFFFFFF AND CALLER PUSH20 0xFFFFFFFFFFFFFFFFFFFFFFFFFFFFFFFFFFFFFFFF AND EQ PUSH2 0x122C JUMPI PUSH1 0x40 MLOAD PUSH32 0x8C379A000000000000000000000000000000000000000000000000000000000 DUP2 MSTORE PUSH1 0x4 ADD PUSH2 0x1223 SWAP1 PUSH2 0x2BAF JUMP JUMPDEST PUSH1 0x40 MLOAD DUP1 SWAP2 SUB SWAP1 REVERT JUMPDEST PUSH2 0x1234 PUSH2 0x1811 JUMP JUMPDEST PUSH2 0x123C PUSH2 0x1857 JUMP JUMPDEST PUSH0 PUSH2 0x1245 PUSH2 0xAC4 JUMP JUMPDEST PUSH20 0xFFFFFFFFFFFFFFFFFFFFFFFFFFFFFFFFFFFFFFFF AND PUSH4 0x70A08231 ADDRESS PUSH1 0x40 MLOAD DUP3 PUSH4 0xFFFFFFFF AND PUSH1 0xE0 SHL DUP2 MSTORE PUSH1 0x4 ADD PUSH2 0x127D SWAP2 SWAP1 PUSH2 0x275D JUMP JUMPDEST PUSH1 0x20 PUSH1 0x40 MLOAD DUP1 DUP4 SUB DUP2 DUP7 GAS STATICCALL ISZERO DUP1 ISZERO PUSH2 0x1298 JUMPI RETURNDATASIZE PUSH0 PUSH0 RETURNDATACOPY RETURNDATASIZE PUSH0 REVERT JUMPDEST POP POP POP POP PUSH1 0x40 MLOAD RETURNDATASIZE PUSH1 0x1F NOT PUSH1 0x1F DUP3 ADD AND DUP3 ADD DUP1 PUSH1 0x40 MSTORE POP DUP2 ADD SWAP1 PUSH2 0x12BC SWAP2 SWAP1 PUSH2 0x2881 JUMP JUMPDEST SWAP1 POP PUSH0 DUP2 DUP7 GT PUSH2 0x12CC JUMPI DUP6 PUSH2 0x12CE JUMP JUMPDEST DUP2 JUMPDEST SWAP1 POP PUSH0 DUP2 GT ISZERO PUSH2 0x130B JUMPI PUSH2 0x130A DUP6 DUP3 PUSH2 0x12E5 PUSH2 0xAC4 JUMP JUMPDEST PUSH20 0xFFFFFFFFFFFFFFFFFFFFFFFFFFFFFFFFFFFFFFFF AND PUSH2 0x1B4E SWAP1 SWAP3 SWAP2 SWAP1 PUSH4 0xFFFFFFFF AND JUMP JUMPDEST JUMPDEST DUP1 SWAP3 POP POP POP PUSH2 0x1318 PUSH2 0x197A JUMP JUMPDEST SWAP4 SWAP3 POP POP POP JUMP JUMPDEST PUSH0 PUSH0 PUSH2 0x132A DUP4 PUSH2 0x13F6 JUMP JUMPDEST SWAP1 POP DUP1 DUP6 GT ISZERO PUSH2 0x1375 JUMPI DUP3 DUP6 DUP3 PUSH1 0x40 MLOAD PUSH32 0xB94ABEEC00000000000000000000000000000000000000000000000000000000 DUP2 MSTORE PUSH1 0x4 ADD PUSH2 0x136C SWAP4 SWAP3 SWAP2 SWAP1 PUSH2 0x2C82 JUMP JUMPDEST PUSH1 0x40 MLOAD DUP1 SWAP2 SUB SWAP1 REVERT JUMPDEST PUSH0 PUSH2 0x137F DUP7 PUSH2 0xC31 JUMP JUMPDEST SWAP1 POP PUSH2 0x1395 PUSH2 0x138C PUSH2 0x1616 JUMP JUMPDEST DUP7 DUP7 DUP5 DUP11 PUSH2 0x1C57 JUMP JUMPDEST DUP1 SWAP3 POP POP POP SWAP4 SWAP3 POP POP POP JUMP JUMPDEST PUSH0 PUSH32 0xFFFFFFFFFFFFFFFFFFFFFFFFFFFFFFFFFFFFFFFFFFFFFFFFFFFFFFFFFFFFFFFF SWAP1 POP SWAP2 SWAP1 POP JUMP JUMPDEST PUSH0 PUSH2 0x13D5 DUP3 PUSH0 PUSH2 0x162F JUMP JUMPDEST SWAP1 POP SWAP2 SWAP1 POP JUMP JUMPDEST PUSH0 PUSH2 0x13EF PUSH2 0x13E9 DUP4 PUSH2 0xE36 JUMP JUMPDEST PUSH0 PUSH2 0x15BE JUMP JUMPDEST SWAP1 POP SWAP2 SWAP1 POP JUMP JUMPDEST PUSH0 PUSH2 0x1400 DUP3 PUSH2 0xE36 JUMP JUMPDEST SWAP1 POP SWAP2 SWAP1 POP JUMP JUMPDEST PUSH0 PUSH1 0x1 PUSH0 DUP5 PUSH20 0xFFFFFFFFFFFFFFFFFFFFFFFFFFFFFFFFFFFFFFFF AND PUSH20 0xFFFFFFFFFFFFFFFFFFFFFFFFFFFFFFFFFFFFFFFF AND DUP2 MSTORE PUSH1 0x20 ADD SWAP1 DUP2 MSTORE PUSH1 0x20 ADD PUSH0 KECCAK256 PUSH0 DUP4 PUSH20 0xFFFFFFFFFFFFFFFFFFFFFFFFFFFFFFFFFFFFFFFF AND PUSH20 0xFFFFFFFFFFFFFFFFFFFFFFFFFFFFFFFFFFFFFFFF AND DUP2 MSTORE PUSH1 0x20 ADD SWAP1 DUP2 MSTORE PUSH1 0x20 ADD PUSH0 KECCAK256 SLOAD SWAP1 POP SWAP3 SWAP2 POP POP JUMP JUMPDEST PUSH0 PUSH2 0x1494 DUP3 PUSH0 PUSH2 0x162F JUMP JUMPDEST SWAP1 POP SWAP2 SWAP1 POP JUMP JUMPDEST PUSH0 PUSH0 TIMESTAMP PREVRANDAO ADDRESS PUSH1 0x40 MLOAD PUSH1 0x20 ADD PUSH2 0x14B2 SWAP4 SWAP3 SWAP2 SWAP1 PUSH2 0x2A0F JUMP JUMPDEST PUSH1 0x40 MLOAD PUSH1 0x20 DUP2 DUP4 SUB SUB DUP2 MSTORE SWAP1 PUSH1 0x40 MSTORE DUP1 MLOAD SWAP1 PUSH1 0x20 ADD KECCAK256 PUSH0 SHR SWAP1 POP PUSH0 PUSH1 0x5A PUSH1 0x14 DUP4 PUSH2 0x14DC SWAP2 SWAP1 PUSH2 0x2A4B JUMP JUMPDEST PUSH2 0x14E6 SWAP2 SWAP1 PUSH2 0x2A7B JUMP JUMPDEST SWAP1 POP PUSH1 0x64 DUP2 PUSH1 0xA SLOAD PUSH2 0x14F8 SWAP2 SWAP1 PUSH2 0x290C JUMP JUMPDEST PUSH2 0x1502 SWAP2 SWAP1 PUSH2 0x297A JUMP JUMPDEST SWAP3 POP POP POP SWAP1 JUMP JUMPDEST PUSH1 0x8 SLOAD DUP2 JUMP JUMPDEST PUSH2 0x1517 PUSH2 0x1984 JUMP JUMPDEST PUSH0 PUSH20 0xFFFFFFFFFFFFFFFFFFFFFFFFFFFFFFFFFFFFFFFF AND DUP2 PUSH20 0xFFFFFFFFFFFFFFFFFFFFFFFFFFFFFFFFFFFFFFFF AND SUB PUSH2 0x1587 JUMPI PUSH0 PUSH1 0x40 MLOAD PUSH32 0x1E4FBDF700000000000000000000000000000000000000000000000000000000 DUP2 MSTORE PUSH1 0x4 ADD PUSH2 0x157E SWAP2 SWAP1 PUSH2 0x275D JUMP JUMPDEST PUSH1 0x40 MLOAD DUP1 SWAP2 SUB SWAP1 REVERT JUMPDEST PUSH2 0x1590 DUP2 PUSH2 0x1A8B JUMP JUMPDEST POP JUMP JUMPDEST PUSH1 0x7 PUSH0 SWAP1 SLOAD SWAP1 PUSH2 0x100 EXP SWAP1 DIV PUSH20 0xFFFFFFFFFFFFFFFFFFFFFFFFFFFFFFFFFFFFFFFF AND DUP2 JUMP JUMPDEST PUSH1 0xC SLOAD DUP2 JUMP JUMPDEST PUSH0 PUSH2 0x160E PUSH1 0x1 PUSH2 0x15CC PUSH2 0x80F JUMP JUMPDEST PUSH2 0x15D6 SWAP2 SWAP1 PUSH2 0x2A7B JUMP JUMPDEST PUSH2 0x15DE PUSH2 0x180A JUMP JUMPDEST PUSH1 0xA PUSH2 0x15EA SWAP2 SWAP1 PUSH2 0x2DE6 JUMP JUMPDEST PUSH2 0x15F2 PUSH2 0xA48 JUMP JUMPDEST PUSH2 0x15FC SWAP2 SWAP1 PUSH2 0x2A7B JUMP JUMPDEST DUP5 DUP7 PUSH2 0x1D37 SWAP1 SWAP4 SWAP3 SWAP2 SWAP1 PUSH4 0xFFFFFFFF AND JUMP JUMPDEST SWAP1 POP SWAP3 SWAP2 POP POP JUMP JUMPDEST PUSH0 CALLER SWAP1 POP SWAP1 JUMP JUMPDEST PUSH2 0x162A DUP4 DUP4 DUP4 PUSH1 0x1 PUSH2 0x1D84 JUMP JUMPDEST POP POP POP JUMP JUMPDEST PUSH0 PUSH2 0x167F PUSH2 0x163B PUSH2 0x180A JUMP JUMPDEST PUSH1 0xA PUSH2 0x1647 SWAP2 SWAP1 PUSH2 0x2DE6 JUMP JUMPDEST PUSH2 0x164F PUSH2 0xA48 JUMP JUMPDEST PUSH2 0x1659 SWAP2 SWAP1 PUSH2 0x2A7B JUMP JUMPDEST PUSH1 0x1 PUSH2 0x1663 PUSH2 0x80F JUMP JUMPDEST PUSH2 0x166D SWAP2 SWAP1 PUSH2 0x2A7B JUMP JUMPDEST DUP5 DUP7 PUSH2 0x1D37 SWAP1 SWAP4 SWAP3 SWAP2 SWAP1 PUSH4 0xFFFFFFFF AND JUMP JUMPDEST SWAP1 POP SWAP3 SWAP2 POP POP JUMP JUMPDEST PUSH0 PUSH2 0x1692 DUP5 DUP5 PUSH2 0x1407 JUMP JUMPDEST SWAP1 POP PUSH32 0xFFFFFFFFFFFFFFFFFFFFFFFFFFFFFFFFFFFFFFFFFFFFFFFFFFFFFFFFFFFFFFFF DUP2 LT ISZERO PUSH2 0x1714 JUMPI DUP2 DUP2 LT ISZERO PUSH2 0x1705 JUMPI DUP3 DUP2 DUP4 PUSH1 0x40 MLOAD PUSH32 0xFB8F41B200000000000000000000000000000000000000000000000000000000 DUP2 MSTORE PUSH1 0x4 ADD PUSH2 0x16FC SWAP4 SWAP3 SWAP2 SWAP1 PUSH2 0x2C82 JUMP JUMPDEST PUSH1 0x40 MLOAD DUP1 SWAP2 SUB SWAP1 REVERT JUMPDEST PUSH2 0x1713 DUP5 DUP5 DUP5 DUP5 SUB PUSH0 PUSH2 0x1D84 JUMP JUMPDEST JUMPDEST POP POP POP POP JUMP JUMPDEST PUSH0 PUSH20 0xFFFFFFFFFFFFFFFFFFFFFFFFFFFFFFFFFFFFFFFF AND DUP4 PUSH20 0xFFFFFFFFFFFFFFFFFFFFFFFFFFFFFFFFFFFFFFFF AND SUB PUSH2 0x178A JUMPI PUSH0 PUSH1 0x40 MLOAD PUSH32 0x96C6FD1E00000000000000000000000000000000000000000000000000000000 DUP2 MSTORE PUSH1 0x4 ADD PUSH2 0x1781 SWAP2 SWAP1 PUSH2 0x275D JUMP JUMPDEST PUSH1 0x40 MLOAD DUP1 SWAP2 SUB SWAP1 REVERT JUMPDEST PUSH0 PUSH20 0xFFFFFFFFFFFFFFFFFFFFFFFFFFFFFFFFFFFFFFFF AND DUP3 PUSH20 0xFFFFFFFFFFFFFFFFFFFFFFFFFFFFFFFFFFFFFFFF AND SUB PUSH2 0x17FA JUMPI PUSH0 PUSH1 0x40 MLOAD PUSH32 0xEC442F0500000000000000000000000000000000000000000000000000000000 DUP2 MSTORE PUSH1 0x4 ADD PUSH2 0x17F1 SWAP2 SWAP1 PUSH2 0x275D JUMP JUMPDEST PUSH1 0x40 MLOAD DUP1 SWAP2 SUB SWAP1 REVERT JUMPDEST PUSH2 0x1805 DUP4 DUP4 DUP4 PUSH2 0x1F53 JUMP JUMPDEST POP POP POP JUMP JUMPDEST PUSH0 PUSH0 SWAP1 POP SWAP1 JUMP JUMPDEST PUSH1 0x2 PUSH1 0x6 SLOAD SUB PUSH2 0x184D JUMPI PUSH1 0x40 MLOAD PUSH32 0x3EE5AEB500000000000000000000000000000000000000000000000000000000 DUP2 MSTORE PUSH1 0x4 ADD PUSH1 0x40 MLOAD DUP1 SWAP2 SUB SWAP1 REVERT JUMPDEST PUSH1 0x2 PUSH1 0x6 DUP2 SWAP1 SSTORE POP JUMP JUMPDEST PUSH0 PUSH1 0xB SLOAD TIMESTAMP PUSH2 0x1866 SWAP2 SWAP1 PUSH2 0x28D9 JUMP JUMPDEST SWAP1 POP PUSH0 DUP2 GT DUP1 ISZERO PUSH2 0x187D JUMPI POP PUSH0 PUSH2 0x187B PUSH2 0x80F JUMP JUMPDEST GT JUMPDEST ISZERO PUSH2 0x1977 JUMPI PUSH0 PUSH5 0x496CEBB800 DUP3 PUSH1 0xA SLOAD PUSH2 0x1895 PUSH2 0x80F JUMP JUMPDEST PUSH2 0x189F SWAP2 SWAP1 PUSH2 0x290C JUMP JUMPDEST PUSH2 0x18A9 SWAP2 SWAP1 PUSH2 0x290C JUMP JUMPDEST PUSH2 0x18B3 SWAP2 SWAP1 PUSH2 0x297A JUMP JUMPDEST SWAP1 POP PUSH0 TIMESTAMP PREVRANDAO ADDRESS PUSH1 0x40 MLOAD PUSH1 0x20 ADD PUSH2 0x18CB SWAP4 SWAP3 SWAP2 SWAP1 PUSH2 0x2A0F JUMP JUMPDEST PUSH1 0x40 MLOAD PUSH1 0x20 DUP2 DUP4 SUB SUB DUP2 MSTORE SWAP1 PUSH1 0x40 MSTORE DUP1 MLOAD SWAP1 PUSH1 0x20 ADD KECCAK256 PUSH0 SHR SWAP1 POP PUSH0 PUSH1 0x5A PUSH1 0x28 DUP4 PUSH2 0x18F5 SWAP2 SWAP1 PUSH2 0x2A4B JUMP JUMPDEST PUSH2 0x18FF SWAP2 SWAP1 PUSH2 0x2A7B JUMP JUMPDEST SWAP1 POP PUSH0 PUSH1 0x64 DUP3 DUP6 PUSH2 0x1910 SWAP2 SWAP1 PUSH2 0x290C JUMP JUMPDEST PUSH2 0x191A SWAP2 SWAP1 PUSH2 0x297A JUMP JUMPDEST SWAP1 POP DUP1 PUSH1 0xC PUSH0 DUP3 DUP3 SLOAD PUSH2 0x192D SWAP2 SWAP1 PUSH2 0x2A7B JUMP JUMPDEST SWAP3 POP POP DUP2 SWAP1 SSTORE POP TIMESTAMP PUSH1 0xB DUP2 SWAP1 SSTORE POP PUSH32 0xBA940F7E525C0C7E2B83C7FBF8F07B95C7DA51604106BE88403040D914A6979B DUP2 PUSH1 0x40 MLOAD PUSH2 0x196A SWAP2 SWAP1 PUSH2 0x24FD JUMP JUMPDEST PUSH1 0x40 MLOAD DUP1 SWAP2 SUB SWAP1 LOG1 POP POP POP POP JUMPDEST POP JUMP JUMPDEST PUSH1 0x1 PUSH1 0x6 DUP2 SWAP1 SSTORE POP JUMP JUMPDEST PUSH2 0x198C PUSH2 0x1616 JUMP JUMPDEST PUSH20 0xFFFFFFFFFFFFFFFFFFFFFFFFFFFFFFFFFFFFFFFF AND PUSH2 0x19AA PUSH2 0x1029 JUMP JUMPDEST PUSH20 0xFFFFFFFFFFFFFFFFFFFFFFFFFFFFFFFFFFFFFFFF AND EQ PUSH2 0x1A09 JUMPI PUSH2 0x19CD PUSH2 0x1616 JUMP JUMPDEST PUSH1 0x40 MLOAD PUSH32 0x118CDAA700000000000000000000000000000000000000000000000000000000 DUP2 MSTORE PUSH1 0x4 ADD PUSH2 0x1A00 SWAP2 SWAP1 PUSH2 0x275D JUMP JUMPDEST PUSH1 0x40 MLOAD DUP1 SWAP2 SUB SWAP1 REVERT JUMPDEST JUMP JUMPDEST PUSH0 PUSH0 PUSH2 0x1A16 DUP4 PUSH2 0xAEB JUMP JUMPDEST SWAP1 POP DUP1 DUP5 GT ISZERO PUSH2 0x1A61 JUMPI DUP3 DUP5 DUP3 PUSH1 0x40 MLOAD PUSH32 0x79012FB200000000000000000000000000000000000000000000000000000000 DUP2 MSTORE PUSH1 0x4 ADD PUSH2 0x1A58 SWAP4 SWAP3 SWAP2 SWAP1 PUSH2 0x2C82 JUMP JUMPDEST PUSH1 0x40 MLOAD DUP1 SWAP2 SUB SWAP1 REVERT JUMPDEST PUSH0 PUSH2 0x1A6B DUP6 PUSH2 0x1489 JUMP JUMPDEST SWAP1 POP PUSH2 0x1A80 PUSH2 0x1A78 PUSH2 0x1616 JUMP JUMPDEST DUP6 DUP8 DUP5 PUSH2 0x1BCD JUMP JUMPDEST DUP1 SWAP3 POP POP POP SWAP3 SWAP2 POP POP JUMP JUMPDEST PUSH0 PUSH1 0x5 PUSH0 SWAP1 SLOAD SWAP1 PUSH2 0x100 EXP SWAP1 DIV PUSH20 0xFFFFFFFFFFFFFFFFFFFFFFFFFFFFFFFFFFFFFFFF AND SWAP1 POP DUP2 PUSH1 0x5 PUSH0 PUSH2 0x100 EXP DUP2 SLOAD DUP2 PUSH20 0xFFFFFFFFFFFFFFFFFFFFFFFFFFFFFFFFFFFFFFFF MUL NOT AND SWAP1 DUP4 PUSH20 0xFFFFFFFFFFFFFFFFFFFFFFFFFFFFFFFFFFFFFFFF AND MUL OR SWAP1 SSTORE POP DUP2 PUSH20 0xFFFFFFFFFFFFFFFFFFFFFFFFFFFFFFFFFFFFFFFF AND DUP2 PUSH20 0xFFFFFFFFFFFFFFFFFFFFFFFFFFFFFFFFFFFFFFFF AND PUSH32 0x8BE0079C531659141344CD1FD0A4F28419497F9722A3DAAFE3B4186F6B6457E0 PUSH1 0x40 MLOAD PUSH1 0x40 MLOAD DUP1 SWAP2 SUB SWAP1 LOG3 POP POP JUMP JUMPDEST PUSH2 0x1BC8 DUP4 DUP5 PUSH20 0xFFFFFFFFFFFFFFFFFFFFFFFFFFFFFFFFFFFFFFFF AND PUSH4 0xA9059CBB DUP6 DUP6 PUSH1 0x40 MLOAD PUSH1 0x24 ADD PUSH2 0x1B81 SWAP3 SWAP2 SWAP1 PUSH2 0x2E30 JUMP JUMPDEST PUSH1 0x40 MLOAD PUSH1 0x20 DUP2 DUP4 SUB SUB DUP2 MSTORE SWAP1 PUSH1 0x40 MSTORE SWAP2 POP PUSH1 0xE0 SHL PUSH1 0x20 DUP3 ADD DUP1 MLOAD PUSH28 0xFFFFFFFFFFFFFFFFFFFFFFFFFFFFFFFFFFFFFFFFFFFFFFFFFFFFFFFF DUP4 DUP2 DUP4 AND OR DUP4 MSTORE POP POP POP POP PUSH2 0x216C JUMP JUMPDEST POP POP POP JUMP JUMPDEST PUSH2 0x1BE0 PUSH2 0x1BD8 PUSH2 0xAC4 JUMP JUMPDEST DUP6 ADDRESS DUP6 PUSH2 0x2207 JUMP JUMPDEST PUSH2 0x1BEA DUP4 DUP3 PUSH2 0x2289 JUMP JUMPDEST DUP3 PUSH20 0xFFFFFFFFFFFFFFFFFFFFFFFFFFFFFFFFFFFFFFFF AND DUP5 PUSH20 0xFFFFFFFFFFFFFFFFFFFFFFFFFFFFFFFFFFFFFFFF AND PUSH32 0xDCBC1C05240F31FF3AD067EF1EE35CE4997762752E3A095284754544F4C709D7 DUP5 DUP5 PUSH1 0x40 MLOAD PUSH2 0x1C49 SWAP3 SWAP2 SWAP1 PUSH2 0x2BCD JUMP JUMPDEST PUSH1 0x40 MLOAD DUP1 SWAP2 SUB SWAP1 LOG3 POP POP POP POP JUMP JUMPDEST DUP3 PUSH20 0xFFFFFFFFFFFFFFFFFFFFFFFFFFFFFFFFFFFFFFFF AND DUP6 PUSH20 0xFFFFFFFFFFFFFFFFFFFFFFFFFFFFFFFFFFFFFFFF AND EQ PUSH2 0x1C96 JUMPI PUSH2 0x1C95 DUP4 DUP7 DUP4 PUSH2 0x1687 JUMP JUMPDEST JUMPDEST PUSH2 0x1CA0 DUP4 DUP3 PUSH2 0x2308 JUMP JUMPDEST PUSH2 0x1CB2 PUSH2 0x1CAB PUSH2 0xAC4 JUMP JUMPDEST DUP6 DUP5 PUSH2 0x1B4E JUMP JUMPDEST DUP3 PUSH20 0xFFFFFFFFFFFFFFFFFFFFFFFFFFFFFFFFFFFFFFFF AND DUP5 PUSH20 0xFFFFFFFFFFFFFFFFFFFFFFFFFFFFFFFFFFFFFFFF AND DUP7 PUSH20 0xFFFFFFFFFFFFFFFFFFFFFFFFFFFFFFFFFFFFFFFF AND PUSH32 0xFBDE797D201C681B91056529119E0B02407C7BB96A4A2C75C01FC9667232C8DB DUP6 DUP6 PUSH1 0x40 MLOAD PUSH2 0x1D28 SWAP3 SWAP2 SWAP1 PUSH2 0x2BCD JUMP JUMPDEST PUSH1 0x40 MLOAD DUP1 SWAP2 SUB SWAP1 LOG4 POP POP POP POP POP JUMP JUMPDEST PUSH0 PUSH2 0x1D65 PUSH2 0x1D44 DUP4 PUSH2 0x2387 JUMP JUMPDEST DUP1 ISZERO PUSH2 0x1D60 JUMPI POP PUSH0 DUP5 DUP1 PUSH2 0x1D5B JUMPI PUSH2 0x1D5A PUSH2 0x294D JUMP JUMPDEST JUMPDEST DUP7 DUP9 MULMOD GT JUMPDEST PUSH2 0x23B4 JUMP JUMPDEST PUSH2 0x1D70 DUP7 DUP7 DUP7 PUSH2 0x23BF JUMP JUMPDEST PUSH2 0x1D7A SWAP2 SWAP1 PUSH2 0x2A7B JUMP JUMPDEST SWAP1 POP SWAP5 SWAP4 POP POP POP POP JUMP JUMPDEST PUSH0 PUSH20 0xFFFFFFFFFFFFFFFFFFFFFFFFFFFFFFFFFFFFFFFF AND DUP5 PUSH20 0xFFFFFFFFFFFFFFFFFFFFFFFFFFFFFFFFFFFFFFFF AND SUB PUSH2 0x1DF4 JUMPI PUSH0 PUSH1 0x40 MLOAD PUSH32 0xE602DF0500000000000000000000000000000000000000000000000000000000 DUP2 MSTORE PUSH1 0x4 ADD PUSH2 0x1DEB SWAP2 SWAP1 PUSH2 0x275D JUMP JUMPDEST PUSH1 0x40 MLOAD DUP1 SWAP2 SUB SWAP1 REVERT JUMPDEST PUSH0 PUSH20 0xFFFFFFFFFFFFFFFFFFFFFFFFFFFFFFFFFFFFFFFF AND DUP4 PUSH20 0xFFFFFFFFFFFFFFFFFFFFFFFFFFFFFFFFFFFFFFFF AND SUB PUSH2 0x1E64 JUMPI PUSH0 PUSH1 0x40 MLOAD PUSH32 0x94280D6200000000000000000000000000000000000000000000000000000000 DUP2 MSTORE PUSH1 0x4 ADD PUSH2 0x1E5B SWAP2 SWAP1 PUSH2 0x275D JUMP JUMPDEST PUSH1 0x40 MLOAD DUP1 SWAP2 SUB SWAP1 REVERT JUMPDEST DUP2 PUSH1 0x1 PUSH0 DUP7 PUSH20 0xFFFFFFFFFFFFFFFFFFFFFFFFFFFFFFFFFFFFFFFF AND PUSH20 0xFFFFFFFFFFFFFFFFFFFFFFFFFFFFFFFFFFFFFFFF AND DUP2 MSTORE PUSH1 0x20 ADD SWAP1 DUP2 MSTORE PUSH1 0x20 ADD PUSH0 KECCAK256 PUSH0 DUP6 PUSH20 0xFFFFFFFFFFFFFFFFFFFFFFFFFFFFFFFFFFFFFFFF AND PUSH20 0xFFFFFFFFFFFFFFFFFFFFFFFFFFFFFFFFFFFFFFFF AND DUP2 MSTORE PUSH1 0x20 ADD SWAP1 DUP2 MSTORE PUSH1 0x20 ADD PUSH0 KECCAK256 DUP2 SWAP1 SSTORE POP DUP1 ISZERO PUSH2 0x1F4D JUMPI DUP3 PUSH20 0xFFFFFFFFFFFFFFFFFFFFFFFFFFFFFFFFFFFFFFFF AND DUP5 PUSH20 0xFFFFFFFFFFFFFFFFFFFFFFFFFFFFFFFFFFFFFFFF AND PUSH32 0x8C5BE1E5EBEC7D5BD14F71427D1E84F3DD0314C0F7B2291E5B200AC8C7C3B925 DUP5 PUSH1 0x40 MLOAD PUSH2 0x1F44 SWAP2 SWAP1 PUSH2 0x24FD JUMP JUMPDEST PUSH1 0x40 MLOAD DUP1 SWAP2 SUB SWAP1 LOG3 JUMPDEST POP POP POP POP JUMP JUMPDEST PUSH0 PUSH20 0xFFFFFFFFFFFFFFFFFFFFFFFFFFFFFFFFFFFFFFFF AND DUP4 PUSH20 0xFFFFFFFFFFFFFFFFFFFFFFFFFFFFFFFFFFFFFFFF AND SUB PUSH2 0x1FA3 JUMPI DUP1 PUSH1 0x2 PUSH0 DUP3 DUP3 SLOAD PUSH2 0x1F97 SWAP2 SWAP1 PUSH2 0x2A7B JUMP JUMPDEST SWAP3 POP POP DUP2 SWAP1 SSTORE POP PUSH2 0x2071 JUMP JUMPDEST PUSH0 PUSH0 PUSH0 DUP6 PUSH20 0xFFFFFFFFFFFFFFFFFFFFFFFFFFFFFFFFFFFFFFFF AND PUSH20 0xFFFFFFFFFFFFFFFFFFFFFFFFFFFFFFFFFFFFFFFF AND DUP2 MSTORE PUSH1 0x20 ADD SWAP1 DUP2 MSTORE PUSH1 0x20 ADD PUSH0 KECCAK256 SLOAD SWAP1 POP DUP2 DUP2 LT ISZERO PUSH2 0x202C JUMPI DUP4 DUP2 DUP4 PUSH1 0x40 MLOAD PUSH32 0xE450D38C00000000000000000000000000000000000000000000000000000000 DUP2 MSTORE PUSH1 0x4 ADD PUSH2 0x2023 SWAP4 SWAP3 SWAP2 SWAP1 PUSH2 0x2C82 JUMP JUMPDEST PUSH1 0x40 MLOAD DUP1 SWAP2 SUB SWAP1 REVERT JUMPDEST DUP2 DUP2 SUB PUSH0 PUSH0 DUP7 PUSH20 0xFFFFFFFFFFFFFFFFFFFFFFFFFFFFFFFFFFFFFFFF AND PUSH20 0xFFFFFFFFFFFFFFFFFFFFFFFFFFFFFFFFFFFFFFFF AND DUP2 MSTORE PUSH1 0x20 ADD SWAP1 DUP2 MSTORE PUSH1 0x20 ADD PUSH0 KECCAK256 DUP2 SWAP1 SSTORE POP POP JUMPDEST PUSH0 PUSH20 0xFFFFFFFFFFFFFFFFFFFFFFFFFFFFFFFFFFFFFFFF AND DUP3 PUSH20 0xFFFFFFFFFFFFFFFFFFFFFFFFFFFFFFFFFFFFFFFF AND SUB PUSH2 0x20B8 JUMPI DUP1 PUSH1 0x2 PUSH0 DUP3 DUP3 SLOAD SUB SWAP3 POP POP DUP2 SWAP1 SSTORE POP PUSH2 0x2102 JUMP JUMPDEST DUP1 PUSH0 PUSH0 DUP5 PUSH20 0xFFFFFFFFFFFFFFFFFFFFFFFFFFFFFFFFFFFFFFFF AND PUSH20 0xFFFFFFFFFFFFFFFFFFFFFFFFFFFFFFFFFFFFFFFF AND DUP2 MSTORE PUSH1 0x20 ADD SWAP1 DUP2 MSTORE PUSH1 0x20 ADD PUSH0 KECCAK256 PUSH0 DUP3 DUP3 SLOAD ADD SWAP3 POP POP DUP2 SWAP1 SSTORE POP JUMPDEST DUP2 PUSH20 0xFFFFFFFFFFFFFFFFFFFFFFFFFFFFFFFFFFFFFFFF AND DUP4 PUSH20 0xFFFFFFFFFFFFFFFFFFFFFFFFFFFFFFFFFFFFFFFF AND PUSH32 0xDDF252AD1BE2C89B69C2B068FC378DAA952BA7F163C4A11628F55A4DF523B3EF DUP4 PUSH1 0x40 MLOAD PUSH2 0x215F SWAP2 SWAP1 PUSH2 0x24FD JUMP JUMPDEST PUSH1 0x40 MLOAD DUP1 SWAP2 SUB SWAP1 LOG3 POP POP POP JUMP JUMPDEST PUSH0 PUSH0 PUSH1 0x20 PUSH0 DUP5 MLOAD PUSH1 0x20 DUP7 ADD PUSH0 DUP9 GAS CALL DUP1 PUSH2 0x218B JUMPI PUSH1 0x40 MLOAD RETURNDATASIZE PUSH0 DUP3 RETURNDATACOPY RETURNDATASIZE DUP2 REVERT JUMPDEST RETURNDATASIZE SWAP3 POP PUSH0 MLOAD SWAP2 POP POP PUSH0 DUP3 EQ PUSH2 0x21A4 JUMPI PUSH1 0x1 DUP2 EQ ISZERO PUSH2 0x21BF JUMP JUMPDEST PUSH0 DUP5 PUSH20 0xFFFFFFFFFFFFFFFFFFFFFFFFFFFFFFFFFFFFFFFF AND EXTCODESIZE EQ JUMPDEST ISZERO PUSH2 0x2201 JUMPI DUP4 PUSH1 0x40 MLOAD PUSH32 0x5274AFE700000000000000000000000000000000000000000000000000000000 DUP2 MSTORE PUSH1 0x4 ADD PUSH2 0x21F8 SWAP2 SWAP1 PUSH2 0x275D JUMP JUMPDEST PUSH1 0x40 MLOAD DUP1 SWAP2 SUB SWAP1 REVERT JUMPDEST POP POP POP POP JUMP JUMPDEST PUSH2 0x2283 DUP5 DUP6 PUSH20 0xFFFFFFFFFFFFFFFFFFFFFFFFFFFFFFFFFFFFFFFF AND PUSH4 0x23B872DD DUP7 DUP7 DUP7 PUSH1 0x40 MLOAD PUSH1 0x24 ADD PUSH2 0x223C SWAP4 SWAP3 SWAP2 SWAP1 PUSH2 0x2E57 JUMP JUMPDEST PUSH1 0x40 MLOAD PUSH1 0x20 DUP2 DUP4 SUB SUB DUP2 MSTORE SWAP1 PUSH1 0x40 MSTORE SWAP2 POP PUSH1 0xE0 SHL PUSH1 0x20 DUP3 ADD DUP1 MLOAD PUSH28 0xFFFFFFFFFFFFFFFFFFFFFFFFFFFFFFFFFFFFFFFFFFFFFFFFFFFFFFFF DUP4 DUP2 DUP4 AND OR DUP4 MSTORE POP POP POP POP PUSH2 0x216C JUMP JUMPDEST POP POP POP POP JUMP JUMPDEST PUSH0 PUSH20 0xFFFFFFFFFFFFFFFFFFFFFFFFFFFFFFFFFFFFFFFF AND DUP3 PUSH20 0xFFFFFFFFFFFFFFFFFFFFFFFFFFFFFFFFFFFFFFFF AND SUB PUSH2 0x22F9 JUMPI PUSH0 PUSH1 0x40 MLOAD PUSH32 0xEC442F0500000000000000000000000000000000000000000000000000000000 DUP2 MSTORE PUSH1 0x4 ADD PUSH2 0x22F0 SWAP2 SWAP1 PUSH2 0x275D JUMP JUMPDEST PUSH1 0x40 MLOAD DUP1 SWAP2 SUB SWAP1 REVERT JUMPDEST PUSH2 0x2304 PUSH0 DUP4 DUP4 PUSH2 0x1F53 JUMP JUMPDEST POP POP JUMP JUMPDEST PUSH0 PUSH20 0xFFFFFFFFFFFFFFFFFFFFFFFFFFFFFFFFFFFFFFFF AND DUP3 PUSH20 0xFFFFFFFFFFFFFFFFFFFFFFFFFFFFFFFFFFFFFFFF AND SUB PUSH2 0x2378 JUMPI PUSH0 PUSH1 0x40 MLOAD PUSH32 0x96C6FD1E00000000000000000000000000000000000000000000000000000000 DUP2 MSTORE PUSH1 0x4 ADD PUSH2 0x236F SWAP2 SWAP1 PUSH2 0x275D JUMP JUMPDEST PUSH1 0x40 MLOAD DUP1 SWAP2 SUB SWAP1 REVERT JUMPDEST PUSH2 0x2383 DUP3 PUSH0 DUP4 PUSH2 0x1F53 JUMP JUMPDEST POP POP JUMP JUMPDEST PUSH0 PUSH1 0x1 PUSH1 0x2 DUP4 PUSH1 0x3 DUP2 GT ISZERO PUSH2 0x239F JUMPI PUSH2 0x239E PUSH2 0x2E8C JUMP JUMPDEST JUMPDEST PUSH2 0x23A9 SWAP2 SWAP1 PUSH2 0x2EB9 JUMP JUMPDEST PUSH1 0xFF AND EQ SWAP1 POP SWAP2 SWAP1 POP JUMP JUMPDEST PUSH0 DUP2 ISZERO ISZERO SWAP1 POP SWAP2 SWAP1 POP JUMP JUMPDEST PUSH0 PUSH0 PUSH0 PUSH2 0x23CC DUP7 DUP7 PUSH2 0x249E JUMP JUMPDEST SWAP2 POP SWAP2 POP PUSH0 DUP3 SUB PUSH2 0x23F1 JUMPI DUP4 DUP2 DUP2 PUSH2 0x23E7 JUMPI PUSH2 0x23E6 PUSH2 0x294D JUMP JUMPDEST JUMPDEST DIV SWAP3 POP POP POP PUSH2 0x2497 JUMP JUMPDEST DUP2 DUP5 GT PUSH2 0x2410 JUMPI PUSH2 0x240F PUSH2 0x240A PUSH0 DUP7 EQ PUSH1 0x12 PUSH1 0x11 PUSH2 0x24BB JUMP JUMPDEST PUSH2 0x24D4 JUMP JUMPDEST JUMPDEST PUSH0 DUP5 DUP7 DUP9 MULMOD SWAP1 POP DUP2 DUP2 GT DUP4 SUB SWAP3 POP DUP1 DUP3 SUB SWAP2 POP PUSH0 DUP6 PUSH0 SUB DUP7 AND SWAP1 POP DUP1 DUP7 DIV SWAP6 POP DUP1 DUP4 DIV SWAP3 POP PUSH1 0x1 DUP2 DUP3 PUSH0 SUB DIV ADD SWAP1 POP DUP1 DUP5 MUL DUP4 OR SWAP3 POP PUSH0 PUSH1 0x2 DUP8 PUSH1 0x3 MUL XOR SWAP1 POP DUP1 DUP8 MUL PUSH1 0x2 SUB DUP2 MUL SWAP1 POP DUP1 DUP8 MUL PUSH1 0x2 SUB DUP2 MUL SWAP1 POP DUP1 DUP8 MUL PUSH1 0x2 SUB DUP2 MUL SWAP1 POP DUP1 DUP8 MUL PUSH1 0x2 SUB DUP2 MUL SWAP1 POP DUP1 DUP8 MUL PUSH1 0x2 SUB DUP2 MUL SWAP1 POP DUP1 DUP8 MUL PUSH1 0x2 SUB DUP2 MUL SWAP1 POP DUP1 DUP5 MUL SWAP6 POP POP POP POP POP POP JUMPDEST SWAP4 SWAP3 POP POP POP JUMP JUMPDEST PUSH0 PUSH0 PUSH0 NOT DUP4 DUP6 MULMOD DUP4 DUP6 MUL SWAP2 POP DUP2 DUP2 LT DUP3 DUP3 SUB SUB SWAP3 POP POP SWAP3 POP SWAP3 SWAP1 POP JUMP JUMPDEST PUSH0 PUSH2 0x24C5 DUP5 PUSH2 0x23B4 JUMP JUMPDEST DUP3 DUP5 XOR MUL DUP3 XOR SWAP1 POP SWAP4 SWAP3 POP POP POP JUMP JUMPDEST PUSH4 0x4E487B71 PUSH0 MSTORE DUP1 PUSH1 0x20 MSTORE PUSH1 0x24 PUSH1 0x1C REVERT JUMPDEST PUSH0 DUP2 SWAP1 POP SWAP2 SWAP1 POP JUMP JUMPDEST PUSH2 0x24F7 DUP2 PUSH2 0x24E5 JUMP JUMPDEST DUP3 MSTORE POP POP JUMP JUMPDEST PUSH0 PUSH1 0x20 DUP3 ADD SWAP1 POP PUSH2 0x2510 PUSH0 DUP4 ADD DUP5 PUSH2 0x24EE JUMP JUMPDEST SWAP3 SWAP2 POP POP JUMP JUMPDEST PUSH0 DUP2 MLOAD SWAP1 POP SWAP2 SWAP1 POP JUMP JUMPDEST PUSH0 DUP3 DUP3 MSTORE PUSH1 0x20 DUP3 ADD SWAP1 POP SWAP3 SWAP2 POP POP JUMP JUMPDEST DUP3 DUP2 DUP4 MCOPY PUSH0 DUP4 DUP4 ADD MSTORE POP POP POP JUMP JUMPDEST PUSH0 PUSH1 0x1F NOT PUSH1 0x1F DUP4 ADD AND SWAP1 POP SWAP2 SWAP1 POP JUMP JUMPDEST PUSH0 PUSH2 0x2558 DUP3 PUSH2 0x2516 JUMP JUMPDEST PUSH2 0x2562 DUP2 DUP6 PUSH2 0x2520 JUMP JUMPDEST SWAP4 POP PUSH2 0x2572 DUP2 DUP6 PUSH1 0x20 DUP7 ADD PUSH2 0x2530 JUMP JUMPDEST PUSH2 0x257B DUP2 PUSH2 0x253E JUMP JUMPDEST DUP5 ADD SWAP2 POP POP SWAP3 SWAP2 POP POP JUMP JUMPDEST PUSH0 PUSH1 0x20 DUP3 ADD SWAP1 POP DUP2 DUP2 SUB PUSH0 DUP4 ADD MSTORE PUSH2 0x259E DUP2 DUP5 PUSH2 0x254E JUMP JUMPDEST SWAP1 POP SWAP3 SWAP2 POP POP JUMP JUMPDEST PUSH0 PUSH0 REVERT JUMPDEST PUSH2 0x25B3 DUP2 PUSH2 0x24E5 JUMP JUMPDEST DUP2 EQ PUSH2 0x25BD JUMPI PUSH0 PUSH0 REVERT JUMPDEST POP JUMP JUMPDEST PUSH0 DUP2 CALLDATALOAD SWAP1 POP PUSH2 0x25CE DUP2 PUSH2 0x25AA JUMP JUMPDEST SWAP3 SWAP2 POP POP JUMP JUMPDEST PUSH0 PUSH1 0x20 DUP3 DUP5 SUB SLT ISZERO PUSH2 0x25E9 JUMPI PUSH2 0x25E8 PUSH2 0x25A6 JUMP JUMPDEST JUMPDEST PUSH0 PUSH2 0x25F6 DUP5 DUP3 DUP6 ADD PUSH2 0x25C0 JUMP JUMPDEST SWAP2 POP POP SWAP3 SWAP2 POP POP JUMP JUMPDEST PUSH0 PUSH20 0xFFFFFFFFFFFFFFFFFFFFFFFFFFFFFFFFFFFFFFFF DUP3 AND SWAP1 POP SWAP2 SWAP1 POP JUMP JUMPDEST PUSH0 PUSH2 0x2628 DUP3 PUSH2 0x25FF JUMP JUMPDEST SWAP1 POP SWAP2 SWAP1 POP JUMP JUMPDEST PUSH2 0x2638 DUP2 PUSH2 0x261E JUMP JUMPDEST DUP2 EQ PUSH2 0x2642 JUMPI PUSH0 PUSH0 REVERT JUMPDEST POP JUMP JUMPDEST PUSH0 DUP2 CALLDATALOAD SWAP1 POP PUSH2 0x2653 DUP2 PUSH2 0x262F JUMP JUMPDEST SWAP3 SWAP2 POP POP JUMP JUMPDEST PUSH0 PUSH0 PUSH1 0x40 DUP4 DUP6 SUB SLT ISZERO PUSH2 0x266F JUMPI PUSH2 0x266E PUSH2 0x25A6 JUMP JUMPDEST JUMPDEST PUSH0 PUSH2 0x267C DUP6 DUP3 DUP7 ADD PUSH2 0x2645 JUMP JUMPDEST SWAP3 POP POP PUSH1 0x20 PUSH2 0x268D DUP6 DUP3 DUP7 ADD PUSH2 0x25C0 JUMP JUMPDEST SWAP2 POP POP SWAP3 POP SWAP3 SWAP1 POP JUMP JUMPDEST PUSH0 DUP2 ISZERO ISZERO SWAP1 POP SWAP2 SWAP1 POP JUMP JUMPDEST PUSH2 0x26AB DUP2 PUSH2 0x2697 JUMP JUMPDEST DUP3 MSTORE POP POP JUMP JUMPDEST PUSH0 PUSH1 0x20 DUP3 ADD SWAP1 POP PUSH2 0x26C4 PUSH0 DUP4 ADD DUP5 PUSH2 0x26A2 JUMP JUMPDEST SWAP3 SWAP2 POP POP JUMP JUMPDEST PUSH0 PUSH0 PUSH0 PUSH1 0x60 DUP5 DUP7 SUB SLT ISZERO PUSH2 0x26E1 JUMPI PUSH2 0x26E0 PUSH2 0x25A6 JUMP JUMPDEST JUMPDEST PUSH0 PUSH2 0x26EE DUP7 DUP3 DUP8 ADD PUSH2 0x2645 JUMP JUMPDEST SWAP4 POP POP PUSH1 0x20 PUSH2 0x26FF DUP7 DUP3 DUP8 ADD PUSH2 0x2645 JUMP JUMPDEST SWAP3 POP POP PUSH1 0x40 PUSH2 0x2710 DUP7 DUP3 DUP8 ADD PUSH2 0x25C0 JUMP JUMPDEST SWAP2 POP POP SWAP3 POP SWAP3 POP SWAP3 JUMP JUMPDEST PUSH0 PUSH1 0xFF DUP3 AND SWAP1 POP SWAP2 SWAP1 POP JUMP JUMPDEST PUSH2 0x272F DUP2 PUSH2 0x271A JUMP JUMPDEST DUP3 MSTORE POP POP JUMP JUMPDEST PUSH0 PUSH1 0x20 DUP3 ADD SWAP1 POP PUSH2 0x2748 PUSH0 DUP4 ADD DUP5 PUSH2 0x2726 JUMP JUMPDEST SWAP3 SWAP2 POP POP JUMP JUMPDEST PUSH2 0x2757 DUP2 PUSH2 0x261E JUMP JUMPDEST DUP3 MSTORE POP POP JUMP JUMPDEST PUSH0 PUSH1 0x20 DUP3 ADD SWAP1 POP PUSH2 0x2770 PUSH0 DUP4 ADD DUP5 PUSH2 0x274E JUMP JUMPDEST SWAP3 SWAP2 POP POP JUMP JUMPDEST PUSH0 PUSH1 0x20 DUP3 DUP5 SUB SLT ISZERO PUSH2 0x278B JUMPI PUSH2 0x278A PUSH2 0x25A6 JUMP JUMPDEST JUMPDEST PUSH0 PUSH2 0x2798 DUP5 DUP3 DUP6 ADD PUSH2 0x2645 JUMP JUMPDEST SWAP2 POP POP SWAP3 SWAP2 POP POP JUMP JUMPDEST PUSH0 PUSH0 PUSH1 0x40 DUP4 DUP6 SUB SLT ISZERO PUSH2 0x27B7 JUMPI PUSH2 0x27B6 PUSH2 0x25A6 JUMP JUMPDEST JUMPDEST PUSH0 PUSH2 0x27C4 DUP6 DUP3 DUP7 ADD PUSH2 0x25C0 JUMP JUMPDEST SWAP3 POP POP PUSH1 0x20 PUSH2 0x27D5 DUP6 DUP3 DUP7 ADD PUSH2 0x2645 JUMP JUMPDEST SWAP2 POP POP SWAP3 POP SWAP3 SWAP1 POP JUMP JUMPDEST PUSH0 PUSH0 PUSH0 PUSH1 0x60 DUP5 DUP7 SUB SLT ISZERO PUSH2 0x27F6 JUMPI PUSH2 0x27F5 PUSH2 0x25A6 JUMP JUMPDEST JUMPDEST PUSH0 PUSH2 0x2803 DUP7 DUP3 DUP8 ADD PUSH2 0x25C0 JUMP JUMPDEST SWAP4 POP POP PUSH1 0x20 PUSH2 0x2814 DUP7 DUP3 DUP8 ADD PUSH2 0x2645 JUMP JUMPDEST SWAP3 POP POP PUSH1 0x40 PUSH2 0x2825 DUP7 DUP3 DUP8 ADD PUSH2 0x2645 JUMP JUMPDEST SWAP2 POP POP SWAP3 POP SWAP3 POP SWAP3 JUMP JUMPDEST PUSH0 PUSH0 PUSH1 0x40 DUP4 DUP6 SUB SLT ISZERO PUSH2 0x2845 JUMPI PUSH2 0x2844 PUSH2 0x25A6 JUMP JUMPDEST JUMPDEST PUSH0 PUSH2 0x2852 DUP6 DUP3 DUP7 ADD PUSH2 0x2645 JUMP JUMPDEST SWAP3 POP POP PUSH1 0x20 PUSH2 0x2863 DUP6 DUP3 DUP7 ADD PUSH2 0x2645 JUMP JUMPDEST SWAP2 POP POP SWAP3 POP SWAP3 SWAP1 POP JUMP JUMPDEST PUSH0 DUP2 MLOAD SWAP1 POP PUSH2 0x287B DUP2 PUSH2 0x25AA JUMP JUMPDEST SWAP3 SWAP2 POP POP JUMP JUMPDEST PUSH0 PUSH1 0x20 DUP3 DUP5 SUB SLT ISZERO PUSH2 0x2896 JUMPI PUSH2 0x2895 PUSH2 0x25A6 JUMP JUMPDEST JUMPDEST PUSH0 PUSH2 0x28A3 DUP5 DUP3 DUP6 ADD PUSH2 0x286D JUMP JUMPDEST SWAP2 POP POP SWAP3 SWAP2 POP POP JUMP JUMPDEST PUSH32 0x4E487B7100000000000000000000000000000000000000000000000000000000 PUSH0 MSTORE PUSH1 0x11 PUSH1 0x4 MSTORE PUSH1 0x24 PUSH0 REVERT JUMPDEST PUSH0 PUSH2 0x28E3 DUP3 PUSH2 0x24E5 JUMP JUMPDEST SWAP2 POP PUSH2 0x28EE DUP4 PUSH2 0x24E5 JUMP JUMPDEST SWAP3 POP DUP3 DUP3 SUB SWAP1 POP DUP2 DUP2 GT ISZERO PUSH2 0x2906 JUMPI PUSH2 0x2905 PUSH2 0x28AC JUMP JUMPDEST JUMPDEST SWAP3 SWAP2 POP POP JUMP JUMPDEST PUSH0 PUSH2 0x2916 DUP3 PUSH2 0x24E5 JUMP JUMPDEST SWAP2 POP PUSH2 0x2921 DUP4 PUSH2 0x24E5 JUMP JUMPDEST SWAP3 POP DUP3 DUP3 MUL PUSH2 0x292F DUP2 PUSH2 0x24E5 JUMP JUMPDEST SWAP2 POP DUP3 DUP3 DIV DUP5 EQ DUP4 ISZERO OR PUSH2 0x2946 JUMPI PUSH2 0x2945 PUSH2 0x28AC JUMP JUMPDEST JUMPDEST POP SWAP3 SWAP2 POP POP JUMP JUMPDEST PUSH32 0x4E487B7100000000000000000000000000000000000000000000000000000000 PUSH0 MSTORE PUSH1 0x12 PUSH1 0x4 MSTORE PUSH1 0x24 PUSH0 REVERT JUMPDEST PUSH0 PUSH2 0x2984 DUP3 PUSH2 0x24E5 JUMP JUMPDEST SWAP2 POP PUSH2 0x298F DUP4 PUSH2 0x24E5 JUMP JUMPDEST SWAP3 POP DUP3 PUSH2 0x299F JUMPI PUSH2 0x299E PUSH2 0x294D JUMP JUMPDEST JUMPDEST DUP3 DUP3 DIV SWAP1 POP SWAP3 SWAP2 POP POP JUMP JUMPDEST PUSH0 DUP2 SWAP1 POP SWAP2 SWAP1 POP JUMP JUMPDEST PUSH2 0x29C4 PUSH2 0x29BF DUP3 PUSH2 0x24E5 JUMP JUMPDEST PUSH2 0x29AA JUMP JUMPDEST DUP3 MSTORE POP POP JUMP JUMPDEST PUSH0 DUP2 PUSH1 0x60 SHL SWAP1 POP SWAP2 SWAP1 POP JUMP JUMPDEST PUSH0 PUSH2 0x29E0 DUP3 PUSH2 0x29CA JUMP JUMPDEST SWAP1 POP SWAP2 SWAP1 POP JUMP JUMPDEST PUSH0 PUSH2 0x29F1 DUP3 PUSH2 0x29D6 JUMP JUMPDEST SWAP1 POP SWAP2 SWAP1 POP JUMP JUMPDEST PUSH2 0x2A09 PUSH2 0x2A04 DUP3 PUSH2 0x261E JUMP JUMPDEST PUSH2 0x29E7 JUMP JUMPDEST DUP3 MSTORE POP POP JUMP JUMPDEST PUSH0 PUSH2 0x2A1A DUP3 DUP7 PUSH2 0x29B3 JUMP JUMPDEST PUSH1 0x20 DUP3 ADD SWAP2 POP PUSH2 0x2A2A DUP3 DUP6 PUSH2 0x29B3 JUMP JUMPDEST PUSH1 0x20 DUP3 ADD SWAP2 POP PUSH2 0x2A3A DUP3 DUP5 PUSH2 0x29F8 JUMP JUMPDEST PUSH1 0x14 DUP3 ADD SWAP2 POP DUP2 SWAP1 POP SWAP5 SWAP4 POP POP POP POP JUMP JUMPDEST PUSH0 PUSH2 0x2A55 DUP3 PUSH2 0x24E5 JUMP JUMPDEST SWAP2 POP PUSH2 0x2A60 DUP4 PUSH2 0x24E5 JUMP JUMPDEST SWAP3 POP DUP3 PUSH2 0x2A70 JUMPI PUSH2 0x2A6F PUSH2 0x294D JUMP JUMPDEST JUMPDEST DUP3 DUP3 MOD SWAP1 POP SWAP3 SWAP2 POP POP JUMP JUMPDEST PUSH0 PUSH2 0x2A85 DUP3 PUSH2 0x24E5 JUMP JUMPDEST SWAP2 POP PUSH2 0x2A90 DUP4 PUSH2 0x24E5 JUMP JUMPDEST SWAP3 POP DUP3 DUP3 ADD SWAP1 POP DUP1 DUP3 GT ISZERO PUSH2 0x2AA8 JUMPI PUSH2 0x2AA7 PUSH2 0x28AC JUMP JUMPDEST JUMPDEST SWAP3 SWAP2 POP POP JUMP JUMPDEST PUSH32 0x4E487B7100000000000000000000000000000000000000000000000000000000 PUSH0 MSTORE PUSH1 0x22 PUSH1 0x4 MSTORE PUSH1 0x24 PUSH0 REVERT JUMPDEST PUSH0 PUSH1 0x2 DUP3 DIV SWAP1 POP PUSH1 0x1 DUP3 AND DUP1 PUSH2 0x2AF2 JUMPI PUSH1 0x7F DUP3 AND SWAP2 POP JUMPDEST PUSH1 0x20 DUP3 LT DUP2 SUB PUSH2 0x2B05 JUMPI PUSH2 0x2B04 PUSH2 0x2AAE JUMP JUMPDEST JUMPDEST POP SWAP2 SWAP1 POP JUMP JUMPDEST PUSH0 PUSH2 0x2B15 DUP3 PUSH2 0x271A JUMP JUMPDEST SWAP2 POP PUSH2 0x2B20 DUP4 PUSH2 0x271A JUMP JUMPDEST SWAP3 POP DUP3 DUP3 ADD SWAP1 POP PUSH1 0xFF DUP2 GT ISZERO PUSH2 0x2B39 JUMPI PUSH2 0x2B38 PUSH2 0x28AC JUMP JUMPDEST JUMPDEST SWAP3 SWAP2 POP POP JUMP JUMPDEST PUSH32 0x4261736553747261746567793A204F6E6C79207661756C742063616E2063616C PUSH0 DUP3 ADD MSTORE PUSH32 0x6C00000000000000000000000000000000000000000000000000000000000000 PUSH1 0x20 DUP3 ADD MSTORE POP JUMP JUMPDEST PUSH0 PUSH2 0x2B99 PUSH1 0x21 DUP4 PUSH2 0x2520 JUMP JUMPDEST SWAP2 POP PUSH2 0x2BA4 DUP3 PUSH2 0x2B3F JUMP JUMPDEST PUSH1 0x40 DUP3 ADD SWAP1 POP SWAP2 SWAP1 POP JUMP JUMPDEST PUSH0 PUSH1 0x20 DUP3 ADD SWAP1 POP DUP2 DUP2 SUB PUSH0 DUP4 ADD MSTORE PUSH2 0x2BC6 DUP2 PUSH2 0x2B8D JUMP JUMPDEST SWAP1 POP SWAP2 SWAP1 POP JUMP JUMPDEST PUSH0 PUSH1 0x40 DUP3 ADD SWAP1 POP PUSH2 0x2BE0 PUSH0 DUP4 ADD DUP6 PUSH2 0x24EE JUMP JUMPDEST PUSH2 0x2BED PUSH1 0x20 DUP4 ADD DUP5 PUSH2 0x24EE JUMP JUMPDEST SWAP4 SWAP3 POP POP POP JUMP JUMPDEST PUSH32 0x4261736553747261746567793A20496E76616C6964207661756C742061646472 PUSH0 DUP3 ADD MSTORE PUSH32 0x6573730000000000000000000000000000000000000000000000000000000000 PUSH1 0x20 DUP3 ADD MSTORE POP JUMP JUMPDEST PUSH0 PUSH2 0x2C4E PUSH1 0x23 DUP4 PUSH2 0x2520 JUMP JUMPDEST SWAP2 POP PUSH2 0x2C59 DUP3 PUSH2 0x2BF4 JUMP JUMPDEST PUSH1 0x40 DUP3 ADD SWAP1 POP SWAP2 SWAP1 POP JUMP JUMPDEST PUSH0 PUSH1 0x20 DUP3 ADD SWAP1 POP DUP2 DUP2 SUB PUSH0 DUP4 ADD MSTORE PUSH2 0x2C7B DUP2 PUSH2 0x2C42 JUMP JUMPDEST SWAP1 POP SWAP2 SWAP1 POP JUMP JUMPDEST PUSH0 PUSH1 0x60 DUP3 ADD SWAP1 POP PUSH2 0x2C95 PUSH0 DUP4 ADD DUP7 PUSH2 0x274E JUMP JUMPDEST PUSH2 0x2CA2 PUSH1 0x20 DUP4 ADD DUP6 PUSH2 0x24EE JUMP JUMPDEST PUSH2 0x2CAF PUSH1 0x40 DUP4 ADD DUP5 PUSH2 0x24EE JUMP JUMPDEST SWAP5 SWAP4 POP POP POP POP JUMP JUMPDEST PUSH0 DUP2 PUSH1 0x1 SHR SWAP1 POP SWAP2 SWAP1 POP JUMP JUMPDEST PUSH0 PUSH0 DUP3 SWAP2 POP DUP4 SWAP1 POP JUMPDEST PUSH1 0x1 DUP6 GT ISZERO PUSH2 0x2D0C JUMPI DUP1 DUP7 DIV DUP2 GT ISZERO PUSH2 0x2CE8 JUMPI PUSH2 0x2CE7 PUSH2 0x28AC JUMP JUMPDEST JUMPDEST PUSH1 0x1 DUP6 AND ISZERO PUSH2 0x2CF7 JUMPI DUP1 DUP3 MUL SWAP2 POP JUMPDEST DUP1 DUP2 MUL SWAP1 POP PUSH2 0x2D05 DUP6 PUSH2 0x2CB7 JUMP JUMPDEST SWAP5 POP PUSH2 0x2CCC JUMP JUMPDEST SWAP5 POP SWAP5 SWAP3 POP POP POP JUMP JUMPDEST PUSH0 DUP3 PUSH2 0x2D24 JUMPI PUSH1 0x1 SWAP1 POP PUSH2 0x2DDF JUMP JUMPDEST DUP2 PUSH2 0x2D31 JUMPI PUSH0 SWAP1 POP PUSH2 0x2DDF JUMP JUMPDEST DUP2 PUSH1 0x1 DUP2 EQ PUSH2 0x2D47 JUMPI PUSH1 0x2 DUP2 EQ PUSH2 0x2D51 JUMPI PUSH2 0x2D80 JUMP JUMPDEST PUSH1 0x1 SWAP2 POP POP PUSH2 0x2DDF JUMP JUMPDEST PUSH1 0xFF DUP5 GT ISZERO PUSH2 0x2D63 JUMPI PUSH2 0x2D62 PUSH2 0x28AC JUMP JUMPDEST JUMPDEST DUP4 PUSH1 0x2 EXP SWAP2 POP DUP5 DUP3 GT ISZERO PUSH2 0x2D7A JUMPI PUSH2 0x2D79 PUSH2 0x28AC JUMP JUMPDEST JUMPDEST POP PUSH2 0x2DDF JUMP JUMPDEST POP PUSH1 0x20 DUP4 LT PUSH2 0x133 DUP4 LT AND PUSH1 0x4E DUP5 LT PUSH1 0xB DUP5 LT AND OR ISZERO PUSH2 0x2DB5 JUMPI DUP3 DUP3 EXP SWAP1 POP DUP4 DUP2 GT ISZERO PUSH2 0x2DB0 JUMPI PUSH2 0x2DAF PUSH2 0x28AC JUMP JUMPDEST JUMPDEST PUSH2 0x2DDF JUMP JUMPDEST PUSH2 0x2DC2 DUP5 DUP5 DUP5 PUSH1 0x1 PUSH2 0x2CC3 JUMP JUMPDEST SWAP3 POP SWAP1 POP DUP2 DUP5 DIV DUP2 GT ISZERO PUSH2 0x2DD9 JUMPI PUSH2 0x2DD8 PUSH2 0x28AC JUMP JUMPDEST JUMPDEST DUP2 DUP2 MUL SWAP1 POP JUMPDEST SWAP4 SWAP3 POP POP POP JUMP JUMPDEST PUSH0 PUSH2 0x2DF0 DUP3 PUSH2 0x24E5 JUMP JUMPDEST SWAP2 POP PUSH2 0x2DFB DUP4 PUSH2 0x271A JUMP JUMPDEST SWAP3 POP PUSH2 0x2E28 PUSH32 0xFFFFFFFFFFFFFFFFFFFFFFFFFFFFFFFFFFFFFFFFFFFFFFFFFFFFFFFFFFFFFFFF DUP5 DUP5 PUSH2 0x2D15 JUMP JUMPDEST SWAP1 POP SWAP3 SWAP2 POP POP JUMP JUMPDEST PUSH0 PUSH1 0x40 DUP3 ADD SWAP1 POP PUSH2 0x2E43 PUSH0 DUP4 ADD DUP6 PUSH2 0x274E JUMP JUMPDEST PUSH2 0x2E50 PUSH1 0x20 DUP4 ADD DUP5 PUSH2 0x24EE JUMP JUMPDEST SWAP4 SWAP3 POP POP POP JUMP JUMPDEST PUSH0 PUSH1 0x60 DUP3 ADD SWAP1 POP PUSH2 0x2E6A PUSH0 DUP4 ADD DUP7 PUSH2 0x274E JUMP JUMPDEST PUSH2 0x2E77 PUSH1 0x20 DUP4 ADD DUP6 PUSH2 0x274E JUMP JUMPDEST PUSH2 0x2E84 PUSH1 0x40 DUP4 ADD DUP5 PUSH2 0x24EE JUMP JUMPDEST SWAP5 SWAP4 POP POP POP POP JUMP JUMPDEST PUSH32 0x4E487B7100000000000000000000000000000000000000000000000000000000 PUSH0 MSTORE PUSH1 0x21 PUSH1 0x4 MSTORE PUSH1 0x24 PUSH0 REVERT JUMPDEST PUSH0 PUSH2 0x2EC3 DUP3 PUSH2 0x271A JUMP JUMPDEST SWAP2 POP PUSH2 0x2ECE DUP4 PUSH2 0x271A JUMP JUMPDEST SWAP3 POP DUP3 PUSH2 0x2EDE JUMPI PUSH2 0x2EDD PUSH2 0x294D JUMP JUMPDEST JUMPDEST DUP3 DUP3 MOD SWAP1 POP SWAP3 SWAP2 POP POP JUMP INVALID LOG2 PUSH5 0x6970667358 0x22 SLT KECCAK256 0xAE 0xBA 0x23 CODESIZE 0x21 EXTSTATICCALL 0xA8 0x2C GASLIMIT CALLCODE DUP6 DUP2 0xD0 MULMOD PUSH23 0xA9E1CA69159313F8DF510FC9429311E37864736F6C6343 STOP ADDMOD 0x1E STOP CALLER "
		},
		"gasEstimates": {
			"creation": {
				"codeDepositCost": "2412600",
				"executionCost": "infinite",
				"totalCost": "infinite"
			},
			"external": {
				"accumulatedYield()": "2557",
				"allowance(address,address)": "infinite",
				"approve(address,uint256)": "infinite",
				"asset()": "infinite",
				"balanceOf()": "infinite",
				"balanceOf(address)": "2917",
				"baseAPY()": "2515",
				"convertToAssets(uint256)": "infinite",
				"convertToShares(uint256)": "infinite",
				"decimals()": "infinite",
				"deposit(uint256,address)": "infinite",
				"estimatedAPY()": "infinite",
				"harvest()": "infinite",
				"lastHarvest()": "2491",
				"lastYieldUpdate()": "2515",
				"maxDeposit(address)": "731",
				"maxMint(address)": "774",
				"maxRedeem(address)": "2959",
				"maxWithdraw(address)": "infinite",
				"mint(uint256,address)": "infinite",
				"name()": "infinite",
				"owner()": "2583",
				"previewDeposit(uint256)": "infinite",
				"previewMint(uint256)": "infinite",
				"previewRedeem(uint256)": "infinite",
				"previewWithdraw(uint256)": "infinite",
				"redeem(uint256,address,address)": "infinite",
				"renounceOwnership()": "infinite",
				"setVault(address)": "infinite",
				"symbol()": "infinite",
				"totalAssets()": "infinite",
				"totalHarvested()": "2559",
				"totalSupply()": "2500",
				"transfer(address,uint256)": "infinite",
				"transferFrom(address,address,uint256)": "infinite",
				"transferOwnership(address)": "infinite",
				"vault()": "2618",
				"withdraw(uint256,address,address)": "infinite",
				"withdrawAll()": "infinite"
			}
		},
		"methodIdentifiers": {
			"accumulatedYield()": "fcdfd5c5",
			"allowance(address,address)": "dd62ed3e",
			"approve(address,uint256)": "095ea7b3",
			"asset()": "38d52e0f",
			"balanceOf()": "722713f7",
			"balanceOf(address)": "70a08231",
			"baseAPY()": "214405a9",
			"convertToAssets(uint256)": "07a2d13a",
			"convertToShares(uint256)": "c6e6f592",
			"decimals()": "313ce567",
			"deposit(uint256,address)": "6e553f65",
			"estimatedAPY()": "f19993d7",
			"harvest()": "4641257d",
			"lastHarvest()": "f1a392da",
			"lastYieldUpdate()": "8f8c8aee",
			"maxDeposit(address)": "402d267d",
			"maxMint(address)": "c63d75b6",
			"maxRedeem(address)": "d905777e",
			"maxWithdraw(address)": "ce96cb77",
			"mint(uint256,address)": "94bf804d",
			"name()": "06fdde03",
			"owner()": "8da5cb5b",
			"previewDeposit(uint256)": "ef8b30f7",
			"previewMint(uint256)": "b3d7f6b9",
			"previewRedeem(uint256)": "4cdad506",
			"previewWithdraw(uint256)": "0a28a477",
			"redeem(uint256,address,address)": "ba087652",
			"renounceOwnership()": "715018a6",
			"setVault(address)": "6817031b",
			"symbol()": "95d89b41",
			"totalAssets()": "01e1d114",
			"totalHarvested()": "23dc1142",
			"totalSupply()": "18160ddd",
			"transfer(address,uint256)": "a9059cbb",
			"transferFrom(address,address,uint256)": "23b872dd",
			"transferOwnership(address)": "f2fde38b",
			"vault()": "fbfa77cf",
			"withdraw(uint256,address,address)": "b460af94",
			"withdrawAll()": "853828b6"
		}
	},
	"abi": [
		{
			"inputs": [
				{
					"internalType": "contract IERC20",
					"name": "_asset",
					"type": "address"
				}
			],
			"stateMutability": "nonpayable",
			"type": "constructor"
		},
		{
			"inputs": [
				{
					"internalType": "address",
					"name": "spender",
					"type": "address"
				},
				{
					"internalType": "uint256",
					"name": "allowance",
					"type": "uint256"
				},
				{
					"internalType": "uint256",
					"name": "needed",
					"type": "uint256"
				}
			],
			"name": "ERC20InsufficientAllowance",
			"type": "error"
		},
		{
			"inputs": [
				{
					"internalType": "address",
					"name": "sender",
					"type": "address"
				},
				{
					"internalType": "uint256",
					"name": "balance",
					"type": "uint256"
				},
				{
					"internalType": "uint256",
					"name": "needed",
					"type": "uint256"
				}
			],
			"name": "ERC20InsufficientBalance",
			"type": "error"
		},
		{
			"inputs": [
				{
					"internalType": "address",
					"name": "approver",
					"type": "address"
				}
			],
			"name": "ERC20InvalidApprover",
			"type": "error"
		},
		{
			"inputs": [
				{
					"internalType": "address",
					"name": "receiver",
					"type": "address"
				}
			],
			"name": "ERC20InvalidReceiver",
			"type": "error"
		},
		{
			"inputs": [
				{
					"internalType": "address",
					"name": "sender",
					"type": "address"
				}
			],
			"name": "ERC20InvalidSender",
			"type": "error"
		},
		{
			"inputs": [
				{
					"internalType": "address",
					"name": "spender",
					"type": "address"
				}
			],
			"name": "ERC20InvalidSpender",
			"type": "error"
		},
		{
			"inputs": [
				{
					"internalType": "address",
					"name": "receiver",
					"type": "address"
				},
				{
					"internalType": "uint256",
					"name": "assets",
					"type": "uint256"
				},
				{
					"internalType": "uint256",
					"name": "max",
					"type": "uint256"
				}
			],
			"name": "ERC4626ExceededMaxDeposit",
			"type": "error"
		},
		{
			"inputs": [
				{
					"internalType": "address",
					"name": "receiver",
					"type": "address"
				},
				{
					"internalType": "uint256",
					"name": "shares",
					"type": "uint256"
				},
				{
					"internalType": "uint256",
					"name": "max",
					"type": "uint256"
				}
			],
			"name": "ERC4626ExceededMaxMint",
			"type": "error"
		},
		{
			"inputs": [
				{
					"internalType": "address",
					"name": "owner",
					"type": "address"
				},
				{
					"internalType": "uint256",
					"name": "shares",
					"type": "uint256"
				},
				{
					"internalType": "uint256",
					"name": "max",
					"type": "uint256"
				}
			],
			"name": "ERC4626ExceededMaxRedeem",
			"type": "error"
		},
		{
			"inputs": [
				{
					"internalType": "address",
					"name": "owner",
					"type": "address"
				},
				{
					"internalType": "uint256",
					"name": "assets",
					"type": "uint256"
				},
				{
					"internalType": "uint256",
					"name": "max",
					"type": "uint256"
				}
			],
			"name": "ERC4626ExceededMaxWithdraw",
			"type": "error"
		},
		{
			"inputs": [
				{
					"internalType": "address",
					"name": "owner",
					"type": "address"
				}
			],
			"name": "OwnableInvalidOwner",
			"type": "error"
		},
		{
			"inputs": [
				{
					"internalType": "address",
					"name": "account",
					"type": "address"
				}
			],
			"name": "OwnableUnauthorizedAccount",
			"type": "error"
		},
		{
			"inputs": [],
			"name": "ReentrancyGuardReentrantCall",
			"type": "error"
		},
		{
			"inputs": [
				{
					"internalType": "address",
					"name": "token",
					"type": "address"
				}
			],
			"name": "SafeERC20FailedOperation",
			"type": "error"
		},
		{
			"anonymous": false,
			"inputs": [
				{
					"indexed": true,
					"internalType": "address",
					"name": "owner",
					"type": "address"
				},
				{
					"indexed": true,
					"internalType": "address",
					"name": "spender",
					"type": "address"
				},
				{
					"indexed": false,
					"internalType": "uint256",
					"name": "value",
					"type": "uint256"
				}
			],
			"name": "Approval",
			"type": "event"
		},
		{
			"anonymous": false,
			"inputs": [
				{
					"indexed": true,
					"internalType": "address",
					"name": "sender",
					"type": "address"
				},
				{
					"indexed": true,
					"internalType": "address",
					"name": "owner",
					"type": "address"
				},
				{
					"indexed": false,
					"internalType": "uint256",
					"name": "assets",
					"type": "uint256"
				},
				{
					"indexed": false,
					"internalType": "uint256",
					"name": "shares",
					"type": "uint256"
				}
			],
			"name": "Deposit",
			"type": "event"
		},
		{
			"anonymous": false,
			"inputs": [
				{
					"indexed": false,
					"internalType": "uint256",
					"name": "amount",
					"type": "uint256"
				},
				{
					"indexed": false,
					"internalType": "uint256",
					"name": "timestamp",
					"type": "uint256"
				}
			],
			"name": "Harvested",
			"type": "event"
		},
		{
			"anonymous": false,
			"inputs": [
				{
					"indexed": true,
					"internalType": "address",
					"name": "previousOwner",
					"type": "address"
				},
				{
					"indexed": true,
					"internalType": "address",
					"name": "newOwner",
					"type": "address"
				}
			],
			"name": "OwnershipTransferred",
			"type": "event"
		},
		{
			"anonymous": false,
			"inputs": [
				{
					"indexed": true,
					"internalType": "address",
					"name": "from",
					"type": "address"
				},
				{
					"indexed": true,
					"internalType": "address",
					"name": "to",
					"type": "address"
				},
				{
					"indexed": false,
					"internalType": "uint256",
					"name": "value",
					"type": "uint256"
				}
			],
			"name": "Transfer",
			"type": "event"
		},
		{
			"anonymous": false,
			"inputs": [
				{
					"indexed": true,
					"internalType": "address",
					"name": "oldVault",
					"type": "address"
				},
				{
					"indexed": true,
					"internalType": "address",
					"name": "newVault",
					"type": "address"
				}
			],
			"name": "VaultUpdated",
			"type": "event"
		},
		{
			"anonymous": false,
			"inputs": [
				{
					"indexed": true,
					"internalType": "address",
					"name": "sender",
					"type": "address"
				},
				{
					"indexed": true,
					"internalType": "address",
					"name": "receiver",
					"type": "address"
				},
				{
					"indexed": true,
					"internalType": "address",
					"name": "owner",
					"type": "address"
				},
				{
					"indexed": false,
					"internalType": "uint256",
					"name": "assets",
					"type": "uint256"
				},
				{
					"indexed": false,
					"internalType": "uint256",
					"name": "shares",
					"type": "uint256"
				}
			],
			"name": "Withdraw",
			"type": "event"
		},
		{
			"anonymous": false,
			"inputs": [
				{
					"indexed": false,
					"internalType": "uint256",
					"name": "amount",
					"type": "uint256"
				}
			],
			"name": "YieldGenerated",
			"type": "event"
		},
		{
			"inputs": [],
			"name": "accumulatedYield",
			"outputs": [
				{
					"internalType": "uint256",
					"name": "",
					"type": "uint256"
				}
			],
			"stateMutability": "view",
			"type": "function"
		},
		{
			"inputs": [
				{
					"internalType": "address",
					"name": "owner",
					"type": "address"
				},
				{
					"internalType": "address",
					"name": "spender",
					"type": "address"
				}
			],
			"name": "allowance",
			"outputs": [
				{
					"internalType": "uint256",
					"name": "",
					"type": "uint256"
				}
			],
			"stateMutability": "view",
			"type": "function"
		},
		{
			"inputs": [
				{
					"internalType": "address",
					"name": "spender",
					"type": "address"
				},
				{
					"internalType": "uint256",
					"name": "value",
					"type": "uint256"
				}
			],
			"name": "approve",
			"outputs": [
				{
					"internalType": "bool",
					"name": "",
					"type": "bool"
				}
			],
			"stateMutability": "nonpayable",
			"type": "function"
		},
		{
			"inputs": [],
			"name": "asset",
			"outputs": [
				{
					"internalType": "address",
					"name": "",
					"type": "address"
				}
			],
			"stateMutability": "view",
			"type": "function"
		},
		{
			"inputs": [
				{
					"internalType": "address",
					"name": "account",
					"type": "address"
				}
			],
			"name": "balanceOf",
			"outputs": [
				{
					"internalType": "uint256",
					"name": "",
					"type": "uint256"
				}
			],
			"stateMutability": "view",
			"type": "function"
		},
		{
			"inputs": [],
			"name": "balanceOf",
			"outputs": [
				{
					"internalType": "uint256",
					"name": "",
					"type": "uint256"
				}
			],
			"stateMutability": "view",
			"type": "function"
		},
		{
			"inputs": [],
			"name": "baseAPY",
			"outputs": [
				{
					"internalType": "uint256",
					"name": "",
					"type": "uint256"
				}
			],
			"stateMutability": "view",
			"type": "function"
		},
		{
			"inputs": [
				{
					"internalType": "uint256",
					"name": "shares",
					"type": "uint256"
				}
			],
			"name": "convertToAssets",
			"outputs": [
				{
					"internalType": "uint256",
					"name": "",
					"type": "uint256"
				}
			],
			"stateMutability": "view",
			"type": "function"
		},
		{
			"inputs": [
				{
					"internalType": "uint256",
					"name": "assets",
					"type": "uint256"
				}
			],
			"name": "convertToShares",
			"outputs": [
				{
					"internalType": "uint256",
					"name": "",
					"type": "uint256"
				}
			],
			"stateMutability": "view",
			"type": "function"
		},
		{
			"inputs": [],
			"name": "decimals",
			"outputs": [
				{
					"internalType": "uint8",
					"name": "",
					"type": "uint8"
				}
			],
			"stateMutability": "view",
			"type": "function"
		},
		{
			"inputs": [
				{
					"internalType": "uint256",
					"name": "assets",
					"type": "uint256"
				},
				{
					"internalType": "address",
					"name": "receiver",
					"type": "address"
				}
			],
			"name": "deposit",
			"outputs": [
				{
					"internalType": "uint256",
					"name": "",
					"type": "uint256"
				}
			],
			"stateMutability": "nonpayable",
			"type": "function"
		},
		{
			"inputs": [],
			"name": "estimatedAPY",
			"outputs": [
				{
					"internalType": "uint256",
					"name": "",
					"type": "uint256"
				}
			],
			"stateMutability": "view",
			"type": "function"
		},
		{
			"inputs": [],
			"name": "harvest",
			"outputs": [
				{
					"internalType": "uint256",
					"name": "",
					"type": "uint256"
				}
			],
			"stateMutability": "nonpayable",
			"type": "function"
		},
		{
			"inputs": [],
			"name": "lastHarvest",
			"outputs": [
				{
					"internalType": "uint256",
					"name": "",
					"type": "uint256"
				}
			],
			"stateMutability": "view",
			"type": "function"
		},
		{
			"inputs": [],
			"name": "lastYieldUpdate",
			"outputs": [
				{
					"internalType": "uint256",
					"name": "",
					"type": "uint256"
				}
			],
			"stateMutability": "view",
			"type": "function"
		},
		{
			"inputs": [
				{
					"internalType": "address",
					"name": "",
					"type": "address"
				}
			],
			"name": "maxDeposit",
			"outputs": [
				{
					"internalType": "uint256",
					"name": "",
					"type": "uint256"
				}
			],
			"stateMutability": "view",
			"type": "function"
		},
		{
			"inputs": [
				{
					"internalType": "address",
					"name": "",
					"type": "address"
				}
			],
			"name": "maxMint",
			"outputs": [
				{
					"internalType": "uint256",
					"name": "",
					"type": "uint256"
				}
			],
			"stateMutability": "view",
			"type": "function"
		},
		{
			"inputs": [
				{
					"internalType": "address",
					"name": "owner",
					"type": "address"
				}
			],
			"name": "maxRedeem",
			"outputs": [
				{
					"internalType": "uint256",
					"name": "",
					"type": "uint256"
				}
			],
			"stateMutability": "view",
			"type": "function"
		},
		{
			"inputs": [
				{
					"internalType": "address",
					"name": "owner",
					"type": "address"
				}
			],
			"name": "maxWithdraw",
			"outputs": [
				{
					"internalType": "uint256",
					"name": "",
					"type": "uint256"
				}
			],
			"stateMutability": "view",
			"type": "function"
		},
		{
			"inputs": [
				{
					"internalType": "uint256",
					"name": "shares",
					"type": "uint256"
				},
				{
					"internalType": "address",
					"name": "receiver",
					"type": "address"
				}
			],
			"name": "mint",
			"outputs": [
				{
					"internalType": "uint256",
					"name": "",
					"type": "uint256"
				}
			],
			"stateMutability": "nonpayable",
			"type": "function"
		},
		{
			"inputs": [],
			"name": "name",
			"outputs": [
				{
					"internalType": "string",
					"name": "",
					"type": "string"
				}
			],
			"stateMutability": "view",
			"type": "function"
		},
		{
			"inputs": [],
			"name": "owner",
			"outputs": [
				{
					"internalType": "address",
					"name": "",
					"type": "address"
				}
			],
			"stateMutability": "view",
			"type": "function"
		},
		{
			"inputs": [
				{
					"internalType": "uint256",
					"name": "assets",
					"type": "uint256"
				}
			],
			"name": "previewDeposit",
			"outputs": [
				{
					"internalType": "uint256",
					"name": "",
					"type": "uint256"
				}
			],
			"stateMutability": "view",
			"type": "function"
		},
		{
			"inputs": [
				{
					"internalType": "uint256",
					"name": "shares",
					"type": "uint256"
				}
			],
			"name": "previewMint",
			"outputs": [
				{
					"internalType": "uint256",
					"name": "",
					"type": "uint256"
				}
			],
			"stateMutability": "view",
			"type": "function"
		},
		{
			"inputs": [
				{
					"internalType": "uint256",
					"name": "shares",
					"type": "uint256"
				}
			],
			"name": "previewRedeem",
			"outputs": [
				{
					"internalType": "uint256",
					"name": "",
					"type": "uint256"
				}
			],
			"stateMutability": "view",
			"type": "function"
		},
		{
			"inputs": [
				{
					"internalType": "uint256",
					"name": "assets",
					"type": "uint256"
				}
			],
			"name": "previewWithdraw",
			"outputs": [
				{
					"internalType": "uint256",
					"name": "",
					"type": "uint256"
				}
			],
			"stateMutability": "view",
			"type": "function"
		},
		{
			"inputs": [
				{
					"internalType": "uint256",
					"name": "shares",
					"type": "uint256"
				},
				{
					"internalType": "address",
					"name": "receiver",
					"type": "address"
				},
				{
					"internalType": "address",
					"name": "owner",
					"type": "address"
				}
			],
			"name": "redeem",
			"outputs": [
				{
					"internalType": "uint256",
					"name": "",
					"type": "uint256"
				}
			],
			"stateMutability": "nonpayable",
			"type": "function"
		},
		{
			"inputs": [],
			"name": "renounceOwnership",
			"outputs": [],
			"stateMutability": "nonpayable",
			"type": "function"
		},
		{
			"inputs": [
				{
					"internalType": "address",
					"name": "_vault",
					"type": "address"
				}
			],
			"name": "setVault",
			"outputs": [],
			"stateMutability": "nonpayable",
			"type": "function"
		},
		{
			"inputs": [],
			"name": "symbol",
			"outputs": [
				{
					"internalType": "string",
					"name": "",
					"type": "string"
				}
			],
			"stateMutability": "view",
			"type": "function"
		},
		{
			"inputs": [],
			"name": "totalAssets",
			"outputs": [
				{
					"internalType": "uint256",
					"name": "",
					"type": "uint256"
				}
			],
			"stateMutability": "view",
			"type": "function"
		},
		{
			"inputs": [],
			"name": "totalHarvested",
			"outputs": [
				{
					"internalType": "uint256",
					"name": "",
					"type": "uint256"
				}
			],
			"stateMutability": "view",
			"type": "function"
		},
		{
			"inputs": [],
			"name": "totalSupply",
			"outputs": [
				{
					"internalType": "uint256",
					"name": "",
					"type": "uint256"
				}
			],
			"stateMutability": "view",
			"type": "function"
		},
		{
			"inputs": [
				{
					"internalType": "address",
					"name": "to",
					"type": "address"
				},
				{
					"internalType": "uint256",
					"name": "value",
					"type": "uint256"
				}
			],
			"name": "transfer",
			"outputs": [
				{
					"internalType": "bool",
					"name": "",
					"type": "bool"
				}
			],
			"stateMutability": "nonpayable",
			"type": "function"
		},
		{
			"inputs": [
				{
					"internalType": "address",
					"name": "from",
					"type": "address"
				},
				{
					"internalType": "address",
					"name": "to",
					"type": "address"
				},
				{
					"internalType": "uint256",
					"name": "value",
					"type": "uint256"
				}
			],
			"name": "transferFrom",
			"outputs": [
				{
					"internalType": "bool",
					"name": "",
					"type": "bool"
				}
			],
			"stateMutability": "nonpayable",
			"type": "function"
		},
		{
			"inputs": [
				{
					"internalType": "address",
					"name": "newOwner",
					"type": "address"
				}
			],
			"name": "transferOwnership",
			"outputs": [],
			"stateMutability": "nonpayable",
			"type": "function"
		},
		{
			"inputs": [],
			"name": "vault",
			"outputs": [
				{
					"internalType": "address",
					"name": "",
					"type": "address"
				}
			],
			"stateMutability": "view",
			"type": "function"
		},
		{
			"inputs": [
				{
					"internalType": "uint256",
					"name": "assets",
					"type": "uint256"
				},
				{
					"internalType": "address",
					"name": "receiver",
					"type": "address"
				},
				{
					"internalType": "address",
					"name": "",
					"type": "address"
				}
			],
			"name": "withdraw",
			"outputs": [
				{
					"internalType": "uint256",
					"name": "",
					"type": "uint256"
				}
			],
			"stateMutability": "nonpayable",
			"type": "function"
		},
		{
			"inputs": [],
			"name": "withdrawAll",
			"outputs": [
				{
					"internalType": "uint256",
					"name": "",
					"type": "uint256"
				}
			],
			"stateMutability": "nonpayable",
			"type": "function"
		}
	]
}