{"abi":[{"type":"constructor","inputs":[{"name":"_asset","type":"address","internalType":"contract IERC20"}],"stateMutability":"nonpayable"},{"type":"function","name":"accumulatedYield","inputs":[],"outputs":[{"name":"","type":"uint256","internalType":"uint256"}],"stateMutability":"view"},{"type":"function","name":"allowance","inputs":[{"name":"owner","type":"address","internalType":"address"},{"name":"spender","type":"address","internalType":"address"}],"outputs":[{"name":"","type":"uint256","internalType":"uint256"}],"stateMutability":"view"},{"type":"function","name":"approve","inputs":[{"name":"spender","type":"address","internalType":"address"},{"name":"value","type":"uint256","internalType":"uint256"}],"outputs":[{"name":"","type":"bool","internalType":"bool"}],"stateMutability":"nonpayable"},{"type":"function","name":"asset","inputs":[],"outputs":[{"name":"","type":"address","internalType":"address"}],"stateMutability":"view"},{"type":"function","name":"balanceOf","inputs":[{"name":"account","type":"address","internalType":"address"}],"outputs":[{"name":"","type":"uint256","internalType":"uint256"}],"stateMutability":"view"},{"type":"function","name":"balanceOf","inputs":[],"outputs":[{"name":"","type":"uint256","internalType":"uint256"}],"stateMutability":"view"},{"type":"function","name":"baseAPY","inputs":[],"outputs":[{"name":"","type":"uint256","internalType":"uint256"}],"stateMutability":"view"},{"type":"function","name":"convertToAssets","inputs":[{"name":"shares","type":"uint256","internalType":"uint256"}],"outputs":[{"name":"","type":"uint256","internalType":"uint256"}],"stateMutability":"view"},{"type":"function","name":"convertToShares","inputs":[{"name":"assets","type":"uint256","internalType":"uint256"}],"outputs":[{"name":"","type":"uint256","internalType":"uint256"}],"stateMutability":"view"},{"type":"function","name":"decimals","inputs":[],"outputs":[{"name":"","type":"uint8","internalType":"uint8"}],"stateMutability":"view"},{"type":"function","name":"deposit","inputs":[{"name":"assets","type":"uint256","internalType":"uint256"},{"name":"receiver","type":"address","internalType":"address"}],"outputs":[{"name":"","type":"uint256","internalType":"uint256"}],"stateMutability":"nonpayable"},{"type":"function","name":"estimatedAPY","inputs":[],"outputs":[{"name":"","type":"uint256","internalType":"uint256"}],"stateMutability":"view"},{"type":"function","name":"harvest","inputs":[],"outputs":[{"name":"","type":"uint256","internalType":"uint256"}],"stateMutability":"nonpayable"},{"type":"function","name":"lastHarvest","inputs":[],"outputs":[{"name":"","type":"uint256","internalType":"uint256"}],"stateMutability":"view"},{"type":"function","name":"lastYieldUpdate","inputs":[],"outputs":[{"name":"","type":"uint256","internalType":"uint256"}],"stateMutability":"view"},{"type":"function","name":"maxDeposit","inputs":[{"name":"","type":"address","internalType":"address"}],"outputs":[{"name":"","type":"uint256","internalType":"uint256"}],"stateMutability":"view"},{"type":"function","name":"maxMint","inputs":[{"name":"","type":"address","internalType":"address"}],"outputs":[{"name":"","type":"uint256","internalType":"uint256"}],"stateMutability":"view"},{"type":"function","name":"maxRedeem","inputs":[{"name":"owner","type":"address","internalType":"address"}],"outputs":[{"name":"","type":"uint256","internalType":"uint256"}],"stateMutability":"view"},{"type":"function","name":"maxWithdraw","inputs":[{"name":"owner","type":"address","internalType":"address"}],"outputs":[{"name":"","type":"uint256","internalType":"uint256"}],"stateMutability":"view"},{"type":"function","name":"mint","inputs":[{"name":"shares","type":"uint256","internalType":"uint256"},{"name":"receiver","type":"address","internalType":"address"}],"outputs":[{"name":"","type":"uint256","internalType":"uint256"}],"stateMutability":"nonpayable"},{"type":"function","name":"name","inputs":[],"outputs":[{"name":"","type":"string","internalType":"string"}],"stateMutability":"view"},{"type":"function","name":"owner","inputs":[],"outputs":[{"name":"","type":"address","internalType":"address"}],"stateMutability":"view"},{"type":"function","name":"previewDeposit","inputs":[{"name":"assets","type":"uint256","internalType":"uint256"}],"outputs":[{"name":"","type":"uint256","internalType":"uint256"}],"stateMutability":"view"},{"type":"function","name":"previewMint","inputs":[{"name":"shares","type":"uint256","internalType":"uint256"}],"outputs":[{"name":"","type":"uint256","internalType":"uint256"}],"stateMutability":"view"},{"type":"function","name":"previewRedeem","inputs":[{"name":"shares","type":"uint256","internalType":"uint256"}],"outputs":[{"name":"","type":"uint256","internalType":"uint256"}],"stateMutability":"view"},{"type":"function","name":"previewWithdraw","inputs":[{"name":"assets","type":"uint256","internalType":"uint256"}],"outputs":[{"name":"","type":"uint256","internalType":"uint256"}],"stateMutability":"view"},{"type":"function","name":"redeem","inputs":[{"name":"shares","type":"uint256","internalType":"uint256"},{"name":"receiver","type":"address","internalType":"address"},{"name":"owner","type":"address","internalType":"address"}],"outputs":[{"name":"","type":"uint256","internalType":"uint256"}],"stateMutability":"nonpayable"},{"type":"function","name":"renounceOwnership","inputs":[],"outputs":[],"stateMutability":"nonpayable"},{"type":"function","name":"setVault","inputs":[{"name":"_vault","type":"address","internalType":"address"}],"outputs":[],"stateMutability":"nonpayable"},{"type":"function","name":"symbol","inputs":[],"outputs":[{"name":"","type":"string","internalType":"string"}],"stateMutability":"view"},{"type":"function","name":"totalAssets","inputs":[],"outputs":[{"name":"","type":"uint256","internalType":"uint256"}],"stateMutability":"view"},{"type":"function","name":"totalHarvested","inputs":[],"outputs":[{"name":"","type":"uint256","internalType":"uint256"}],"stateMutability":"view"},{"type":"function","name":"totalSupply","inputs":[],"outputs":[{"name":"","type":"uint256","internalType":"uint256"}],"stateMutability":"view"},{"type":"function","name":"transfer","inputs":[{"name":"to","type":"address","internalType":"address"},{"name":"value","type":"uint256","internalType":"uint256"}],"outputs":[{"name":"","type":"bool","internalType":"bool"}],"stateMutability":"nonpayable"},{"type":"function","name":"transferFrom","inputs":[{"name":"from","type":"address","internalType":"address"},{"name":"to","type":"address","internalType":"address"},{"name":"value","type":"uint256","internalType":"uint256"}],"outputs":[{"name":"","type":"bool","internalType":"bool"}],"stateMutability":"nonpayable"},{"type":"function","name":"transferOwnership","inputs":[{"name":"newOwner","type":"address","internalType":"address"}],"outputs":[],"stateMutability":"nonpayable"},{"type":"function","name":"vault","inputs":[],"outputs":[{"name":"","type":"address","internalType":"address"}],"stateMutability":"view"},{"type":"function","name":"withdraw","inputs":[{"name":"assets","type":"uint256","internalType":"uint256"},{"name":"receiver","type":"address","internalType":"address"},{"name":"","type":"address","internalType":"address"}],"outputs":[{"name":"","type":"uint256","internalType":"uint256"}],"stateMutability":"nonpayable"},{"type":"function","name":"withdrawAll","inputs":[],"outputs":[{"name":"","type":"uint256","internalType":"uint256"}],"stateMutability":"nonpayable"},{"type":"event","name":"Approval","inputs":[{"name":"owner","type":"address","indexed":true,"internalType":"address"},{"name":"spender","type":"address","indexed":true,"internalType":"address"},{"name":"value","type":"uint256","indexed":false,"internalType":"uint256"}],"anonymous":false},{"type":"event","name":"Deposit","inputs":[{"name":"sender","type":"address","indexed":true,"internalType":"address"},{"name":"owner","type":"address","indexed":true,"internalType":"address"},{"name":"assets","type":"uint256","indexed":false,"internalType":"uint256"},{"name":"shares","type":"uint256","indexed":false,"internalType":"uint256"}],"anonymous":false},{"type":"event","name":"Harvested","inputs":[{"name":"amount","type":"uint256","indexed":false,"internalType":"uint256"},{"name":"timestamp","type":"uint256","indexed":false,"internalType":"uint256"}],"anonymous":false},{"type":"event","name":"OwnershipTransferred","inputs":[{"name":"previousOwner","type":"address","indexed":true,"internalType":"address"},{"name":"newOwner","type":"address","indexed":true,"internalType":"address"}],"anonymous":false},{"type":"event","name":"Transfer","inputs":[{"name":"from","type":"address","indexed":true,"internalType":"address"},{"name":"to","type":"address","indexed":true,"internalType":"address"},{"name":"value","type":"uint256","indexed":false,"internalType":"uint256"}],"anonymous":false},{"type":"event","name":"VaultUpdated","inputs":[{"name":"oldVault","type":"address","indexed":true,"internalType":"address"},{"name":"newVault","type":"address","indexed":true,"internalType":"address"}],"anonymous":false},{"type":"event","name":"Withdraw","inputs":[{"name":"sender","type":"address","indexed":true,"internalType":"address"},{"name":"receiver","type":"address","indexed":true,"internalType":"address"},{"name":"owner","type":"address","indexed":true,"internalType":"address"},{"name":"assets","type":"uint256","indexed":false,"internalType":"uint256"},{"name":"shares","type":"uint256","indexed":false,"internalType":"uint256"}],"anonymous":false},{"type":"event","name":"YieldGenerated","inputs":[{"name":"amount","type":"uint256","indexed":false,"internalType":"uint256"}],"anonymous":false},{"type":"error","name":"ERC20InsufficientAllowance","inputs":[{"name":"spender","type":"address","internalType":"address"},{"name":"allowance","type":"uint256","internalType":"uint256"},{"name":"needed","type":"uint256","internalType":"uint256"}]},{"type":"error","name":"ERC20InsufficientBalance","inputs":[{"name":"sender","type":"address","internalType":"address"},{"name":"balance","type":"uint256","internalType":"uint256"},{"name":"needed","type":"uint256","internalType":"uint256"}]},{"type":"error","name":"ERC20InvalidApprover","inputs":[{"name":"approver","type":"address","internalType":"address"}]},{"type":"error","name":"ERC20InvalidReceiver","inputs":[{"name":"receiver","type":"address","internalType":"address"}]},{"type":"error","name":"ERC20InvalidSender","inputs":[{"name":"sender","type":"address","internalType":"address"}]},{"type":"error","name":"ERC20InvalidSpender","inputs":[{"name":"spender","type":"address","internalType":"address"}]},{"type":"error","name":"ERC4626ExceededMaxDeposit","inputs":[{"name":"receiver","type":"address","internalType":"address"},{"name":"assets","type":"uint256","internalType":"uint256"},{"name":"max","type":"uint256","internalType":"uint256"}]},{"type":"error","name":"ERC4626ExceededMaxMint","inputs":[{"name":"receiver","type":"address","internalType":"address"},{"name":"shares","type":"uint256","internalType":"uint256"},{"name":"max","type":"uint256","internalType":"uint256"}]},{"type":"error","name":"ERC4626ExceededMaxRedeem","inputs":[{"name":"owner","type":"address","internalType":"address"},{"name":"shares","type":"uint256","internalType":"uint256"},{"name":"max","type":"uint256","internalType":"uint256"}]},{"type":"error","name":"ERC4626ExceededMaxWithdraw","inputs":[{"name":"owner","type":"address","internalType":"address"},{"name":"assets","type":"uint256","internalType":"uint256"},{"name":"max","type":"uint256","internalType":"uint256"}]},{"type":"error","name":"OwnableInvalidOwner","inputs":[{"name":"owner","type":"address","internalType":"address"}]},{"type":"error","name":"OwnableUnauthorizedAccount","inputs":[{"name":"account","type":"address","internalType":"address"}]},{"type":"error","name":"ReentrancyGuardReentrantCall","inputs":[]},{"type":"error","name":"SafeERC20FailedOperation","inputs":[{"name":"token","type":"address","internalType":"address"}]}],"bytecode":{"object":"0x60c060405234801561000f575f5ffd5b5060405161382c38038061382c83398181016040528101906100319190610458565b806040518060400160405280601881526020017f4c6971756964697479205374726174656779205661756c7400000000000000008152506040518060400160405280600781526020017f6c705661756c74000000000000000000000000000000000000000000000000008152506104b03384848481600390816100b491906106c0565b5080600490816100c491906106c0565b5050505f5f6100d88361021d60201b60201c565b91509150816100e85760126100ea565b805b60ff1660a08160ff16815250508273ffffffffffffffffffffffffffffffffffffffff1660808173ffffffffffffffffffffffffffffffffffffffff16815250505050505f73ffffffffffffffffffffffffffffffffffffffff168173ffffffffffffffffffffffffffffffffffffffff160361019e575f6040517f1e4fbdf7000000000000000000000000000000000000000000000000000000008152600401610195919061079e565b60405180910390fd5b6101ad8161032660201b60201c565b5060016006819055505f811180156101c6575061c35081105b610205576040517f08c379a00000000000000000000000000000000000000000000000000000000081526004016101fc90610811565b60405180910390fd5b80600a8190555042600b8190555050505050506108ec565b5f5f5f5f8473ffffffffffffffffffffffffffffffffffffffff1660405160240160405160208183030381529060405263313ce56760e01b6020820180517bffffffffffffffffffffffffffffffffffffffffffffffffffffffff83818316178352505050506040516102909190610881565b5f60405180830381855afa9150503d805f81146102c8576040519150601f19603f3d011682016040523d82523d5f602084013e6102cd565b606091505b50915091508180156102e157506020815110155b15610318575f818060200190518101906102fb91906108c1565b905060ff801681116103165760018194509450505050610321565b505b5f5f9350935050505b915091565b5f60055f9054906101000a900473ffffffffffffffffffffffffffffffffffffffff1690508160055f6101000a81548173ffffffffffffffffffffffffffffffffffffffff021916908373ffffffffffffffffffffffffffffffffffffffff1602179055508173ffffffffffffffffffffffffffffffffffffffff168173ffffffffffffffffffffffffffffffffffffffff167f8be0079c531659141344cd1fd0a4f28419497f9722a3daafe3b4186f6b6457e060405160405180910390a35050565b5f5ffd5b5f73ffffffffffffffffffffffffffffffffffffffff82169050919050565b5f610416826103ed565b9050919050565b5f6104278261040c565b9050919050565b6104378161041d565b8114610441575f5ffd5b50565b5f815190506104528161042e565b92915050565b5f6020828403121561046d5761046c6103e9565b5b5f61047a84828501610444565b91505092915050565b5f81519050919050565b7f4e487b71000000000000000000000000000000000000000000000000000000005f52604160045260245ffd5b7f4e487b71000000000000000000000000000000000000000000000000000000005f52602260045260245ffd5b5f60028204905060018216806104fe57607f821691505b602082108103610511576105106104ba565b5b50919050565b5f819050815f5260205f209050919050565b5f6020601f8301049050919050565b5f82821b905092915050565b5f600883026105737fffffffffffffffffffffffffffffffffffffffffffffffffffffffffffffffff82610538565b61057d8683610538565b95508019841693508086168417925050509392505050565b5f819050919050565b5f819050919050565b5f6105c16105bc6105b784610595565b61059e565b610595565b9050919050565b5f819050919050565b6105da836105a7565b6105ee6105e6826105c8565b848454610544565b825550505050565b5f5f905090565b6106056105f6565b6106108184846105d1565b505050565b5b81811015610633576106285f826105fd565b600181019050610616565b5050565b601f8211156106785761064981610517565b61065284610529565b81016020851015610661578190505b61067561066d85610529565b830182610615565b50505b505050565b5f82821c905092915050565b5f6106985f198460080261067d565b1980831691505092915050565b5f6106b08383610689565b9150826002028217905092915050565b6106c982610483565b67ffffffffffffffff8111156106e2576106e161048d565b5b6106ec82546104e7565b6106f7828285610637565b5f60209050601f831160018114610728575f8415610716578287015190505b61072085826106a5565b865550610787565b601f19841661073686610517565b5f5b8281101561075d57848901518255600182019150602085019450602081019050610738565b8683101561077a5784890151610776601f891682610689565b8355505b6001600288020188555050505b505050505050565b6107988161040c565b82525050565b5f6020820190506107b15f83018461078f565b92915050565b5f82825260208201905092915050565b7f4261736553747261746567793a20496e76616c696420415059000000000000005f82015250565b5f6107fb6019836107b7565b9150610806826107c7565b602082019050919050565b5f6020820190508181035f830152610828816107ef565b9050919050565b5f81519050919050565b5f81905092915050565b8281835e5f83830152505050565b5f61085b8261082f565b6108658185610839565b9350610875818560208601610843565b80840191505092915050565b5f61088c8284610851565b915081905092915050565b6108a081610595565b81146108aa575f5ffd5b50565b5f815190506108bb81610897565b92915050565b5f602082840312156108d6576108d56103e9565b5b5f6108e3848285016108ad565b91505092915050565b60805160a051612f1f61090d5f395f610a9601525f610ac70152612f1f5ff3fe608060405234801561000f575f5ffd5b506004361061023b575f3560e01c8063853828b611610139578063c6e6f592116100b6578063f19993d71161007a578063f19993d71461077b578063f1a392da14610799578063f2fde38b146107b7578063fbfa77cf146107d3578063fcdfd5c5146107f15761023b565b8063c6e6f5921461068b578063ce96cb77146106bb578063d905777e146106eb578063dd62ed3e1461071b578063ef8b30f71461074b5761023b565b8063a9059cbb116100fd578063a9059cbb1461059b578063b3d7f6b9146105cb578063b460af94146105fb578063ba0876521461062b578063c63d75b61461065b5761023b565b8063853828b6146104f35780638da5cb5b146105115780638f8c8aee1461052f57806394bf804d1461054d57806395d89b411461057d5761023b565b8063313ce567116101c75780636817031b1161018b5780636817031b1461044f5780636e553f651461046b57806370a082311461049b578063715018a6146104cb578063722713f7146104d55761023b565b8063313ce5671461039557806338d52e0f146103b3578063402d267d146103d15780634641257d146104015780634cdad5061461041f5761023b565b80630a28a4771161020e5780630a28a477146102db57806318160ddd1461030b578063214405a91461032957806323b872dd1461034757806323dc1142146103775761023b565b806301e1d1141461023f57806306fdde031461025d57806307a2d13a1461027b578063095ea7b3146102ab575b5f5ffd5b61024761080f565b60405161025491906124fd565b60405180910390f35b610265610971565b6040516102729190612586565b60405180910390f35b610295600480360381019061029091906125d4565b610a01565b6040516102a291906124fd565b60405180910390f35b6102c560048036038101906102c09190612659565b610a13565b6040516102d291906126b1565b60405180910390f35b6102f560048036038101906102f091906125d4565b610a35565b60405161030291906124fd565b60405180910390f35b610313610a48565b60405161032091906124fd565b60405180910390f35b610331610a51565b60405161033e91906124fd565b60405180910390f35b610361600480360381019061035c91906126ca565b610a57565b60405161036e91906126b1565b60405180910390f35b61037f610a85565b60405161038c91906124fd565b60405180910390f35b61039d610a8b565b6040516103aa9190612735565b60405180910390f35b6103bb610ac4565b6040516103c8919061275d565b60405180910390f35b6103eb60048036038101906103e69190612776565b610aeb565b6040516103f891906124fd565b60405180910390f35b610409610b14565b60405161041691906124fd565b60405180910390f35b610439600480360381019061043491906125d4565b610c31565b60405161044691906124fd565b60405180910390f35b61046960048036038101906104649190612776565b610c43565b005b610485600480360381019061048091906127a1565b610d7c565b60405161049291906124fd565b60405180910390f35b6104b560048036038101906104b09190612776565b610e36565b6040516104c291906124fd565b60405180910390f35b6104d3610e7b565b005b6104dd610e8e565b6040516104ea91906124fd565b60405180910390f35b6104fb610e9c565b60405161050891906124fd565b60405180910390f35b610519611029565b604051610526919061275d565b60405180910390f35b610537611051565b60405161054491906124fd565b60405180910390f35b610567600480360381019061056291906127a1565b611057565b60405161057491906124fd565b60405180910390f35b6105856110d7565b6040516105929190612586565b60405180910390f35b6105b560048036038101906105b09190612659565b611167565b6040516105c291906126b1565b60405180910390f35b6105e560048036038101906105e091906125d4565b611189565b6040516105f291906124fd565b60405180910390f35b610615600480360381019061061091906127df565b61119c565b60405161062291906124fd565b60405180910390f35b610645600480360381019061064091906127df565b61131f565b60405161065291906124fd565b60405180910390f35b61067560048036038101906106709190612776565b6113a1565b60405161068291906124fd565b60405180910390f35b6106a560048036038101906106a091906125d4565b6113ca565b6040516106b291906124fd565b60405180910390f35b6106d560048036038101906106d09190612776565b6113dc565b6040516106e291906124fd565b60405180910390f35b61070560048036038101906107009190612776565b6113f6565b60405161071291906124fd565b60405180910390f35b6107356004803603810190610730919061282f565b611407565b60405161074291906124fd565b60405180910390f35b610765600480360381019061076091906125d4565b611489565b60405161077291906124fd565b60405180910390f35b61078361149b565b60405161079091906124fd565b60405180910390f35b6107a1611509565b6040516107ae91906124fd565b60405180910390f35b6107d160048036038101906107cc9190612776565b61150f565b005b6107db611593565b6040516107e8919061275d565b60405180910390f35b6107f96115b8565b60405161080691906124fd565b60405180910390f35b5f5f610819610ac4565b73ffffffffffffffffffffffffffffffffffffffff166370a08231306040518263ffffffff1660e01b8152600401610851919061275d565b602060405180830381865afa15801561086c573d5f5f3e3d5ffd5b505050506040513d601f19601f820116820180604052508101906108909190612881565b90505f600b54426108a191906128d9565b90505f5f90505f821180156108b557505f83115b15610950575f64496cebb80083600a54866108d0919061290c565b6108da919061290c565b6108e4919061297a565b90505f4244306040516020016108fc93929190612a0f565b604051602081830303815290604052805190602001205f1c90505f605a6028836109269190612a4b565b6109309190612a7b565b905060648184610940919061290c565b61094a919061297a565b93505050505b80600c548461095f9190612a7b565b6109699190612a7b565b935050505090565b60606003805461098090612adb565b80601f01602080910402602001604051908101604052809291908181526020018280546109ac90612adb565b80156109f75780601f106109ce576101008083540402835291602001916109f7565b820191905f5260205f20905b8154815290600101906020018083116109da57829003601f168201915b5050505050905090565b5f610a0c825f6115be565b9050919050565b5f5f610a1d611616565b9050610a2a81858561161d565b600191505092915050565b5f610a4182600161162f565b9050919050565b5f600254905090565b600a5481565b5f5f610a61611616565b9050610a6e858285611687565b610a7985858561171a565b60019150509392505050565b60095481565b5f610a9461180a565b7f0000000000000000000000000000000000000000000000000000000000000000610abf9190612b0b565b905090565b5f7f0000000000000000000000000000000000000000000000000000000000000000905090565b5f7fffffffffffffffffffffffffffffffffffffffffffffffffffffffffffffffff9050919050565b5f60075f9054906101000a900473ffffffffffffffffffffffffffffffffffffffff1673ffffffffffffffffffffffffffffffffffffffff163373ffffffffffffffffffffffffffffffffffffffff1614610ba4576040517f08c379a0000000000000000000000000000000000000000000000000000000008152600401610b9b90612baf565b60405180910390fd5b610bac611811565b610bb4611857565b5f600c5490505f811115610c22578060095f828254610bd39190612a7b565b925050819055505f600c81905550426008819055507ffa07446fad45314351eb89109a154880278451332bb87f1824d435fe58da59398142604051610c19929190612bcd565b60405180910390a15b80915050610c2e61197a565b90565b5f610c3c825f6115be565b9050919050565b610c4b611984565b5f73ffffffffffffffffffffffffffffffffffffffff168173ffffffffffffffffffffffffffffffffffffffff1603610cb9576040517f08c379a0000000000000000000000000000000000000000000000000000000008152600401610cb090612c64565b60405180910390fd5b5f60075f9054906101000a900473ffffffffffffffffffffffffffffffffffffffff1690508160075f6101000a81548173ffffffffffffffffffffffffffffffffffffffff021916908373ffffffffffffffffffffffffffffffffffffffff1602179055508173ffffffffffffffffffffffffffffffffffffffff168173ffffffffffffffffffffffffffffffffffffffff167f483bdedaaf23706a9800ac1af0d852b34927780d79f9d6ba60a80c7cad75ea3960405160405180910390a35050565b5f60075f9054906101000a900473ffffffffffffffffffffffffffffffffffffffff1673ffffffffffffffffffffffffffffffffffffffff163373ffffffffffffffffffffffffffffffffffffffff1614610e0c576040517f08c379a0000000000000000000000000000000000000000000000000000000008152600401610e0390612baf565b60405180910390fd5b610e14611811565b610e1c611857565b610e268383611a0b565b9050610e3061197a565b92915050565b5f5f5f8373ffffffffffffffffffffffffffffffffffffffff1673ffffffffffffffffffffffffffffffffffffffff1681526020019081526020015f20549050919050565b610e83611984565b610e8c5f611a8b565b565b5f610e9761080f565b905090565b5f60075f9054906101000a900473ffffffffffffffffffffffffffffffffffffffff1673ffffffffffffffffffffffffffffffffffffffff163373ffffffffffffffffffffffffffffffffffffffff1614610f2c576040517f08c379a0000000000000000000000000000000000000000000000000000000008152600401610f2390612baf565b60405180910390fd5b610f34611811565b610f3c611857565b5f610f45610ac4565b73ffffffffffffffffffffffffffffffffffffffff166370a08231306040518263ffffffff1660e01b8152600401610f7d919061275d565b602060405180830381865afa158015610f98573d5f5f3e3d5ffd5b505050506040513d601f19601f82011682018060405250810190610fbc9190612881565b90505f81111561101a5761101960075f9054906101000a900473ffffffffffffffffffffffffffffffffffffffff1682610ff4610ac4565b73ffffffffffffffffffffffffffffffffffffffff16611b4e9092919063ffffffff16565b5b8091505061102661197a565b90565b5f60055f9054906101000a900473ffffffffffffffffffffffffffffffffffffffff16905090565b600b5481565b5f5f611062836113a1565b9050808411156110ad578284826040517f284ff6670000000000000000000000000000000000000000000000000000000081526004016110a493929190612c82565b60405180910390fd5b5f6110b785611189565b90506110cc6110c4611616565b858388611bcd565b809250505092915050565b6060600480546110e690612adb565b80601f016020809104026020016040519081016040528092919081815260200182805461111290612adb565b801561115d5780601f106111345761010080835404028352916020019161115d565b820191905f5260205f20905b81548152906001019060200180831161114057829003601f168201915b5050505050905090565b5f5f611171611616565b905061117e81858561171a565b600191505092915050565b5f6111958260016115be565b9050919050565b5f60075f9054906101000a900473ffffffffffffffffffffffffffffffffffffffff1673ffffffffffffffffffffffffffffffffffffffff163373ffffffffffffffffffffffffffffffffffffffff161461122c576040517f08c379a000000000000000000000000000000000000000000000000000000000815260040161122390612baf565b60405180910390fd5b611234611811565b61123c611857565b5f611245610ac4565b73ffffffffffffffffffffffffffffffffffffffff166370a08231306040518263ffffffff1660e01b815260040161127d919061275d565b602060405180830381865afa158015611298573d5f5f3e3d5ffd5b505050506040513d601f19601f820116820180604052508101906112bc9190612881565b90505f8186116112cc57856112ce565b815b90505f81111561130b5761130a85826112e5610ac4565b73ffffffffffffffffffffffffffffffffffffffff16611b4e9092919063ffffffff16565b5b809250505061131861197a565b9392505050565b5f5f61132a836113f6565b905080851115611375578285826040517fb94abeec00000000000000000000000000000000000000000000000000000000815260040161136c93929190612c82565b60405180910390fd5b5f61137f86610c31565b905061139561138c611616565b8686848a611c57565b80925050509392505050565b5f7fffffffffffffffffffffffffffffffffffffffffffffffffffffffffffffffff9050919050565b5f6113d5825f61162f565b9050919050565b5f6113ef6113e983610e36565b5f6115be565b9050919050565b5f61140082610e36565b9050919050565b5f60015f8473ffffffffffffffffffffffffffffffffffffffff1673ffffffffffffffffffffffffffffffffffffffff1681526020019081526020015f205f8373ffffffffffffffffffffffffffffffffffffffff1673ffffffffffffffffffffffffffffffffffffffff1681526020019081526020015f2054905092915050565b5f611494825f61162f565b9050919050565b5f5f4244306040516020016114b293929190612a0f565b604051602081830303815290604052805190602001205f1c90505f605a6014836114dc9190612a4b565b6114e69190612a7b565b9050606481600a546114f8919061290c565b611502919061297a565b9250505090565b60085481565b611517611984565b5f73ffffffffffffffffffffffffffffffffffffffff168173ffffffffffffffffffffffffffffffffffffffff1603611587575f6040517f1e4fbdf700000000000000000000000000000000000000000000000000000000815260040161157e919061275d565b60405180910390fd5b61159081611a8b565b50565b60075f9054906101000a900473ffffffffffffffffffffffffffffffffffffffff1681565b600c5481565b5f61160e60016115cc61080f565b6115d69190612a7b565b6115de61180a565b600a6115ea9190612de6565b6115f2610a48565b6115fc9190612a7b565b8486611d37909392919063ffffffff16565b905092915050565b5f33905090565b61162a8383836001611d84565b505050565b5f61167f61163b61180a565b600a6116479190612de6565b61164f610a48565b6116599190612a7b565b600161166361080f565b61166d9190612a7b565b8486611d37909392919063ffffffff16565b905092915050565b5f6116928484611407565b90507fffffffffffffffffffffffffffffffffffffffffffffffffffffffffffffffff8110156117145781811015611705578281836040517ffb8f41b20000000000000000000000000000000000000000000000000000000081526004016116fc93929190612c82565b60405180910390fd5b61171384848484035f611d84565b5b50505050565b5f73ffffffffffffffffffffffffffffffffffffffff168373ffffffffffffffffffffffffffffffffffffffff160361178a575f6040517f96c6fd1e000000000000000000000000000000000000000000000000000000008152600401611781919061275d565b60405180910390fd5b5f73ffffffffffffffffffffffffffffffffffffffff168273ffffffffffffffffffffffffffffffffffffffff16036117fa575f6040517fec442f050000000000000000000000000000000000000000000000000000000081526004016117f1919061275d565b60405180910390fd5b611805838383611f53565b505050565b5f5f905090565b60026006540361184d576040517f3ee5aeb500000000000000000000000000000000000000000000000000000000815260040160405180910390fd5b6002600681905550565b5f600b544261186691906128d9565b90505f8111801561187d57505f61187b61080f565b115b15611977575f64496cebb80082600a5461189561080f565b61189f919061290c565b6118a9919061290c565b6118b3919061297a565b90505f4244306040516020016118cb93929190612a0f565b604051602081830303815290604052805190602001205f1c90505f605a6028836118f59190612a4b565b6118ff9190612a7b565b90505f60648285611910919061290c565b61191a919061297a565b905080600c5f82825461192d9190612a7b565b9250508190555042600b819055507fba940f7e525c0c7e2b83c7fbf8f07b95c7da51604106be88403040d914a6979b8160405161196a91906124fd565b60405180910390a1505050505b50565b6001600681905550565b61198c611616565b73ffffffffffffffffffffffffffffffffffffffff166119aa611029565b73ffffffffffffffffffffffffffffffffffffffff1614611a09576119cd611616565b6040517f118cdaa7000000000000000000000000000000000000000000000000000000008152600401611a00919061275d565b60405180910390fd5b565b5f5f611a1683610aeb565b905080841115611a61578284826040517f79012fb2000000000000000000000000000000000000000000000000000000008152600401611a5893929190612c82565b60405180910390fd5b5f611a6b85611489565b9050611a80611a78611616565b858784611bcd565b809250505092915050565b5f60055f9054906101000a900473ffffffffffffffffffffffffffffffffffffffff1690508160055f6101000a81548173ffffffffffffffffffffffffffffffffffffffff021916908373ffffffffffffffffffffffffffffffffffffffff1602179055508173ffffffffffffffffffffffffffffffffffffffff168173ffffffffffffffffffffffffffffffffffffffff167f8be0079c531659141344cd1fd0a4f28419497f9722a3daafe3b4186f6b6457e060405160405180910390a35050565b611bc8838473ffffffffffffffffffffffffffffffffffffffff1663a9059cbb8585604051602401611b81929190612e30565b604051602081830303815290604052915060e01b6020820180517bffffffffffffffffffffffffffffffffffffffffffffffffffffffff838183161783525050505061216c565b505050565b611be0611bd8610ac4565b853085612207565b611bea8382612289565b8273ffffffffffffffffffffffffffffffffffffffff168473ffffffffffffffffffffffffffffffffffffffff167fdcbc1c05240f31ff3ad067ef1ee35ce4997762752e3a095284754544f4c709d78484604051611c49929190612bcd565b60405180910390a350505050565b8273ffffffffffffffffffffffffffffffffffffffff168573ffffffffffffffffffffffffffffffffffffffff1614611c9657611c95838683611687565b5b611ca08382612308565b611cb2611cab610ac4565b8584611b4e565b8273ffffffffffffffffffffffffffffffffffffffff168473ffffffffffffffffffffffffffffffffffffffff168673ffffffffffffffffffffffffffffffffffffffff167ffbde797d201c681b91056529119e0b02407c7bb96a4a2c75c01fc9667232c8db8585604051611d28929190612bcd565b60405180910390a45050505050565b5f611d65611d4483612387565b8015611d6057505f8480611d5b57611d5a61294d565b5b868809115b6123b4565b611d708686866123bf565b611d7a9190612a7b565b9050949350505050565b5f73ffffffffffffffffffffffffffffffffffffffff168473ffffffffffffffffffffffffffffffffffffffff1603611df4575f6040517fe602df05000000000000000000000000000000000000000000000000000000008152600401611deb919061275d565b60405180910390fd5b5f73ffffffffffffffffffffffffffffffffffffffff168373ffffffffffffffffffffffffffffffffffffffff1603611e64575f6040517f94280d62000000000000000000000000000000000000000000000000000000008152600401611e5b919061275d565b60405180910390fd5b8160015f8673ffffffffffffffffffffffffffffffffffffffff1673ffffffffffffffffffffffffffffffffffffffff1681526020019081526020015f205f8573ffffffffffffffffffffffffffffffffffffffff1673ffffffffffffffffffffffffffffffffffffffff1681526020019081526020015f20819055508015611f4d578273ffffffffffffffffffffffffffffffffffffffff168473ffffffffffffffffffffffffffffffffffffffff167f8c5be1e5ebec7d5bd14f71427d1e84f3dd0314c0f7b2291e5b200ac8c7c3b92584604051611f4491906124fd565b60405180910390a35b50505050565b5f73ffffffffffffffffffffffffffffffffffffffff168373ffffffffffffffffffffffffffffffffffffffff1603611fa3578060025f828254611f979190612a7b565b92505081905550612071565b5f5f5f8573ffffffffffffffffffffffffffffffffffffffff1673ffffffffffffffffffffffffffffffffffffffff1681526020019081526020015f205490508181101561202c578381836040517fe450d38c00000000000000000000000000000000000000000000000000000000815260040161202393929190612c82565b60405180910390fd5b8181035f5f8673ffffffffffffffffffffffffffffffffffffffff1673ffffffffffffffffffffffffffffffffffffffff1681526020019081526020015f2081905550505b5f73ffffffffffffffffffffffffffffffffffffffff168273ffffffffffffffffffffffffffffffffffffffff16036120b8578060025f8282540392505081905550612102565b805f5f8473ffffffffffffffffffffffffffffffffffffffff1673ffffffffffffffffffffffffffffffffffffffff1681526020019081526020015f205f82825401925050819055505b8173ffffffffffffffffffffffffffffffffffffffff168373ffffffffffffffffffffffffffffffffffffffff167fddf252ad1be2c89b69c2b068fc378daa952ba7f163c4a11628f55a4df523b3ef8360405161215f91906124fd565b60405180910390a3505050565b5f5f60205f8451602086015f885af18061218b576040513d5f823e3d81fd5b3d92505f519150505f82146121a45760018114156121bf565b5f8473ffffffffffffffffffffffffffffffffffffffff163b145b1561220157836040517f5274afe70000000000000000000000000000000000000000000000000000000081526004016121f8919061275d565b60405180910390fd5b50505050565b612283848573ffffffffffffffffffffffffffffffffffffffff166323b872dd86868660405160240161223c93929190612e57565b604051602081830303815290604052915060e01b6020820180517bffffffffffffffffffffffffffffffffffffffffffffffffffffffff838183161783525050505061216c565b50505050565b5f73ffffffffffffffffffffffffffffffffffffffff168273ffffffffffffffffffffffffffffffffffffffff16036122f9575f6040517fec442f050000000000000000000000000000000000000000000000000000000081526004016122f0919061275d565b60405180910390fd5b6123045f8383611f53565b5050565b5f73ffffffffffffffffffffffffffffffffffffffff168273ffffffffffffffffffffffffffffffffffffffff1603612378575f6040517f96c6fd1e00000000000000000000000000000000000000000000000000000000815260040161236f919061275d565b60405180910390fd5b612383825f83611f53565b5050565b5f6001600283600381111561239f5761239e612e8c565b5b6123a99190612eb9565b60ff16149050919050565b5f8115159050919050565b5f5f5f6123cc868661249e565b915091505f82036123f1578381816123e7576123e661294d565b5b0492505050612497565b8184116124105761240f61240a5f8614601260116124bb565b6124d4565b5b5f8486880990508181118303925080820391505f855f038616905080860495508083049250600181825f0304019050808402831792505f600287600302189050808702600203810290508087026002038102905080870260020381029050808702600203810290508087026002038102905080870260020381029050808402955050505050505b9392505050565b5f5f5f198385098385029150818110828203039250509250929050565b5f6124c5846123b4565b82841802821890509392505050565b634e487b715f52806020526024601cfd5b5f819050919050565b6124f7816124e5565b82525050565b5f6020820190506125105f8301846124ee565b92915050565b5f81519050919050565b5f82825260208201905092915050565b8281835e5f83830152505050565b5f601f19601f8301169050919050565b5f61255882612516565b6125628185612520565b9350612572818560208601612530565b61257b8161253e565b840191505092915050565b5f6020820190508181035f83015261259e818461254e565b905092915050565b5f5ffd5b6125b3816124e5565b81146125bd575f5ffd5b50565b5f813590506125ce816125aa565b92915050565b5f602082840312156125e9576125e86125a6565b5b5f6125f6848285016125c0565b91505092915050565b5f73ffffffffffffffffffffffffffffffffffffffff82169050919050565b5f612628826125ff565b9050919050565b6126388161261e565b8114612642575f5ffd5b50565b5f813590506126538161262f565b92915050565b5f5f6040838503121561266f5761266e6125a6565b5b5f61267c85828601612645565b925050602061268d858286016125c0565b9150509250929050565b5f8115159050919050565b6126ab81612697565b82525050565b5f6020820190506126c45f8301846126a2565b92915050565b5f5f5f606084860312156126e1576126e06125a6565b5b5f6126ee86828701612645565b93505060206126ff86828701612645565b9250506040612710868287016125c0565b9150509250925092565b5f60ff82169050919050565b61272f8161271a565b82525050565b5f6020820190506127485f830184612726565b92915050565b6127578161261e565b82525050565b5f6020820190506127705f83018461274e565b92915050565b5f6020828403121561278b5761278a6125a6565b5b5f61279884828501612645565b91505092915050565b5f5f604083850312156127b7576127b66125a6565b5b5f6127c4858286016125c0565b92505060206127d585828601612645565b9150509250929050565b5f5f5f606084860312156127f6576127f56125a6565b5b5f612803868287016125c0565b935050602061281486828701612645565b925050604061282586828701612645565b9150509250925092565b5f5f60408385031215612845576128446125a6565b5b5f61285285828601612645565b925050602061286385828601612645565b9150509250929050565b5f8151905061287b816125aa565b92915050565b5f60208284031215612896576128956125a6565b5b5f6128a38482850161286d565b91505092915050565b7f4e487b71000000000000000000000000000000000000000000000000000000005f52601160045260245ffd5b5f6128e3826124e5565b91506128ee836124e5565b9250828203905081811115612906576129056128ac565b5b92915050565b5f612916826124e5565b9150612921836124e5565b925082820261292f816124e5565b91508282048414831517612946576129456128ac565b5b5092915050565b7f4e487b71000000000000000000000000000000000000000000000000000000005f52601260045260245ffd5b5f612984826124e5565b915061298f836124e5565b92508261299f5761299e61294d565b5b828204905092915050565b5f819050919050565b6129c46129bf826124e5565b6129aa565b82525050565b5f8160601b9050919050565b5f6129e0826129ca565b9050919050565b5f6129f1826129d6565b9050919050565b612a09612a048261261e565b6129e7565b82525050565b5f612a1a82866129b3565b602082019150612a2a82856129b3565b602082019150612a3a82846129f8565b601482019150819050949350505050565b5f612a55826124e5565b9150612a60836124e5565b925082612a7057612a6f61294d565b5b828206905092915050565b5f612a85826124e5565b9150612a90836124e5565b9250828201905080821115612aa857612aa76128ac565b5b92915050565b7f4e487b71000000000000000000000000000000000000000000000000000000005f52602260045260245ffd5b5f6002820490506001821680612af257607f821691505b602082108103612b0557612b04612aae565b5b50919050565b5f612b158261271a565b9150612b208361271a565b9250828201905060ff811115612b3957612b386128ac565b5b92915050565b7f4261736553747261746567793a204f6e6c79207661756c742063616e2063616c5f8201527f6c00000000000000000000000000000000000000000000000000000000000000602082015250565b5f612b99602183612520565b9150612ba482612b3f565b604082019050919050565b5f6020820190508181035f830152612bc681612b8d565b9050919050565b5f604082019050612be05f8301856124ee565b612bed60208301846124ee565b9392505050565b7f4261736553747261746567793a20496e76616c6964207661756c7420616464725f8201527f6573730000000000000000000000000000000000000000000000000000000000602082015250565b5f612c4e602383612520565b9150612c5982612bf4565b604082019050919050565b5f6020820190508181035f830152612c7b81612c42565b9050919050565b5f606082019050612c955f83018661274e565b612ca260208301856124ee565b612caf60408301846124ee565b949350505050565b5f8160011c9050919050565b5f5f8291508390505b6001851115612d0c57808604811115612ce857612ce76128ac565b5b6001851615612cf75780820291505b8081029050612d0585612cb7565b9450612ccc565b94509492505050565b5f82612d245760019050612ddf565b81612d31575f9050612ddf565b8160018114612d475760028114612d5157612d80565b6001915050612ddf565b60ff841115612d6357612d626128ac565b5b8360020a915084821115612d7a57612d796128ac565b5b50612ddf565b5060208310610133831016604e8410600b8410161715612db55782820a905083811115612db057612daf6128ac565b5b612ddf565b612dc28484846001612cc3565b92509050818404811115612dd957612dd86128ac565b5b81810290505b9392505050565b5f612df0826124e5565b9150612dfb8361271a565b9250612e287fffffffffffffffffffffffffffffffffffffffffffffffffffffffffffffffff8484612d15565b905092915050565b5f604082019050612e435f83018561274e565b612e5060208301846124ee565b9392505050565b5f606082019050612e6a5f83018661274e565b612e77602083018561274e565b612e8460408301846124ee565b949350505050565b7f4e487b71000000000000000000000000000000000000000000000000000000005f52602160045260245ffd5b5f612ec38261271a565b9150612ece8361271a565b925082612ede57612edd61294d565b5b82820690509291505056fea2646970667358221220264b41bad980e2da08e338e8d37b4e4acbce2e4a780a30cab2f810de8bed667f64736f6c634300081e0033","linkReferences":{}},"methodIdentifiers":{"accumulatedYield()":"fcdfd5c5","allowance(address,address)":"dd62ed3e","approve(address,uint256)":"095ea7b3","asset()":"38d52e0f","balanceOf()":"722713f7","balanceOf(address)":"70a08231","baseAPY()":"214405a9","convertToAssets(uint256)":"07a2d13a","convertToShares(uint256)":"c6e6f592","decimals()":"313ce567","deposit(uint256,address)":"6e553f65","estimatedAPY()":"f19993d7","harvest()":"4641257d","lastHarvest()":"f1a392da","lastYieldUpdate()":"8f8c8aee","maxDeposit(address)":"402d267d","maxMint(address)":"c63d75b6","maxRedeem(address)":"d905777e","maxWithdraw(address)":"ce96cb77","mint(uint256,address)":"94bf804d","name()":"06fdde03","owner()":"8da5cb5b","previewDeposit(uint256)":"ef8b30f7","previewMint(uint256)":"b3d7f6b9","previewRedeem(uint256)":"4cdad506","previewWithdraw(uint256)":"0a28a477","redeem(uint256,address,address)":"ba087652","renounceOwnership()":"715018a6","setVault(address)":"6817031b","symbol()":"95d89b41","totalAssets()":"01e1d114","totalHarvested()":"23dc1142","totalSupply()":"18160ddd","transfer(address,uint256)":"a9059cbb","transferFrom(address,address,uint256)":"23b872dd","transferOwnership(address)":"f2fde38b","vault()":"fbfa77cf","withdraw(uint256,address,address)":"b460af94","withdrawAll()":"853828b6"},"id":50}